{
  "contractName": "ThetaboardSellNft",
  "abi": [
    {
      "inputs": [
        {
          "internalType": "address",
          "name": "_nftAddress",
          "type": "address"
        },
        {
          "internalType": "uint256",
          "name": "_currentPrice",
          "type": "uint256"
        }
      ],
      "stateMutability": "nonpayable",
      "type": "constructor"
    },
    {
      "anonymous": false,
      "inputs": [
        {
          "indexed": true,
          "internalType": "address",
          "name": "previousOwner",
          "type": "address"
        },
        {
          "indexed": true,
          "internalType": "address",
          "name": "newOwner",
          "type": "address"
        }
      ],
      "name": "OwnershipTransferred",
      "type": "event"
    },
    {
      "inputs": [],
      "name": "currentPrice",
      "outputs": [
        {
          "internalType": "uint256",
          "name": "",
          "type": "uint256"
        }
      ],
      "stateMutability": "view",
      "type": "function"
    },
    {
      "inputs": [],
      "name": "nftAddress",
      "outputs": [
        {
          "internalType": "contract ThetaboardNFT",
          "name": "",
          "type": "address"
        }
      ],
      "stateMutability": "view",
      "type": "function"
    },
    {
      "inputs": [],
      "name": "owner",
      "outputs": [
        {
          "internalType": "address",
          "name": "",
          "type": "address"
        }
      ],
      "stateMutability": "view",
      "type": "function"
    },
    {
      "inputs": [],
      "name": "renounceOwnership",
      "outputs": [],
      "stateMutability": "nonpayable",
      "type": "function"
    },
    {
      "inputs": [
        {
          "internalType": "address",
          "name": "newOwner",
          "type": "address"
        }
      ],
      "name": "transferOwnership",
      "outputs": [],
      "stateMutability": "nonpayable",
      "type": "function"
    },
    {
      "stateMutability": "payable",
      "type": "receive"
    },
    {
      "inputs": [
        {
          "internalType": "uint256",
          "name": "_currentPrice",
          "type": "uint256"
        }
      ],
      "name": "setCurrentPrice",
      "outputs": [],
      "stateMutability": "nonpayable",
      "type": "function"
    }
  ],
  "bytecode": "0x608060405234801561001057600080fd5b50604051610b5b380380610b5b83398181016040528101906100329190610212565b61004e61004361011c60201b60201c565b61012460201b60201c565b600073ffffffffffffffffffffffffffffffffffffffff168273ffffffffffffffffffffffffffffffffffffffff16141580156100b757503073ffffffffffffffffffffffffffffffffffffffff168273ffffffffffffffffffffffffffffffffffffffff1614155b6100c057600080fd5b600081116100cd57600080fd5b81600160006101000a81548173ffffffffffffffffffffffffffffffffffffffff021916908373ffffffffffffffffffffffffffffffffffffffff1602179055508060028190555050506102b8565b600033905090565b60008060009054906101000a900473ffffffffffffffffffffffffffffffffffffffff169050816000806101000a81548173ffffffffffffffffffffffffffffffffffffffff021916908373ffffffffffffffffffffffffffffffffffffffff1602179055508173ffffffffffffffffffffffffffffffffffffffff168173ffffffffffffffffffffffffffffffffffffffff167f8be0079c531659141344cd1fd0a4f28419497f9722a3daafe3b4186f6b6457e060405160405180910390a35050565b6000815190506101f78161028a565b92915050565b60008151905061020c816102a1565b92915050565b6000806040838503121561022557600080fd5b6000610233858286016101e8565b9250506020610244858286016101fd565b9150509250929050565b600061025982610260565b9050919050565b600073ffffffffffffffffffffffffffffffffffffffff82169050919050565b6000819050919050565b6102938161024e565b811461029e57600080fd5b50565b6102aa81610280565b81146102b557600080fd5b50565b610894806102c76000396000f3fe6080604052600436106100595760003560e01c806318b20071146101c15780635bf8633a146101ea578063715018a6146102155780638da5cb5b1461022c5780639d1b464a14610257578063f2fde38b14610282576101bc565b366101bc57600073ffffffffffffffffffffffffffffffffffffffff163373ffffffffffffffffffffffffffffffffffffffff16141580156100c757503073ffffffffffffffffffffffffffffffffffffffff163373ffffffffffffffffffffffffffffffffffffffff1614155b6100d057600080fd5b6002543410156100df57600080fd5b600160009054906101000a900473ffffffffffffffffffffffffffffffffffffffff1673ffffffffffffffffffffffffffffffffffffffff16636a627842336040518263ffffffff1660e01b815260040161013a919061072e565b600060405180830381600087803b15801561015457600080fd5b505af1158015610168573d6000803e3d6000fd5b505050506101746102ab565b73ffffffffffffffffffffffffffffffffffffffff166108fc349081150290604051600060405180830381858888f193505050501580156101b9573d6000803e3d6000fd5b50005b600080fd5b3480156101cd57600080fd5b506101e860048036038101906101e39190610632565b6102d4565b005b3480156101f657600080fd5b506101ff610367565b60405161020c9190610749565b60405180910390f35b34801561022157600080fd5b5061022a61038d565b005b34801561023857600080fd5b506102416102ab565b60405161024e919061072e565b60405180910390f35b34801561026357600080fd5b5061026c610415565b60405161027991906107a4565b60405180910390f35b34801561028e57600080fd5b506102a960048036038101906102a49190610609565b61041b565b005b60008060009054906101000a900473ffffffffffffffffffffffffffffffffffffffff16905090565b6102dc610513565b73ffffffffffffffffffffffffffffffffffffffff166102fa6102ab565b73ffffffffffffffffffffffffffffffffffffffff1614610350576040517f08c379a000000000000000000000000000000000000000000000000000000000815260040161034790610784565b60405180910390fd5b6000811161035d57600080fd5b8060028190555050565b600160009054906101000a900473ffffffffffffffffffffffffffffffffffffffff1681565b610395610513565b73ffffffffffffffffffffffffffffffffffffffff166103b36102ab565b73ffffffffffffffffffffffffffffffffffffffff1614610409576040517f08c379a000000000000000000000000000000000000000000000000000000000815260040161040090610784565b60405180910390fd5b610413600061051b565b565b60025481565b610423610513565b73ffffffffffffffffffffffffffffffffffffffff166104416102ab565b73ffffffffffffffffffffffffffffffffffffffff1614610497576040517f08c379a000000000000000000000000000000000000000000000000000000000815260040161048e90610784565b60405180910390fd5b600073ffffffffffffffffffffffffffffffffffffffff168173ffffffffffffffffffffffffffffffffffffffff161415610507576040517f08c379a00000000000000000000000000000000000000000000000000000000081526004016104fe90610764565b60405180910390fd5b6105108161051b565b50565b600033905090565b60008060009054906101000a900473ffffffffffffffffffffffffffffffffffffffff169050816000806101000a81548173ffffffffffffffffffffffffffffffffffffffff021916908373ffffffffffffffffffffffffffffffffffffffff1602179055508173ffffffffffffffffffffffffffffffffffffffff168173ffffffffffffffffffffffffffffffffffffffff167f8be0079c531659141344cd1fd0a4f28419497f9722a3daafe3b4186f6b6457e060405160405180910390a35050565b6000813590506105ee81610830565b92915050565b60008135905061060381610847565b92915050565b60006020828403121561061b57600080fd5b6000610629848285016105df565b91505092915050565b60006020828403121561064457600080fd5b6000610652848285016105f4565b91505092915050565b610664816107d0565b82525050565b6106738161080c565b82525050565b60006106866026836107bf565b91507f4f776e61626c653a206e6577206f776e657220697320746865207a65726f206160008301527f64647265737300000000000000000000000000000000000000000000000000006020830152604082019050919050565b60006106ec6020836107bf565b91507f4f776e61626c653a2063616c6c6572206973206e6f7420746865206f776e65726000830152602082019050919050565b61072881610802565b82525050565b6000602082019050610743600083018461065b565b92915050565b600060208201905061075e600083018461066a565b92915050565b6000602082019050818103600083015261077d81610679565b9050919050565b6000602082019050818103600083015261079d816106df565b9050919050565b60006020820190506107b9600083018461071f565b92915050565b600082825260208201905092915050565b60006107db826107e2565b9050919050565b600073ffffffffffffffffffffffffffffffffffffffff82169050919050565b6000819050919050565b60006108178261081e565b9050919050565b6000610829826107e2565b9050919050565b610839816107d0565b811461084457600080fd5b50565b61085081610802565b811461085b57600080fd5b5056fea2646970667358221220c8fc0fdb46050f4f39b3f98de2beab2a1b378e3669f3805289d26b72cb27cafe64736f6c63430008000033",
  "immutableReferences": {},
  "source": "import \"./ThetaboardNFT.sol\";\nimport \"@openzeppelin/contracts/access/Ownable.sol\";\n\n/**\n * @title nft_sell\n * sell NFT for thetaboard.io\n */\ncontract ThetaboardSellNft is Ownable {\n\n    ThetaboardNFT public nftAddress;\n    uint256 public currentPrice;\n\n    /**\n    * @dev Contract Constructor\n    * @param _nftAddress address for ERC-721\n    * @param _currentPrice initial sales price\n    */\n    constructor(address _nftAddress, uint256 _currentPrice) public {\n        require(_nftAddress != address(0) && _nftAddress != address(this));\n        require(_currentPrice > 0);\n        nftAddress = ThetaboardNFT(_nftAddress);\n        currentPrice = _currentPrice;\n    }\n\n    /**\n    * @dev Purchase _tokenId\n    * receive so\n    */\n    receive() external payable {\n        require(msg.sender != address(0) && msg.sender != address(this));\n        require(msg.value >= currentPrice);\n        nftAddress.mint(msg.sender);\n        payable(owner()).transfer(msg.value);\n    }\n\n    /**\n    * @dev Updates _currentPrice\n    * @dev Throws if _currentPrice is zero\n    */\n    function setCurrentPrice(uint256 _currentPrice) public onlyOwner {\n        require(_currentPrice > 0);\n        currentPrice = _currentPrice;\n    }\n\n}",
  "sourcePath": "/Users/maurinlenglart/IdeaProjects/thetaboard-org/nifties/contracts/ThetaboardSellNft.sol",
  "compiler": {
    "name": "solc",
    "version": "0.8.0+commit.c7dfd78e.Emscripten.clang"
  },
  "schemaVersion": "3.3.4",
  "updatedAt": "2021-09-21T00:47:02.649Z",
  "networkType": "ethereum",
  "devdoc": {
    "kind": "dev",
    "methods": {
      "constructor": {
        "details": "Contract Constructor",
        "params": {
          "_currentPrice": "initial sales price",
          "_nftAddress": "address for ERC-721"
        }
      },
      "owner()": {
        "details": "Returns the address of the current owner."
      },
      "renounceOwnership()": {
        "details": "Leaves the contract without owner. It will not be possible to call `onlyOwner` functions anymore. Can only be called by the current owner. NOTE: Renouncing ownership will leave the contract without an owner, thereby removing any functionality that is only available to the owner."
      },
      "setCurrentPrice(uint256)": {
        "details": "Updates _currentPriceThrows if _currentPrice is zero"
      },
      "transferOwnership(address)": {
        "details": "Transfers ownership of the contract to a new account (`newOwner`). Can only be called by the current owner."
      }
    },
    "title": "nft_sell sell NFT for thetaboard.io",
    "version": 1
  },
  "userdoc": {
    "kind": "user",
    "methods": {},
    "version": 1
  }
}