{
  "contractName": "ThetaboardAuctionSellNft",
  "abi": [
    {
      "anonymous": false,
      "inputs": [
        {
          "indexed": true,
          "internalType": "address",
          "name": "previousOwner",
          "type": "address"
        },
        {
          "indexed": true,
          "internalType": "address",
          "name": "newOwner",
          "type": "address"
        }
      ],
      "name": "OwnershipTransferred",
      "type": "event"
    },
    {
      "inputs": [],
      "name": "owner",
      "outputs": [
        {
          "internalType": "address",
          "name": "",
          "type": "address"
        }
      ],
      "stateMutability": "view",
      "type": "function"
    },
    {
      "inputs": [],
      "name": "renounceOwnership",
      "outputs": [],
      "stateMutability": "nonpayable",
      "type": "function"
    },
    {
      "inputs": [
        {
          "internalType": "address",
          "name": "newOwner",
          "type": "address"
        }
      ],
      "name": "transferOwnership",
      "outputs": [],
      "stateMutability": "nonpayable",
      "type": "function"
    },
    {
      "inputs": [
        {
          "internalType": "address",
          "name": "_nftAddress",
          "type": "address"
        },
        {
          "internalType": "uint256",
          "name": "_minBid",
          "type": "uint256"
        },
        {
          "internalType": "uint256",
          "name": "_maxDate",
          "type": "uint256"
        },
        {
          "internalType": "uint256",
          "name": "_maxMint",
          "type": "uint256"
        },
        {
          "internalType": "address",
          "name": "_artistWallet",
          "type": "address"
        },
        {
          "internalType": "uint8",
          "name": "_artistSplit",
          "type": "uint8"
        }
      ],
      "name": "newAuction",
      "outputs": [],
      "stateMutability": "nonpayable",
      "type": "function"
    },
    {
      "inputs": [
        {
          "internalType": "address",
          "name": "_nftAddress",
          "type": "address"
        }
      ],
      "name": "placeBid",
      "outputs": [],
      "stateMutability": "payable",
      "type": "function"
    },
    {
      "inputs": [
        {
          "internalType": "address",
          "name": "_nftAddress",
          "type": "address"
        }
      ],
      "name": "concludeBid",
      "outputs": [],
      "stateMutability": "nonpayable",
      "type": "function"
    },
    {
      "inputs": [
        {
          "internalType": "address",
          "name": "_nftAddress",
          "type": "address"
        },
        {
          "internalType": "uint256",
          "name": "_minBid",
          "type": "uint256"
        }
      ],
      "name": "setPrice",
      "outputs": [],
      "stateMutability": "nonpayable",
      "type": "function"
    },
    {
      "inputs": [
        {
          "internalType": "address",
          "name": "_nftAddress",
          "type": "address"
        },
        {
          "internalType": "uint256",
          "name": "_maxDate",
          "type": "uint256"
        }
      ],
      "name": "setMaxDate",
      "outputs": [],
      "stateMutability": "nonpayable",
      "type": "function"
    },
    {
      "inputs": [
        {
          "internalType": "address",
          "name": "_nftAddress",
          "type": "address"
        }
      ],
      "name": "getNftAuction",
      "outputs": [
        {
          "components": [
            {
              "internalType": "uint256",
              "name": "maxDate",
              "type": "uint256"
            },
            {
              "internalType": "uint256",
              "name": "maxMint",
              "type": "uint256"
            },
            {
              "internalType": "uint256",
              "name": "countBidMade",
              "type": "uint256"
            },
            {
              "internalType": "uint256",
              "name": "minBid",
              "type": "uint256"
            },
            {
              "internalType": "address",
              "name": "artistWallet",
              "type": "address"
            },
            {
              "internalType": "uint8",
              "name": "artistSplit",
              "type": "uint8"
            },
            {
              "internalType": "address[]",
              "name": "bidders",
              "type": "address[]"
            },
            {
              "internalType": "uint256[]",
              "name": "bidsValue",
              "type": "uint256[]"
            }
          ],
          "internalType": "struct ThetaboardAuctionSellNft.nftAuction",
          "name": "",
          "type": "tuple"
        }
      ],
      "stateMutability": "view",
      "type": "function"
    }
  ],
  "bytecode": "0x60806040523480156200001157600080fd5b5062000032620000266200003860201b60201c565b6200004060201b60201c565b62000104565b600033905090565b60008060009054906101000a900473ffffffffffffffffffffffffffffffffffffffff169050816000806101000a81548173ffffffffffffffffffffffffffffffffffffffff021916908373ffffffffffffffffffffffffffffffffffffffff1602179055508173ffffffffffffffffffffffffffffffffffffffff168173ffffffffffffffffffffffffffffffffffffffff167f8be0079c531659141344cd1fd0a4f28419497f9722a3daafe3b4186f6b6457e060405160405180910390a35050565b6127ad80620001146000396000f3fe6080604052600436106100855760003560e01c8063d516e81911610059578063d516e8191461011e578063e49401571461015b578063f2fde38b14610177578063fba29257146101a0578063fe7c4f3e146101c957610085565b8062e4768b1461008a5780634951b7bd146100b3578063715018a6146100dc5780638da5cb5b146100f3575b600080fd5b34801561009657600080fd5b506100b160048036038101906100ac9190611e0b565b6101f2565b005b3480156100bf57600080fd5b506100da60048036038101906100d59190611e0b565b6103d4565b005b3480156100e857600080fd5b506100f161056e565b005b3480156100ff57600080fd5b506101086105f6565b604051610115919061236d565b60405180910390f35b34801561012a57600080fd5b5061014560048036038101906101409190611de2565b61061f565b6040516101529190612488565b60405180910390f35b61017560048036038101906101709190611de2565b6107fa565b005b34801561018357600080fd5b5061019e60048036038101906101999190611de2565b611294565b005b3480156101ac57600080fd5b506101c760048036038101906101c29190611de2565b61138c565b005b3480156101d557600080fd5b506101f060048036038101906101eb9190611e47565b611815565b005b6101fa611b85565b73ffffffffffffffffffffffffffffffffffffffff166102186105f6565b73ffffffffffffffffffffffffffffffffffffffff161461026e576040517f08c379a000000000000000000000000000000000000000000000000000000000815260040161026590612428565b60405180910390fd5b6000600160008473ffffffffffffffffffffffffffffffffffffffff1673ffffffffffffffffffffffffffffffffffffffff1681526020019081526020016000206003015414156102f4576040517f08c379a00000000000000000000000000000000000000000000000000000000081526004016102eb90612448565b60405180910390fd5b6000811161030157600080fd5b6000600160008473ffffffffffffffffffffffffffffffffffffffff1673ffffffffffffffffffffffffffffffffffffffff1681526020019081526020016000206005018054905014610389576040517f08c379a0000000000000000000000000000000000000000000000000000000008152600401610380906123c8565b60405180910390fd5b80600160008473ffffffffffffffffffffffffffffffffffffffff1673ffffffffffffffffffffffffffffffffffffffff168152602001908152602001600020600301819055505050565b6103dc611b85565b73ffffffffffffffffffffffffffffffffffffffff166103fa6105f6565b73ffffffffffffffffffffffffffffffffffffffff1614610450576040517f08c379a000000000000000000000000000000000000000000000000000000000815260040161044790612428565b60405180910390fd5b6000600160008473ffffffffffffffffffffffffffffffffffffffff1673ffffffffffffffffffffffffffffffffffffffff1681526020019081526020016000206003015414156104d6576040517f08c379a00000000000000000000000000000000000000000000000000000000081526004016104cd90612448565b60405180910390fd5b60008114806104e457504281115b610523576040517f08c379a000000000000000000000000000000000000000000000000000000000815260040161051a906123e8565b60405180910390fd5b80600160008473ffffffffffffffffffffffffffffffffffffffff1673ffffffffffffffffffffffffffffffffffffffff168152602001908152602001600020600001819055505050565b610576611b85565b73ffffffffffffffffffffffffffffffffffffffff166105946105f6565b73ffffffffffffffffffffffffffffffffffffffff16146105ea576040517f08c379a00000000000000000000000000000000000000000000000000000000081526004016105e190612428565b60405180910390fd5b6105f46000611b8d565b565b60008060009054906101000a900473ffffffffffffffffffffffffffffffffffffffff16905090565b610627611c51565b600160008373ffffffffffffffffffffffffffffffffffffffff1673ffffffffffffffffffffffffffffffffffffffff16815260200190815260200160002060405180610100016040529081600082015481526020016001820154815260200160028201548152602001600382015481526020016004820160009054906101000a900473ffffffffffffffffffffffffffffffffffffffff1673ffffffffffffffffffffffffffffffffffffffff1673ffffffffffffffffffffffffffffffffffffffff1681526020016004820160149054906101000a900460ff1660ff1660ff1681526020016005820180548060200260200160405190810160405280929190818152602001828054801561079257602002820191906000526020600020905b8160009054906101000a900473ffffffffffffffffffffffffffffffffffffffff1673ffffffffffffffffffffffffffffffffffffffff1681526020019060010190808311610748575b50505050508152602001600682018054806020026020016040519081016040528092919081815260200182805480156107ea57602002820191906000526020600020905b8154815260200190600101908083116107d6575b5050505050815250509050919050565b600073ffffffffffffffffffffffffffffffffffffffff168173ffffffffffffffffffffffffffffffffffffffff161415801561086357503073ffffffffffffffffffffffffffffffffffffffff168173ffffffffffffffffffffffffffffffffffffffff1614155b61086c57600080fd5b6000600160008373ffffffffffffffffffffffffffffffffffffffff1673ffffffffffffffffffffffffffffffffffffffff1681526020019081526020016000206003015414156108f2576040517f08c379a00000000000000000000000000000000000000000000000000000000081526004016108e990612448565b60405180910390fd5b600160008273ffffffffffffffffffffffffffffffffffffffff1673ffffffffffffffffffffffffffffffffffffffff168152602001908152602001600020600301543411610976576040517f08c379a000000000000000000000000000000000000000000000000000000000815260040161096d906123a8565b60405180910390fd5b60003490506000339050600160008473ffffffffffffffffffffffffffffffffffffffff1673ffffffffffffffffffffffffffffffffffffffff16815260200190815260200160002060010154600160008573ffffffffffffffffffffffffffffffffffffffff1673ffffffffffffffffffffffffffffffffffffffff168152602001908152602001600020600501805490501015610d6557600160008473ffffffffffffffffffffffffffffffffffffffff1673ffffffffffffffffffffffffffffffffffffffff168152602001908152602001600020600501819080600181540180825580915050600190039060005260206000200160009091909190916101000a81548173ffffffffffffffffffffffffffffffffffffffff021916908373ffffffffffffffffffffffffffffffffffffffff160217905550600160008473ffffffffffffffffffffffffffffffffffffffff1673ffffffffffffffffffffffffffffffffffffffff168152602001908152602001600020600601829080600181540180825580915050600190039060005260206000200160009091909190915055600160008473ffffffffffffffffffffffffffffffffffffffff1673ffffffffffffffffffffffffffffffffffffffff16815260200190815260200160002060010154600160008573ffffffffffffffffffffffffffffffffffffffff1673ffffffffffffffffffffffffffffffffffffffff168152602001908152602001600020600501805490501415610d605760007fffffffffffffffffffffffffffffffffffffffffffffffffffffffffffffffff905060005b600160008673ffffffffffffffffffffffffffffffffffffffff1673ffffffffffffffffffffffffffffffffffffffff16815260200190815260200160002060060180549050811015610d16576000600160008773ffffffffffffffffffffffffffffffffffffffff1673ffffffffffffffffffffffffffffffffffffffff1681526020019081526020016000206006018281548110610c9b577f4e487b7100000000000000000000000000000000000000000000000000000000600052603260045260246000fd5b90600052602060002001549050600160008773ffffffffffffffffffffffffffffffffffffffff1673ffffffffffffffffffffffffffffffffffffffff168152602001908152602001600020600301548114158015610cf957508281105b15610d02578092505b508080610d0e9061268b565b915050610bd2565b5080600160008673ffffffffffffffffffffffffffffffffffffffff1673ffffffffffffffffffffffffffffffffffffffff16815260200190815260200160002060030181905550505b611236565b60007fffffffffffffffffffffffffffffffffffffffffffffffffffffffffffffffff9050600080600090505b600160008773ffffffffffffffffffffffffffffffffffffffff1673ffffffffffffffffffffffffffffffffffffffff16815260200190815260200160002060060180549050811015610f24576000600160008873ffffffffffffffffffffffffffffffffffffffff1673ffffffffffffffffffffffffffffffffffffffff1681526020019081526020016000206006018281548110610e5b577f4e487b7100000000000000000000000000000000000000000000000000000000600052603260045260246000fd5b90600052602060002001549050600160008873ffffffffffffffffffffffffffffffffffffffff1673ffffffffffffffffffffffffffffffffffffffff16815260200190815260200160002060030154811415610eb6578192505b600160008873ffffffffffffffffffffffffffffffffffffffff1673ffffffffffffffffffffffffffffffffffffffff168152602001908152602001600020600301548114158015610f0757508381105b15610f10578093505b508080610f1c9061268b565b915050610d92565b5081841015610f31578391505b81600160008773ffffffffffffffffffffffffffffffffffffffff1673ffffffffffffffffffffffffffffffffffffffff16815260200190815260200160002060030181905550600160008673ffffffffffffffffffffffffffffffffffffffff1673ffffffffffffffffffffffffffffffffffffffff1681526020019081526020016000206005018181548110610ff2577f4e487b7100000000000000000000000000000000000000000000000000000000600052603260045260246000fd5b9060005260206000200160009054906101000a900473ffffffffffffffffffffffffffffffffffffffff1673ffffffffffffffffffffffffffffffffffffffff166108fc600160008873ffffffffffffffffffffffffffffffffffffffff1673ffffffffffffffffffffffffffffffffffffffff16815260200190815260200160002060060183815481106110b0577f4e487b7100000000000000000000000000000000000000000000000000000000600052603260045260246000fd5b90600052602060002001549081150290604051600060405180830381858888f193505050501580156110e6573d6000803e3d6000fd5b5082600160008773ffffffffffffffffffffffffffffffffffffffff1673ffffffffffffffffffffffffffffffffffffffff1681526020019081526020016000206005018281548110611162577f4e487b7100000000000000000000000000000000000000000000000000000000600052603260045260246000fd5b9060005260206000200160006101000a81548173ffffffffffffffffffffffffffffffffffffffff021916908373ffffffffffffffffffffffffffffffffffffffff16021790555083600160008773ffffffffffffffffffffffffffffffffffffffff1673ffffffffffffffffffffffffffffffffffffffff1681526020019081526020016000206006018281548110611225577f4e487b7100000000000000000000000000000000000000000000000000000000600052603260045260246000fd5b906000526020600020018190555050505b60018060008573ffffffffffffffffffffffffffffffffffffffff1673ffffffffffffffffffffffffffffffffffffffff1681526020019081526020016000206002016000828254611288919061252d565b92505081905550505050565b61129c611b85565b73ffffffffffffffffffffffffffffffffffffffff166112ba6105f6565b73ffffffffffffffffffffffffffffffffffffffff1614611310576040517f08c379a000000000000000000000000000000000000000000000000000000000815260040161130790612428565b60405180910390fd5b600073ffffffffffffffffffffffffffffffffffffffff168173ffffffffffffffffffffffffffffffffffffffff161415611380576040517f08c379a000000000000000000000000000000000000000000000000000000000815260040161137790612388565b60405180910390fd5b61138981611b8d565b50565b611394611b85565b73ffffffffffffffffffffffffffffffffffffffff166113b26105f6565b73ffffffffffffffffffffffffffffffffffffffff1614611408576040517f08c379a00000000000000000000000000000000000000000000000000000000081526004016113ff90612428565b60405180910390fd5b6000600160008373ffffffffffffffffffffffffffffffffffffffff1673ffffffffffffffffffffffffffffffffffffffff16815260200190815260200160002060030154141561148e576040517f08c379a000000000000000000000000000000000000000000000000000000000815260040161148590612448565b60405180910390fd5b6000805b600160008473ffffffffffffffffffffffffffffffffffffffff1673ffffffffffffffffffffffffffffffffffffffff16815260200190815260200160002060050180549050811015611699576000600160008573ffffffffffffffffffffffffffffffffffffffff1673ffffffffffffffffffffffffffffffffffffffff168152602001908152602001600020600501828154811061155b577f4e487b7100000000000000000000000000000000000000000000000000000000600052603260045260246000fd5b9060005260206000200160009054906101000a900473ffffffffffffffffffffffffffffffffffffffff1690508373ffffffffffffffffffffffffffffffffffffffff16636a627842826040518263ffffffff1660e01b81526004016115c1919061236d565b600060405180830381600087803b1580156115db57600080fd5b505af11580156115ef573d6000803e3d6000fd5b50505050600160008573ffffffffffffffffffffffffffffffffffffffff1673ffffffffffffffffffffffffffffffffffffffff168152602001908152602001600020600601828154811061166d577f4e487b7100000000000000000000000000000000000000000000000000000000600052603260045260246000fd5b906000526020600020015483611683919061252d565b92505080806116919061268b565b915050611492565b506000600160008473ffffffffffffffffffffffffffffffffffffffff1673ffffffffffffffffffffffffffffffffffffffff16815260200190815260200160002060040160149054906101000a900460ff1660ff166064836116fc9190612583565b61170691906125b4565b905060008183611716919061260e565b9050600160008573ffffffffffffffffffffffffffffffffffffffff1673ffffffffffffffffffffffffffffffffffffffff16815260200190815260200160002060040160009054906101000a900473ffffffffffffffffffffffffffffffffffffffff1673ffffffffffffffffffffffffffffffffffffffff166108fc839081150290604051600060405180830381858888f193505050501580156117c0573d6000803e3d6000fd5b506117c96105f6565b73ffffffffffffffffffffffffffffffffffffffff166108fc829081150290604051600060405180830381858888f1935050505015801561180e573d6000803e3d6000fd5b5050505050565b61181d611b85565b73ffffffffffffffffffffffffffffffffffffffff1661183b6105f6565b73ffffffffffffffffffffffffffffffffffffffff1614611891576040517f08c379a000000000000000000000000000000000000000000000000000000000815260040161188890612428565b60405180910390fd5b600073ffffffffffffffffffffffffffffffffffffffff168673ffffffffffffffffffffffffffffffffffffffff16141580156118fa57503073ffffffffffffffffffffffffffffffffffffffff168673ffffffffffffffffffffffffffffffffffffffff1614155b61190357600080fd5b6000600160008873ffffffffffffffffffffffffffffffffffffffff1673ffffffffffffffffffffffffffffffffffffffff1681526020019081526020016000206003015414611988576040517f08c379a000000000000000000000000000000000000000000000000000000000815260040161197f90612468565b60405180910390fd5b600085116119cb576040517f08c379a00000000000000000000000000000000000000000000000000000000081526004016119c290612408565b60405180910390fd5b60008414806119d957504284115b611a18576040517f08c379a0000000000000000000000000000000000000000000000000000000008152600401611a0f906123e8565b60405180910390fd5b606080604051806101000160405280878152602001868152602001600081526020018881526020018573ffffffffffffffffffffffffffffffffffffffff1681526020018460ff16815260200183815260200182815250600160008a73ffffffffffffffffffffffffffffffffffffffff1673ffffffffffffffffffffffffffffffffffffffff1681526020019081526020016000206000820151816000015560208201518160010155604082015181600201556060820151816003015560808201518160040160006101000a81548173ffffffffffffffffffffffffffffffffffffffff021916908373ffffffffffffffffffffffffffffffffffffffff16021790555060a08201518160040160146101000a81548160ff021916908360ff16021790555060c0820151816005019080519060200190611b5a929190611caf565b5060e0820151816006019080519060200190611b77929190611d39565b509050505050505050505050565b600033905090565b60008060009054906101000a900473ffffffffffffffffffffffffffffffffffffffff169050816000806101000a81548173ffffffffffffffffffffffffffffffffffffffff021916908373ffffffffffffffffffffffffffffffffffffffff1602179055508173ffffffffffffffffffffffffffffffffffffffff168173ffffffffffffffffffffffffffffffffffffffff167f8be0079c531659141344cd1fd0a4f28419497f9722a3daafe3b4186f6b6457e060405160405180910390a35050565b60405180610100016040528060008152602001600081526020016000815260200160008152602001600073ffffffffffffffffffffffffffffffffffffffff168152602001600060ff16815260200160608152602001606081525090565b828054828255906000526020600020908101928215611d28579160200282015b82811115611d275782518260006101000a81548173ffffffffffffffffffffffffffffffffffffffff021916908373ffffffffffffffffffffffffffffffffffffffff16021790555091602001919060010190611ccf565b5b509050611d359190611d86565b5090565b828054828255906000526020600020908101928215611d75579160200282015b82811115611d74578251825591602001919060010190611d59565b5b509050611d829190611d86565b5090565b5b80821115611d9f576000816000905550600101611d87565b5090565b600081359050611db281612732565b92915050565b600081359050611dc781612749565b92915050565b600081359050611ddc81612760565b92915050565b600060208284031215611df457600080fd5b6000611e0284828501611da3565b91505092915050565b60008060408385031215611e1e57600080fd5b6000611e2c85828601611da3565b9250506020611e3d85828601611db8565b9150509250929050565b60008060008060008060c08789031215611e6057600080fd5b6000611e6e89828a01611da3565b9650506020611e7f89828a01611db8565b9550506040611e9089828a01611db8565b9450506060611ea189828a01611db8565b9350506080611eb289828a01611da3565b92505060a0611ec389828a01611dcd565b9150509295509295509295565b6000611edc8383611f00565b60208301905092915050565b6000611ef4838361234f565b60208301905092915050565b611f0981612642565b82525050565b611f1881612642565b82525050565b6000611f29826124ca565b611f3381856124fa565b9350611f3e836124aa565b8060005b83811015611f6f578151611f568882611ed0565b9750611f61836124e0565b925050600181019050611f42565b5085935050505092915050565b6000611f87826124d5565b611f91818561250b565b9350611f9c836124ba565b8060005b83811015611fcd578151611fb48882611ee8565b9750611fbf836124ed565b925050600181019050611fa0565b5085935050505092915050565b6000611fe760268361251c565b91507f4f776e61626c653a206e6577206f776e657220697320746865207a65726f206160008301527f64647265737300000000000000000000000000000000000000000000000000006020830152604082019050919050565b600061204d60208361251c565b91507f4269642053686f756c6420626520686967686572207468616e206d696e4269646000830152602082019050919050565b600061208d602b8361251c565b91507f43616e2774206368616e6765207072696365206166746572206669727374206260008301527f696420776173206d6164650000000000000000000000000000000000000000006020830152604082019050919050565b60006120f3602e8361251c565b91507f69662064617465206973207061737365642c206974206d75737420686967686560008301527f72207468616e2063757272656e740000000000000000000000000000000000006020830152604082019050919050565b600061215960138361251c565b91507f41207072696365206973207265717569726564000000000000000000000000006000830152602082019050919050565b600061219960208361251c565b91507f4f776e61626c653a2063616c6c6572206973206e6f7420746865206f776e65726000830152602082019050919050565b60006121d960258361251c565b91507f4120636f6e74726163742073686f756c642065786973747320666f722074686960008301527f73206e66740000000000000000000000000000000000000000000000000000006020830152604082019050919050565b600061223f60248361251c565b91507f636f6e747261637420616c72656164792065786973747320666f72207468697360008301527f206e6674000000000000000000000000000000000000000000000000000000006020830152604082019050919050565b6000610100830160008301516122b1600086018261234f565b5060208301516122c4602086018261234f565b5060408301516122d7604086018261234f565b5060608301516122ea606086018261234f565b5060808301516122fd6080860182611f00565b5060a083015161231060a086018261235e565b5060c083015184820360c08601526123288282611f1e565b91505060e083015184820360e08601526123428282611f7c565b9150508091505092915050565b61235881612674565b82525050565b6123678161267e565b82525050565b60006020820190506123826000830184611f0f565b92915050565b600060208201905081810360008301526123a181611fda565b9050919050565b600060208201905081810360008301526123c181612040565b9050919050565b600060208201905081810360008301526123e181612080565b9050919050565b60006020820190508181036000830152612401816120e6565b9050919050565b600060208201905081810360008301526124218161214c565b9050919050565b600060208201905081810360008301526124418161218c565b9050919050565b60006020820190508181036000830152612461816121cc565b9050919050565b6000602082019050818103600083015261248181612232565b9050919050565b600060208201905081810360008301526124a28184612298565b905092915050565b6000819050602082019050919050565b6000819050602082019050919050565b600081519050919050565b600081519050919050565b6000602082019050919050565b6000602082019050919050565b600082825260208201905092915050565b600082825260208201905092915050565b600082825260208201905092915050565b600061253882612674565b915061254383612674565b9250827fffffffffffffffffffffffffffffffffffffffffffffffffffffffffffffffff03821115612578576125776126d4565b5b828201905092915050565b600061258e82612674565b915061259983612674565b9250826125a9576125a8612703565b5b828204905092915050565b60006125bf82612674565b91506125ca83612674565b9250817fffffffffffffffffffffffffffffffffffffffffffffffffffffffffffffffff0483118215151615612603576126026126d4565b5b828202905092915050565b600061261982612674565b915061262483612674565b925082821015612637576126366126d4565b5b828203905092915050565b600061264d82612654565b9050919050565b600073ffffffffffffffffffffffffffffffffffffffff82169050919050565b6000819050919050565b600060ff82169050919050565b600061269682612674565b91507fffffffffffffffffffffffffffffffffffffffffffffffffffffffffffffffff8214156126c9576126c86126d4565b5b600182019050919050565b7f4e487b7100000000000000000000000000000000000000000000000000000000600052601160045260246000fd5b7f4e487b7100000000000000000000000000000000000000000000000000000000600052601260045260246000fd5b61273b81612642565b811461274657600080fd5b50565b61275281612674565b811461275d57600080fd5b50565b6127698161267e565b811461277457600080fd5b5056fea2646970667358221220ce561845c1264c3c3e11f3026867da400b8ebf392b54c806211205d34bf8b4c764736f6c63430008000033",
  "immutableReferences": {},
  "source": "pragma solidity ^0.8.0;\n\nimport \"./ThetaboardNFT.sol\";\nimport \"@openzeppelin/contracts/access/Ownable.sol\";\n\n/**\n * @title nft_sell\n * Auction NFT for thetaboard.io\n */\ncontract ThetaboardAuctionSellNft is Ownable {\n\n    struct nftAuction {\n        uint256 maxDate;\n        uint256 maxMint;\n\n        uint256 countBidMade;\n        uint256 minBid;\n\n        address artistWallet;\n        uint8 artistSplit;\n\n        address[] bidders;\n        uint256[] bidsValue;\n    }\n\n    mapping(address => nftAuction) NFTsAuction;\n\n    function newAuction(address _nftAddress, uint256 _minBid, uint256 _maxDate, uint256 _maxMint, address _artistWallet, uint8 _artistSplit) public onlyOwner {\n        require(_nftAddress != address(0) && _nftAddress != address(this));\n        require(NFTsAuction[_nftAddress].minBid == 0, \"contract already exists for this nft\");\n        require(_minBid > 0, \"A price is required\");\n        require(_maxDate == 0 || _maxDate > block.timestamp, \"if date is passed, it must higher than current\");\n\n        address[] memory bidders;\n        uint256[] memory bidsValue;\n\n        NFTsAuction[_nftAddress] = nftAuction({\n        maxDate : _maxDate,\n        maxMint : _maxMint,\n        countBidMade : 0,\n        minBid : _minBid,\n        artistWallet : _artistWallet,\n        artistSplit : _artistSplit,\n        bidders : bidders,\n        bidsValue : bidsValue\n        });\n    }\n\n    /**\n    * @dev Add a new pid for an NFT\n    * @dev Throws if contract does not exists or if the bid is not higher than minBid\n    */\n    function placeBid(address _nftAddress) public payable {\n        require(_nftAddress != address(0) && _nftAddress != address(this));\n        require(NFTsAuction[_nftAddress].minBid != 0, \"A contract should exists for this nft\");\n        require(msg.value > NFTsAuction[_nftAddress].minBid, \"Bid Should be higher than minBid\");\n        uint256 _bid = msg.value;\n        address _bidder = msg.sender;\n        if (NFTsAuction[_nftAddress].bidders.length < NFTsAuction[_nftAddress].maxMint) {\n            NFTsAuction[_nftAddress].bidders.push(_bidder);\n            NFTsAuction[_nftAddress].bidsValue.push(_bid);\n            if (NFTsAuction[_nftAddress].bidders.length == NFTsAuction[_nftAddress].maxMint) {\n                // get new min\n                uint256 newMin = type(uint256).max;\n\n                for (uint i = 0; i < NFTsAuction[_nftAddress].bidsValue.length; i++) {\n                    uint256 currentBid = NFTsAuction[_nftAddress].bidsValue[i];\n                    if (currentBid != NFTsAuction[_nftAddress].minBid && currentBid < newMin) {\n                        newMin = currentBid;\n                    }\n                }\n                NFTsAuction[_nftAddress].minBid = newMin;\n            }\n        } else {\n            // send back the money\n            // get new minBid, and index of current minBid\n            uint256 newMin = type(uint256).max;\n            uint256 currentLowestIdx;\n            for (uint i = 0; i < NFTsAuction[_nftAddress].bidsValue.length; i++) {\n                uint256 currentBid = NFTsAuction[_nftAddress].bidsValue[i];\n                if (currentBid == NFTsAuction[_nftAddress].minBid) {\n                    currentLowestIdx = i;\n                }\n\n                if (currentBid != NFTsAuction[_nftAddress].minBid && currentBid < newMin) {\n                    newMin = currentBid;\n                }\n            }\n            if (_bid < newMin) {\n                newMin = _bid;\n            }\n\n            NFTsAuction[_nftAddress].minBid = newMin;\n            // send money back to bidder that had previous min\n\n            payable(NFTsAuction[_nftAddress].bidders[currentLowestIdx]).transfer(NFTsAuction[_nftAddress].bidsValue[currentLowestIdx]);\n            // set new bid\n            NFTsAuction[_nftAddress].bidders[currentLowestIdx] = _bidder;\n            NFTsAuction[_nftAddress].bidsValue[currentLowestIdx] = _bid;\n\n        }\n        NFTsAuction[_nftAddress].countBidMade += 1;\n    }\n\n    function concludeBid(address _nftAddress) public onlyOwner {\n        require(NFTsAuction[_nftAddress].minBid != 0, \"A contract should exists for this nft\");\n\n        uint256 totalBid = 0;\n        for (uint i = 0; i < NFTsAuction[_nftAddress].bidders.length; i++) {\n            address bidder = NFTsAuction[_nftAddress].bidders[i];\n            ThetaboardNFT(_nftAddress).mint(bidder);\n            totalBid += NFTsAuction[_nftAddress].bidsValue[i];\n        }\n\n        uint artistValue = totalBid / 100 * NFTsAuction[_nftAddress].artistSplit;\n        uint ownerValue = totalBid - artistValue;\n\n        payable(NFTsAuction[_nftAddress].artistWallet).transfer(artistValue);\n        payable(owner()).transfer(ownerValue);\n    }\n\n\n    /**\n    * @dev Updates minBid for _nftAddress\n    * @dev Throws if _minBid is zero\n    */\n    function setPrice(address _nftAddress, uint256 _minBid) public onlyOwner {\n        require(NFTsAuction[_nftAddress].minBid != 0, \"A contract should exists for this nft\");\n        require(_minBid > 0);\n        require(NFTsAuction[_nftAddress].bidders.length == 0, \"Can't change price after first bid was made\");\n        NFTsAuction[_nftAddress].minBid = _minBid;\n    }\n\n    /**\n    * @dev Updates maxDate for _nftAddress\n    * @dev Throws if date is in the past\n    */\n    function setMaxDate(address _nftAddress, uint256 _maxDate) public onlyOwner {\n        require(NFTsAuction[_nftAddress].minBid != 0, \"A contract should exists for this nft\");\n        require(_maxDate == 0 || _maxDate > block.timestamp, \"if date is passed, it must higher than current\");\n        NFTsAuction[_nftAddress].maxDate = _maxDate;\n    }\n\n    /**\n    * Get info about currently auction\n    */\n    function getNftAuction(address _nftAddress) public view returns (nftAuction memory) {\n        return NFTsAuction[_nftAddress];\n    }\n\n}",
  "sourcePath": "/Users/maurinlenglart/IdeaProjects/thetaboard-org/nifties/contracts/ThetaboardAuctionSellNft.sol",
  "compiler": {
    "name": "solc",
    "version": "0.8.0+commit.c7dfd78e.Emscripten.clang"
  },
  "schemaVersion": "3.3.4",
  "updatedAt": "2021-10-17T21:16:57.096Z",
  "networkType": "ethereum",
  "devdoc": {
    "kind": "dev",
    "methods": {
      "owner()": {
        "details": "Returns the address of the current owner."
      },
      "placeBid(address)": {
        "details": "Add a new pid for an NFTThrows if contract does not exists or if the bid is not higher than minBid"
      },
      "renounceOwnership()": {
        "details": "Leaves the contract without owner. It will not be possible to call `onlyOwner` functions anymore. Can only be called by the current owner. NOTE: Renouncing ownership will leave the contract without an owner, thereby removing any functionality that is only available to the owner."
      },
      "setMaxDate(address,uint256)": {
        "details": "Updates maxDate for _nftAddressThrows if date is in the past"
      },
      "setPrice(address,uint256)": {
        "details": "Updates minBid for _nftAddressThrows if _minBid is zero"
      },
      "transferOwnership(address)": {
        "details": "Transfers ownership of the contract to a new account (`newOwner`). Can only be called by the current owner."
      }
    },
    "title": "nft_sell Auction NFT for thetaboard.io",
    "version": 1
  },
  "userdoc": {
    "kind": "user",
    "methods": {
      "getNftAuction(address)": {
        "notice": "Get info about currently auction"
      }
    },
    "version": 1
  }
}