{
  "contractName": "ThetaboardDirectSellNft",
  "abi": [
    {
      "anonymous": false,
      "inputs": [
        {
          "indexed": true,
          "internalType": "address",
          "name": "previousOwner",
          "type": "address"
        },
        {
          "indexed": true,
          "internalType": "address",
          "name": "newOwner",
          "type": "address"
        }
      ],
      "name": "OwnershipTransferred",
      "type": "event"
    },
    {
      "inputs": [],
      "name": "owner",
      "outputs": [
        {
          "internalType": "address",
          "name": "",
          "type": "address"
        }
      ],
      "stateMutability": "view",
      "type": "function",
      "constant": true
    },
    {
      "inputs": [],
      "name": "renounceOwnership",
      "outputs": [],
      "stateMutability": "nonpayable",
      "type": "function"
    },
    {
      "inputs": [
        {
          "internalType": "address",
          "name": "newOwner",
          "type": "address"
        }
      ],
      "name": "transferOwnership",
      "outputs": [],
      "stateMutability": "nonpayable",
      "type": "function"
    },
    {
      "inputs": [
        {
          "internalType": "address",
          "name": "_nftAddress",
          "type": "address"
        },
        {
          "internalType": "uint256",
          "name": "_nftPrice",
          "type": "uint256"
        },
        {
          "internalType": "uint256",
          "name": "_maxDate",
          "type": "uint256"
        },
        {
          "internalType": "uint256",
          "name": "_maxMint",
          "type": "uint256"
        },
        {
          "internalType": "address",
          "name": "_artistWallet",
          "type": "address"
        },
        {
          "internalType": "uint8",
          "name": "_artistSplit",
          "type": "uint8"
        }
      ],
      "name": "newSell",
      "outputs": [],
      "stateMutability": "nonpayable",
      "type": "function"
    },
    {
      "inputs": [
        {
          "internalType": "address",
          "name": "_nftAddress",
          "type": "address"
        }
      ],
      "name": "purchaseToken",
      "outputs": [],
      "stateMutability": "payable",
      "type": "function",
      "payable": true
    },
    {
      "inputs": [
        {
          "internalType": "address",
          "name": "_nftAddress",
          "type": "address"
        },
        {
          "internalType": "uint256",
          "name": "_price",
          "type": "uint256"
        }
      ],
      "name": "setPrice",
      "outputs": [],
      "stateMutability": "nonpayable",
      "type": "function"
    },
    {
      "inputs": [
        {
          "internalType": "address",
          "name": "_nftAddress",
          "type": "address"
        },
        {
          "internalType": "uint256",
          "name": "_maxDate",
          "type": "uint256"
        }
      ],
      "name": "setMaxDate",
      "outputs": [],
      "stateMutability": "nonpayable",
      "type": "function"
    },
    {
      "inputs": [
        {
          "internalType": "address",
          "name": "_nftAddress",
          "type": "address"
        },
        {
          "internalType": "uint256",
          "name": "_maxMint",
          "type": "uint256"
        }
      ],
      "name": "setMaxMint",
      "outputs": [],
      "stateMutability": "nonpayable",
      "type": "function"
    },
    {
      "inputs": [
        {
          "internalType": "address",
          "name": "_nftAddress",
          "type": "address"
        }
      ],
      "name": "getNftSell",
      "outputs": [
        {
          "components": [
            {
              "internalType": "uint256",
              "name": "price",
              "type": "uint256"
            },
            {
              "internalType": "uint256",
              "name": "maxDate",
              "type": "uint256"
            },
            {
              "internalType": "uint256",
              "name": "maxMint",
              "type": "uint256"
            },
            {
              "internalType": "address",
              "name": "artistWallet",
              "type": "address"
            },
            {
              "internalType": "uint8",
              "name": "artistSplit",
              "type": "uint8"
            }
          ],
          "internalType": "struct ThetaboardDirectSellNft.nftSell",
          "name": "",
          "type": "tuple"
        }
      ],
      "stateMutability": "view",
      "type": "function",
      "constant": true
    }
  ],
  "bytecode": "0x608060405234801561001057600080fd5b5061002161001c610026565b61002a565b61007a565b3390565b600080546001600160a01b038381166001600160a01b0319831681178455604051919092169283917f8be0079c531659141344cd1fd0a4f28419497f9722a3daafe3b4186f6b6457e09190a35050565b610da9806100896000396000f3fe6080604052600436106100855760003560e01c8063715018a611610059578063715018a61461012257806373a48167146101375780638da5cb5b14610157578063cd77a0c814610179578063f2fde38b1461018c57610085565b8062e4768b1461008a5780632168f475146100ac5780634951b7bd146100cc5780634b7bf6c3146100ec575b600080fd5b34801561009657600080fd5b506100aa6100a53660046109d4565b6101ac565b005b3480156100b857600080fd5b506100aa6100c73660046109d4565b610252565b3480156100d857600080fd5b506100aa6100e73660046109d4565b6102e5565b3480156100f857600080fd5b5061010c6101073660046109b3565b6103a1565b6040516101199190610cc6565b60405180910390f35b34801561012e57600080fd5b506100aa61040e565b34801561014357600080fd5b506100aa6101523660046109fd565b610459565b34801561016357600080fd5b5061016c610597565b6040516101199190610a7c565b6100aa6101873660046109b3565b6105a6565b34801561019857600080fd5b506100aa6101a73660046109b3565b61089c565b6101b461090d565b6001600160a01b03166101c5610597565b6001600160a01b0316146101f45760405162461bcd60e51b81526004016101eb90610c08565b60405180910390fd5b6001600160a01b0382166000908152600160205260409020546102295760405162461bcd60e51b81526004016101eb90610c3d565b6000811161023657600080fd5b6001600160a01b03909116600090815260016020526040902055565b61025a61090d565b6001600160a01b031661026b610597565b6001600160a01b0316146102915760405162461bcd60e51b81526004016101eb90610c08565b6001600160a01b0382166000908152600160205260409020546102c65760405162461bcd60e51b81526004016101eb90610c3d565b6001600160a01b03909116600090815260016020526040902060020155565b6102ed61090d565b6001600160a01b03166102fe610597565b6001600160a01b0316146103245760405162461bcd60e51b81526004016101eb90610c08565b6001600160a01b0382166000908152600160205260409020546103595760405162461bcd60e51b81526004016101eb90610c3d565b80158061036557504281115b6103815760405162461bcd60e51b81526004016101eb90610b5e565b6001600160a01b0390911660009081526001602081905260409091200155565b6103a9610961565b506001600160a01b03818116600090815260016020818152604092839020835160a0810185528154815292810154918301919091526002810154928201929092526003909101549182166060820152600160a01b90910460ff1660808201525b919050565b61041661090d565b6001600160a01b0316610427610597565b6001600160a01b03161461044d5760405162461bcd60e51b81526004016101eb90610c08565b6104576000610911565b565b6001600160a01b0386161580159061047a57506001600160a01b0386163014155b61048357600080fd5b6001600160a01b038616600090815260016020526040902054156104b95760405162461bcd60e51b81526004016101eb90610c82565b600085116104d95760405162461bcd60e51b81526004016101eb90610bdb565b8315806104e557504284115b6105015760405162461bcd60e51b81526004016101eb90610b5e565b6040805160a08101825295865260208087019586528682019485526001600160a01b039384166060880190815260ff9384166080890190815298851660009081526001928390529290922096518755945194860194909455915160028501559151600390930180549451909116600160a01b0260ff60a01b19939092166001600160a01b03199094169390931791909116179055565b6000546001600160a01b031690565b33158015906105b55750333014155b6105be57600080fd5b6001600160a01b0381166000908152600160205260409020546105f35760405162461bcd60e51b81526004016101eb90610c3d565b6001600160a01b03811660009081526001602081905260409091200154158061063757506001600160a01b0381166000908152600160208190526040909120015442105b6106535760405162461bcd60e51b81526004016101eb90610ad6565b6001600160a01b03811660009081526001602052604090205434101561068b5760405162461bcd60e51b81526004016101eb90610b18565b6000816001600160a01b03166318160ddd6040518163ffffffff1660e01b815260040160206040518083038186803b1580156106c657600080fd5b505afa1580156106da573d6000803e3d6000fd5b505050506040513d601f19601f820116820180604052508101906106fe9190610a64565b6001600160a01b038316600090815260016020526040902060020154909150158061074357506001600160a01b03821660009081526001602052604090206002015481105b61075f5760405162461bcd60e51b81526004016101eb90610bac565b6040516335313c2160e11b81526001600160a01b03831690636a6278429061078b903390600401610a7c565b600060405180830381600087803b1580156107a557600080fd5b505af11580156107b9573d6000803e3d6000fd5b505050506001600160a01b038216600090815260016020526040812060030154600160a01b900460ff166107ee606434610d07565b6107f89190610d27565b905060006108068234610d46565b6001600160a01b038086166000908152600160205260408082206003015490519394509091169184156108fc0291859190818181858888f19350505050158015610854573d6000803e3d6000fd5b5061085d610597565b6001600160a01b03166108fc829081150290604051600060405180830381858888f19350505050158015610895573d6000803e3d6000fd5b5050505050565b6108a461090d565b6001600160a01b03166108b5610597565b6001600160a01b0316146108db5760405162461bcd60e51b81526004016101eb90610c08565b6001600160a01b0381166109015760405162461bcd60e51b81526004016101eb90610a90565b61090a81610911565b50565b3390565b600080546001600160a01b038381166001600160a01b0319831681178455604051919092169283917f8be0079c531659141344cd1fd0a4f28419497f9722a3daafe3b4186f6b6457e09190a35050565b6040518060a0016040528060008152602001600081526020016000815260200160006001600160a01b03168152602001600060ff1681525090565b80356001600160a01b038116811461040957600080fd5b6000602082840312156109c4578081fd5b6109cd8261099c565b9392505050565b600080604083850312156109e6578081fd5b6109ef8361099c565b946020939093013593505050565b60008060008060008060c08789031215610a15578182fd5b610a1e8761099c565b9550602087013594506040870135935060608701359250610a416080880161099c565b915060a087013560ff81168114610a56578182fd5b809150509295509295509295565b600060208284031215610a75578081fd5b5051919050565b6001600160a01b0391909116815260200190565b60208082526026908201527f4f776e61626c653a206e6577206f776e657220697320746865207a65726f206160408201526564647265737360d01b606082015260800190565b60208082526022908201527f43616e277420627579206166746572206d617820646174652069732070617373604082015261195960f21b606082015260800190565b60208082526026908201527f4e65656420746f2073656e64206174206c6561737420746865207072696365206040820152651bd98813919560d21b606082015260800190565b6020808252602e908201527f69662064617465206973207061737365642c206974206d75737420686967686560408201526d1c881d1a185b8818dd5c9c995b9d60921b606082015260800190565b6020808252601590820152744e6f206d6f7265204e465420617661696c61626c6560581b604082015260600190565b60208082526013908201527210481c1c9a58d9481a5cc81c995c5d5a5c9959606a1b604082015260600190565b6020808252818101527f4f776e61626c653a2063616c6c6572206973206e6f7420746865206f776e6572604082015260600190565b60208082526025908201527f4120636f6e74726163742073686f756c642065786973747320666f72207468696040820152641cc81b999d60da1b606082015260800190565b60208082526024908201527f636f6e747261637420616c72656164792065786973747320666f722074686973604082015263081b999d60e21b606082015260800190565b8151815260208083015190820152604080830151908201526060808301516001600160a01b03169082015260809182015160ff169181019190915260a00190565b600082610d2257634e487b7160e01b81526012600452602481fd5b500490565b6000816000190483118215151615610d4157610d41610d5d565b500290565b600082821015610d5857610d58610d5d565b500390565b634e487b7160e01b600052601160045260246000fdfea2646970667358221220ee09b4b53746edaf6abe5726c625f280b4de35908874a708e33920bec0124c9c64736f6c63430008000033",
  "immutableReferences": {},
  "source": "pragma solidity ^0.8.0;\n\nimport \"./ThetaboardNFT.sol\";\nimport \"@openzeppelin/contracts/access/Ownable.sol\";\n\n/**\n * @title nft_sell\n * sell NFT for thetaboard.io\n */\ncontract ThetaboardDirectSellNft is Ownable {\n\n    struct nftSell {\n        uint256 price;\n        uint256 maxDate;\n        uint256 maxMint;\n        address artistWallet;\n        uint8 artistSplit;\n    }\n\n    mapping(address => nftSell) NFTsSell;\n\n    /**\n    * @dev enable a new NFT to be minted from this contract\n    * @dev _nftAddress and _nftPrice are required\n    * _maxDate and _maxMint are optionals ( can be passed ar 0 to be ignored)\n    * _artistSplit percentage of the sells will be send to _artistWallet\n    */\n    function newSell(address _nftAddress, uint256 _nftPrice, uint256 _maxDate, uint256 _maxMint, address _artistWallet, uint8 _artistSplit) public {\n        require(_nftAddress != address(0) && _nftAddress != address(this));\n        require(NFTsSell[_nftAddress].price == 0, \"contract already exists for this nft\");\n        require(_nftPrice > 0, \"A price is required\");\n        require(_maxDate == 0 || _maxDate > block.timestamp, \"if date is passed, it must higher than current\");\n        NFTsSell[_nftAddress] = nftSell({\n        price : _nftPrice,\n        maxDate : _maxDate,\n        maxMint : _maxMint,\n        artistWallet : _artistWallet,\n        artistSplit : _artistSplit\n        });\n    }\n\n    /**\n    * @dev purchase a newly minted token from _nftAddress\n    * Purchase a token\n    */\n    function purchaseToken(address _nftAddress) public payable {\n        require(msg.sender != address(0) && msg.sender != address(this));\n        require(NFTsSell[_nftAddress].price != 0, \"A contract should exists for this nft\");\n        require(NFTsSell[_nftAddress].maxDate == 0 || NFTsSell[_nftAddress].maxDate > block.timestamp, \"Can't buy after max date is passed\");\n        require(NFTsSell[_nftAddress].price <= msg.value, \"Need to send at least the price of NFT\");\n        uint currentSupply = ThetaboardNFT(_nftAddress).totalSupply();\n        require(NFTsSell[_nftAddress].maxMint == 0 || currentSupply < NFTsSell[_nftAddress].maxMint, \"No more NFT available\");\n        ThetaboardNFT(_nftAddress).mint(msg.sender);\n\n        uint artistValue = msg.value / 100 * NFTsSell[_nftAddress].artistSplit;\n        uint ownerValue = msg.value - artistValue;\n\n        payable(NFTsSell[_nftAddress].artistWallet).transfer(artistValue);\n        payable(owner()).transfer(ownerValue);\n    }\n\n    /**\n    * @dev Updates _price for _nftAddress\n    * @dev Throws if _price is zero\n    */\n    function setPrice(address _nftAddress, uint256 _price) public onlyOwner {\n        require(NFTsSell[_nftAddress].price != 0, \"A contract should exists for this nft\");\n        require(_price > 0);\n        NFTsSell[_nftAddress].price = _price;\n    }\n\n    /**\n    * @dev Updates maxDate for _nftAddress\n    * @dev Throws if date is in the past\n    */\n    function setMaxDate(address _nftAddress, uint256 _maxDate) public onlyOwner {\n        require(NFTsSell[_nftAddress].price != 0, \"A contract should exists for this nft\");\n        require(_maxDate == 0 || _maxDate > block.timestamp, \"if date is passed, it must higher than current\");\n        NFTsSell[_nftAddress].maxDate = _maxDate;\n    }\n\n    /**\n    * @dev Updates maxMint for _nftAddress\n    */\n    function setMaxMint(address _nftAddress, uint256 _maxMint) public onlyOwner {\n        require(NFTsSell[_nftAddress].price != 0, \"A contract should exists for this nft\");\n        NFTsSell[_nftAddress].maxMint = _maxMint;\n    }\n\n    /**\n    * Get info about currently sold contract\n    */\n    function getNftSell(address _nftAddress) public view returns (nftSell memory) {\n        return NFTsSell[_nftAddress];\n    }\n\n}",
  "sourcePath": "/Users/maurin.lenglart/IdeaProjects/thetaboard/smart_contracts/contracts/ThetaboardDirectSellNft.sol",
  "compiler": {
    "name": "solc",
    "version": "0.8.0+commit.c7dfd78e.Emscripten.clang"
  },
  "schemaVersion": "3.4.7",
  "updatedAt": "2022-04-11T22:21:58.616Z",
  "networkType": "ethereum",
  "devdoc": {
    "kind": "dev",
    "methods": {
      "newSell(address,uint256,uint256,uint256,address,uint8)": {
        "details": "enable a new NFT to be minted from this contract_nftAddress and _nftPrice are required _maxDate and _maxMint are optionals ( can be passed ar 0 to be ignored) _artistSplit percentage of the sells will be send to _artistWallet"
      },
      "owner()": {
        "details": "Returns the address of the current owner."
      },
      "purchaseToken(address)": {
        "details": "purchase a newly minted token from _nftAddress Purchase a token"
      },
      "renounceOwnership()": {
        "details": "Leaves the contract without owner. It will not be possible to call `onlyOwner` functions anymore. Can only be called by the current owner. NOTE: Renouncing ownership will leave the contract without an owner, thereby removing any functionality that is only available to the owner."
      },
      "setMaxDate(address,uint256)": {
        "details": "Updates maxDate for _nftAddressThrows if date is in the past"
      },
      "setMaxMint(address,uint256)": {
        "details": "Updates maxMint for _nftAddress"
      },
      "setPrice(address,uint256)": {
        "details": "Updates _price for _nftAddressThrows if _price is zero"
      },
      "transferOwnership(address)": {
        "details": "Transfers ownership of the contract to a new account (`newOwner`). Can only be called by the current owner."
      }
    },
    "title": "nft_sell sell NFT for thetaboard.io",
    "version": 1
  },
  "userdoc": {
    "kind": "user",
    "methods": {
      "getNftSell(address)": {
        "notice": "Get info about currently sold contract"
      }
    },
    "version": 1
  }
}