{
  "contractName": "ThetaboardOffer",
  "abi": [
    {
      "inputs": [],
      "stateMutability": "nonpayable",
      "type": "constructor"
    },
    {
      "anonymous": false,
      "inputs": [
        {
          "indexed": false,
          "internalType": "uint256",
          "name": "userPayout",
          "type": "uint256"
        },
        {
          "indexed": false,
          "internalType": "address",
          "name": "userAddress",
          "type": "address"
        },
        {
          "indexed": false,
          "internalType": "uint256",
          "name": "ownerPayout",
          "type": "uint256"
        },
        {
          "indexed": false,
          "internalType": "address",
          "name": "ownerAddress",
          "type": "address"
        },
        {
          "indexed": false,
          "internalType": "uint256",
          "name": "creatorPayout",
          "type": "uint256"
        },
        {
          "indexed": false,
          "internalType": "address",
          "name": "creatorAddress",
          "type": "address"
        }
      ],
      "name": "FeeSplit",
      "type": "event"
    },
    {
      "anonymous": false,
      "inputs": [
        {
          "indexed": false,
          "internalType": "uint256",
          "name": "itemId",
          "type": "uint256"
        },
        {
          "indexed": false,
          "internalType": "address",
          "name": "nftContract",
          "type": "address"
        },
        {
          "indexed": false,
          "internalType": "uint256",
          "name": "tokenId",
          "type": "uint256"
        },
        {
          "indexed": false,
          "internalType": "address payable",
          "name": "offerer",
          "type": "address"
        },
        {
          "indexed": false,
          "internalType": "address payable",
          "name": "offered",
          "type": "address"
        },
        {
          "indexed": false,
          "internalType": "uint256",
          "name": "price",
          "type": "uint256"
        }
      ],
      "name": "OfferAccepted",
      "type": "event"
    },
    {
      "anonymous": false,
      "inputs": [
        {
          "indexed": false,
          "internalType": "uint256",
          "name": "itemId",
          "type": "uint256"
        },
        {
          "indexed": false,
          "internalType": "address",
          "name": "nftContract",
          "type": "address"
        },
        {
          "indexed": false,
          "internalType": "uint256",
          "name": "tokenId",
          "type": "uint256"
        },
        {
          "indexed": false,
          "internalType": "address payable",
          "name": "offerer",
          "type": "address"
        },
        {
          "indexed": false,
          "internalType": "uint256",
          "name": "price",
          "type": "uint256"
        }
      ],
      "name": "OfferCanceled",
      "type": "event"
    },
    {
      "anonymous": false,
      "inputs": [
        {
          "indexed": false,
          "internalType": "uint256",
          "name": "itemId",
          "type": "uint256"
        },
        {
          "indexed": false,
          "internalType": "address",
          "name": "nftContract",
          "type": "address"
        },
        {
          "indexed": false,
          "internalType": "uint256",
          "name": "tokenId",
          "type": "uint256"
        },
        {
          "indexed": false,
          "internalType": "address payable",
          "name": "offerer",
          "type": "address"
        },
        {
          "indexed": false,
          "internalType": "uint256",
          "name": "price",
          "type": "uint256"
        }
      ],
      "name": "OfferCreated",
      "type": "event"
    },
    {
      "anonymous": false,
      "inputs": [
        {
          "indexed": false,
          "internalType": "uint256",
          "name": "itemId",
          "type": "uint256"
        },
        {
          "indexed": false,
          "internalType": "address",
          "name": "nftContract",
          "type": "address"
        },
        {
          "indexed": false,
          "internalType": "uint256",
          "name": "tokenId",
          "type": "uint256"
        },
        {
          "indexed": false,
          "internalType": "address payable",
          "name": "offerer",
          "type": "address"
        },
        {
          "indexed": false,
          "internalType": "address payable",
          "name": "offered",
          "type": "address"
        },
        {
          "indexed": false,
          "internalType": "uint256",
          "name": "price",
          "type": "uint256"
        }
      ],
      "name": "OfferDenied",
      "type": "event"
    },
    {
      "anonymous": false,
      "inputs": [
        {
          "indexed": false,
          "internalType": "address",
          "name": "sender",
          "type": "address"
        },
        {
          "indexed": false,
          "internalType": "address",
          "name": "owner",
          "type": "address"
        },
        {
          "indexed": false,
          "internalType": "uint256",
          "name": "tokenId",
          "type": "uint256"
        }
      ],
      "name": "test",
      "type": "event"
    },
    {
      "stateMutability": "payable",
      "type": "fallback",
      "payable": true
    },
    {
      "inputs": [],
      "name": "listingIsActive",
      "outputs": [
        {
          "internalType": "bool",
          "name": "",
          "type": "bool"
        }
      ],
      "stateMutability": "view",
      "type": "function",
      "constant": true
    },
    {
      "stateMutability": "payable",
      "type": "receive",
      "payable": true
    },
    {
      "inputs": [],
      "name": "getSalesFee",
      "outputs": [
        {
          "internalType": "uint256",
          "name": "",
          "type": "uint256"
        }
      ],
      "stateMutability": "view",
      "type": "function",
      "constant": true
    },
    {
      "inputs": [
        {
          "internalType": "address",
          "name": "nftContract",
          "type": "address"
        },
        {
          "internalType": "uint256",
          "name": "tokenId",
          "type": "uint256"
        }
      ],
      "name": "createNewOffer",
      "outputs": [],
      "stateMutability": "payable",
      "type": "function",
      "payable": true
    },
    {
      "inputs": [
        {
          "internalType": "uint256",
          "name": "itemId",
          "type": "uint256"
        },
        {
          "internalType": "address",
          "name": "creator",
          "type": "address"
        },
        {
          "internalType": "uint256",
          "name": "creatorSplit",
          "type": "uint256"
        }
      ],
      "name": "acceptOffer",
      "outputs": [],
      "stateMutability": "nonpayable",
      "type": "function"
    },
    {
      "inputs": [
        {
          "internalType": "uint256",
          "name": "itemId",
          "type": "uint256"
        }
      ],
      "name": "denyOffer",
      "outputs": [],
      "stateMutability": "nonpayable",
      "type": "function"
    },
    {
      "inputs": [
        {
          "internalType": "uint256",
          "name": "itemId",
          "type": "uint256"
        }
      ],
      "name": "cancelOffer",
      "outputs": [],
      "stateMutability": "nonpayable",
      "type": "function"
    },
    {
      "inputs": [],
      "name": "fetchOffers",
      "outputs": [
        {
          "components": [
            {
              "internalType": "uint256",
              "name": "itemId",
              "type": "uint256"
            },
            {
              "internalType": "address",
              "name": "nftContract",
              "type": "address"
            },
            {
              "internalType": "uint256",
              "name": "tokenId",
              "type": "uint256"
            },
            {
              "internalType": "address payable",
              "name": "offerer",
              "type": "address"
            },
            {
              "internalType": "address payable",
              "name": "offered",
              "type": "address"
            },
            {
              "internalType": "uint256",
              "name": "price",
              "type": "uint256"
            },
            {
              "internalType": "bool",
              "name": "isSold",
              "type": "bool"
            }
          ],
          "internalType": "struct ThetaboardOffer.OfferItem[]",
          "name": "",
          "type": "tuple[]"
        }
      ],
      "stateMutability": "view",
      "type": "function",
      "constant": true
    },
    {
      "inputs": [
        {
          "internalType": "uint256",
          "name": "start",
          "type": "uint256"
        },
        {
          "internalType": "uint256",
          "name": "end",
          "type": "uint256"
        }
      ],
      "name": "fetchOffersByRange",
      "outputs": [
        {
          "components": [
            {
              "internalType": "uint256",
              "name": "itemId",
              "type": "uint256"
            },
            {
              "internalType": "address",
              "name": "nftContract",
              "type": "address"
            },
            {
              "internalType": "uint256",
              "name": "tokenId",
              "type": "uint256"
            },
            {
              "internalType": "address payable",
              "name": "offerer",
              "type": "address"
            },
            {
              "internalType": "address payable",
              "name": "offered",
              "type": "address"
            },
            {
              "internalType": "uint256",
              "name": "price",
              "type": "uint256"
            },
            {
              "internalType": "bool",
              "name": "isSold",
              "type": "bool"
            }
          ],
          "internalType": "struct ThetaboardOffer.OfferItem[]",
          "name": "",
          "type": "tuple[]"
        }
      ],
      "stateMutability": "view",
      "type": "function",
      "constant": true
    },
    {
      "inputs": [
        {
          "internalType": "address",
          "name": "offerer",
          "type": "address"
        }
      ],
      "name": "fetchOffersForAddress",
      "outputs": [
        {
          "components": [
            {
              "internalType": "uint256",
              "name": "itemId",
              "type": "uint256"
            },
            {
              "internalType": "address",
              "name": "nftContract",
              "type": "address"
            },
            {
              "internalType": "uint256",
              "name": "tokenId",
              "type": "uint256"
            },
            {
              "internalType": "address payable",
              "name": "offerer",
              "type": "address"
            },
            {
              "internalType": "address payable",
              "name": "offered",
              "type": "address"
            },
            {
              "internalType": "uint256",
              "name": "price",
              "type": "uint256"
            },
            {
              "internalType": "bool",
              "name": "isSold",
              "type": "bool"
            }
          ],
          "internalType": "struct ThetaboardOffer.OfferItem[]",
          "name": "",
          "type": "tuple[]"
        }
      ],
      "stateMutability": "view",
      "type": "function",
      "constant": true
    },
    {
      "inputs": [
        {
          "internalType": "uint256",
          "name": "id",
          "type": "uint256"
        }
      ],
      "name": "getByMarketId",
      "outputs": [
        {
          "components": [
            {
              "internalType": "uint256",
              "name": "itemId",
              "type": "uint256"
            },
            {
              "internalType": "address",
              "name": "nftContract",
              "type": "address"
            },
            {
              "internalType": "uint256",
              "name": "tokenId",
              "type": "uint256"
            },
            {
              "internalType": "address payable",
              "name": "offerer",
              "type": "address"
            },
            {
              "internalType": "address payable",
              "name": "offered",
              "type": "address"
            },
            {
              "internalType": "uint256",
              "name": "price",
              "type": "uint256"
            },
            {
              "internalType": "bool",
              "name": "isSold",
              "type": "bool"
            }
          ],
          "internalType": "struct ThetaboardOffer.OfferItem",
          "name": "",
          "type": "tuple"
        }
      ],
      "stateMutability": "view",
      "type": "function",
      "constant": true
    },
    {
      "inputs": [
        {
          "internalType": "address",
          "name": "nftContract",
          "type": "address"
        },
        {
          "internalType": "uint256",
          "name": "tokenId",
          "type": "uint256"
        },
        {
          "internalType": "address",
          "name": "walletAddress",
          "type": "address"
        }
      ],
      "name": "getByNftContractTokenIdAddress",
      "outputs": [
        {
          "components": [
            {
              "internalType": "uint256",
              "name": "itemId",
              "type": "uint256"
            },
            {
              "internalType": "address",
              "name": "nftContract",
              "type": "address"
            },
            {
              "internalType": "uint256",
              "name": "tokenId",
              "type": "uint256"
            },
            {
              "internalType": "address payable",
              "name": "offerer",
              "type": "address"
            },
            {
              "internalType": "address payable",
              "name": "offered",
              "type": "address"
            },
            {
              "internalType": "uint256",
              "name": "price",
              "type": "uint256"
            },
            {
              "internalType": "bool",
              "name": "isSold",
              "type": "bool"
            }
          ],
          "internalType": "struct ThetaboardOffer.OfferItem",
          "name": "",
          "type": "tuple"
        }
      ],
      "stateMutability": "view",
      "type": "function",
      "constant": true
    },
    {
      "inputs": [
        {
          "internalType": "uint256",
          "name": "fee",
          "type": "uint256"
        }
      ],
      "name": "setSalesFeeBasisPoints",
      "outputs": [],
      "stateMutability": "nonpayable",
      "type": "function"
    }
  ],
  "bytecode": "0x608060405260196004556005805460ff1916600117905534801561002257600080fd5b506001600055600380546001600160a01b03191633179055611a34806100496000396000f3fe6080604052600436106100ab5760003560e01c8063838e1a9311610064578063838e1a93146101995780639589d7b9146101ac57806399da2381146101cc578063b3451eac146101e1578063c522c13d14610203578063ef706adf14610223576100b2565b806314346b8f146100b457806329ba6d59146100ea5780632f5ab9721461010a57806330317f071461012c5780635825ba1f146101595780637746dfa914610179576100b2565b366100b257005b005b3480156100c057600080fd5b506100d46100cf3660046114f8565b610243565b6040516100e191906115f9565b60405180910390f35b3480156100f657600080fd5b506100d46101053660046113fe565b6103e6565b34801561011657600080fd5b5061011f6105fb565b6040516100e191906118a6565b34801561013857600080fd5b5061014c6101473660046114a9565b610601565b6040516100e19190611898565b34801561016557600080fd5b5061014c610174366004611468565b6106af565b34801561018557600080fd5b506100b26101943660046114a9565b6107a4565b6100b26101a736600461143d565b6109a4565b3480156101b857600080fd5b506100b26101c73660046114c1565b610bba565b3480156101d857600080fd5b506100d4611018565b3480156101ed57600080fd5b506101f66111db565b6040516100e19190611647565b34801561020f57600080fd5b506100b261021e3660046114a9565b6111e4565b34801561022f57600080fd5b506100b261023e3660046114a9565b611235565b60606000610251848461199e565b90506000808267ffffffffffffffff81111561027d57634e487b7160e01b600052604160045260246000fd5b6040519080825280602002602001820160405280156102b657816020015b6102a36113c2565b81526020019060019003908161029b5790505b509050855b858110156103da5760006006816102d3846001611947565b81526020810191909152604001600020600401546001600160a01b031614156103c8576000600681610306846001611947565b81526020808201929092526040908101600090812054808252600680855291839020835160e0810185528154815260018201546001600160a01b039081169682019690965260028201549481019490945260038101548516606085015260048101549094166080840152600584015460a08401529083015460ff16151560c083015285519093508590879081106103ad57634e487b7160e01b600052603260045260246000fd5b60209081029190910101526103c3600186611947565b945050505b806103d2816119b5565b9150506102bb565b50925050505b92915050565b606060006103f460016113b5565b905060008060005b83811015610460576001600160a01b0386166006600061041d846001611947565b81526020810191909152604001600020600301546001600160a01b0316141561044e5761044b600184611947565b92505b80610458816119b5565b9150506103fc565b5060008267ffffffffffffffff81111561048a57634e487b7160e01b600052604160045260246000fd5b6040519080825280602002602001820160405280156104c357816020015b6104b06113c2565b8152602001906001900390816104a85790505b50905060005b848110156105f1576001600160a01b038716600660006104ea846001611947565b81526020810191909152604001600020600301546001600160a01b031614156105df57600060068161051d846001611947565b81526020808201929092526040908101600090812054808252600680855291839020835160e0810185528154815260018201546001600160a01b039081169682019690965260028201549481019490945260038101548516606085015260048101549094166080840152600584015460a08401529083015460ff16151560c083015285519093508590879081106105c457634e487b7160e01b600052603260045260246000fd5b60209081029190910101526105da600186611947565b945050505b806105e9816119b5565b9150506104c9565b5095945050505050565b60045490565b6106096113c2565b61061360016113b5565b82111561063b5760405162461bcd60e51b815260040161063290611837565b60405180910390fd5b50600090815260066020818152604092839020835160e0810185528154815260018201546001600160a01b039081169382019390935260028201549481019490945260038101548216606085015260048101549091166080840152600581015460a0840152015460ff16151560c082015290565b6106b76113c2565b60008484846040516020016106ce9392919061156f565b604051602081830303815290604052905060006007826040516106f1919061159c565b908152602001604051809103902054905061070c60016113b5565b81111561072b5760405162461bcd60e51b815260040161063290611837565b600090815260066020818152604092839020835160e0810185528154815260018201546001600160a01b039081169382019390935260028201549481019490945260038101548216606085015260048101549091166080840152600581015460a0840152015460ff16151560c082015295945050505050565b600260005414156107c75760405162461bcd60e51b815260040161063290611861565b60026000908155818152600660208190526040909120015460ff16156107ff5760405162461bcd60e51b815260040161063290611753565b6000818152600660205260409081902060058101546002820154600183015460039093015493516331a9108f60e11b8152919390926001600160a01b039081169291169033908390636352211e9061085b9087906004016118a6565b60206040518083038186803b15801561087357600080fd5b505afa158015610887573d6000803e3d6000fd5b505050506040513d601f19601f820116820180604052508101906108ab9190611421565b6001600160a01b0316146108d15760405162461bcd60e51b8152600401610632906116d3565b6000858152600660208190526040808320909101805460ff19166001179055516001600160a01b0383169186156108fc02918791818181858888f19350505050158015610922573d6000803e3d6000fd5b5061092d60026113b9565b600085815260066020526040908190206001810154600282015460039092015492517f51ce4b3727b178f8acf5ef860ff1f24269fe00a28ae5b1c868d2d672f032772a93610990938a936001600160a01b03908116939192169033908b906118af565b60405180910390a150506001600055505050565b600260005414156109c75760405162461bcd60e51b815260040161063290611861565b600260005560055460ff1615156001146109f35760405162461bcd60e51b815260040161063290611781565b60003411610a135760405162461bcd60e51b81526004016106329061169c565b6000828233604051602001610a2a9392919061156f565b6040516020818303038152906040529050600781604051610a4b919061159c565b908152602001604051809103902054600014610a795760405162461bcd60e51b815260040161063290611652565b610a8360016113b9565b6000610a8f60016113b5565b6040805160e0810182528281526001600160a01b03878116602080840191825283850189815233606086019081526000608087018181523460a0890190815260c089018381528b8452600696879052928a90209851895595516001890180546001600160a01b0319908116928a169290921790559351600289015591516003880180548516918816919091179055905160048701805490931695169490941790559051600584015590519101805460ff1916911515919091179055519091508190600790610b5e90859061159c565b9081526020016040518091039020819055507f4f5197b68ea8fcc47dcb8c308638e0cd97f6f51e8480ea7b65eeba557c1787988185853334604051610ba79594939291906118e5565b60405180910390a1505060016000555050565b60026000541415610bdd5760405162461bcd60e51b815260040161063290611861565b60026000908155838152600660208190526040909120015460ff1615610c155760405162461bcd60e51b815260040161063290611753565b6000838152600660205260409081902060058101546002820154600183015460039093015493516331a9108f60e11b8152919390926001600160a01b03908116928392909116907ffd9ba018969dd86e7ba135828d59a2699a08afa1707a9e2d6afeaf177f6754f29033908490636352211e90610c969089906004016118a6565b60206040518083038186803b158015610cae57600080fd5b505afa158015610cc2573d6000803e3d6000fd5b505050506040513d601f19601f82011682018060405250810190610ce69190611421565b86604051610cf6939291906115d5565b60405180910390a16040516331a9108f60e11b815233906001600160a01b03841690636352211e90610d2c9088906004016118a6565b60206040518083038186803b158015610d4457600080fd5b505afa158015610d58573d6000803e3d6000fd5b505050506040513d601f19601f82011682018060405250810190610d7c9190611421565b6001600160a01b031614610da25760405162461bcd60e51b8152600401610632906117ec565b6040516323b872dd60e01b81526001600160a01b038416906323b872dd90610dd2903390859089906004016115d5565b600060405180830381600087803b158015610dec57600080fd5b505af1158015610e00573d6000803e3d6000fd5b5050506000898152600660208190526040909120908101805460ff1916600117905560040180546001600160a01b0319163317905550610e4060026113b9565b6000806004546103e888610e54919061195f565b610e5e919061197f565b905060006001600160a01b038a1615801590610e7a5750600089115b8015610e8757506103cf89105b15610ef95788610e996103e88a61195f565b610ea3919061197f565b6040519093506001600160a01b038b169084156108fc029085906000818181858888f19350505050158015610edc573d6000803e3d6000fd5b5081610ee8848a61199e565b610ef2919061199e565b9050610f06565b610f03828961199e565b90505b604051339082156108fc029083906000818181858888f19350505050158015610f33573d6000803e3d6000fd5b506003546040516001600160a01b039091169083156108fc029084906000818181858888f19350505050158015610f6e573d6000803e3d6000fd5b507f0558bd86271bcc52fd8309a5f872832242ded0003777714c76da6ecfc871a3798b878987338d604051610fa8969594939291906118af565b60405180910390a17f7e06111c2f996dd70140b09a1b769e48e2e8fffbd0179a6e24552f65d25b8b16813384600360009054906101000a90046001600160a01b0316878f604051610ffe96959493929190611913565b60405180910390a150506001600055505050505050505050565b6060600061102660016113b5565b9050600061103460026113b5565b61103e60016113b5565b611048919061199e565b90506000808267ffffffffffffffff81111561107457634e487b7160e01b600052604160045260246000fd5b6040519080825280602002602001820160405280156110ad57816020015b61109a6113c2565b8152602001906001900390816110925790505b50905060005b848110156111d25760006006816110cb846001611947565b81526020810191909152604001600020600401546001600160a01b031614156111c05760006006816110fe846001611947565b81526020808201929092526040908101600090812054808252600680855291839020835160e0810185528154815260018201546001600160a01b039081169682019690965260028201549481019490945260038101548516606085015260048101549094166080840152600584015460a08401529083015460ff16151560c083015285519093508590879081106111a557634e487b7160e01b600052603260045260246000fd5b60209081029190910101526111bb600186611947565b945050505b806111ca816119b5565b9150506110b3565b50935050505090565b60055460ff1681565b6003546001600160a01b0316331461120e5760405162461bcd60e51b81526004016106329061171c565b6103e88111156112305760405162461bcd60e51b8152600401610632906117ab565b600455565b600260005414156112585760405162461bcd60e51b815260040161063290611861565b60026000908155818152600660208190526040909120015460ff16156112905760405162461bcd60e51b815260040161063290611753565b6000818152600660205260409020600581015460028201546001830154600390930154919290916001600160a01b039182169116338114806112dc57506003546001600160a01b031633145b6112f85760405162461bcd60e51b8152600401610632906116d3565b6000858152600660208190526040808320909101805460ff19166001179055516001600160a01b0383169186156108fc02918791818181858888f19350505050158015611349573d6000803e3d6000fd5b5061135460026113b9565b600085815260066020526040908190206001810154600282015460039092015492517f223f06eba7f1c6b29a38002d2b1e351a0130721cb950a87566abd815a275528193610990938a936001600160a01b0390811693919216908a906118e5565b5490565b80546001019055565b6040805160e081018252600080825260208201819052918101829052606081018290526080810182905260a0810182905260c081019190915290565b60006020828403121561140f578081fd5b813561141a816119e6565b9392505050565b600060208284031215611432578081fd5b815161141a816119e6565b6000806040838503121561144f578081fd5b823561145a816119e6565b946020939093013593505050565b60008060006060848603121561147c578081fd5b8335611487816119e6565b925060208401359150604084013561149e816119e6565b809150509250925092565b6000602082840312156114ba578081fd5b5035919050565b6000806000606084860312156114d5578283fd5b8335925060208401356114e7816119e6565b929592945050506040919091013590565b6000806040838503121561150a578182fd5b50508035926020909101359150565b80518252602081015160018060a01b03808216602085015260408301516040850152806060840151166060850152806080840151166080850152505060a081015160a083015260c0810151151560c08301525050565b6bffffffffffffffffffffffff19606094851b811682526014820193909352921b16603482015260480190565b60008251815b818110156115bc57602081860181015185830152016115a2565b818111156115ca5782828501525b509190910192915050565b6001600160a01b039384168152919092166020820152604081019190915260600190565b6020808252825182820181905260009190848201906040850190845b8181101561163b57611628838551611519565b9284019260e09290920191600101611615565b50909695505050505050565b901515815260200190565b6020808252602a908201527f57616c6c657420616c7265616479206d61646520616e206f6666657220666f726040820152692074686973206974656d60b01b606082015260800190565b6020808252601b908201527f4f66666572206d75737420626520686967686572207468616e20300000000000604082015260600190565b60208082526029908201527f596f75206d75737420626520746f6b656e206f776e657220746f2064656e79206040820152683a34329037b33332b960b91b606082015260800190565b6020808252601f908201527f4f6e6c79206f776e65722063616e20736574206c697374696e67507269636500604082015260600190565b602080825260149082015273125d195b481a5cc8185b1c9958591e481cdbdb1960621b604082015260600190565b60208082526010908201526f131a5cdd1a5b99c8191a5cd8589b195960821b604082015260600190565b60208082526021908201527f53616c6573204665652063616e7420626520686967686572207468616e2031306040820152602560f81b606082015260800190565b6020808252602b908201527f596f75206d75737420626520746f6b656e206f776e657220746f20616363657060408201526a3a103a34329037b33332b960a91b606082015260800190565b60208082526010908201526f1a5908191bd95cdb89dd08195e1a5cdd60821b604082015260600190565b6020808252601f908201527f5265656e7472616e637947756172643a207265656e7472616e742063616c6c00604082015260600190565b60e081016103e08284611519565b90815260200190565b9586526001600160a01b03948516602087015260408601939093529083166060850152909116608083015260a082015260c00190565b9485526001600160a01b03938416602086015260408501929092529091166060830152608082015260a00190565b9586526001600160a01b0394851660208701526040860193909352908316606085015260808401521660a082015260c00190565b6000821982111561195a5761195a6119d0565b500190565b60008261197a57634e487b7160e01b81526012600452602481fd5b500490565b6000816000190483118215151615611999576119996119d0565b500290565b6000828210156119b0576119b06119d0565b500390565b60006000198214156119c9576119c96119d0565b5060010190565b634e487b7160e01b600052601160045260246000fd5b6001600160a01b03811681146119fb57600080fd5b5056fea2646970667358221220aac3625eed42b9cf654cc160f2745136e66fd835d4f5a752db0c8d730987ea4d64736f6c63430008000033",
  "immutableReferences": {},
  "source": "pragma solidity ^0.8.0;\n\nimport \"@openzeppelin/contracts/utils/Counters.sol\";\nimport \"@openzeppelin/contracts/security/ReentrancyGuard.sol\";\nimport \"@openzeppelin/contracts/token/ERC721/ERC721.sol\";\n\n\ncontract ThetaboardOffer is ReentrancyGuard {\n    using Counters for Counters.Counter;\n    Counters.Counter private _itemIds; // Id for each individual item\n    Counters.Counter private _itemsSold; // Number of items sold\n\n    address payable owner; // The owner of the NFTMarket contract\n    uint256 salesFeeBasisPoints = 25; // % of split for thetaboard\n    bool public listingIsActive = true;\n\n    constructor() {\n        owner = payable(msg.sender);\n    }\n\n    struct OfferItem {\n        uint256 itemId;\n        address nftContract;\n        uint256 tokenId;\n        address payable offerer;\n        address payable offered;\n        uint256 price;\n        bool isSold;\n    }\n\n    struct Creator {\n        address creator;\n        uint256 feeBasisPoints;\n    }\n\n    //    mapping that keeps all items ever placed on the marketplace\n    mapping(uint256 => OfferItem) private idToOfferItem;\n    // mapping to get an item id from \"nftcontract:tokenId\"\n    mapping(string => uint256) private contractTokenAddressToId;\n\n    // Event called when a new Item is created\n    event OfferCreated(\n        uint256 itemId,\n        address nftContract,\n        uint256 tokenId,\n        address payable offerer,\n        uint256 price\n    );\n\n    // Event called when an Item is sold\n    event OfferAccepted(\n        uint256 itemId,\n        address nftContract,\n        uint256 tokenId,\n        address payable offerer,\n        address payable offered,\n        uint256 price\n    );\n\n    event OfferDenied(\n        uint256 itemId,\n        address nftContract,\n        uint256 tokenId,\n        address payable offerer,\n        address payable offered,\n        uint256 price\n    );\n\n    event OfferCanceled(\n        uint256 itemId,\n        address nftContract,\n        uint256 tokenId,\n        address payable offerer,\n        uint256 price\n    );\n\n    //  Event called TFuel is spit into creator fee, thetaboard fee and payment to seller\n    event FeeSplit(\n        uint256 userPayout,\n        address userAddress,\n        uint256 ownerPayout,\n        address ownerAddress,\n        uint256 creatorPayout,\n        address creatorAddress\n    );\n\n    function getSalesFee() public view returns (uint256) {\n        return salesFeeBasisPoints;\n    }\n\n    function createNewOffer(\n        address nftContract,\n        uint256 tokenId\n    ) public nonReentrant payable {\n        require(listingIsActive == true, \"Listing disabled\");\n        require(msg.value > 0, \"Offer must be higher than 0\");\n        string memory contractToken = string(abi.encodePacked(nftContract, tokenId, msg.sender));\n        require(contractTokenAddressToId[contractToken] == 0, \"Wallet already made an offer for this item\");\n\n        _itemIds.increment();\n        uint256 itemId = _itemIds.current();\n\n        idToOfferItem[itemId] = OfferItem(\n            itemId,\n            nftContract,\n            tokenId,\n            payable(msg.sender),\n            payable(address(0)),\n            msg.value,\n            false\n        );\n        contractTokenAddressToId[contractToken] = itemId;\n\n        emit OfferCreated(\n            itemId,\n            nftContract,\n            tokenId,\n            payable(msg.sender),\n            msg.value\n        );\n    }\n\n    event test(\n        address sender,\n        address owner,\n        uint tokenId\n    );\n\n    function acceptOffer(uint256 itemId, address creator, uint256 creatorSplit) public nonReentrant\n    {\n        require(idToOfferItem[itemId].isSold == false, \"Item is already sold\");\n\n        // get sell info\n        uint256 price = idToOfferItem[itemId].price;\n        uint256 tokenId = idToOfferItem[itemId].tokenId;\n        address nftContract = idToOfferItem[itemId].nftContract;\n        IERC721 nft721 = IERC721(nftContract);\n        address payable offerer = idToOfferItem[itemId].offerer;\n        emit test(msg.sender, nft721.ownerOf(tokenId), tokenId);\n        require(nft721.ownerOf(tokenId) == msg.sender, \"You must be token owner to accept the offer\");\n\n        // transfer token\n        IERC721(nftContract).transferFrom(address(msg.sender), offerer, tokenId);\n\n        // set in OfferItem\n        idToOfferItem[itemId].isSold = true;\n        idToOfferItem[itemId].offered = payable(msg.sender);\n        _itemsSold.increment();\n\n        // Calculate Payouts\n        uint256 creatorPayout = 0;\n        uint256 ownerPayout = price / 1000 * salesFeeBasisPoints;\n        uint256 userPayout = 0;\n        if (creator != address(0x0) && creatorSplit > 0 && creatorSplit < 975) {\n            creatorPayout = price / 1000 * creatorSplit;\n            payable(creator).transfer(creatorPayout);\n            userPayout = price - creatorPayout - ownerPayout;\n        } else {\n            userPayout = price - ownerPayout;\n        }\n\n        // Payout to user and thetaboard\n        payable(msg.sender).transfer(userPayout);\n        owner.transfer(ownerPayout);\n\n\n        emit OfferAccepted(\n            itemId,\n            nftContract,\n            tokenId,\n            offerer,\n            payable(msg.sender),\n            price\n        );\n\n        emit FeeSplit(\n            userPayout,\n            msg.sender,\n            ownerPayout,\n            owner,\n            creatorPayout,\n            creator\n        );\n    }\n\n    function denyOffer(uint256 itemId) public nonReentrant {\n        require(idToOfferItem[itemId].isSold == false, \"Item is already sold\");\n\n        // get sell info\n        uint256 price = idToOfferItem[itemId].price;\n        uint256 tokenId = idToOfferItem[itemId].tokenId;\n        address nftContract = idToOfferItem[itemId].nftContract;\n        address payable offerer = idToOfferItem[itemId].offerer;\n\n        require(IERC721(nftContract).ownerOf(tokenId) == msg.sender, \"You must be token owner to deny the offer\");\n\n        // set in OfferItem\n        idToOfferItem[itemId].isSold = true;\n        offerer.transfer(price);\n        _itemsSold.increment();\n\n        // event\n        emit OfferDenied(\n            itemId,\n            idToOfferItem[itemId].nftContract,\n            idToOfferItem[itemId].tokenId,\n            idToOfferItem[itemId].offerer,\n            payable(msg.sender),\n            price\n        );\n    }\n\n    function cancelOffer(uint256 itemId) public nonReentrant {\n        require(idToOfferItem[itemId].isSold == false, \"Item is already sold\");\n\n        // get sell info\n        uint256 price = idToOfferItem[itemId].price;\n        uint256 tokenId = idToOfferItem[itemId].tokenId;\n        address nftContract = idToOfferItem[itemId].nftContract;\n        address payable offerer = idToOfferItem[itemId].offerer;\n\n        require(offerer == msg.sender || msg.sender == owner, \"You must be token owner to deny the offer\");\n\n        // set in OfferItem\n        idToOfferItem[itemId].isSold = true;\n        offerer.transfer(price);\n        _itemsSold.increment();\n\n        // event\n        emit OfferCanceled(\n            itemId,\n            idToOfferItem[itemId].nftContract,\n            idToOfferItem[itemId].tokenId,\n            idToOfferItem[itemId].offerer,\n            price\n        );\n    }\n\n    function fetchOffers() public view returns (OfferItem[] memory) {\n        uint256 itemCount = _itemIds.current();\n        uint256 unsoldItemCount = _itemIds.current() - _itemsSold.current();\n        uint256 currentIndex = 0;\n\n        OfferItem[] memory OfferItems = new OfferItem[](unsoldItemCount);\n        for (uint256 i = 0; i < itemCount; i++) {\n            if (idToOfferItem[i + 1].offered == address(0)) {\n                uint256 currentId = idToOfferItem[i + 1].itemId;\n                OfferItem storage currentItem = idToOfferItem[currentId];\n                OfferItems[currentIndex] = currentItem;\n                currentIndex += 1;\n            }\n        }\n        return OfferItems;\n    }\n\n    function fetchOffersByRange(uint start, uint end) public view returns (OfferItem[] memory) {\n        uint256 itemCount = end - start;\n        uint256 currentIndex = 0;\n\n        OfferItem[] memory OfferItems = new OfferItem[](itemCount);\n        for (uint256 i = start; i < end; i++) {\n            if (idToOfferItem[i + 1].offered == address(0)) {\n                uint256 currentId = idToOfferItem[i + 1].itemId;\n                OfferItem storage currentItem = idToOfferItem[currentId];\n                OfferItems[currentIndex] = currentItem;\n                currentIndex += 1;\n            }\n        }\n        return OfferItems;\n    }\n\n    function fetchOffersForAddress(address offerer) public view returns (OfferItem[] memory) {\n        uint256 totalItemCount = _itemIds.current();\n        uint256 itemCount = 0;\n        uint256 currentIndex = 0;\n\n        for (uint256 i = 0; i < totalItemCount; i++) {\n            if (idToOfferItem[i + 1].offerer == offerer) {\n                itemCount += 1;\n            }\n        }\n\n        OfferItem[] memory OfferItems = new OfferItem[](itemCount);\n        for (uint256 i = 0; i < totalItemCount; i++) {\n            if (idToOfferItem[i + 1].offerer == offerer) {\n                uint256 currentId = idToOfferItem[i + 1].itemId;\n                OfferItem storage currentItem = idToOfferItem[currentId];\n                OfferItems[currentIndex] = currentItem;\n                currentIndex += 1;\n            }\n        }\n        return OfferItems;\n    }\n\n    function getByMarketId(uint256 id) public view returns (OfferItem memory){\n        require(id <= _itemIds.current(), \"id doesn't exist\");\n        return idToOfferItem[id];\n    }\n\n    function getByNftContractTokenIdAddress(address nftContract, uint256 tokenId, address walletAddress) public view returns (OfferItem memory){\n        string memory contractToken = string(abi.encodePacked(nftContract, tokenId, walletAddress));\n        uint256 id = contractTokenAddressToId[contractToken];\n        require(id <= _itemIds.current(), \"id doesn't exist\");\n        return idToOfferItem[id];\n    }\n\n    fallback() payable external {}\n\n    receive() external payable {}\n\n    function setSalesFeeBasisPoints(uint256 fee) external {\n        require(msg.sender == owner, \"Only owner can set listingPrice\");\n        require(fee <= 1000, \"Sales Fee cant be higher than 10%\");\n        salesFeeBasisPoints = fee;\n    }\n}",
  "sourcePath": "/Users/maurin.lenglart/IdeaProjects/thetaboard/smart_contracts/contracts/ThetaboardOffer.sol",
  "compiler": {
    "name": "solc",
    "version": "0.8.0+commit.c7dfd78e.Emscripten.clang"
  },
  "schemaVersion": "3.4.7",
  "updatedAt": "2022-04-13T18:55:41.072Z",
  "networkType": "ethereum",
  "devdoc": {
    "kind": "dev",
    "methods": {},
    "version": 1
  },
  "userdoc": {
    "kind": "user",
    "methods": {},
    "version": 1
  }
}