{
  "contractName": "ThetaboardAuctionSellNft",
  "abi": [
    {
      "anonymous": false,
      "inputs": [
        {
          "indexed": true,
          "internalType": "address",
          "name": "previousOwner",
          "type": "address"
        },
        {
          "indexed": true,
          "internalType": "address",
          "name": "newOwner",
          "type": "address"
        }
      ],
      "name": "OwnershipTransferred",
      "type": "event"
    },
    {
      "inputs": [],
      "name": "owner",
      "outputs": [
        {
          "internalType": "address",
          "name": "",
          "type": "address"
        }
      ],
      "stateMutability": "view",
      "type": "function",
      "constant": true
    },
    {
      "inputs": [],
      "name": "renounceOwnership",
      "outputs": [],
      "stateMutability": "nonpayable",
      "type": "function"
    },
    {
      "inputs": [
        {
          "internalType": "address",
          "name": "newOwner",
          "type": "address"
        }
      ],
      "name": "transferOwnership",
      "outputs": [],
      "stateMutability": "nonpayable",
      "type": "function"
    },
    {
      "inputs": [
        {
          "internalType": "address",
          "name": "_nftAddress",
          "type": "address"
        },
        {
          "internalType": "uint256",
          "name": "_minBid",
          "type": "uint256"
        },
        {
          "internalType": "uint256",
          "name": "_maxDate",
          "type": "uint256"
        },
        {
          "internalType": "uint256",
          "name": "_maxMint",
          "type": "uint256"
        },
        {
          "internalType": "address",
          "name": "_artistWallet",
          "type": "address"
        },
        {
          "internalType": "uint8",
          "name": "_artistSplit",
          "type": "uint8"
        }
      ],
      "name": "newAuction",
      "outputs": [],
      "stateMutability": "nonpayable",
      "type": "function"
    },
    {
      "inputs": [
        {
          "internalType": "address",
          "name": "_nftAddress",
          "type": "address"
        }
      ],
      "name": "placeBid",
      "outputs": [],
      "stateMutability": "payable",
      "type": "function",
      "payable": true
    },
    {
      "inputs": [
        {
          "internalType": "address",
          "name": "_nftAddress",
          "type": "address"
        },
        {
          "internalType": "uint256[]",
          "name": "orderToMint",
          "type": "uint256[]"
        }
      ],
      "name": "concludeAuction",
      "outputs": [],
      "stateMutability": "nonpayable",
      "type": "function"
    },
    {
      "inputs": [
        {
          "internalType": "address",
          "name": "_nftAddress",
          "type": "address"
        },
        {
          "internalType": "uint256",
          "name": "_minBid",
          "type": "uint256"
        }
      ],
      "name": "setPrice",
      "outputs": [],
      "stateMutability": "nonpayable",
      "type": "function"
    },
    {
      "inputs": [
        {
          "internalType": "address",
          "name": "_nftAddress",
          "type": "address"
        },
        {
          "internalType": "uint256",
          "name": "_maxDate",
          "type": "uint256"
        }
      ],
      "name": "setMaxDate",
      "outputs": [],
      "stateMutability": "nonpayable",
      "type": "function"
    },
    {
      "inputs": [
        {
          "internalType": "address",
          "name": "_nftAddress",
          "type": "address"
        }
      ],
      "name": "getNftAuction",
      "outputs": [
        {
          "components": [
            {
              "internalType": "uint256",
              "name": "maxDate",
              "type": "uint256"
            },
            {
              "internalType": "uint256",
              "name": "maxMint",
              "type": "uint256"
            },
            {
              "internalType": "uint256",
              "name": "countBidMade",
              "type": "uint256"
            },
            {
              "internalType": "uint256",
              "name": "minBid",
              "type": "uint256"
            },
            {
              "internalType": "address",
              "name": "artistWallet",
              "type": "address"
            },
            {
              "internalType": "uint8",
              "name": "artistSplit",
              "type": "uint8"
            },
            {
              "internalType": "address[]",
              "name": "bidders",
              "type": "address[]"
            },
            {
              "internalType": "uint256[]",
              "name": "bidsValue",
              "type": "uint256[]"
            },
            {
              "internalType": "bool",
              "name": "concluded",
              "type": "bool"
            },
            {
              "internalType": "address",
              "name": "auctionOwner",
              "type": "address"
            }
          ],
          "internalType": "struct ThetaboardAuctionSellNft.nftAuction",
          "name": "",
          "type": "tuple"
        }
      ],
      "stateMutability": "view",
      "type": "function",
      "constant": true
    }
  ],
  "bytecode": "0x60806040523480156200001157600080fd5b5062000032620000266200003860201b60201c565b6200004060201b60201c565b62000104565b600033905090565b60008060009054906101000a900473ffffffffffffffffffffffffffffffffffffffff169050816000806101000a81548173ffffffffffffffffffffffffffffffffffffffff021916908373ffffffffffffffffffffffffffffffffffffffff1602179055508173ffffffffffffffffffffffffffffffffffffffff168173ffffffffffffffffffffffffffffffffffffffff167f8be0079c531659141344cd1fd0a4f28419497f9722a3daafe3b4186f6b6457e060405160405180910390a35050565b61333980620001146000396000f3fe6080604052600436106100855760003560e01c8063a1c552bc11610059578063a1c552bc1461011e578063d516e81914610147578063e494015714610184578063f2fde38b146101a0578063fe7c4f3e146101c957610085565b8062e4768b1461008a5780634951b7bd146100b3578063715018a6146100dc5780638da5cb5b146100f3575b600080fd5b34801561009657600080fd5b506100b160048036038101906100ac91906124f6565b6101f2565b005b3480156100bf57600080fd5b506100da60048036038101906100d591906124f6565b6103d4565b005b3480156100e857600080fd5b506100f161056e565b005b3480156100ff57600080fd5b506101086105f6565b6040516101159190612c43565b60405180910390f35b34801561012a57600080fd5b50610145600480360381019061014091906124a2565b61061f565b005b34801561015357600080fd5b5061016e60048036038101906101699190612479565b610e9f565b60405161017b9190612dfe565b60405180910390f35b61019e60048036038101906101999190612479565b6110eb565b005b3480156101ac57600080fd5b506101c760048036038101906101c29190612479565b611ce6565b005b3480156101d557600080fd5b506101f060048036038101906101eb9190612532565b611dde565b005b6101fa612160565b73ffffffffffffffffffffffffffffffffffffffff166102186105f6565b73ffffffffffffffffffffffffffffffffffffffff161461026e576040517f08c379a000000000000000000000000000000000000000000000000000000000815260040161026590612d7e565b60405180910390fd5b6000600160008473ffffffffffffffffffffffffffffffffffffffff1673ffffffffffffffffffffffffffffffffffffffff1681526020019081526020016000206003015414156102f4576040517f08c379a00000000000000000000000000000000000000000000000000000000081526004016102eb90612d9e565b60405180910390fd5b6000811161030157600080fd5b6000600160008473ffffffffffffffffffffffffffffffffffffffff1673ffffffffffffffffffffffffffffffffffffffff1681526020019081526020016000206005018054905014610389576040517f08c379a000000000000000000000000000000000000000000000000000000000815260040161038090612c7e565b60405180910390fd5b80600160008473ffffffffffffffffffffffffffffffffffffffff1673ffffffffffffffffffffffffffffffffffffffff168152602001908152602001600020600301819055505050565b6103dc612160565b73ffffffffffffffffffffffffffffffffffffffff166103fa6105f6565b73ffffffffffffffffffffffffffffffffffffffff1614610450576040517f08c379a000000000000000000000000000000000000000000000000000000000815260040161044790612d7e565b60405180910390fd5b6000600160008473ffffffffffffffffffffffffffffffffffffffff1673ffffffffffffffffffffffffffffffffffffffff1681526020019081526020016000206003015414156104d6576040517f08c379a00000000000000000000000000000000000000000000000000000000081526004016104cd90612d9e565b60405180910390fd5b60008114806104e457504281115b610523576040517f08c379a000000000000000000000000000000000000000000000000000000000815260040161051a90612cde565b60405180910390fd5b80600160008473ffffffffffffffffffffffffffffffffffffffff1673ffffffffffffffffffffffffffffffffffffffff168152602001908152602001600020600001819055505050565b610576612160565b73ffffffffffffffffffffffffffffffffffffffff166105946105f6565b73ffffffffffffffffffffffffffffffffffffffff16146105ea576040517f08c379a00000000000000000000000000000000000000000000000000000000081526004016105e190612d7e565b60405180910390fd5b6105f46000612168565b565b60008060009054906101000a900473ffffffffffffffffffffffffffffffffffffffff16905090565b6000600160008473ffffffffffffffffffffffffffffffffffffffff1673ffffffffffffffffffffffffffffffffffffffff1681526020019081526020016000206003015414156106a5576040517f08c379a000000000000000000000000000000000000000000000000000000000815260040161069c90612d9e565b60405180910390fd5b600160008373ffffffffffffffffffffffffffffffffffffffff1673ffffffffffffffffffffffffffffffffffffffff16815260200190815260200160002060070160009054906101000a900460ff1615610735576040517f08c379a000000000000000000000000000000000000000000000000000000000815260040161072c90612c9e565b60405180910390fd5b6000600160008473ffffffffffffffffffffffffffffffffffffffff1673ffffffffffffffffffffffffffffffffffffffff1681526020019081526020016000206000015414806107c8575042600160008473ffffffffffffffffffffffffffffffffffffffff1673ffffffffffffffffffffffffffffffffffffffff1681526020019081526020016000206000015411155b610807576040517f08c379a00000000000000000000000000000000000000000000000000000000081526004016107fe90612d3e565b60405180910390fd5b3373ffffffffffffffffffffffffffffffffffffffff166108266105f6565b73ffffffffffffffffffffffffffffffffffffffff1614806108d557503373ffffffffffffffffffffffffffffffffffffffff16600160008473ffffffffffffffffffffffffffffffffffffffff1673ffffffffffffffffffffffffffffffffffffffff16815260200190815260200160002060070160019054906101000a900473ffffffffffffffffffffffffffffffffffffffff1673ffffffffffffffffffffffffffffffffffffffff16145b610914576040517f08c379a000000000000000000000000000000000000000000000000000000000815260040161090b90612dde565b60405180910390fd5b8051600160008473ffffffffffffffffffffffffffffffffffffffff1673ffffffffffffffffffffffffffffffffffffffff168152602001908152602001600020600501805490501461096657600080fd5b6000805b82518110156109e0578281815181106109ac577f4e487b7100000000000000000000000000000000000000000000000000000000600052603260045260246000fd5b602002602001015160026109c09190612fda565b826109cb9190612f00565b915080806109d8906131db565b91505061096a565b506001825160026109f19190612fda565b6109fb9190613152565b8114610a3c576040517f08c379a0000000000000000000000000000000000000000000000000000000008152600401610a3390612d5e565b60405180910390fd5b6000805b600160008673ffffffffffffffffffffffffffffffffffffffff1673ffffffffffffffffffffffffffffffffffffffff16815260200190815260200160002060050180549050811015610cc7576000600160008773ffffffffffffffffffffffffffffffffffffffff1673ffffffffffffffffffffffffffffffffffffffff168152602001908152602001600020600501858381518110610b0a577f4e487b7100000000000000000000000000000000000000000000000000000000600052603260045260246000fd5b602002602001015181548110610b49577f4e487b7100000000000000000000000000000000000000000000000000000000600052603260045260246000fd5b9060005260206000200160009054906101000a900473ffffffffffffffffffffffffffffffffffffffff1690508573ffffffffffffffffffffffffffffffffffffffff16636a627842826040518263ffffffff1660e01b8152600401610baf9190612c43565b600060405180830381600087803b158015610bc957600080fd5b505af1158015610bdd573d6000803e3d6000fd5b50505050600160008773ffffffffffffffffffffffffffffffffffffffff1673ffffffffffffffffffffffffffffffffffffffff168152602001908152602001600020600601858381518110610c5c577f4e487b7100000000000000000000000000000000000000000000000000000000600052603260045260246000fd5b602002602001015181548110610c9b577f4e487b7100000000000000000000000000000000000000000000000000000000600052603260045260246000fd5b906000526020600020015483610cb19190612f00565b9250508080610cbf906131db565b915050610a40565b506000600160008673ffffffffffffffffffffffffffffffffffffffff1673ffffffffffffffffffffffffffffffffffffffff16815260200190815260200160002060040160149054906101000a900460ff1660ff16606483610d2a9190612f56565b610d3491906130f8565b905060008183610d449190613152565b9050600160008773ffffffffffffffffffffffffffffffffffffffff1673ffffffffffffffffffffffffffffffffffffffff16815260200190815260200160002060040160009054906101000a900473ffffffffffffffffffffffffffffffffffffffff1673ffffffffffffffffffffffffffffffffffffffff166108fc839081150290604051600060405180830381858888f19350505050158015610dee573d6000803e3d6000fd5b50610df76105f6565b73ffffffffffffffffffffffffffffffffffffffff166108fc829081150290604051600060405180830381858888f19350505050158015610e3c573d6000803e3d6000fd5b5060018060008873ffffffffffffffffffffffffffffffffffffffff1673ffffffffffffffffffffffffffffffffffffffff16815260200190815260200160002060070160006101000a81548160ff021916908315150217905550505050505050565b610ea761222c565b600160008373ffffffffffffffffffffffffffffffffffffffff1673ffffffffffffffffffffffffffffffffffffffff16815260200190815260200160002060405180610140016040529081600082015481526020016001820154815260200160028201548152602001600382015481526020016004820160009054906101000a900473ffffffffffffffffffffffffffffffffffffffff1673ffffffffffffffffffffffffffffffffffffffff1673ffffffffffffffffffffffffffffffffffffffff1681526020016004820160149054906101000a900460ff1660ff1660ff1681526020016005820180548060200260200160405190810160405280929190818152602001828054801561101257602002820191906000526020600020905b8160009054906101000a900473ffffffffffffffffffffffffffffffffffffffff1673ffffffffffffffffffffffffffffffffffffffff1681526020019060010190808311610fc8575b505050505081526020016006820180548060200260200160405190810160405280929190818152602001828054801561106a57602002820191906000526020600020905b815481526020019060010190808311611056575b505050505081526020016007820160009054906101000a900460ff161515151581526020016007820160019054906101000a900473ffffffffffffffffffffffffffffffffffffffff1673ffffffffffffffffffffffffffffffffffffffff1673ffffffffffffffffffffffffffffffffffffffff16815250509050919050565b600073ffffffffffffffffffffffffffffffffffffffff168173ffffffffffffffffffffffffffffffffffffffff161415801561115457503073ffffffffffffffffffffffffffffffffffffffff168173ffffffffffffffffffffffffffffffffffffffff1614155b61115d57600080fd5b6000600160008373ffffffffffffffffffffffffffffffffffffffff1673ffffffffffffffffffffffffffffffffffffffff1681526020019081526020016000206003015414156111e3576040517f08c379a00000000000000000000000000000000000000000000000000000000081526004016111da90612d9e565b60405180910390fd5b600160008273ffffffffffffffffffffffffffffffffffffffff1673ffffffffffffffffffffffffffffffffffffffff168152602001908152602001600020600301543411611267576040517f08c379a000000000000000000000000000000000000000000000000000000000815260040161125e90612cbe565b60405180910390fd5b600160008273ffffffffffffffffffffffffffffffffffffffff1673ffffffffffffffffffffffffffffffffffffffff16815260200190815260200160002060070160009054906101000a900460ff16156112f7576040517f08c379a00000000000000000000000000000000000000000000000000000000081526004016112ee90612c9e565b60405180910390fd5b6000600160008373ffffffffffffffffffffffffffffffffffffffff1673ffffffffffffffffffffffffffffffffffffffff168152602001908152602001600020600001541480611389575042600160008373ffffffffffffffffffffffffffffffffffffffff1673ffffffffffffffffffffffffffffffffffffffff16815260200190815260200160002060000154115b6113c8576040517f08c379a00000000000000000000000000000000000000000000000000000000081526004016113bf90612cfe565b60405180910390fd5b60003490506000339050600160008473ffffffffffffffffffffffffffffffffffffffff1673ffffffffffffffffffffffffffffffffffffffff16815260200190815260200160002060010154600160008573ffffffffffffffffffffffffffffffffffffffff1673ffffffffffffffffffffffffffffffffffffffff1681526020019081526020016000206005018054905010156117b757600160008473ffffffffffffffffffffffffffffffffffffffff1673ffffffffffffffffffffffffffffffffffffffff168152602001908152602001600020600501819080600181540180825580915050600190039060005260206000200160009091909190916101000a81548173ffffffffffffffffffffffffffffffffffffffff021916908373ffffffffffffffffffffffffffffffffffffffff160217905550600160008473ffffffffffffffffffffffffffffffffffffffff1673ffffffffffffffffffffffffffffffffffffffff168152602001908152602001600020600601829080600181540180825580915050600190039060005260206000200160009091909190915055600160008473ffffffffffffffffffffffffffffffffffffffff1673ffffffffffffffffffffffffffffffffffffffff16815260200190815260200160002060010154600160008573ffffffffffffffffffffffffffffffffffffffff1673ffffffffffffffffffffffffffffffffffffffff1681526020019081526020016000206005018054905014156117b25760007fffffffffffffffffffffffffffffffffffffffffffffffffffffffffffffffff905060005b600160008673ffffffffffffffffffffffffffffffffffffffff1673ffffffffffffffffffffffffffffffffffffffff16815260200190815260200160002060060180549050811015611768576000600160008773ffffffffffffffffffffffffffffffffffffffff1673ffffffffffffffffffffffffffffffffffffffff16815260200190815260200160002060060182815481106116ed577f4e487b7100000000000000000000000000000000000000000000000000000000600052603260045260246000fd5b90600052602060002001549050600160008773ffffffffffffffffffffffffffffffffffffffff1673ffffffffffffffffffffffffffffffffffffffff16815260200190815260200160002060030154811415801561174b57508281105b15611754578092505b508080611760906131db565b915050611624565b5080600160008673ffffffffffffffffffffffffffffffffffffffff1673ffffffffffffffffffffffffffffffffffffffff16815260200190815260200160002060030181905550505b611c88565b60007fffffffffffffffffffffffffffffffffffffffffffffffffffffffffffffffff9050600080600090505b600160008773ffffffffffffffffffffffffffffffffffffffff1673ffffffffffffffffffffffffffffffffffffffff16815260200190815260200160002060060180549050811015611976576000600160008873ffffffffffffffffffffffffffffffffffffffff1673ffffffffffffffffffffffffffffffffffffffff16815260200190815260200160002060060182815481106118ad577f4e487b7100000000000000000000000000000000000000000000000000000000600052603260045260246000fd5b90600052602060002001549050600160008873ffffffffffffffffffffffffffffffffffffffff1673ffffffffffffffffffffffffffffffffffffffff16815260200190815260200160002060030154811415611908578192505b600160008873ffffffffffffffffffffffffffffffffffffffff1673ffffffffffffffffffffffffffffffffffffffff16815260200190815260200160002060030154811415801561195957508381105b15611962578093505b50808061196e906131db565b9150506117e4565b5081841015611983578391505b81600160008773ffffffffffffffffffffffffffffffffffffffff1673ffffffffffffffffffffffffffffffffffffffff16815260200190815260200160002060030181905550600160008673ffffffffffffffffffffffffffffffffffffffff1673ffffffffffffffffffffffffffffffffffffffff1681526020019081526020016000206005018181548110611a44577f4e487b7100000000000000000000000000000000000000000000000000000000600052603260045260246000fd5b9060005260206000200160009054906101000a900473ffffffffffffffffffffffffffffffffffffffff1673ffffffffffffffffffffffffffffffffffffffff166108fc600160008873ffffffffffffffffffffffffffffffffffffffff1673ffffffffffffffffffffffffffffffffffffffff1681526020019081526020016000206006018381548110611b02577f4e487b7100000000000000000000000000000000000000000000000000000000600052603260045260246000fd5b90600052602060002001549081150290604051600060405180830381858888f19350505050158015611b38573d6000803e3d6000fd5b5082600160008773ffffffffffffffffffffffffffffffffffffffff1673ffffffffffffffffffffffffffffffffffffffff1681526020019081526020016000206005018281548110611bb4577f4e487b7100000000000000000000000000000000000000000000000000000000600052603260045260246000fd5b9060005260206000200160006101000a81548173ffffffffffffffffffffffffffffffffffffffff021916908373ffffffffffffffffffffffffffffffffffffffff16021790555083600160008773ffffffffffffffffffffffffffffffffffffffff1673ffffffffffffffffffffffffffffffffffffffff1681526020019081526020016000206006018281548110611c77577f4e487b7100000000000000000000000000000000000000000000000000000000600052603260045260246000fd5b906000526020600020018190555050505b60018060008573ffffffffffffffffffffffffffffffffffffffff1673ffffffffffffffffffffffffffffffffffffffff1681526020019081526020016000206002016000828254611cda9190612f00565b92505081905550505050565b611cee612160565b73ffffffffffffffffffffffffffffffffffffffff16611d0c6105f6565b73ffffffffffffffffffffffffffffffffffffffff1614611d62576040517f08c379a0000000000000000000000000000000000000000000000000000000008152600401611d5990612d7e565b60405180910390fd5b600073ffffffffffffffffffffffffffffffffffffffff168173ffffffffffffffffffffffffffffffffffffffff161415611dd2576040517f08c379a0000000000000000000000000000000000000000000000000000000008152600401611dc990612c5e565b60405180910390fd5b611ddb81612168565b50565b600073ffffffffffffffffffffffffffffffffffffffff168673ffffffffffffffffffffffffffffffffffffffff1614158015611e4757503073ffffffffffffffffffffffffffffffffffffffff168673ffffffffffffffffffffffffffffffffffffffff1614155b611e5057600080fd5b6000600160008873ffffffffffffffffffffffffffffffffffffffff1673ffffffffffffffffffffffffffffffffffffffff1681526020019081526020016000206003015414611ed5576040517f08c379a0000000000000000000000000000000000000000000000000000000008152600401611ecc90612dbe565b60405180910390fd5b60008511611f18576040517f08c379a0000000000000000000000000000000000000000000000000000000008152600401611f0f90612d1e565b60405180910390fd5b6000841480611f2657504284115b611f65576040517f08c379a0000000000000000000000000000000000000000000000000000000008152600401611f5c90612cde565b60405180910390fd5b606080604051806101400160405280878152602001868152602001600081526020018881526020018573ffffffffffffffffffffffffffffffffffffffff1681526020018460ff1681526020018381526020018281526020016000151581526020013373ffffffffffffffffffffffffffffffffffffffff16815250600160008a73ffffffffffffffffffffffffffffffffffffffff1673ffffffffffffffffffffffffffffffffffffffff1681526020019081526020016000206000820151816000015560208201518160010155604082015181600201556060820151816003015560808201518160040160006101000a81548173ffffffffffffffffffffffffffffffffffffffff021916908373ffffffffffffffffffffffffffffffffffffffff16021790555060a08201518160040160146101000a81548160ff021916908360ff16021790555060c08201518160050190805190602001906120cc9291906122b0565b5060e08201518160060190805190602001906120e992919061233a565b506101008201518160070160006101000a81548160ff0219169083151502179055506101208201518160070160016101000a81548173ffffffffffffffffffffffffffffffffffffffff021916908373ffffffffffffffffffffffffffffffffffffffff1602179055509050505050505050505050565b600033905090565b60008060009054906101000a900473ffffffffffffffffffffffffffffffffffffffff169050816000806101000a81548173ffffffffffffffffffffffffffffffffffffffff021916908373ffffffffffffffffffffffffffffffffffffffff1602179055508173ffffffffffffffffffffffffffffffffffffffff168173ffffffffffffffffffffffffffffffffffffffff167f8be0079c531659141344cd1fd0a4f28419497f9722a3daafe3b4186f6b6457e060405160405180910390a35050565b60405180610140016040528060008152602001600081526020016000815260200160008152602001600073ffffffffffffffffffffffffffffffffffffffff168152602001600060ff1681526020016060815260200160608152602001600015158152602001600073ffffffffffffffffffffffffffffffffffffffff1681525090565b828054828255906000526020600020908101928215612329579160200282015b828111156123285782518260006101000a81548173ffffffffffffffffffffffffffffffffffffffff021916908373ffffffffffffffffffffffffffffffffffffffff160217905550916020019190600101906122d0565b5b5090506123369190612387565b5090565b828054828255906000526020600020908101928215612376579160200282015b8281111561237557825182559160200191906001019061235a565b5b5090506123839190612387565b5090565b5b808211156123a0576000816000905550600101612388565b5090565b60006123b76123b284612e51565b612e20565b905080838252602082019050828560208602820111156123d657600080fd5b60005b8581101561240657816123ec888261244f565b8452602084019350602083019250506001810190506123d9565b5050509392505050565b60008135905061241f816132be565b92915050565b600082601f83011261243657600080fd5b81356124468482602086016123a4565b91505092915050565b60008135905061245e816132d5565b92915050565b600081359050612473816132ec565b92915050565b60006020828403121561248b57600080fd5b600061249984828501612410565b91505092915050565b600080604083850312156124b557600080fd5b60006124c385828601612410565b925050602083013567ffffffffffffffff8111156124e057600080fd5b6124ec85828601612425565b9150509250929050565b6000806040838503121561250957600080fd5b600061251785828601612410565b92505060206125288582860161244f565b9150509250929050565b60008060008060008060c0878903121561254b57600080fd5b600061255989828a01612410565b965050602061256a89828a0161244f565b955050604061257b89828a0161244f565b945050606061258c89828a0161244f565b935050608061259d89828a01612410565b92505060a06125ae89828a01612464565b9150509295509295509295565b60006125c783836125eb565b60208301905092915050565b60006125df8383612c25565b60208301905092915050565b6125f481613186565b82525050565b61260381613186565b82525050565b600061261482612e9d565b61261e8185612ecd565b935061262983612e7d565b8060005b8381101561265a57815161264188826125bb565b975061264c83612eb3565b92505060018101905061262d565b5085935050505092915050565b600061267282612ea8565b61267c8185612ede565b935061268783612e8d565b8060005b838110156126b857815161269f88826125d3565b97506126aa83612ec0565b92505060018101905061268b565b5085935050505092915050565b6126ce81613198565b82525050565b60006126e1602683612eef565b91507f4f776e61626c653a206e6577206f776e657220697320746865207a65726f206160008301527f64647265737300000000000000000000000000000000000000000000000000006020830152604082019050919050565b6000612747602b83612eef565b91507f43616e2774206368616e6765207072696365206166746572206669727374206260008301527f696420776173206d6164650000000000000000000000000000000000000000006020830152604082019050919050565b60006127ad601e83612eef565b91507f41756374696f6e2073686f756c646e277420626520636f6e636c7564656400006000830152602082019050919050565b60006127ed602083612eef565b91507f4269642073686f756c6420626520686967686572207468616e206d696e4269646000830152602082019050919050565b600061282d602e83612eef565b91507f69662064617465206973207061737365642c206974206d75737420686967686560008301527f72207468616e2063757272656e740000000000000000000000000000000000006020830152604082019050919050565b6000612893602283612eef565b91507f43616e277420626964206166746572206d61782064617465206973207061737360008301527f65640000000000000000000000000000000000000000000000000000000000006020830152604082019050919050565b60006128f9601383612eef565b91507f41207072696365206973207265717569726564000000000000000000000000006000830152602082019050919050565b6000612939601d83612eef565b91507f43616e277420636f6e636c756465206265666f7265206d6178446174650000006000830152602082019050919050565b6000612979603883612eef565b91507f6f72646572546f4d696e742073686f756c64206861766520616c6c206e756d6260008301527f6572206f6e63652066726f6d203020746f206c656e67746800000000000000006020830152604082019050919050565b60006129df602083612eef565b91507f4f776e61626c653a2063616c6c6572206973206e6f7420746865206f776e65726000830152602082019050919050565b6000612a1f602583612eef565b91507f4120636f6e74726163742073686f756c642065786973747320666f722074686960008301527f73206e66740000000000000000000000000000000000000000000000000000006020830152604082019050919050565b6000612a85602483612eef565b91507f636f6e747261637420616c72656164792065786973747320666f72207468697360008301527f206e6674000000000000000000000000000000000000000000000000000000006020830152604082019050919050565b6000612aeb603983612eef565b91507f4f6e6c7920636f6e7472616374206f776e6572206f722061756374696f6e206f60008301527f776e65722063616e20636f6e636c7564652061756374696f6e000000000000006020830152604082019050919050565b600061014083016000830151612b5d6000860182612c25565b506020830151612b706020860182612c25565b506040830151612b836040860182612c25565b506060830151612b966060860182612c25565b506080830151612ba960808601826125eb565b5060a0830151612bbc60a0860182612c34565b5060c083015184820360c0860152612bd48282612609565b91505060e083015184820360e0860152612bee8282612667565b915050610100830151612c056101008601826126c5565b50610120830151612c1a6101208601826125eb565b508091505092915050565b612c2e816131c4565b82525050565b612c3d816131ce565b82525050565b6000602082019050612c5860008301846125fa565b92915050565b60006020820190508181036000830152612c77816126d4565b9050919050565b60006020820190508181036000830152612c978161273a565b9050919050565b60006020820190508181036000830152612cb7816127a0565b9050919050565b60006020820190508181036000830152612cd7816127e0565b9050919050565b60006020820190508181036000830152612cf781612820565b9050919050565b60006020820190508181036000830152612d1781612886565b9050919050565b60006020820190508181036000830152612d37816128ec565b9050919050565b60006020820190508181036000830152612d578161292c565b9050919050565b60006020820190508181036000830152612d778161296c565b9050919050565b60006020820190508181036000830152612d97816129d2565b9050919050565b60006020820190508181036000830152612db781612a12565b9050919050565b60006020820190508181036000830152612dd781612a78565b9050919050565b60006020820190508181036000830152612df781612ade565b9050919050565b60006020820190508181036000830152612e188184612b44565b905092915050565b6000604051905081810181811067ffffffffffffffff82111715612e4757612e46613282565b5b8060405250919050565b600067ffffffffffffffff821115612e6c57612e6b613282565b5b602082029050602081019050919050565b6000819050602082019050919050565b6000819050602082019050919050565b600081519050919050565b600081519050919050565b6000602082019050919050565b6000602082019050919050565b600082825260208201905092915050565b600082825260208201905092915050565b600082825260208201905092915050565b6000612f0b826131c4565b9150612f16836131c4565b9250827fffffffffffffffffffffffffffffffffffffffffffffffffffffffffffffffff03821115612f4b57612f4a613224565b5b828201905092915050565b6000612f61826131c4565b9150612f6c836131c4565b925082612f7c57612f7b613253565b5b828204905092915050565b6000808291508390505b6001851115612fd157808604811115612fad57612fac613224565b5b6001851615612fbc5780820291505b8081029050612fca856132b1565b9450612f91565b94509492505050565b6000612fe5826131c4565b9150612ff0836131c4565b925061301d7fffffffffffffffffffffffffffffffffffffffffffffffffffffffffffffffff8484613025565b905092915050565b60008261303557600190506130f1565b8161304357600090506130f1565b8160018114613059576002811461306357613092565b60019150506130f1565b60ff84111561307557613074613224565b5b8360020a91508482111561308c5761308b613224565b5b506130f1565b5060208310610133831016604e8410600b84101617156130c75782820a9050838111156130c2576130c1613224565b5b6130f1565b6130d48484846001612f87565b925090508184048111156130eb576130ea613224565b5b81810290505b9392505050565b6000613103826131c4565b915061310e836131c4565b9250817fffffffffffffffffffffffffffffffffffffffffffffffffffffffffffffffff048311821515161561314757613146613224565b5b828202905092915050565b600061315d826131c4565b9150613168836131c4565b92508282101561317b5761317a613224565b5b828203905092915050565b6000613191826131a4565b9050919050565b60008115159050919050565b600073ffffffffffffffffffffffffffffffffffffffff82169050919050565b6000819050919050565b600060ff82169050919050565b60006131e6826131c4565b91507fffffffffffffffffffffffffffffffffffffffffffffffffffffffffffffffff82141561321957613218613224565b5b600182019050919050565b7f4e487b7100000000000000000000000000000000000000000000000000000000600052601160045260246000fd5b7f4e487b7100000000000000000000000000000000000000000000000000000000600052601260045260246000fd5b7f4e487b7100000000000000000000000000000000000000000000000000000000600052604160045260246000fd5b60008160011c9050919050565b6132c781613186565b81146132d257600080fd5b50565b6132de816131c4565b81146132e957600080fd5b50565b6132f5816131ce565b811461330057600080fd5b5056fea2646970667358221220975d9966599e4274bf1ffd0e877247b8cf78140d8bd85de46641138ab0d93e5464736f6c63430008000033",
  "immutableReferences": {},
  "source": "pragma solidity ^0.8.0;\n\nimport \"./ThetaboardNFT.sol\";\nimport \"@openzeppelin/contracts/access/Ownable.sol\";\n\n/**\n * @title nft_sell\n * Auction NFT for thetaboard.io\n */\ncontract ThetaboardAuctionSellNft is Ownable {\n\n    struct nftAuction {\n        uint256 maxDate;\n        uint256 maxMint;\n\n        uint256 countBidMade;\n        uint256 minBid;\n\n        address artistWallet;\n        uint8 artistSplit;\n\n        address[] bidders;\n        uint256[] bidsValue;\n\n        bool concluded;\n        address auctionOwner;\n    }\n\n    mapping(address => nftAuction) NFTsAuction;\n\n\n    // Following variables are used for sorting\n    struct bidStruct {\n        address bidder;\n        uint256 bidValue;\n    }\n\n    mapping(uint => uint) helper;\n\n\n    function newAuction(address _nftAddress, uint256 _minBid, uint256 _maxDate, uint256 _maxMint, address _artistWallet, uint8 _artistSplit) public {\n        require(_nftAddress != address(0) && _nftAddress != address(this));\n        require(NFTsAuction[_nftAddress].minBid == 0, \"contract already exists for this nft\");\n        require(_minBid > 0, \"A price is required\");\n        require(_maxDate == 0 || _maxDate > block.timestamp, \"if date is passed, it must higher than current\");\n\n        address[] memory bidders;\n        uint256[] memory bidsValue;\n\n        NFTsAuction[_nftAddress] = nftAuction({\n        maxDate : _maxDate,\n        maxMint : _maxMint,\n        countBidMade : 0,\n        minBid : _minBid,\n        artistWallet : _artistWallet,\n        artistSplit : _artistSplit,\n        bidders : bidders,\n        bidsValue : bidsValue,\n        concluded : false,\n        auctionOwner : msg.sender\n        });\n    }\n\n    /**\n    * @dev Add a new pid for an NFT\n    * @dev Throws if contract does not exists or if the bid is not higher than minBid\n    */\n    function placeBid(address _nftAddress) public payable {\n        require(_nftAddress != address(0) && _nftAddress != address(this));\n        require(NFTsAuction[_nftAddress].minBid != 0, \"A contract should exists for this nft\");\n        require(msg.value > NFTsAuction[_nftAddress].minBid, \"Bid should be higher than minBid\");\n        require(!NFTsAuction[_nftAddress].concluded, \"Auction shouldn't be concluded\");\n        require(NFTsAuction[_nftAddress].maxDate == 0 || NFTsAuction[_nftAddress].maxDate > block.timestamp,\n            \"Can't bid after max date is passed\");\n        uint256 _bid = msg.value;\n        address _bidder = msg.sender;\n        if (NFTsAuction[_nftAddress].bidders.length < NFTsAuction[_nftAddress].maxMint) {\n            NFTsAuction[_nftAddress].bidders.push(_bidder);\n            NFTsAuction[_nftAddress].bidsValue.push(_bid);\n            if (NFTsAuction[_nftAddress].bidders.length == NFTsAuction[_nftAddress].maxMint) {\n                // get new min\n                uint256 newMin = type(uint256).max;\n\n                for (uint i = 0; i < NFTsAuction[_nftAddress].bidsValue.length; i++) {\n                    uint256 currentBid = NFTsAuction[_nftAddress].bidsValue[i];\n                    if (currentBid != NFTsAuction[_nftAddress].minBid && currentBid < newMin) {\n                        newMin = currentBid;\n                    }\n                }\n                NFTsAuction[_nftAddress].minBid = newMin;\n            }\n        } else {\n            // send back the money\n            // get new minBid, and index of current minBid\n            uint256 newMin = type(uint256).max;\n            uint256 currentLowestIdx;\n            for (uint i = 0; i < NFTsAuction[_nftAddress].bidsValue.length; i++) {\n                uint256 currentBid = NFTsAuction[_nftAddress].bidsValue[i];\n                if (currentBid == NFTsAuction[_nftAddress].minBid) {\n                    currentLowestIdx = i;\n                }\n\n                if (currentBid != NFTsAuction[_nftAddress].minBid && currentBid < newMin) {\n                    newMin = currentBid;\n                }\n            }\n            if (_bid < newMin) {\n                newMin = _bid;\n            }\n\n            NFTsAuction[_nftAddress].minBid = newMin;\n            // send money back to bidder that had previous min\n\n            payable(NFTsAuction[_nftAddress].bidders[currentLowestIdx]).transfer(NFTsAuction[_nftAddress].bidsValue[currentLowestIdx]);\n            // set new bid\n            NFTsAuction[_nftAddress].bidders[currentLowestIdx] = _bidder;\n            NFTsAuction[_nftAddress].bidsValue[currentLowestIdx] = _bid;\n\n        }\n        NFTsAuction[_nftAddress].countBidMade += 1;\n    }\n\n    function concludeAuction(address _nftAddress, uint[] memory orderToMint) public {\n        require(NFTsAuction[_nftAddress].minBid != 0, \"A contract should exists for this nft\");\n        require(!NFTsAuction[_nftAddress].concluded, \"Auction shouldn't be concluded\");\n        require(NFTsAuction[_nftAddress].maxDate == 0 || NFTsAuction[_nftAddress].maxDate <= block.timestamp,\n            \"Can't conclude before maxDate\");\n        require(owner() == msg.sender || NFTsAuction[_nftAddress].auctionOwner == msg.sender,\n            \"Only contract owner or auction owner can conclude auction\");\n\n        //Order to mint is passe by the client and is responsible of the order to which the NFT are minted.require\n        // it should ensure that the highest bidder get NFT edition \"1\", second highest get \"2\", ...\n        require(NFTsAuction[_nftAddress].bidders.length == orderToMint.length);\n        uint sum = 0;\n        for (uint i = 0; i < orderToMint.length; i++) {\n            sum += 2 ** orderToMint[i];\n        }\n        require(sum == 2 ** orderToMint.length - 1, \"orderToMint should have all number once from 0 to length\");\n\n        uint256 totalBid = 0;\n\n        for (uint i = 0; i < NFTsAuction[_nftAddress].bidders.length; i++) {\n            address bidder = NFTsAuction[_nftAddress].bidders[orderToMint[i]];\n            ThetaboardNFT(_nftAddress).mint(bidder);\n            totalBid += NFTsAuction[_nftAddress].bidsValue[orderToMint[i]];\n        }\n\n        uint artistValue = totalBid / 100 * NFTsAuction[_nftAddress].artistSplit;\n        uint ownerValue = totalBid - artistValue;\n\n        payable(NFTsAuction[_nftAddress].artistWallet).transfer(artistValue);\n        payable(owner()).transfer(ownerValue);\n\n        NFTsAuction[_nftAddress].concluded = true;\n    }\n\n\n    /**\n    * @dev Updates minBid for _nftAddress\n    * @dev Throws if _minBid is zero\n    */\n    function setPrice(address _nftAddress, uint256 _minBid) public onlyOwner {\n        require(NFTsAuction[_nftAddress].minBid != 0, \"A contract should exists for this nft\");\n        require(_minBid > 0);\n        require(NFTsAuction[_nftAddress].bidders.length == 0, \"Can't change price after first bid was made\");\n        NFTsAuction[_nftAddress].minBid = _minBid;\n    }\n\n    /**\n    * @dev Updates maxDate for _nftAddress\n    * @dev Throws if date is in the past\n    */\n    function setMaxDate(address _nftAddress, uint256 _maxDate) public onlyOwner {\n        require(NFTsAuction[_nftAddress].minBid != 0, \"A contract should exists for this nft\");\n        require(_maxDate == 0 || _maxDate > block.timestamp, \"if date is passed, it must higher than current\");\n        NFTsAuction[_nftAddress].maxDate = _maxDate;\n    }\n\n    /**\n    * Get info about currently auction\n    */\n    function getNftAuction(address _nftAddress) public view returns (nftAuction memory) {\n        return NFTsAuction[_nftAddress];\n    }\n\n}",
  "sourcePath": "/Users/maurin.lenglart/IdeaProjects/thetaboard/smart_contracts/contracts/ThetaboardAuctionSellNft.sol",
  "compiler": {
    "name": "solc",
    "version": "0.8.0+commit.c7dfd78e.Emscripten.clang"
  },
  "schemaVersion": "3.4.3",
  "updatedAt": "2021-11-21T03:28:36.746Z",
  "networkType": "ethereum",
  "devdoc": {
    "kind": "dev",
    "methods": {
      "owner()": {
        "details": "Returns the address of the current owner."
      },
      "placeBid(address)": {
        "details": "Add a new pid for an NFTThrows if contract does not exists or if the bid is not higher than minBid"
      },
      "renounceOwnership()": {
        "details": "Leaves the contract without owner. It will not be possible to call `onlyOwner` functions anymore. Can only be called by the current owner. NOTE: Renouncing ownership will leave the contract without an owner, thereby removing any functionality that is only available to the owner."
      },
      "setMaxDate(address,uint256)": {
        "details": "Updates maxDate for _nftAddressThrows if date is in the past"
      },
      "setPrice(address,uint256)": {
        "details": "Updates minBid for _nftAddressThrows if _minBid is zero"
      },
      "transferOwnership(address)": {
        "details": "Transfers ownership of the contract to a new account (`newOwner`). Can only be called by the current owner."
      }
    },
    "title": "nft_sell Auction NFT for thetaboard.io",
    "version": 1
  },
  "userdoc": {
    "kind": "user",
    "methods": {
      "getNftAuction(address)": {
        "notice": "Get info about currently auction"
      }
    },
    "version": 1
  }
}