{
  "contractName": "ThetaboardMarketPlace",
  "abi": [
    {
      "inputs": [],
      "stateMutability": "nonpayable",
      "type": "constructor"
    },
    {
      "anonymous": false,
      "inputs": [
        {
          "indexed": false,
          "internalType": "uint256",
          "name": "userPayout",
          "type": "uint256"
        },
        {
          "indexed": false,
          "internalType": "address",
          "name": "userAddress",
          "type": "address"
        },
        {
          "indexed": false,
          "internalType": "uint256",
          "name": "ownerPayout",
          "type": "uint256"
        },
        {
          "indexed": false,
          "internalType": "address",
          "name": "ownerAddress",
          "type": "address"
        },
        {
          "indexed": false,
          "internalType": "uint256",
          "name": "creatorPayout",
          "type": "uint256"
        },
        {
          "indexed": false,
          "internalType": "address",
          "name": "creatorAddress",
          "type": "address"
        }
      ],
      "name": "FeeSplit",
      "type": "event"
    },
    {
      "anonymous": false,
      "inputs": [
        {
          "indexed": true,
          "internalType": "uint256",
          "name": "itemId",
          "type": "uint256"
        },
        {
          "indexed": true,
          "internalType": "address",
          "name": "nftContract",
          "type": "address"
        },
        {
          "indexed": true,
          "internalType": "uint256",
          "name": "tokenId",
          "type": "uint256"
        },
        {
          "indexed": false,
          "internalType": "address",
          "name": "seller",
          "type": "address"
        },
        {
          "indexed": false,
          "internalType": "address",
          "name": "buyer",
          "type": "address"
        },
        {
          "indexed": false,
          "internalType": "string",
          "name": "category",
          "type": "string"
        },
        {
          "indexed": false,
          "internalType": "uint256",
          "name": "price",
          "type": "uint256"
        },
        {
          "indexed": false,
          "internalType": "bool",
          "name": "isSold",
          "type": "bool"
        }
      ],
      "name": "MarketItemCreated",
      "type": "event"
    },
    {
      "anonymous": false,
      "inputs": [
        {
          "indexed": true,
          "internalType": "uint256",
          "name": "itemId",
          "type": "uint256"
        },
        {
          "indexed": true,
          "internalType": "address",
          "name": "nftContract",
          "type": "address"
        },
        {
          "indexed": true,
          "internalType": "uint256",
          "name": "tokenId",
          "type": "uint256"
        },
        {
          "indexed": false,
          "internalType": "address",
          "name": "seller",
          "type": "address"
        },
        {
          "indexed": false,
          "internalType": "address",
          "name": "buyer",
          "type": "address"
        },
        {
          "indexed": false,
          "internalType": "string",
          "name": "category",
          "type": "string"
        },
        {
          "indexed": false,
          "internalType": "uint256",
          "name": "price",
          "type": "uint256"
        },
        {
          "indexed": false,
          "internalType": "bool",
          "name": "isSold",
          "type": "bool"
        }
      ],
      "name": "MarketItemSale",
      "type": "event"
    },
    {
      "anonymous": false,
      "inputs": [
        {
          "indexed": true,
          "internalType": "uint256",
          "name": "itemId",
          "type": "uint256"
        },
        {
          "indexed": true,
          "internalType": "address",
          "name": "nftContract",
          "type": "address"
        },
        {
          "indexed": true,
          "internalType": "uint256",
          "name": "tokenId",
          "type": "uint256"
        },
        {
          "indexed": false,
          "internalType": "address",
          "name": "seller",
          "type": "address"
        },
        {
          "indexed": false,
          "internalType": "uint256",
          "name": "highestOffer",
          "type": "uint256"
        },
        {
          "indexed": false,
          "internalType": "address",
          "name": "bidder",
          "type": "address"
        },
        {
          "indexed": false,
          "internalType": "string",
          "name": "category",
          "type": "string"
        },
        {
          "indexed": false,
          "internalType": "uint256",
          "name": "price",
          "type": "uint256"
        }
      ],
      "name": "PlaceBid",
      "type": "event"
    },
    {
      "stateMutability": "payable",
      "type": "fallback",
      "payable": true
    },
    {
      "inputs": [],
      "name": "listingIsActive",
      "outputs": [
        {
          "internalType": "bool",
          "name": "",
          "type": "bool"
        }
      ],
      "stateMutability": "view",
      "type": "function",
      "constant": true
    },
    {
      "stateMutability": "payable",
      "type": "receive",
      "payable": true
    },
    {
      "inputs": [],
      "name": "getSalesFee",
      "outputs": [
        {
          "internalType": "uint256",
          "name": "",
          "type": "uint256"
        }
      ],
      "stateMutability": "view",
      "type": "function",
      "constant": true
    },
    {
      "inputs": [
        {
          "internalType": "address",
          "name": "nftContract",
          "type": "address"
        },
        {
          "internalType": "uint256",
          "name": "tokenId",
          "type": "uint256"
        },
        {
          "internalType": "uint256",
          "name": "price",
          "type": "uint256"
        },
        {
          "internalType": "string",
          "name": "category",
          "type": "string"
        }
      ],
      "name": "createMarketItem",
      "outputs": [],
      "stateMutability": "nonpayable",
      "type": "function"
    },
    {
      "inputs": [
        {
          "internalType": "uint256",
          "name": "itemId",
          "type": "uint256"
        },
        {
          "internalType": "address",
          "name": "creator",
          "type": "address"
        },
        {
          "internalType": "uint256",
          "name": "creatorSplit",
          "type": "uint256"
        }
      ],
      "name": "buyFromMarket",
      "outputs": [],
      "stateMutability": "payable",
      "type": "function",
      "payable": true
    },
    {
      "inputs": [
        {
          "internalType": "uint256",
          "name": "itemId",
          "type": "uint256"
        }
      ],
      "name": "cancelMarketItem",
      "outputs": [],
      "stateMutability": "nonpayable",
      "type": "function"
    },
    {
      "inputs": [],
      "name": "fetchSellingItems",
      "outputs": [
        {
          "components": [
            {
              "internalType": "uint256",
              "name": "itemId",
              "type": "uint256"
            },
            {
              "internalType": "address",
              "name": "nftContract",
              "type": "address"
            },
            {
              "internalType": "uint256",
              "name": "tokenId",
              "type": "uint256"
            },
            {
              "internalType": "address payable",
              "name": "seller",
              "type": "address"
            },
            {
              "internalType": "address payable",
              "name": "buyer",
              "type": "address"
            },
            {
              "internalType": "uint256",
              "name": "highestOffer",
              "type": "uint256"
            },
            {
              "internalType": "address payable",
              "name": "bidder",
              "type": "address"
            },
            {
              "internalType": "string",
              "name": "category",
              "type": "string"
            },
            {
              "internalType": "uint256",
              "name": "price",
              "type": "uint256"
            },
            {
              "internalType": "bool",
              "name": "isSold",
              "type": "bool"
            }
          ],
          "internalType": "struct ThetaboardMarketPlace.MarketItem[]",
          "name": "",
          "type": "tuple[]"
        }
      ],
      "stateMutability": "view",
      "type": "function",
      "constant": true
    },
    {
      "inputs": [
        {
          "internalType": "address",
          "name": "buyer",
          "type": "address"
        }
      ],
      "name": "fetchPurchasedItemsForAddress",
      "outputs": [
        {
          "components": [
            {
              "internalType": "uint256",
              "name": "itemId",
              "type": "uint256"
            },
            {
              "internalType": "address",
              "name": "nftContract",
              "type": "address"
            },
            {
              "internalType": "uint256",
              "name": "tokenId",
              "type": "uint256"
            },
            {
              "internalType": "address payable",
              "name": "seller",
              "type": "address"
            },
            {
              "internalType": "address payable",
              "name": "buyer",
              "type": "address"
            },
            {
              "internalType": "uint256",
              "name": "highestOffer",
              "type": "uint256"
            },
            {
              "internalType": "address payable",
              "name": "bidder",
              "type": "address"
            },
            {
              "internalType": "string",
              "name": "category",
              "type": "string"
            },
            {
              "internalType": "uint256",
              "name": "price",
              "type": "uint256"
            },
            {
              "internalType": "bool",
              "name": "isSold",
              "type": "bool"
            }
          ],
          "internalType": "struct ThetaboardMarketPlace.MarketItem[]",
          "name": "",
          "type": "tuple[]"
        }
      ],
      "stateMutability": "view",
      "type": "function",
      "constant": true
    },
    {
      "inputs": [
        {
          "internalType": "address",
          "name": "seller",
          "type": "address"
        }
      ],
      "name": "fetchSellingItemsForAddress",
      "outputs": [
        {
          "components": [
            {
              "internalType": "uint256",
              "name": "itemId",
              "type": "uint256"
            },
            {
              "internalType": "address",
              "name": "nftContract",
              "type": "address"
            },
            {
              "internalType": "uint256",
              "name": "tokenId",
              "type": "uint256"
            },
            {
              "internalType": "address payable",
              "name": "seller",
              "type": "address"
            },
            {
              "internalType": "address payable",
              "name": "buyer",
              "type": "address"
            },
            {
              "internalType": "uint256",
              "name": "highestOffer",
              "type": "uint256"
            },
            {
              "internalType": "address payable",
              "name": "bidder",
              "type": "address"
            },
            {
              "internalType": "string",
              "name": "category",
              "type": "string"
            },
            {
              "internalType": "uint256",
              "name": "price",
              "type": "uint256"
            },
            {
              "internalType": "bool",
              "name": "isSold",
              "type": "bool"
            }
          ],
          "internalType": "struct ThetaboardMarketPlace.MarketItem[]",
          "name": "",
          "type": "tuple[]"
        }
      ],
      "stateMutability": "view",
      "type": "function",
      "constant": true
    },
    {
      "inputs": [
        {
          "internalType": "string",
          "name": "category",
          "type": "string"
        }
      ],
      "name": "getItemsByCategory",
      "outputs": [
        {
          "components": [
            {
              "internalType": "uint256",
              "name": "itemId",
              "type": "uint256"
            },
            {
              "internalType": "address",
              "name": "nftContract",
              "type": "address"
            },
            {
              "internalType": "uint256",
              "name": "tokenId",
              "type": "uint256"
            },
            {
              "internalType": "address payable",
              "name": "seller",
              "type": "address"
            },
            {
              "internalType": "address payable",
              "name": "buyer",
              "type": "address"
            },
            {
              "internalType": "uint256",
              "name": "highestOffer",
              "type": "uint256"
            },
            {
              "internalType": "address payable",
              "name": "bidder",
              "type": "address"
            },
            {
              "internalType": "string",
              "name": "category",
              "type": "string"
            },
            {
              "internalType": "uint256",
              "name": "price",
              "type": "uint256"
            },
            {
              "internalType": "bool",
              "name": "isSold",
              "type": "bool"
            }
          ],
          "internalType": "struct ThetaboardMarketPlace.MarketItem[]",
          "name": "",
          "type": "tuple[]"
        }
      ],
      "stateMutability": "view",
      "type": "function",
      "constant": true
    },
    {
      "inputs": [
        {
          "internalType": "uint256",
          "name": "id",
          "type": "uint256"
        }
      ],
      "name": "getByMarketId",
      "outputs": [
        {
          "components": [
            {
              "internalType": "uint256",
              "name": "itemId",
              "type": "uint256"
            },
            {
              "internalType": "address",
              "name": "nftContract",
              "type": "address"
            },
            {
              "internalType": "uint256",
              "name": "tokenId",
              "type": "uint256"
            },
            {
              "internalType": "address payable",
              "name": "seller",
              "type": "address"
            },
            {
              "internalType": "address payable",
              "name": "buyer",
              "type": "address"
            },
            {
              "internalType": "uint256",
              "name": "highestOffer",
              "type": "uint256"
            },
            {
              "internalType": "address payable",
              "name": "bidder",
              "type": "address"
            },
            {
              "internalType": "string",
              "name": "category",
              "type": "string"
            },
            {
              "internalType": "uint256",
              "name": "price",
              "type": "uint256"
            },
            {
              "internalType": "bool",
              "name": "isSold",
              "type": "bool"
            }
          ],
          "internalType": "struct ThetaboardMarketPlace.MarketItem",
          "name": "",
          "type": "tuple"
        }
      ],
      "stateMutability": "view",
      "type": "function",
      "constant": true
    },
    {
      "inputs": [
        {
          "internalType": "address",
          "name": "nftContract",
          "type": "address"
        },
        {
          "internalType": "uint256",
          "name": "tokenId",
          "type": "uint256"
        }
      ],
      "name": "getByNftContractTokenId",
      "outputs": [
        {
          "components": [
            {
              "internalType": "uint256",
              "name": "itemId",
              "type": "uint256"
            },
            {
              "internalType": "address",
              "name": "nftContract",
              "type": "address"
            },
            {
              "internalType": "uint256",
              "name": "tokenId",
              "type": "uint256"
            },
            {
              "internalType": "address payable",
              "name": "seller",
              "type": "address"
            },
            {
              "internalType": "address payable",
              "name": "buyer",
              "type": "address"
            },
            {
              "internalType": "uint256",
              "name": "highestOffer",
              "type": "uint256"
            },
            {
              "internalType": "address payable",
              "name": "bidder",
              "type": "address"
            },
            {
              "internalType": "string",
              "name": "category",
              "type": "string"
            },
            {
              "internalType": "uint256",
              "name": "price",
              "type": "uint256"
            },
            {
              "internalType": "bool",
              "name": "isSold",
              "type": "bool"
            }
          ],
          "internalType": "struct ThetaboardMarketPlace.MarketItem",
          "name": "",
          "type": "tuple"
        }
      ],
      "stateMutability": "view",
      "type": "function",
      "constant": true
    },
    {
      "inputs": [
        {
          "internalType": "uint256",
          "name": "amount",
          "type": "uint256"
        }
      ],
      "name": "retrieveMoney",
      "outputs": [],
      "stateMutability": "nonpayable",
      "type": "function"
    },
    {
      "inputs": [
        {
          "internalType": "uint256",
          "name": "fee",
          "type": "uint256"
        }
      ],
      "name": "setSalesFeeBasisPoints",
      "outputs": [],
      "stateMutability": "nonpayable",
      "type": "function"
    }
  ],
  "bytecode": "0x608060405260196004556001600560006101000a81548160ff02191690831515021790555034801561003057600080fd5b50600160008190555033600360006101000a81548173ffffffffffffffffffffffffffffffffffffffff021916908373ffffffffffffffffffffffffffffffffffffffff160217905550614133806100896000396000f3fe6080604052600436106100c65760003560e01c80637ed60d551161007f578063b3451eac11610059578063b3451eac14610287578063c522c13d146102b2578063eafc8ba4146102db578063ee45a71114610318576100cd565b80637ed60d55146101f657806395478fbf14610221578063a6e22b021461025e576100cd565b806315278035146100cf578063274ebb13146100eb5780632f5ab9721461011457806330317f071461013f5780633e85258a1461017c57806353def4e0146101b9576100cd565b366100cd57005b005b6100e960048036038101906100e49190613043565b610341565b005b3480156100f757600080fd5b50610112600480360381019061010d919061301a565b610907565b005b34801561012057600080fd5b50610129610a5d565b6040516101369190613c80565b60405180910390f35b34801561014b57600080fd5b506101666004803603810190610161919061301a565b610a67565b6040516101739190613c5e565b60405180910390f35b34801561018857600080fd5b506101a3600480360381019061019e9190612f19565b610d0e565b6040516101b09190613c5e565b60405180910390f35b3480156101c557600080fd5b506101e060048036038101906101db9190612ef0565b611001565b6040516101ed9190613ac1565b60405180910390f35b34801561020257600080fd5b5061020b6114a6565b6040516102189190613ac1565b60405180910390f35b34801561022d57600080fd5b5061024860048036038101906102439190612fd5565b6118c5565b6040516102559190613ac1565b60405180910390f35b34801561026a57600080fd5b506102856004803603810190610280919061301a565b611e61565b005b34801561029357600080fd5b5061029c6122cc565b6040516102a99190613ae3565b60405180910390f35b3480156102be57600080fd5b506102d960048036038101906102d4919061301a565b6122df565b005b3480156102e757600080fd5b5061030260048036038101906102fd9190612ef0565b6123be565b60405161030f9190613ac1565b60405180910390f35b34801561032457600080fd5b5061033f600480360381019061033a9190612f55565b612863565b005b60026000541415610387576040517f08c379a000000000000000000000000000000000000000000000000000000000815260040161037e90613c3e565b60405180910390fd5b6002600081905550600015156006600085815260200190815260200160002060090160009054906101000a900460ff161515146103f9576040517f08c379a00000000000000000000000000000000000000000000000000000000081526004016103f090613b9e565b60405180910390fd5b60006006600085815260200190815260200160002060080154905060006006600086815260200190815260200160002060020154905060006006600087815260200190815260200160002060010160009054906101000a900473ffffffffffffffffffffffffffffffffffffffff16905060006006600088815260200190815260200160002060030160009054906101000a900473ffffffffffffffffffffffffffffffffffffffff16905060006006600089815260200190815260200160002060070180546104c890613f7b565b80601f01602080910402602001604051908101604052809291908181526020018280546104f490613f7b565b80156105415780601f1061051657610100808354040283529160200191610541565b820191906000526020600020905b81548152906001019060200180831161052457829003601f168201915b5050505050905084341461058a576040517f08c379a000000000000000000000000000000000000000000000000000000000815260040161058190613afe565b60405180910390fd5b6001600660008a815260200190815260200160002060090160006101000a81548160ff02191690831515021790555033600660008a815260200190815260200160002060040160006101000a81548173ffffffffffffffffffffffffffffffffffffffff021916908373ffffffffffffffffffffffffffffffffffffffff1602179055506106186002612d08565b6000806004546103e83461062c9190613dd8565b6106369190613e09565b905060008073ffffffffffffffffffffffffffffffffffffffff168a73ffffffffffffffffffffffffffffffffffffffff16141580156106765750600089115b801561068357506103cf89105b1561070857886103e8346106979190613dd8565b6106a19190613e09565b92508973ffffffffffffffffffffffffffffffffffffffff166108fc849081150290604051600060405180830381858888f193505050501580156106e9573d6000803e3d6000fd5b508183346106f79190613e63565b6107019190613e63565b9050610717565b81346107149190613e63565b90505b8473ffffffffffffffffffffffffffffffffffffffff166108fc829081150290604051600060405180830381858888f1935050505015801561075d573d6000803e3d6000fd5b50600360009054906101000a900473ffffffffffffffffffffffffffffffffffffffff1673ffffffffffffffffffffffffffffffffffffffff166108fc839081150290604051600060405180830381858888f193505050501580156107c6573d6000803e3d6000fd5b508573ffffffffffffffffffffffffffffffffffffffff166323b872dd30338a6040518463ffffffff1660e01b815260040161080493929190613a8a565b600060405180830381600087803b15801561081e57600080fd5b505af1158015610832573d6000803e3d6000fd5b50505050868673ffffffffffffffffffffffffffffffffffffffff168c7f895a96f6ac8d73df2b06b1075893880803453f7110c94f09757b5e9864cfee678833898e600160405161088795949392919061399d565b60405180910390a47f7e06111c2f996dd70140b09a1b769e48e2e8fffbd0179a6e24552f65d25b8b16818684600360009054906101000a900473ffffffffffffffffffffffffffffffffffffffff16878f6040516108ea96959493929190613c9b565b60405180910390a150505050505050506001600081905550505050565b600360009054906101000a900473ffffffffffffffffffffffffffffffffffffffff1673ffffffffffffffffffffffffffffffffffffffff163373ffffffffffffffffffffffffffffffffffffffff1614610997576040517f08c379a000000000000000000000000000000000000000000000000000000000815260040161098e90613b3e565b60405180910390fd5b3073ffffffffffffffffffffffffffffffffffffffff16318111156109f1576040517f08c379a00000000000000000000000000000000000000000000000000000000081526004016109e890613bde565b60405180910390fd5b600360009054906101000a900473ffffffffffffffffffffffffffffffffffffffff1673ffffffffffffffffffffffffffffffffffffffff166108fc829081150290604051600060405180830381858888f19350505050158015610a59573d6000803e3d6000fd5b5050565b6000600454905090565b610a6f612d2c565b610a796001612d1e565b821115610abb576040517f08c379a0000000000000000000000000000000000000000000000000000000008152600401610ab290613c1e565b60405180910390fd5b6006600083815260200190815260200160002060405180610140016040529081600082015481526020016001820160009054906101000a900473ffffffffffffffffffffffffffffffffffffffff1673ffffffffffffffffffffffffffffffffffffffff1673ffffffffffffffffffffffffffffffffffffffff168152602001600282015481526020016003820160009054906101000a900473ffffffffffffffffffffffffffffffffffffffff1673ffffffffffffffffffffffffffffffffffffffff1673ffffffffffffffffffffffffffffffffffffffff1681526020016004820160009054906101000a900473ffffffffffffffffffffffffffffffffffffffff1673ffffffffffffffffffffffffffffffffffffffff1673ffffffffffffffffffffffffffffffffffffffff168152602001600582015481526020016006820160009054906101000a900473ffffffffffffffffffffffffffffffffffffffff1673ffffffffffffffffffffffffffffffffffffffff1673ffffffffffffffffffffffffffffffffffffffff168152602001600782018054610c6090613f7b565b80601f0160208091040260200160405190810160405280929190818152602001828054610c8c90613f7b565b8015610cd95780601f10610cae57610100808354040283529160200191610cd9565b820191906000526020600020905b815481529060010190602001808311610cbc57829003601f168201915b50505050508152602001600882015481526020016009820160009054906101000a900460ff1615151515815250509050919050565b610d16612d2c565b60008383604051602001610d2b9291906138d0565b60405160208183030381529060405290506000600782604051610d4e9190613915565b9081526020016040518091039020549050610d696001612d1e565b811115610dab576040517f08c379a0000000000000000000000000000000000000000000000000000000008152600401610da290613c1e565b60405180910390fd5b6006600082815260200190815260200160002060405180610140016040529081600082015481526020016001820160009054906101000a900473ffffffffffffffffffffffffffffffffffffffff1673ffffffffffffffffffffffffffffffffffffffff1673ffffffffffffffffffffffffffffffffffffffff168152602001600282015481526020016003820160009054906101000a900473ffffffffffffffffffffffffffffffffffffffff1673ffffffffffffffffffffffffffffffffffffffff1673ffffffffffffffffffffffffffffffffffffffff1681526020016004820160009054906101000a900473ffffffffffffffffffffffffffffffffffffffff1673ffffffffffffffffffffffffffffffffffffffff1673ffffffffffffffffffffffffffffffffffffffff168152602001600582015481526020016006820160009054906101000a900473ffffffffffffffffffffffffffffffffffffffff1673ffffffffffffffffffffffffffffffffffffffff1673ffffffffffffffffffffffffffffffffffffffff168152602001600782018054610f5090613f7b565b80601f0160208091040260200160405190810160405280929190818152602001828054610f7c90613f7b565b8015610fc95780601f10610f9e57610100808354040283529160200191610fc9565b820191906000526020600020905b815481529060010190602001808311610fac57829003601f168201915b50505050508152602001600882015481526020016009820160009054906101000a900460ff1615151515815250509250505092915050565b6060600061100f6001612d1e565b905060008060005b838110156110b8578573ffffffffffffffffffffffffffffffffffffffff16600660006001846110479190613d82565b815260200190815260200160002060030160009054906101000a900473ffffffffffffffffffffffffffffffffffffffff1673ffffffffffffffffffffffffffffffffffffffff1614156110a5576001836110a29190613d82565b92505b80806110b090613fad565b915050611017565b5060008267ffffffffffffffff8111156110fb577f4e487b7100000000000000000000000000000000000000000000000000000000600052604160045260246000fd5b60405190808252806020026020018201604052801561113457816020015b611121612d2c565b8152602001906001900390816111195790505b50905060005b84811015611499578673ffffffffffffffffffffffffffffffffffffffff166006600060018461116a9190613d82565b815260200190815260200160002060030160009054906101000a900473ffffffffffffffffffffffffffffffffffffffff1673ffffffffffffffffffffffffffffffffffffffff161415611486576000600660006001846111cb9190613d82565b815260200190815260200160002060000154905060006006600083815260200190815260200160002090508060405180610140016040529081600082015481526020016001820160009054906101000a900473ffffffffffffffffffffffffffffffffffffffff1673ffffffffffffffffffffffffffffffffffffffff1673ffffffffffffffffffffffffffffffffffffffff168152602001600282015481526020016003820160009054906101000a900473ffffffffffffffffffffffffffffffffffffffff1673ffffffffffffffffffffffffffffffffffffffff1673ffffffffffffffffffffffffffffffffffffffff1681526020016004820160009054906101000a900473ffffffffffffffffffffffffffffffffffffffff1673ffffffffffffffffffffffffffffffffffffffff1673ffffffffffffffffffffffffffffffffffffffff168152602001600582015481526020016006820160009054906101000a900473ffffffffffffffffffffffffffffffffffffffff1673ffffffffffffffffffffffffffffffffffffffff1673ffffffffffffffffffffffffffffffffffffffff16815260200160078201805461138990613f7b565b80601f01602080910402602001604051908101604052809291908181526020018280546113b590613f7b565b80156114025780601f106113d757610100808354040283529160200191611402565b820191906000526020600020905b8154815290600101906020018083116113e557829003601f168201915b50505050508152602001600882015481526020016009820160009054906101000a900460ff161515151581525050848681518110611469577f4e487b7100000000000000000000000000000000000000000000000000000000600052603260045260246000fd5b60200260200101819052506001856114819190613d82565b945050505b808061149190613fad565b91505061113a565b5080945050505050919050565b606060006114b46001612d1e565b905060006114c26002612d1e565b6114cc6001612d1e565b6114d69190613e63565b90506000808267ffffffffffffffff81111561151b577f4e487b7100000000000000000000000000000000000000000000000000000000600052604160045260246000fd5b60405190808252806020026020018201604052801561155457816020015b611541612d2c565b8152602001906001900390816115395790505b50905060005b848110156118ba57600073ffffffffffffffffffffffffffffffffffffffff166006600060018461158b9190613d82565b815260200190815260200160002060040160009054906101000a900473ffffffffffffffffffffffffffffffffffffffff1673ffffffffffffffffffffffffffffffffffffffff1614156118a7576000600660006001846115ec9190613d82565b815260200190815260200160002060000154905060006006600083815260200190815260200160002090508060405180610140016040529081600082015481526020016001820160009054906101000a900473ffffffffffffffffffffffffffffffffffffffff1673ffffffffffffffffffffffffffffffffffffffff1673ffffffffffffffffffffffffffffffffffffffff168152602001600282015481526020016003820160009054906101000a900473ffffffffffffffffffffffffffffffffffffffff1673ffffffffffffffffffffffffffffffffffffffff1673ffffffffffffffffffffffffffffffffffffffff1681526020016004820160009054906101000a900473ffffffffffffffffffffffffffffffffffffffff1673ffffffffffffffffffffffffffffffffffffffff1673ffffffffffffffffffffffffffffffffffffffff168152602001600582015481526020016006820160009054906101000a900473ffffffffffffffffffffffffffffffffffffffff1673ffffffffffffffffffffffffffffffffffffffff1673ffffffffffffffffffffffffffffffffffffffff1681526020016007820180546117aa90613f7b565b80601f01602080910402602001604051908101604052809291908181526020018280546117d690613f7b565b80156118235780601f106117f857610100808354040283529160200191611823565b820191906000526020600020905b81548152906001019060200180831161180657829003601f168201915b50505050508152602001600882015481526020016009820160009054906101000a900460ff16151515158152505084868151811061188a577f4e487b7100000000000000000000000000000000000000000000000000000000600052603260045260246000fd5b60200260200101819052506001856118a29190613d82565b945050505b80806118b290613fad565b91505061155a565b508094505050505090565b606060006118d36001612d1e565b905060008060005b838110156119f75786866040516020016118f69291906138fc565b604051602081830303815290604052805190602001206006600060018461191d9190613d82565b815260200190815260200160002060070160405160200161193e919061392c565b604051602081830303815290604052805190602001201480156119cf5750600073ffffffffffffffffffffffffffffffffffffffff16600660006001846119859190613d82565b815260200190815260200160002060040160009054906101000a900473ffffffffffffffffffffffffffffffffffffffff1673ffffffffffffffffffffffffffffffffffffffff16145b156119e4576001836119e19190613d82565b92505b80806119ef90613fad565b9150506118db565b5060008267ffffffffffffffff811115611a3a577f4e487b7100000000000000000000000000000000000000000000000000000000600052604160045260246000fd5b604051908082528060200260200182016040528015611a7357816020015b611a60612d2c565b815260200190600190039081611a585790505b50905060005b84811015611e53578787604051602001611a949291906138fc565b6040516020818303038152906040528051906020012060066000600184611abb9190613d82565b8152602001908152602001600020600701604051602001611adc919061392c565b60405160208183030381529060405280519060200120148015611b6d5750600073ffffffffffffffffffffffffffffffffffffffff1660066000600184611b239190613d82565b815260200190815260200160002060040160009054906101000a900473ffffffffffffffffffffffffffffffffffffffff1673ffffffffffffffffffffffffffffffffffffffff16145b15611e4057600060066000600184611b859190613d82565b815260200190815260200160002060000154905060006006600083815260200190815260200160002090508060405180610140016040529081600082015481526020016001820160009054906101000a900473ffffffffffffffffffffffffffffffffffffffff1673ffffffffffffffffffffffffffffffffffffffff1673ffffffffffffffffffffffffffffffffffffffff168152602001600282015481526020016003820160009054906101000a900473ffffffffffffffffffffffffffffffffffffffff1673ffffffffffffffffffffffffffffffffffffffff1673ffffffffffffffffffffffffffffffffffffffff1681526020016004820160009054906101000a900473ffffffffffffffffffffffffffffffffffffffff1673ffffffffffffffffffffffffffffffffffffffff1673ffffffffffffffffffffffffffffffffffffffff168152602001600582015481526020016006820160009054906101000a900473ffffffffffffffffffffffffffffffffffffffff1673ffffffffffffffffffffffffffffffffffffffff1673ffffffffffffffffffffffffffffffffffffffff168152602001600782018054611d4390613f7b565b80601f0160208091040260200160405190810160405280929190818152602001828054611d6f90613f7b565b8015611dbc5780601f10611d9157610100808354040283529160200191611dbc565b820191906000526020600020905b815481529060010190602001808311611d9f57829003601f168201915b50505050508152602001600882015481526020016009820160009054906101000a900460ff161515151581525050848681518110611e23577f4e487b7100000000000000000000000000000000000000000000000000000000600052603260045260246000fd5b6020026020010181905250600185611e3b9190613d82565b945050505b8080611e4b90613fad565b915050611a79565b508094505050505092915050565b60026000541415611ea7576040517f08c379a0000000000000000000000000000000000000000000000000000000008152600401611e9e90613c3e565b60405180910390fd5b60026000819055506006600082815260200190815260200160002060030160009054906101000a900473ffffffffffffffffffffffffffffffffffffffff1673ffffffffffffffffffffffffffffffffffffffff163373ffffffffffffffffffffffffffffffffffffffff1614611f53576040517f08c379a0000000000000000000000000000000000000000000000000000000008152600401611f4a90613b5e565b60405180910390fd5b600015156006600083815260200190815260200160002060090160009054906101000a900460ff16151514611fbd576040517f08c379a0000000000000000000000000000000000000000000000000000000008152600401611fb490613b9e565b60405180910390fd5b60006006600083815260200190815260200160002060020154905060006006600084815260200190815260200160002060010160009054906101000a900473ffffffffffffffffffffffffffffffffffffffff1690506000600660008581526020019081526020016000206008018190555060016006600085815260200190815260200160002060090160006101000a81548160ff0219169083151502179055506006600084815260200190815260200160002060030160009054906101000a900473ffffffffffffffffffffffffffffffffffffffff166006600085815260200190815260200160002060040160006101000a81548173ffffffffffffffffffffffffffffffffffffffff021916908373ffffffffffffffffffffffffffffffffffffffff1602179055508073ffffffffffffffffffffffffffffffffffffffff166323b872dd306006600087815260200190815260200160002060030160009054906101000a900473ffffffffffffffffffffffffffffffffffffffff16856040518463ffffffff1660e01b815260040161215c939291906139f7565b600060405180830381600087803b15801561217657600080fd5b505af115801561218a573d6000803e3d6000fd5b505050506121986002612d08565b60066000848152602001908152602001600020600201546006600085815260200190815260200160002060010160009054906101000a900473ffffffffffffffffffffffffffffffffffffffff1673ffffffffffffffffffffffffffffffffffffffff16847f895a96f6ac8d73df2b06b1075893880803453f7110c94f09757b5e9864cfee676006600088815260200190815260200160002060030160009054906101000a900473ffffffffffffffffffffffffffffffffffffffff166006600089815260200190815260200160002060040160009054906101000a900473ffffffffffffffffffffffffffffffffffffffff16600660008a8152602001908152602001600020600701600060016040516122b7959493929190613943565b60405180910390a45050600160008190555050565b600560009054906101000a900460ff1681565b600360009054906101000a900473ffffffffffffffffffffffffffffffffffffffff1673ffffffffffffffffffffffffffffffffffffffff163373ffffffffffffffffffffffffffffffffffffffff161461236f576040517f08c379a000000000000000000000000000000000000000000000000000000000815260040161236690613b7e565b60405180910390fd5b6103e88111156123b4576040517f08c379a00000000000000000000000000000000000000000000000000000000081526004016123ab90613bfe565b60405180910390fd5b8060048190555050565b606060006123cc6001612d1e565b905060008060005b83811015612475578573ffffffffffffffffffffffffffffffffffffffff16600660006001846124049190613d82565b815260200190815260200160002060040160009054906101000a900473ffffffffffffffffffffffffffffffffffffffff1673ffffffffffffffffffffffffffffffffffffffff1614156124625760018361245f9190613d82565b92505b808061246d90613fad565b9150506123d4565b5060008267ffffffffffffffff8111156124b8577f4e487b7100000000000000000000000000000000000000000000000000000000600052604160045260246000fd5b6040519080825280602002602001820160405280156124f157816020015b6124de612d2c565b8152602001906001900390816124d65790505b50905060005b84811015612856578673ffffffffffffffffffffffffffffffffffffffff16600660006001846125279190613d82565b815260200190815260200160002060040160009054906101000a900473ffffffffffffffffffffffffffffffffffffffff1673ffffffffffffffffffffffffffffffffffffffff161415612843576000600660006001846125889190613d82565b815260200190815260200160002060000154905060006006600083815260200190815260200160002090508060405180610140016040529081600082015481526020016001820160009054906101000a900473ffffffffffffffffffffffffffffffffffffffff1673ffffffffffffffffffffffffffffffffffffffff1673ffffffffffffffffffffffffffffffffffffffff168152602001600282015481526020016003820160009054906101000a900473ffffffffffffffffffffffffffffffffffffffff1673ffffffffffffffffffffffffffffffffffffffff1673ffffffffffffffffffffffffffffffffffffffff1681526020016004820160009054906101000a900473ffffffffffffffffffffffffffffffffffffffff1673ffffffffffffffffffffffffffffffffffffffff1673ffffffffffffffffffffffffffffffffffffffff168152602001600582015481526020016006820160009054906101000a900473ffffffffffffffffffffffffffffffffffffffff1673ffffffffffffffffffffffffffffffffffffffff1673ffffffffffffffffffffffffffffffffffffffff16815260200160078201805461274690613f7b565b80601f016020809104026020016040519081016040528092919081815260200182805461277290613f7b565b80156127bf5780601f10612794576101008083540402835291602001916127bf565b820191906000526020600020905b8154815290600101906020018083116127a257829003601f168201915b50505050508152602001600882015481526020016009820160009054906101000a900460ff161515151581525050848681518110612826577f4e487b7100000000000000000000000000000000000000000000000000000000600052603260045260246000fd5b602002602001018190525060018561283e9190613d82565b945050505b808061284e90613fad565b9150506124f7565b5080945050505050919050565b600260005414156128a9576040517f08c379a00000000000000000000000000000000000000000000000000000000081526004016128a090613c3e565b60405180910390fd5b600260008190555060011515600560009054906101000a900460ff16151514612907576040517f08c379a00000000000000000000000000000000000000000000000000000000081526004016128fe90613bbe565b60405180910390fd5b6000831161294a576040517f08c379a000000000000000000000000000000000000000000000000000000000815260040161294190613b1e565b60405180910390fd5b6129546001612d08565b60006129606001612d1e565b9050600086866040516020016129779291906138d0565b6040516020818303038152906040529050816007826040516129999190613915565b9081526020016040518091039020819055506040518061014001604052808381526020018873ffffffffffffffffffffffffffffffffffffffff1681526020018781526020013373ffffffffffffffffffffffffffffffffffffffff168152602001600073ffffffffffffffffffffffffffffffffffffffff16815260200160008152602001600073ffffffffffffffffffffffffffffffffffffffff16815260200185858080601f016020809104026020016040519081016040528093929190818152602001838380828437600081840152601f19601f82011690508083019250505050505050815260200186815260200160001515815250600660008481526020019081526020016000206000820151816000015560208201518160010160006101000a81548173ffffffffffffffffffffffffffffffffffffffff021916908373ffffffffffffffffffffffffffffffffffffffff1602179055506040820151816002015560608201518160030160006101000a81548173ffffffffffffffffffffffffffffffffffffffff021916908373ffffffffffffffffffffffffffffffffffffffff16021790555060808201518160040160006101000a81548173ffffffffffffffffffffffffffffffffffffffff021916908373ffffffffffffffffffffffffffffffffffffffff16021790555060a0820151816005015560c08201518160060160006101000a81548173ffffffffffffffffffffffffffffffffffffffff021916908373ffffffffffffffffffffffffffffffffffffffff16021790555060e0820151816007019080519060200190612bfc929190612dd9565b5061010082015181600801556101208201518160090160006101000a81548160ff0219169083151502179055509050508673ffffffffffffffffffffffffffffffffffffffff166323b872dd3330896040518463ffffffff1660e01b8152600401612c6993929190613a8a565b600060405180830381600087803b158015612c8357600080fd5b505af1158015612c97573d6000803e3d6000fd5b50505050858773ffffffffffffffffffffffffffffffffffffffff16837f058ba5dd04a75d8581491c06ed3308197306a78713282c4d1bdeef5bde9ba83333600089898c6000604051612cef96959493929190613a2e565b60405180910390a4505060016000819055505050505050565b6001816000016000828254019250508190555050565b600081600001549050919050565b60405180610140016040528060008152602001600073ffffffffffffffffffffffffffffffffffffffff16815260200160008152602001600073ffffffffffffffffffffffffffffffffffffffff168152602001600073ffffffffffffffffffffffffffffffffffffffff16815260200160008152602001600073ffffffffffffffffffffffffffffffffffffffff16815260200160608152602001600081526020016000151581525090565b828054612de590613f7b565b90600052602060002090601f016020900481019282612e075760008555612e4e565b82601f10612e2057805160ff1916838001178555612e4e565b82800160010185558215612e4e579182015b82811115612e4d578251825591602001919060010190612e32565b5b509050612e5b9190612e5f565b5090565b5b80821115612e78576000816000905550600101612e60565b5090565b600081359050612e8b816140cf565b92915050565b60008083601f840112612ea357600080fd5b8235905067ffffffffffffffff811115612ebc57600080fd5b602083019150836001820283011115612ed457600080fd5b9250929050565b600081359050612eea816140e6565b92915050565b600060208284031215612f0257600080fd5b6000612f1084828501612e7c565b91505092915050565b60008060408385031215612f2c57600080fd5b6000612f3a85828601612e7c565b9250506020612f4b85828601612edb565b9150509250929050565b600080600080600060808688031215612f6d57600080fd5b6000612f7b88828901612e7c565b9550506020612f8c88828901612edb565b9450506040612f9d88828901612edb565b935050606086013567ffffffffffffffff811115612fba57600080fd5b612fc688828901612e91565b92509250509295509295909350565b60008060208385031215612fe857600080fd5b600083013567ffffffffffffffff81111561300257600080fd5b61300e85828601612e91565b92509250509250929050565b60006020828403121561302c57600080fd5b600061303a84828501612edb565b91505092915050565b60008060006060848603121561305857600080fd5b600061306686828701612edb565b935050602061307786828701612e7c565b925050604061308886828701612edb565b9150509250925092565b600061309e83836136e7565b905092915050565b6130af81613ef1565b82525050565b6130be81613ea9565b82525050565b6130cd81613e97565b82525050565b6130dc81613e97565b82525050565b6130f36130ee82613e97565b613ff6565b82525050565b600061310482613d21565b61310e8185613d44565b93508360208202850161312085613cfc565b8060005b8581101561315c578484038952815161313d8582613092565b945061314883613d37565b925060208a01995050600181019050613124565b50829750879550505050505092915050565b61317781613ebb565b82525050565b61318681613ebb565b82525050565b61319581613f03565b82525050565b60006131a78385613d66565b93506131b4838584613f39565b6131bd836140b1565b840190509392505050565b60006131d48385613d77565b93506131e1838584613f39565b82840190509392505050565b60006131f882613d2c565b6132028185613d55565b9350613212818560208601613f48565b61321b816140b1565b840191505092915050565b600061323182613d2c565b61323b8185613d66565b935061324b818560208601613f48565b613254816140b1565b840191505092915050565b600061326a82613d2c565b6132748185613d77565b9350613284818560208601613f48565b80840191505092915050565b6000815461329d81613f7b565b6132a78186613d66565b945060018216600081146132c257600181146132d457613307565b60ff1983168652602086019350613307565b6132dd85613d0c565b60005b838110156132ff578154818901526001820191506020810190506132e0565b808801955050505b50505092915050565b6000815461331d81613f7b565b6133278186613d77565b94506001821660008114613342576001811461335357613386565b60ff19831686528186019350613386565b61335c85613d0c565b60005b8381101561337e5781548189015260018201915060208101905061335f565b838801955050505b50505092915050565b600061339c603183613d66565b91507f506c65617365206d616b652074686520707269636520746f2062652073616d6560008301527f206173206c697374696e672070726963650000000000000000000000000000006020830152604082019050919050565b6000613402601583613d66565b91507f4e6f206974656d20666f722066726565206865726500000000000000000000006000830152602082019050919050565b6000613442601d83613d66565b91507f4f6e6c79206f776e65722063616e207265747269657665204d6f6e65790000006000830152602082019050919050565b6000613482602383613d66565b91507f596f75206861766520746f206265207468652073656c6c657220746f2063616e60008301527f63656c00000000000000000000000000000000000000000000000000000000006020830152604082019050919050565b60006134e8601f83613d66565b91507f4f6e6c79206f776e65722063616e20736574206c697374696e675072696365006000830152602082019050919050565b6000613528601483613d66565b91507f4974656d20697320616c726561647920736f6c640000000000000000000000006000830152602082019050919050565b6000613568601083613d66565b91507f4c697374696e672064697361626c6564000000000000000000000000000000006000830152602082019050919050565b60006135a8602d83613d66565b91507f596f752063616e206e6f74207769746864726177206d6f7265206d6f6e65792060008301527f7468616e207468657265206973000000000000000000000000000000000000006020830152604082019050919050565b600061360e602183613d66565b91507f53616c6573204665652063616e7420626520686967686572207468616e20313060008301527f25000000000000000000000000000000000000000000000000000000000000006020830152604082019050919050565b6000613674601083613d66565b91507f696420646f65736e2774206578697374000000000000000000000000000000006000830152602082019050919050565b60006136b4601f83613d66565b91507f5265656e7472616e637947756172643a207265656e7472616e742063616c6c006000830152602082019050919050565b600061014083016000830151613700600086018261389b565b50602083015161371360208601826130c4565b506040830151613726604086018261389b565b50606083015161373960608601826130b5565b50608083015161374c60808601826130b5565b5060a083015161375f60a086018261389b565b5060c083015161377260c08601826130b5565b5060e083015184820360e086015261378a82826131ed565b9150506101008301516137a161010086018261389b565b506101208301516137b661012086018261316e565b508091505092915050565b6000610140830160008301516137da600086018261389b565b5060208301516137ed60208601826130c4565b506040830151613800604086018261389b565b50606083015161381360608601826130b5565b50608083015161382660808601826130b5565b5060a083015161383960a086018261389b565b5060c083015161384c60c08601826130b5565b5060e083015184820360e086015261386482826131ed565b91505061010083015161387b61010086018261389b565b5061012083015161389061012086018261316e565b508091505092915050565b6138a481613ee7565b82525050565b6138b381613ee7565b82525050565b6138ca6138c582613ee7565b61401a565b82525050565b60006138dc82856130e2565b6014820191506138ec82846138b9565b6020820191508190509392505050565b60006139098284866131c8565b91508190509392505050565b6000613921828461325f565b915081905092915050565b60006139388284613310565b915081905092915050565b600060a08201905061395860008301886130a6565b61396560208301876130a6565b81810360408301526139778186613290565b9050613986606083018561318c565b613993608083018461317d565b9695505050505050565b600060a0820190506139b260008301886130a6565b6139bf60208301876130d3565b81810360408301526139d18186613226565b90506139e060608301856138aa565b6139ed608083018461317d565b9695505050505050565b6000606082019050613a0c60008301866130d3565b613a1960208301856130a6565b613a2660408301846138aa565b949350505050565b600060a082019050613a4360008301896130d3565b613a5060208301886130d3565b8181036040830152613a6381868861319b565b9050613a7260608301856138aa565b613a7f608083018461317d565b979650505050505050565b6000606082019050613a9f60008301866130d3565b613aac60208301856130d3565b613ab960408301846138aa565b949350505050565b60006020820190508181036000830152613adb81846130f9565b905092915050565b6000602082019050613af8600083018461317d565b92915050565b60006020820190508181036000830152613b178161338f565b9050919050565b60006020820190508181036000830152613b37816133f5565b9050919050565b60006020820190508181036000830152613b5781613435565b9050919050565b60006020820190508181036000830152613b7781613475565b9050919050565b60006020820190508181036000830152613b97816134db565b9050919050565b60006020820190508181036000830152613bb78161351b565b9050919050565b60006020820190508181036000830152613bd78161355b565b9050919050565b60006020820190508181036000830152613bf78161359b565b9050919050565b60006020820190508181036000830152613c1781613601565b9050919050565b60006020820190508181036000830152613c3781613667565b9050919050565b60006020820190508181036000830152613c57816136a7565b9050919050565b60006020820190508181036000830152613c7881846137c1565b905092915050565b6000602082019050613c9560008301846138aa565b92915050565b600060c082019050613cb060008301896138aa565b613cbd60208301886130a6565b613cca60408301876138aa565b613cd760608301866130a6565b613ce460808301856138aa565b613cf160a08301846130d3565b979650505050505050565b6000819050602082019050919050565b60008190508160005260206000209050919050565b600081519050919050565b600081519050919050565b6000602082019050919050565b600082825260208201905092915050565b600082825260208201905092915050565b600082825260208201905092915050565b600081905092915050565b6000613d8d82613ee7565b9150613d9883613ee7565b9250827fffffffffffffffffffffffffffffffffffffffffffffffffffffffffffffffff03821115613dcd57613dcc614024565b5b828201905092915050565b6000613de382613ee7565b9150613dee83613ee7565b925082613dfe57613dfd614053565b5b828204905092915050565b6000613e1482613ee7565b9150613e1f83613ee7565b9250817fffffffffffffffffffffffffffffffffffffffffffffffffffffffffffffffff0483118215151615613e5857613e57614024565b5b828202905092915050565b6000613e6e82613ee7565b9150613e7983613ee7565b925082821015613e8c57613e8b614024565b5b828203905092915050565b6000613ea282613ec7565b9050919050565b6000613eb482613ec7565b9050919050565b60008115159050919050565b600073ffffffffffffffffffffffffffffffffffffffff82169050919050565b6000819050919050565b6000613efc82613f15565b9050919050565b6000613f0e82613ee7565b9050919050565b6000613f2082613f27565b9050919050565b6000613f3282613ec7565b9050919050565b82818337600083830152505050565b60005b83811015613f66578082015181840152602081019050613f4b565b83811115613f75576000848401525b50505050565b60006002820490506001821680613f9357607f821691505b60208210811415613fa757613fa6614082565b5b50919050565b6000613fb882613ee7565b91507fffffffffffffffffffffffffffffffffffffffffffffffffffffffffffffffff821415613feb57613fea614024565b5b600182019050919050565b600061400182614008565b9050919050565b6000614013826140c2565b9050919050565b6000819050919050565b7f4e487b7100000000000000000000000000000000000000000000000000000000600052601160045260246000fd5b7f4e487b7100000000000000000000000000000000000000000000000000000000600052601260045260246000fd5b7f4e487b7100000000000000000000000000000000000000000000000000000000600052602260045260246000fd5b6000601f19601f8301169050919050565b60008160601b9050919050565b6140d881613e97565b81146140e357600080fd5b50565b6140ef81613ee7565b81146140fa57600080fd5b5056fea264697066735822122007dfdcbaca52274dc037730d32e4257b81f1ad6dcb2e7be33e9a428ecff635d664736f6c63430008000033",
  "immutableReferences": {},
  "source": "pragma solidity ^0.8.0;\n\nimport \"@openzeppelin/contracts/utils/Counters.sol\";\nimport \"@openzeppelin/contracts/security/ReentrancyGuard.sol\";\nimport \"@openzeppelin/contracts/token/ERC721/ERC721.sol\";\n\n\ncontract ThetaboardMarketPlace is ReentrancyGuard {\n    using Counters for Counters.Counter;\n    Counters.Counter private _itemIds; // Id for each individual item\n    Counters.Counter private _itemsSold; // Number of items sold\n\n    address payable owner; // The owner of the NFTMarket contract\n    uint256 salesFeeBasisPoints = 25; // % of split for thetaboard\n    bool public listingIsActive = true;\n\n    constructor() {\n        owner = payable(msg.sender);\n    }\n\n    struct MarketItem {\n        uint256 itemId;\n        address nftContract;\n        uint256 tokenId;\n        address payable seller;\n        address payable buyer;\n        uint256 highestOffer;\n        address payable bidder;\n        string category;\n        uint256 price;\n        bool isSold;\n    }\n\n    struct Creator {\n        address creator;\n        uint256 feeBasisPoints;\n    }\n\n    //    mapping that keeps all items ever placed on the marketplace\n    mapping(uint256 => MarketItem) private idToMarketItem;\n    // mapping to get an item id from \"nftcontract:tokenId\"\n    mapping(string => uint256) private contractTokenToId;\n\n    // Event called when a new Item is created\n    event MarketItemCreated(\n        uint256 indexed itemId,\n        address indexed nftContract,\n        uint256 indexed tokenId,\n        address seller,\n        address buyer,\n        string category,\n        uint256 price,\n        bool isSold\n    );\n\n    // Event called when an Item is sold\n    event MarketItemSale(\n        uint256 indexed itemId,\n        address indexed nftContract,\n        uint256 indexed tokenId,\n        address seller,\n        address buyer,\n        string category,\n        uint256 price,\n        bool isSold\n    );\n\n    // Event when someone places a bid\n    event PlaceBid(\n        uint256 indexed itemId,\n        address indexed nftContract,\n        uint256 indexed tokenId,\n        address seller,\n        uint256 highestOffer,\n        address bidder,\n        string category,\n        uint256 price\n    );\n\n    //  Event called TFuel is spit into creator fee, thetaboard fee and payment to seller\n    event FeeSplit(\n        uint256 userPayout,\n        address userAddress,\n        uint256 ownerPayout,\n        address ownerAddress,\n        uint256 creatorPayout,\n        address creatorAddress\n    );\n\n    function getSalesFee() public view returns (uint256) {\n        return salesFeeBasisPoints;\n    }\n\n    function createMarketItem(\n        address nftContract,\n        uint256 tokenId,\n        uint256 price,\n        string calldata category\n    ) public nonReentrant {\n        require(listingIsActive == true, \"Listing disabled\");\n        require(price > 0, \"No item for free here\");\n\n        _itemIds.increment();\n        uint256 itemId = _itemIds.current();\n        string memory contractToken = string(abi.encodePacked(nftContract, tokenId));\n\n        contractTokenToId[contractToken] = itemId;\n\n        idToMarketItem[itemId] = MarketItem(\n            itemId,\n            nftContract,\n            tokenId,\n            payable(msg.sender),\n            payable(address(0)), // No buyer for the item\n            0, // No offer\n            payable(address(0)), // No bidder\n            category,\n            price,\n            false\n        );\n        IERC721(nftContract).transferFrom(msg.sender, address(this), tokenId);\n\n        emit MarketItemCreated(\n            itemId,\n            nftContract,\n            tokenId,\n            msg.sender,\n            address(0),\n            category,\n            price,\n            false\n        );\n    }\n\n    function buyFromMarket(uint256 itemId, address creator, uint256 creatorSplit) public payable nonReentrant\n    {\n        require(idToMarketItem[itemId].isSold == false, \"Item is already sold\");\n\n        // get sell info\n        uint256 price = idToMarketItem[itemId].price;\n        uint256 tokenId = idToMarketItem[itemId].tokenId;\n        address addressNFT = idToMarketItem[itemId].nftContract;\n        address payable seller = idToMarketItem[itemId].seller;\n        string memory category = idToMarketItem[itemId].category;\n\n        require(msg.value == price, \"Please make the price to be same as listing price\");\n\n        // set in marketItem\n        idToMarketItem[itemId].isSold = true;\n        idToMarketItem[itemId].buyer = payable(msg.sender);\n\n        _itemsSold.increment();\n\n\n        // Calculate Payouts\n        uint256 creatorPayout = 0;\n        uint256 ownerPayout = msg.value / 1000 * salesFeeBasisPoints;\n        uint256 userPayout = 0;\n        if (creator != address(0x0) && creatorSplit > 0 && creatorSplit < 975) {\n            creatorPayout = msg.value / 1000 * creatorSplit;\n            payable(creator).transfer(creatorPayout);\n            userPayout = msg.value - creatorPayout - ownerPayout;\n        } else {\n            userPayout = msg.value - ownerPayout;\n        }\n\n        // Payout to user and thetaboard\n        seller.transfer(userPayout);\n        owner.transfer(ownerPayout);\n\n        // transfer token\n        IERC721(addressNFT).transferFrom(address(this), msg.sender, tokenId);\n\n\n        emit MarketItemSale(\n            itemId,\n            addressNFT,\n            tokenId,\n            seller,\n            msg.sender,\n            category,\n            price,\n            true\n        );\n\n        emit FeeSplit(\n            userPayout,\n            seller,\n            ownerPayout,\n            owner,\n            creatorPayout,\n            creator\n        );\n    }\n\n    function cancelMarketItem(uint256 itemId) public nonReentrant {\n        require(msg.sender == idToMarketItem[itemId].seller, \"You have to be the seller to cancel\");\n        require(idToMarketItem[itemId].isSold == false, \"Item is already sold\");\n\n        // Read data from mappings\n        uint256 tokenId = idToMarketItem[itemId].tokenId;\n        address nftContract = idToMarketItem[itemId].nftContract;\n\n        // set in marketItem\n        idToMarketItem[itemId].price = 0;\n        idToMarketItem[itemId].isSold = true;\n        idToMarketItem[itemId].buyer = idToMarketItem[itemId].seller;\n\n        IERC721(nftContract).transferFrom(address(this), idToMarketItem[itemId].seller, tokenId);\n\n        _itemsSold.increment();\n\n        // Through event\n        emit MarketItemSale(\n            itemId,\n            idToMarketItem[itemId].nftContract,\n            idToMarketItem[itemId].tokenId,\n            idToMarketItem[itemId].seller,\n            idToMarketItem[itemId].buyer,\n            idToMarketItem[itemId].category,\n            0,\n            true\n        );\n    }\n\n    function fetchSellingItems() public view returns (MarketItem[] memory) {\n        uint256 itemCount = _itemIds.current();\n        uint256 unsoldItemCount = _itemIds.current() - _itemsSold.current();\n        uint256 currentIndex = 0;\n\n        MarketItem[] memory marketItems = new MarketItem[](unsoldItemCount);\n        for (uint256 i = 0; i < itemCount; i++) {\n            if (idToMarketItem[i + 1].buyer == address(0)) {\n                uint256 currentId = idToMarketItem[i + 1].itemId;\n                MarketItem storage currentItem = idToMarketItem[currentId];\n                marketItems[currentIndex] = currentItem;\n                currentIndex += 1;\n            }\n        }\n        return marketItems;\n    }\n\n    function fetchPurchasedItemsForAddress(address buyer) public view returns (MarketItem[] memory) {\n        uint256 totalItemCount = _itemIds.current();\n        uint256 itemCount = 0;\n        uint256 currentIndex = 0;\n\n        for (uint256 i = 0; i < totalItemCount; i++) {\n            if (idToMarketItem[i + 1].buyer == buyer) {\n                itemCount += 1;\n            }\n        }\n\n        MarketItem[] memory marketItems = new MarketItem[](itemCount);\n        for (uint256 i = 0; i < totalItemCount; i++) {\n            if (idToMarketItem[i + 1].buyer == buyer) {\n                uint256 currentId = idToMarketItem[i + 1].itemId;\n                MarketItem storage currentItem = idToMarketItem[currentId];\n                marketItems[currentIndex] = currentItem;\n                currentIndex += 1;\n            }\n        }\n        return marketItems;\n    }\n\n    function fetchSellingItemsForAddress(address seller) public view returns (MarketItem[] memory) {\n        uint256 totalItemCount = _itemIds.current();\n        uint256 itemCount = 0;\n        uint256 currentIndex = 0;\n\n        for (uint256 i = 0; i < totalItemCount; i++) {\n            if (idToMarketItem[i + 1].seller == seller) {\n                itemCount += 1;\n            }\n        }\n\n        MarketItem[] memory marketItems = new MarketItem[](itemCount);\n        for (uint256 i = 0; i < totalItemCount; i++) {\n            if (idToMarketItem[i + 1].seller == seller) {\n                uint256 currentId = idToMarketItem[i + 1].itemId;\n                MarketItem storage currentItem = idToMarketItem[currentId];\n                marketItems[currentIndex] = currentItem;\n                currentIndex += 1;\n            }\n        }\n        return marketItems;\n    }\n\n    function getItemsByCategory(string calldata category) public view returns (MarketItem[] memory) {\n        uint256 totalItemCount = _itemIds.current();\n        uint256 itemCount = 0;\n        uint256 currentIndex = 0;\n\n        for (uint256 i = 0; i < totalItemCount; i++) {\n            if (\n                keccak256(abi.encodePacked(idToMarketItem[i + 1].category)) ==\n                keccak256(abi.encodePacked(category)) &&\n                idToMarketItem[i + 1].buyer == address(0)\n            ) {\n                itemCount += 1;\n            }\n        }\n\n        MarketItem[] memory marketItems = new MarketItem[](itemCount);\n        for (uint256 i = 0; i < totalItemCount; i++) {\n            if (\n                keccak256(abi.encodePacked(idToMarketItem[i + 1].category)) ==\n                keccak256(abi.encodePacked(category)) &&\n                idToMarketItem[i + 1].buyer == address(0)\n            ) {\n                uint256 currentId = idToMarketItem[i + 1].itemId;\n                MarketItem storage currentItem = idToMarketItem[currentId];\n                marketItems[currentIndex] = currentItem;\n                currentIndex += 1;\n            }\n        }\n        return marketItems;\n    }\n\n    function getByMarketId(uint256 id) public view returns (MarketItem memory){\n        require(id <= _itemIds.current(), \"id doesn't exist\");\n        return idToMarketItem[id];\n    }\n\n    function getByNftContractTokenId(address nftContract, uint256 tokenId) public view returns (MarketItem memory){\n        string memory contractToken = string(abi.encodePacked(nftContract, tokenId));\n        uint256 id = contractTokenToId[contractToken];\n        require(id <= _itemIds.current(), \"id doesn't exist\");\n        return idToMarketItem[id];\n    }\n\n    fallback() payable external {}\n\n    receive() external payable {}\n\n    function retrieveMoney(uint256 amount) external {\n        require(msg.sender == owner, \"Only owner can retrieve Money\");\n        require(amount <= address(this).balance, \"You can not withdraw more money than there is\");\n        payable(owner).transfer(amount);\n    }\n\n    function setSalesFeeBasisPoints(uint256 fee) external {\n        require(msg.sender == owner, \"Only owner can set listingPrice\");\n        require(fee <= 1000, \"Sales Fee cant be higher than 10%\");\n        salesFeeBasisPoints = fee;\n    }\n}",
  "sourcePath": "/Users/maurin.lenglart/IdeaProjects/thetaboard/smart_contracts/contracts/ThetaboardMarketplace.sol",
  "compiler": {
    "name": "solc",
    "version": "0.8.0+commit.c7dfd78e.Emscripten.clang"
  },
  "schemaVersion": "3.4.7",
  "updatedAt": "2022-04-11T22:22:01.066Z",
  "networkType": "ethereum",
  "devdoc": {
    "kind": "dev",
    "methods": {},
    "version": 1
  },
  "userdoc": {
    "kind": "user",
    "methods": {},
    "version": 1
  }
}