{
  "contractName": "thetaTrade",
  "abi": [
    {
      "constant": true,
      "inputs": [
        {
          "internalType": "uint256",
          "name": "",
          "type": "uint256"
        }
      ],
      "name": "onGoingTrades",
      "outputs": [
        {
          "internalType": "uint256",
          "name": "thetaAmount",
          "type": "uint256"
        },
        {
          "internalType": "uint256",
          "name": "tfuelAmount",
          "type": "uint256"
        },
        {
          "internalType": "address",
          "name": "sender_addr",
          "type": "address"
        }
      ],
      "payable": false,
      "stateMutability": "view",
      "type": "function"
    },
    {
      "constant": false,
      "inputs": [
        {
          "internalType": "uint256",
          "name": "tfuelAmount",
          "type": "uint256"
        }
      ],
      "name": "createNewThetaTrade",
      "outputs": [
        {
          "internalType": "uint256",
          "name": "",
          "type": "uint256"
        }
      ],
      "payable": true,
      "stateMutability": "payable",
      "type": "function"
    },
    {
      "constant": true,
      "inputs": [
        {
          "internalType": "uint256",
          "name": "trade_id",
          "type": "uint256"
        }
      ],
      "name": "getTradeInfo",
      "outputs": [
        {
          "internalType": "uint256",
          "name": "",
          "type": "uint256"
        },
        {
          "internalType": "uint256",
          "name": "",
          "type": "uint256"
        },
        {
          "internalType": "address",
          "name": "",
          "type": "address"
        }
      ],
      "payable": false,
      "stateMutability": "view",
      "type": "function"
    }
  ],
  "bytecode": "0x6080604052607b600155600060025534801561001a57600080fd5b506103838061002a6000396000f3fe6080604052600436106100345760003560e01c806336c67897146100395780637e181845146100c257806381e3b6821461014b575b600080fd5b34801561004557600080fd5b506100726004803603602081101561005c57600080fd5b810190808035906020019092919050505061018d565b604051808481526020018381526020018273ffffffffffffffffffffffffffffffffffffffff1673ffffffffffffffffffffffffffffffffffffffff168152602001935050505060405180910390f35b3480156100ce57600080fd5b506100fb600480360360208110156100e557600080fd5b8101908080359060200190929190505050610201565b604051808481526020018381526020018273ffffffffffffffffffffffffffffffffffffffff1673ffffffffffffffffffffffffffffffffffffffff168152602001935050505060405180910390f35b6101776004803603602081101561016157600080fd5b810190808035906020019092919050505061024b565b6040518082815260200191505060405180910390f35b6000806000806000858152602001908152602001600020600001546000808681526020019081526020016000206001015460008087815260200190815260200160002060020160009054906101000a900473ffffffffffffffffffffffffffffffffffffffff169250925092509193909250565b60006020528060005260406000206000915090508060000154908060010154908060020160009054906101000a900473ffffffffffffffffffffffffffffffffffffffff16905083565b6000610255610317565b60405180606001604052803481526020018481526020013373ffffffffffffffffffffffffffffffffffffffff1681525090506001600260008282540192505081905550806000806002548152602001908152602001600020600082015181600001556020820151816001015560408201518160020160006101000a81548173ffffffffffffffffffffffffffffffffffffffff021916908373ffffffffffffffffffffffffffffffffffffffff160217905550905050600254915050919050565b60405180606001604052806000815260200160008152602001600073ffffffffffffffffffffffffffffffffffffffff168152509056fea265627a7a7231582049a959737f8c439d19e357c00f802148776135c853b896730deec589dc0702ae64736f6c63430005100032",
  "source": "// SPDX-License-Identifier: MIT\npragma solidity >=0.4.22 <0.9.0;\n\n\ncontract thetaTrade {\n    struct tradeContract {\n        uint thetaAmount;\n        uint tfuelAmount;\n        address sender_addr;\n    }\n\n    mapping(uint => tradeContract) public onGoingTrades;\n    uint tokenAddress = 123;\n    uint index = 0;\n\n    function createNewThetaTrade(uint tfuelAmount) payable external returns (uint){\n        tradeContract memory new_trade = tradeContract({tfuelAmount : tfuelAmount, thetaAmount : msg.value, sender_addr : msg.sender});\n        index += 1;\n        onGoingTrades[index] = new_trade;\n        return index;\n    }\n\n    function getTradeInfo(uint trade_id) public view returns (uint, uint, address){\n        return (onGoingTrades[trade_id].thetaAmount, onGoingTrades[trade_id].tfuelAmount, onGoingTrades[trade_id].sender_addr);\n    }\n\n//    function resolveThetaTrade() payable external returns (bool) {\n//        return ERC20Interface(tokenAddress).transfer(owner, tokens);\n//    }\n//\n//    function cancelThetaTrade() payable external returns (bool){\n//        return ERC20Interface(tokenAddress).transfer(owner, tokens);\n//    }\n}",
  "sourcePath": "/Users/maurinlenglart/IdeaProjects/thetaboard/smart_contracts/contracts/ThetaTrade.sol",
  "compiler": {
    "name": "solc",
    "version": "0.5.16+commit.9c3226ce.Emscripten.clang"
  },
  "schemaVersion": "3.3.4",
  "updatedAt": "2021-04-07T23:47:14.970Z",
  "networkType": "ethereum",
  "devdoc": {
    "methods": {}
  },
  "userdoc": {
    "methods": {}
  }
}