{
  "contractName": "ThetaboardOffer",
  "abi": [
    {
      "inputs": [],
      "stateMutability": "nonpayable",
      "type": "constructor"
    },
    {
      "anonymous": false,
      "inputs": [
        {
          "indexed": false,
          "internalType": "uint256",
          "name": "userPayout",
          "type": "uint256"
        },
        {
          "indexed": false,
          "internalType": "address",
          "name": "userAddress",
          "type": "address"
        },
        {
          "indexed": false,
          "internalType": "uint256",
          "name": "ownerPayout",
          "type": "uint256"
        },
        {
          "indexed": false,
          "internalType": "address",
          "name": "ownerAddress",
          "type": "address"
        },
        {
          "indexed": false,
          "internalType": "uint256",
          "name": "creatorPayout",
          "type": "uint256"
        },
        {
          "indexed": false,
          "internalType": "address",
          "name": "creatorAddress",
          "type": "address"
        }
      ],
      "name": "FeeSplit",
      "type": "event"
    },
    {
      "anonymous": false,
      "inputs": [
        {
          "indexed": false,
          "internalType": "uint256",
          "name": "itemId",
          "type": "uint256"
        },
        {
          "indexed": false,
          "internalType": "address",
          "name": "nftContract",
          "type": "address"
        },
        {
          "indexed": false,
          "internalType": "uint256",
          "name": "tokenId",
          "type": "uint256"
        },
        {
          "indexed": false,
          "internalType": "address payable",
          "name": "offerer",
          "type": "address"
        },
        {
          "indexed": false,
          "internalType": "address payable",
          "name": "offered",
          "type": "address"
        },
        {
          "indexed": false,
          "internalType": "uint256",
          "name": "price",
          "type": "uint256"
        }
      ],
      "name": "OfferAccepted",
      "type": "event"
    },
    {
      "anonymous": false,
      "inputs": [
        {
          "indexed": false,
          "internalType": "uint256",
          "name": "itemId",
          "type": "uint256"
        },
        {
          "indexed": false,
          "internalType": "address",
          "name": "nftContract",
          "type": "address"
        },
        {
          "indexed": false,
          "internalType": "uint256",
          "name": "tokenId",
          "type": "uint256"
        },
        {
          "indexed": false,
          "internalType": "address payable",
          "name": "offerer",
          "type": "address"
        },
        {
          "indexed": false,
          "internalType": "address payable",
          "name": "offered",
          "type": "address"
        },
        {
          "indexed": false,
          "internalType": "uint256",
          "name": "price",
          "type": "uint256"
        }
      ],
      "name": "OfferCanceled",
      "type": "event"
    },
    {
      "anonymous": false,
      "inputs": [
        {
          "indexed": false,
          "internalType": "uint256",
          "name": "itemId",
          "type": "uint256"
        },
        {
          "indexed": false,
          "internalType": "address",
          "name": "nftContract",
          "type": "address"
        },
        {
          "indexed": false,
          "internalType": "uint256",
          "name": "tokenId",
          "type": "uint256"
        },
        {
          "indexed": false,
          "internalType": "address payable",
          "name": "offerer",
          "type": "address"
        },
        {
          "indexed": false,
          "internalType": "address payable",
          "name": "offered",
          "type": "address"
        },
        {
          "indexed": false,
          "internalType": "uint256",
          "name": "price",
          "type": "uint256"
        }
      ],
      "name": "OfferCreated",
      "type": "event"
    },
    {
      "anonymous": false,
      "inputs": [
        {
          "indexed": false,
          "internalType": "uint256",
          "name": "itemId",
          "type": "uint256"
        },
        {
          "indexed": false,
          "internalType": "address",
          "name": "nftContract",
          "type": "address"
        },
        {
          "indexed": false,
          "internalType": "uint256",
          "name": "tokenId",
          "type": "uint256"
        },
        {
          "indexed": false,
          "internalType": "address payable",
          "name": "offerer",
          "type": "address"
        },
        {
          "indexed": false,
          "internalType": "address payable",
          "name": "offered",
          "type": "address"
        },
        {
          "indexed": false,
          "internalType": "uint256",
          "name": "price",
          "type": "uint256"
        }
      ],
      "name": "OfferDenied",
      "type": "event"
    },
    {
      "stateMutability": "payable",
      "type": "fallback",
      "payable": true
    },
    {
      "inputs": [],
      "name": "listingIsActive",
      "outputs": [
        {
          "internalType": "bool",
          "name": "",
          "type": "bool"
        }
      ],
      "stateMutability": "view",
      "type": "function",
      "constant": true
    },
    {
      "stateMutability": "payable",
      "type": "receive",
      "payable": true
    },
    {
      "inputs": [],
      "name": "getSalesFee",
      "outputs": [
        {
          "internalType": "uint256",
          "name": "",
          "type": "uint256"
        }
      ],
      "stateMutability": "view",
      "type": "function",
      "constant": true
    },
    {
      "inputs": [
        {
          "internalType": "address",
          "name": "nftContract",
          "type": "address"
        },
        {
          "internalType": "uint256",
          "name": "tokenId",
          "type": "uint256"
        }
      ],
      "name": "createNewOffer",
      "outputs": [],
      "stateMutability": "payable",
      "type": "function",
      "payable": true
    },
    {
      "inputs": [
        {
          "internalType": "uint256",
          "name": "itemId",
          "type": "uint256"
        }
      ],
      "name": "changeOffer",
      "outputs": [],
      "stateMutability": "payable",
      "type": "function",
      "payable": true
    },
    {
      "inputs": [
        {
          "internalType": "uint256",
          "name": "itemId",
          "type": "uint256"
        },
        {
          "internalType": "address",
          "name": "creator",
          "type": "address"
        },
        {
          "internalType": "uint256",
          "name": "creatorSplit",
          "type": "uint256"
        }
      ],
      "name": "acceptOffer",
      "outputs": [],
      "stateMutability": "nonpayable",
      "type": "function"
    },
    {
      "inputs": [
        {
          "internalType": "uint256",
          "name": "itemId",
          "type": "uint256"
        }
      ],
      "name": "denyOffer",
      "outputs": [],
      "stateMutability": "nonpayable",
      "type": "function"
    },
    {
      "inputs": [
        {
          "internalType": "uint256",
          "name": "itemId",
          "type": "uint256"
        }
      ],
      "name": "cancelOffer",
      "outputs": [],
      "stateMutability": "nonpayable",
      "type": "function"
    },
    {
      "inputs": [],
      "name": "fetchOffers",
      "outputs": [
        {
          "components": [
            {
              "internalType": "uint256",
              "name": "itemId",
              "type": "uint256"
            },
            {
              "internalType": "address",
              "name": "nftContract",
              "type": "address"
            },
            {
              "internalType": "uint256",
              "name": "tokenId",
              "type": "uint256"
            },
            {
              "internalType": "address payable",
              "name": "offerer",
              "type": "address"
            },
            {
              "internalType": "address payable",
              "name": "offered",
              "type": "address"
            },
            {
              "internalType": "uint256",
              "name": "price",
              "type": "uint256"
            },
            {
              "internalType": "bool",
              "name": "isSold",
              "type": "bool"
            }
          ],
          "internalType": "struct ThetaboardOffer.OfferItem[]",
          "name": "",
          "type": "tuple[]"
        }
      ],
      "stateMutability": "view",
      "type": "function",
      "constant": true
    },
    {
      "inputs": [
        {
          "internalType": "uint256",
          "name": "start",
          "type": "uint256"
        },
        {
          "internalType": "uint256",
          "name": "end",
          "type": "uint256"
        }
      ],
      "name": "fetchOffersByRange",
      "outputs": [
        {
          "components": [
            {
              "internalType": "uint256",
              "name": "itemId",
              "type": "uint256"
            },
            {
              "internalType": "address",
              "name": "nftContract",
              "type": "address"
            },
            {
              "internalType": "uint256",
              "name": "tokenId",
              "type": "uint256"
            },
            {
              "internalType": "address payable",
              "name": "offerer",
              "type": "address"
            },
            {
              "internalType": "address payable",
              "name": "offered",
              "type": "address"
            },
            {
              "internalType": "uint256",
              "name": "price",
              "type": "uint256"
            },
            {
              "internalType": "bool",
              "name": "isSold",
              "type": "bool"
            }
          ],
          "internalType": "struct ThetaboardOffer.OfferItem[]",
          "name": "",
          "type": "tuple[]"
        }
      ],
      "stateMutability": "view",
      "type": "function",
      "constant": true
    },
    {
      "inputs": [
        {
          "internalType": "address",
          "name": "offerer",
          "type": "address"
        }
      ],
      "name": "fetchOffersForAddress",
      "outputs": [
        {
          "components": [
            {
              "internalType": "uint256",
              "name": "itemId",
              "type": "uint256"
            },
            {
              "internalType": "address",
              "name": "nftContract",
              "type": "address"
            },
            {
              "internalType": "uint256",
              "name": "tokenId",
              "type": "uint256"
            },
            {
              "internalType": "address payable",
              "name": "offerer",
              "type": "address"
            },
            {
              "internalType": "address payable",
              "name": "offered",
              "type": "address"
            },
            {
              "internalType": "uint256",
              "name": "price",
              "type": "uint256"
            },
            {
              "internalType": "bool",
              "name": "isSold",
              "type": "bool"
            }
          ],
          "internalType": "struct ThetaboardOffer.OfferItem[]",
          "name": "",
          "type": "tuple[]"
        }
      ],
      "stateMutability": "view",
      "type": "function",
      "constant": true
    },
    {
      "inputs": [
        {
          "internalType": "uint256",
          "name": "id",
          "type": "uint256"
        }
      ],
      "name": "getByItemId",
      "outputs": [
        {
          "components": [
            {
              "internalType": "uint256",
              "name": "itemId",
              "type": "uint256"
            },
            {
              "internalType": "address",
              "name": "nftContract",
              "type": "address"
            },
            {
              "internalType": "uint256",
              "name": "tokenId",
              "type": "uint256"
            },
            {
              "internalType": "address payable",
              "name": "offerer",
              "type": "address"
            },
            {
              "internalType": "address payable",
              "name": "offered",
              "type": "address"
            },
            {
              "internalType": "uint256",
              "name": "price",
              "type": "uint256"
            },
            {
              "internalType": "bool",
              "name": "isSold",
              "type": "bool"
            }
          ],
          "internalType": "struct ThetaboardOffer.OfferItem",
          "name": "",
          "type": "tuple"
        }
      ],
      "stateMutability": "view",
      "type": "function",
      "constant": true
    },
    {
      "inputs": [
        {
          "internalType": "address",
          "name": "nftContract",
          "type": "address"
        },
        {
          "internalType": "uint256",
          "name": "tokenId",
          "type": "uint256"
        },
        {
          "internalType": "address",
          "name": "walletAddress",
          "type": "address"
        }
      ],
      "name": "getByNftContractTokenIdAddress",
      "outputs": [
        {
          "components": [
            {
              "internalType": "uint256",
              "name": "itemId",
              "type": "uint256"
            },
            {
              "internalType": "address",
              "name": "nftContract",
              "type": "address"
            },
            {
              "internalType": "uint256",
              "name": "tokenId",
              "type": "uint256"
            },
            {
              "internalType": "address payable",
              "name": "offerer",
              "type": "address"
            },
            {
              "internalType": "address payable",
              "name": "offered",
              "type": "address"
            },
            {
              "internalType": "uint256",
              "name": "price",
              "type": "uint256"
            },
            {
              "internalType": "bool",
              "name": "isSold",
              "type": "bool"
            }
          ],
          "internalType": "struct ThetaboardOffer.OfferItem",
          "name": "",
          "type": "tuple"
        }
      ],
      "stateMutability": "view",
      "type": "function",
      "constant": true
    },
    {
      "inputs": [
        {
          "internalType": "uint256",
          "name": "fee",
          "type": "uint256"
        }
      ],
      "name": "setSalesFeeBasisPoints",
      "outputs": [],
      "stateMutability": "nonpayable",
      "type": "function"
    }
  ],
  "bytecode": "0x608060405260196004556005805460ff1916600117905534801561002257600080fd5b506001600055600380546001600160a01b03191633179055611c76806100496000396000f3fe6080604052600436106100c65760003560e01c8063838e1a931161007f578063af07acce11610059578063af07acce146101ef578063b3451eac1461020f578063c522c13d14610231578063ef706adf14610251576100cd565b8063838e1a93146101a75780639589d7b9146101ba57806399da2381146101da576100cd565b806314346b8f146100cf57806329ba6d59146101055780632f5ab972146101255780635825ba1f1461014757806368f97f7b146101745780637746dfa914610187576100cd565b366100cd57005b005b3480156100db57600080fd5b506100ef6100ea3660046116de565b610271565b6040516100fc91906117cb565b60405180910390f35b34801561011157600080fd5b506100ef6101203660046115e4565b61040b565b34801561013157600080fd5b5061013a610620565b6040516100fc919061179e565b34801561015357600080fd5b5061016761016236600461164e565b610626565b6040516100fc9190611ae1565b6100cd61018236600461168f565b610724565b34801561019357600080fd5b506100cd6101a236600461168f565b610888565b6100cd6101b5366004611623565b610ad3565b3480156101c657600080fd5b506100cd6101d53660046116a7565b610d2d565b3480156101e657600080fd5b506100ef611117565b3480156101fb57600080fd5b5061016761020a36600461168f565b6112d1565b34801561021b57600080fd5b50610224611376565b6040516100fc9190611819565b34801561023d57600080fd5b506100cd61024c36600461168f565b61137f565b34801561025d57600080fd5b506100cd61026c36600461168f565b6113d0565b6060600061027f8484611bb0565b90506000808267ffffffffffffffff8111156102ab57634e487b7160e01b600052604160045260246000fd5b6040519080825280602002602001820160405280156102e457816020015b6102d16115a8565b8152602001906001900390816102c95790505b509050855b858110156103ff5760066000610300836001611b59565b815260208101919091526040016000206006015460ff166103ed57600060068161032b846001611b59565b81526020808201929092526040908101600090812054808252600680855291839020835160e0810185528154815260018201546001600160a01b039081169682019690965260028201549481019490945260038101548516606085015260048101549094166080840152600584015460a08401529083015460ff16151560c083015285519093508590879081106103d257634e487b7160e01b600052603260045260246000fd5b60209081029190910101526103e8600186611b59565b945050505b806103f781611bf7565b9150506102e9565b50925050505b92915050565b60606000610419600161159b565b905060008060005b83811015610485576001600160a01b03861660066000610442846001611b59565b81526020810191909152604001600020600301546001600160a01b0316141561047357610470600184611b59565b92505b8061047d81611bf7565b915050610421565b5060008267ffffffffffffffff8111156104af57634e487b7160e01b600052604160045260246000fd5b6040519080825280602002602001820160405280156104e857816020015b6104d56115a8565b8152602001906001900390816104cd5790505b50905060005b84811015610616576001600160a01b0387166006600061050f846001611b59565b81526020810191909152604001600020600301546001600160a01b03161415610604576000600681610542846001611b59565b81526020808201929092526040908101600090812054808252600680855291839020835160e0810185528154815260018201546001600160a01b039081169682019690965260028201549481019490945260038101548516606085015260048101549094166080840152600584015460a08401529083015460ff16151560c083015285519093508590879081106105e957634e487b7160e01b600052603260045260246000fd5b60209081029190910101526105ff600186611b59565b945050505b8061060e81611bf7565b9150506104ee565b5095945050505050565b60045490565b61062e6115a8565b600084848460405160200161064593929190611755565b604051602081830303815290604052905060006007826040516106689190611782565b9081526020016040518091039020549050610683600161159b565b8111156106ab5760405162461bcd60e51b81526004016106a290611a80565b60405180910390fd5b600090815260066020818152604092839020835160e0810185528154815260018201546001600160a01b039081169382019390935260028201549481019490945260038101548216606085015260048101549091166080840152600581015460a0840152015460ff16151560c082015295945050505050565b600260005414156107475760405162461bcd60e51b81526004016106a290611aaa565b600260005560055460ff1615156001146107735760405162461bcd60e51b81526004016106a290611983565b600034116107935760405162461bcd60e51b81526004016106a290611857565b600081815260066020526040902060058101546003909101546001600160a01b03163381146107d45760405162461bcd60e51b81526004016106a2906118d7565b60008381526006602052604080822034600590910155516001600160a01b0383169184156108fc02918591818181858888f1935050505015801561081c573d6000803e3d6000fd5b50600083815260066020526040808220600181015460029091015491517f0abc6d84cf3182a3b56f555a96f6d54108f5c011c0a02d5c96195a0c0aaf3984936108769388936001600160a01b031692909187913490611aef565b60405180910390a15050600160005550565b600260005414156108ab5760405162461bcd60e51b81526004016106a290611aaa565b60026000908155818152600660208190526040909120015460ff16156108e35760405162461bcd60e51b81526004016106a290611955565b6000818152600660205260409081902060058101546002820154600183015460039093015493516331a9108f60e11b8152919390926001600160a01b039081169291169033908390636352211e9061093f90879060040161179e565b60206040518083038186803b15801561095757600080fd5b505afa15801561096b573d6000803e3d6000fd5b505050506040513d601f19601f8201168201806040525081019061098f9190611607565b6001600160a01b0316146109b55760405162461bcd60e51b81526004016106a29061188e565b6000858152600660208190526040808320909101805460ff19166001179055516001600160a01b0383169186156108fc02918791818181858888f19350505050158015610a06573d6000803e3d6000fd5b506000828483604051602001610a1e93929190611755565b6040516020818303038152906040529050600781604051610a3f9190611782565b908152602001604051809103902060009055610a5b600261159f565b600086815260066020526040908190206001810154600282015460039092015492517f51ce4b3727b178f8acf5ef860ff1f24269fe00a28ae5b1c868d2d672f032772a93610abe938b936001600160a01b03908116939192169033908c90611aef565b60405180910390a15050600160005550505050565b60026000541415610af65760405162461bcd60e51b81526004016106a290611aaa565b600260005560055460ff161515600114610b225760405162461bcd60e51b81526004016106a290611983565b60003411610b425760405162461bcd60e51b81526004016106a290611857565b6000828233604051602001610b5993929190611755565b60405160208183030381529060405290506001600782604051610b7c9190611782565b90815260200160405180910390205410600782604051610b9c9190611782565b908152602001604051809103902054604051602001610bbb919061179e565b60405160208183030381529060405290610be85760405162461bcd60e51b81526004016106a29190611824565b50610bf3600161159f565b6000610bff600161159b565b6040805160e0810182528281526001600160a01b03878116602080840191825283850189815233606086019081526000608087018181523460a0890190815260c089018381528b8452600696879052928a90209851895595516001890180546001600160a01b0319908116928a169290921790559351600289015591516003880180548516918816919091179055905160048701805490931695169490941790559051600584015590519101805460ff1916911515919091179055519091508190600790610cce908590611782565b9081526020016040518091039020819055507f0abc6d84cf3182a3b56f555a96f6d54108f5c011c0a02d5c96195a0c0aaf398481858533600034604051610d1a96959493929190611aef565b60405180910390a1505060016000555050565b60026000541415610d505760405162461bcd60e51b81526004016106a290611aaa565b60026000908155838152600660208190526040909120015460ff1615610d885760405162461bcd60e51b81526004016106a290611955565b6000838152600660205260409081902060058101546002820154600183015460039093015493516331a9108f60e11b8152919390926001600160a01b039081169283929091169033908390636352211e90610de790889060040161179e565b60206040518083038186803b158015610dff57600080fd5b505afa158015610e13573d6000803e3d6000fd5b505050506040513d601f19601f82011682018060405250810190610e379190611607565b6001600160a01b031614610e5d5760405162461bcd60e51b81526004016106a290611a35565b6040516323b872dd60e01b81526001600160a01b038416906323b872dd90610e8d903390859089906004016117a7565b600060405180830381600087803b158015610ea757600080fd5b505af1158015610ebb573d6000803e3d6000fd5b505050600089815260066020818152604092839020918201805460ff19166001179055600490910180546001600160a01b03191633179055905160079250610f099186918891869101611755565b60408051601f1981840301815290829052610f2391611782565b908152602001604051809103902060009055610f3f600261159f565b6000806004546103e888610f539190611b71565b610f5d9190611b91565b905060006001600160a01b038a1615801590610f795750600089115b8015610f8657506103cf89105b15610ff85788610f986103e88a611b71565b610fa29190611b91565b6040519093506001600160a01b038b169084156108fc029085906000818181858888f19350505050158015610fdb573d6000803e3d6000fd5b5081610fe7848a611bb0565b610ff19190611bb0565b9050611005565b6110028289611bb0565b90505b604051339082156108fc029083906000818181858888f19350505050158015611032573d6000803e3d6000fd5b506003546040516001600160a01b039091169083156108fc029084906000818181858888f1935050505015801561106d573d6000803e3d6000fd5b507f0558bd86271bcc52fd8309a5f872832242ded0003777714c76da6ecfc871a3798b878987338d6040516110a796959493929190611aef565b60405180910390a17f7e06111c2f996dd70140b09a1b769e48e2e8fffbd0179a6e24552f65d25b8b16813384600360009054906101000a90046001600160a01b0316878f6040516110fd96959493929190611b25565b60405180910390a150506001600055505050505050505050565b60606000611125600161159b565b90506000611133600261159b565b61113d600161159b565b6111479190611bb0565b90506000808267ffffffffffffffff81111561117357634e487b7160e01b600052604160045260246000fd5b6040519080825280602002602001820160405280156111ac57816020015b6111996115a8565b8152602001906001900390816111915790505b50905060005b848110156112c857600660006111c9836001611b59565b815260208101919091526040016000206006015460ff166112b65760006006816111f4846001611b59565b81526020808201929092526040908101600090812054808252600680855291839020835160e0810185528154815260018201546001600160a01b039081169682019690965260028201549481019490945260038101548516606085015260048101549094166080840152600584015460a08401529083015460ff16151560c0830152855190935085908790811061129b57634e487b7160e01b600052603260045260246000fd5b60209081029190910101526112b1600186611b59565b945050505b806112c081611bf7565b9150506111b2565b50935050505090565b6112d96115a8565b6112e3600161159b565b8211156113025760405162461bcd60e51b81526004016106a290611a80565b50600090815260066020818152604092839020835160e0810185528154815260018201546001600160a01b039081169382019390935260028201549481019490945260038101548216606085015260048101549091166080840152600581015460a0840152015460ff16151560c082015290565b60055460ff1681565b6003546001600160a01b031633146113a95760405162461bcd60e51b81526004016106a29061191e565b6103e88111156113cb5760405162461bcd60e51b81526004016106a2906119ad565b600455565b600260005414156113f35760405162461bcd60e51b81526004016106a290611aaa565b60026000908155818152600660208190526040909120015460ff161561142b5760405162461bcd60e51b81526004016106a290611955565b6000818152600660205260409020600581015460028201546001830154600390930154919290916001600160a01b0391821691163381148061147757506003546001600160a01b031633145b6114935760405162461bcd60e51b81526004016106a2906119ee565b6000858152600660208190526040808320909101805460ff19166001179055516001600160a01b0383169186156108fc02918791818181858888f193505050501580156114e4573d6000803e3d6000fd5b5060008284836040516020016114fc93929190611755565b604051602081830303815290604052905060078160405161151d9190611782565b908152602001604051809103902060009055611539600261159f565b6000868152600660205260408082206001810154600282015460039092015492517f52ad52b35de7b3d202be1ec25c84c971aaa042ff7e3628b06956cc5c2ed6da2b94610abe948c946001600160a01b03948516949093911691908c90611aef565b5490565b80546001019055565b6040805160e081018252600080825260208201819052918101829052606081018290526080810182905260a0810182905260c081019190915290565b6000602082840312156115f5578081fd5b813561160081611c28565b9392505050565b600060208284031215611618578081fd5b815161160081611c28565b60008060408385031215611635578081fd5b823561164081611c28565b946020939093013593505050565b600080600060608486031215611662578081fd5b833561166d81611c28565b925060208401359150604084013561168481611c28565b809150509250925092565b6000602082840312156116a0578081fd5b5035919050565b6000806000606084860312156116bb578283fd5b8335925060208401356116cd81611c28565b929592945050506040919091013590565b600080604083850312156116f0578182fd5b50508035926020909101359150565b80518252602081015160018060a01b03808216602085015260408301516040850152806060840151166060850152806080840151166080850152505060a081015160a083015260c0810151151560c08301525050565b6bffffffffffffffffffffffff19606094851b811682526014820193909352921b16603482015260480190565b60008251611794818460208701611bc7565b9190910192915050565b90815260200190565b6001600160a01b039384168152919092166020820152604081019190915260600190565b6020808252825182820181905260009190848201906040850190845b8181101561180d576117fa8385516116ff565b9284019260e092909201916001016117e7565b50909695505050505050565b901515815260200190565b6000602082528251806020840152611843816040850160208701611bc7565b601f01601f19169190910160400192915050565b6020808252601b908201527f4f66666572206d75737420626520686967686572207468616e20300000000000604082015260600190565b60208082526029908201527f596f75206d75737420626520746f6b656e206f776e657220746f2064656e79206040820152683a34329037b33332b960b91b606082015260800190565b60208082526027908201527f596f75206d757374206265206f66666572657220746f206368616e6765207468604082015266329037b33332b960c91b606082015260800190565b6020808252601f908201527f4f6e6c79206f776e65722063616e20736574206c697374696e67507269636500604082015260600190565b602080825260149082015273125d195b481a5cc8185b1c9958591e481cdbdb1960621b604082015260600190565b60208082526010908201526f131a5cdd1a5b99c8191a5cd8589b195960821b604082015260600190565b60208082526021908201527f53616c6573204665652063616e7420626520686967686572207468616e2031306040820152602560f81b606082015260800190565b60208082526027908201527f596f75206d757374206265206f66666572657220746f2063616e63656c207468604082015266329037b33332b960c91b606082015260800190565b6020808252602b908201527f596f75206d75737420626520746f6b656e206f776e657220746f20616363657060408201526a3a103a34329037b33332b960a91b606082015260800190565b60208082526010908201526f1a5908191bd95cdb89dd08195e1a5cdd60821b604082015260600190565b6020808252601f908201527f5265656e7472616e637947756172643a207265656e7472616e742063616c6c00604082015260600190565b60e0810161040582846116ff565b9586526001600160a01b03948516602087015260408601939093529083166060850152909116608083015260a082015260c00190565b9586526001600160a01b0394851660208701526040860193909352908316606085015260808401521660a082015260c00190565b60008219821115611b6c57611b6c611c12565b500190565b600082611b8c57634e487b7160e01b81526012600452602481fd5b500490565b6000816000190483118215151615611bab57611bab611c12565b500290565b600082821015611bc257611bc2611c12565b500390565b60005b83811015611be2578181015183820152602001611bca565b83811115611bf1576000848401525b50505050565b6000600019821415611c0b57611c0b611c12565b5060010190565b634e487b7160e01b600052601160045260246000fd5b6001600160a01b0381168114611c3d57600080fd5b5056fea264697066735822122088a29dc0fe3206a50bab55f4a02647474babc22b6d2d8ffd97bc06f7c753bc6b64736f6c63430008000033",
  "immutableReferences": {},
  "source": "pragma solidity ^0.8.0;\n\nimport \"@openzeppelin/contracts/utils/Counters.sol\";\nimport \"@openzeppelin/contracts/security/ReentrancyGuard.sol\";\nimport \"@openzeppelin/contracts/token/ERC721/ERC721.sol\";\n\n\ncontract ThetaboardOffer is ReentrancyGuard {\n    using Counters for Counters.Counter;\n    Counters.Counter private _itemIds; // Id for each individual item\n    Counters.Counter private _itemsSold; // Number of items sold\n\n    address payable owner; // The owner of the NFTMarket contract\n    uint256 salesFeeBasisPoints = 25; // % of split for thetaboard\n    bool public listingIsActive = true;\n\n    constructor() {\n        owner = payable(msg.sender);\n    }\n\n    struct OfferItem {\n        uint256 itemId;\n        address nftContract;\n        uint256 tokenId;\n        address payable offerer;\n        address payable offered;\n        uint256 price;\n        bool isSold;\n    }\n\n    struct Creator {\n        address creator;\n        uint256 feeBasisPoints;\n    }\n\n    //    mapping that keeps all items ever placed on the marketplace\n    mapping(uint256 => OfferItem) private idToOfferItem;\n    // mapping to get an item id from \"nftcontract:tokenId\"\n    mapping(string => uint256) private contractTokenAddressToId;\n\n    // Event called when a new Item is created\n    event OfferCreated(\n        uint256 itemId,\n        address nftContract,\n        uint256 tokenId,\n        address payable offerer,\n        address payable offered,\n        uint256 price\n    );\n\n    // Event called when an Item is sold\n    event OfferAccepted(\n        uint256 itemId,\n        address nftContract,\n        uint256 tokenId,\n        address payable offerer,\n        address payable offered,\n        uint256 price\n    );\n\n    event OfferDenied(\n        uint256 itemId,\n        address nftContract,\n        uint256 tokenId,\n        address payable offerer,\n        address payable offered,\n        uint256 price\n    );\n\n    event OfferCanceled(\n        uint256 itemId,\n        address nftContract,\n        uint256 tokenId,\n        address payable offerer,\n        address payable offered,\n        uint256 price\n    );\n\n    //  Event called TFuel is spit into creator fee, thetaboard fee and payment to seller\n    event FeeSplit(\n        uint256 userPayout,\n        address userAddress,\n        uint256 ownerPayout,\n        address ownerAddress,\n        uint256 creatorPayout,\n        address creatorAddress\n    );\n\n    function getSalesFee() public view returns (uint256) {\n        return salesFeeBasisPoints;\n    }\n\n    function createNewOffer(\n        address nftContract,\n        uint256 tokenId\n    ) public nonReentrant payable {\n        require(listingIsActive == true, \"Listing disabled\");\n        require(msg.value > 0, \"Offer must be higher than 0\");\n        string memory contractToken = string(abi.encodePacked(nftContract, tokenId, msg.sender));\n        require(contractTokenAddressToId[contractToken] < 1, string(abi.encodePacked(contractTokenAddressToId[contractToken])));\n\n        _itemIds.increment();\n        uint256 itemId = _itemIds.current();\n\n        idToOfferItem[itemId] = OfferItem(\n            itemId,\n            nftContract,\n            tokenId,\n            payable(msg.sender),\n            payable(address(0)),\n            msg.value,\n            false\n        );\n        contractTokenAddressToId[contractToken] = itemId;\n\n        emit OfferCreated(\n            itemId,\n            nftContract,\n            tokenId,\n            payable(msg.sender),\n            payable(address(0)),\n            msg.value\n        );\n    }\n\n    function changeOffer(uint256 itemId) public nonReentrant payable {\n        require(listingIsActive == true, \"Listing disabled\");\n        require(msg.value > 0, \"Offer must be higher than 0\");\n        // get sell info\n        uint256 price = idToOfferItem[itemId].price;\n        address payable offerer = idToOfferItem[itemId].offerer;\n\n        require(offerer == msg.sender, \"You must be offerer to change the offer\");\n\n\n        idToOfferItem[itemId].price =  msg.value;\n        offerer.transfer(price);\n\n        emit OfferCreated(\n            itemId,\n            idToOfferItem[itemId].nftContract,\n            idToOfferItem[itemId].tokenId,\n            offerer,\n            payable(address(0)),\n            msg.value\n        );\n    }\n\n    function acceptOffer(uint256 itemId, address creator, uint256 creatorSplit) public nonReentrant\n    {\n        require(idToOfferItem[itemId].isSold == false, \"Item is already sold\");\n\n        // get sell info\n        uint256 price = idToOfferItem[itemId].price;\n        uint256 tokenId = idToOfferItem[itemId].tokenId;\n        address nftContract = idToOfferItem[itemId].nftContract;\n        IERC721 nft721 = IERC721(nftContract);\n        address payable offerer = idToOfferItem[itemId].offerer;\n        require(nft721.ownerOf(tokenId) == msg.sender, \"You must be token owner to accept the offer\");\n\n        // transfer token\n        IERC721(nftContract).transferFrom(address(msg.sender), offerer, tokenId);\n\n        // set in OfferItem\n        idToOfferItem[itemId].isSold = true;\n        idToOfferItem[itemId].offered = payable(msg.sender);\n        delete contractTokenAddressToId[string(abi.encodePacked(nftContract, tokenId, offerer))];\n\n        _itemsSold.increment();\n\n        // Calculate Payouts\n        uint256 creatorPayout = 0;\n        uint256 ownerPayout = price / 1000 * salesFeeBasisPoints;\n        uint256 userPayout = 0;\n        if (creator != address(0x0) && creatorSplit > 0 && creatorSplit < 975) {\n            creatorPayout = price / 1000 * creatorSplit;\n            payable(creator).transfer(creatorPayout);\n            userPayout = price - creatorPayout - ownerPayout;\n        } else {\n            userPayout = price - ownerPayout;\n        }\n\n        // Payout to user and thetaboard\n        payable(msg.sender).transfer(userPayout);\n        owner.transfer(ownerPayout);\n\n        emit OfferAccepted(\n            itemId,\n            nftContract,\n            tokenId,\n            offerer,\n            payable(msg.sender),\n            price\n        );\n\n        emit FeeSplit(\n            userPayout,\n            msg.sender,\n            ownerPayout,\n            owner,\n            creatorPayout,\n            creator\n        );\n    }\n\n    function denyOffer(uint256 itemId) public nonReentrant {\n        require(idToOfferItem[itemId].isSold == false, \"Item is already sold\");\n\n        // get sell info\n        uint256 price = idToOfferItem[itemId].price;\n        uint256 tokenId = idToOfferItem[itemId].tokenId;\n        address nftContract = idToOfferItem[itemId].nftContract;\n        address payable offerer = idToOfferItem[itemId].offerer;\n\n        require(IERC721(nftContract).ownerOf(tokenId) == msg.sender, \"You must be token owner to deny the offer\");\n\n        // set in OfferItem\n        idToOfferItem[itemId].isSold = true;\n        offerer.transfer(price);\n        string memory contractToken = string(abi.encodePacked(nftContract, tokenId, offerer));\n        delete contractTokenAddressToId[contractToken];\n        _itemsSold.increment();\n\n        // event\n        emit OfferDenied(\n            itemId,\n            idToOfferItem[itemId].nftContract,\n            idToOfferItem[itemId].tokenId,\n            idToOfferItem[itemId].offerer,\n            payable(msg.sender),\n            price\n        );\n    }\n\n    function cancelOffer(uint256 itemId) public nonReentrant {\n        require(idToOfferItem[itemId].isSold == false, \"Item is already sold\");\n\n        // get sell info\n        uint256 price = idToOfferItem[itemId].price;\n        uint256 tokenId = idToOfferItem[itemId].tokenId;\n        address nftContract = idToOfferItem[itemId].nftContract;\n        address payable offerer = idToOfferItem[itemId].offerer;\n\n        require(offerer == msg.sender || msg.sender == owner, \"You must be offerer to cancel the offer\");\n\n        // set in OfferItem\n        idToOfferItem[itemId].isSold = true;\n        offerer.transfer(price);\n        string memory contractToken = string(abi.encodePacked(nftContract, tokenId, offerer));\n        delete contractTokenAddressToId[contractToken];\n        _itemsSold.increment();\n\n        // event\n        emit OfferCanceled(\n            itemId,\n            idToOfferItem[itemId].nftContract,\n            idToOfferItem[itemId].tokenId,\n            idToOfferItem[itemId].offerer,\n            payable(address(0)),\n            price\n        );\n    }\n\n    function fetchOffers() public view returns (OfferItem[] memory) {\n        uint256 itemCount = _itemIds.current();\n        uint256 unsoldItemCount = _itemIds.current() - _itemsSold.current();\n        uint256 currentIndex = 0;\n\n        OfferItem[] memory OfferItems = new OfferItem[](unsoldItemCount);\n        for (uint256 i = 0; i < itemCount; i++) {\n            if (idToOfferItem[i + 1].isSold == false) {\n                uint256 currentId = idToOfferItem[i + 1].itemId;\n                OfferItem storage currentItem = idToOfferItem[currentId];\n                OfferItems[currentIndex] = currentItem;\n                currentIndex += 1;\n            }\n        }\n        return OfferItems;\n    }\n\n    function fetchOffersByRange(uint start, uint end) public view returns (OfferItem[] memory) {\n        uint256 itemCount = end - start;\n        uint256 currentIndex = 0;\n\n        OfferItem[] memory OfferItems = new OfferItem[](itemCount);\n        for (uint256 i = start; i < end; i++) {\n            if (idToOfferItem[i + 1].isSold == false) {\n                uint256 currentId = idToOfferItem[i + 1].itemId;\n                OfferItem storage currentItem = idToOfferItem[currentId];\n                OfferItems[currentIndex] = currentItem;\n                currentIndex += 1;\n            }\n        }\n        return OfferItems;\n    }\n\n    function fetchOffersForAddress(address offerer) public view returns (OfferItem[] memory) {\n        uint256 totalItemCount = _itemIds.current();\n        uint256 itemCount = 0;\n        uint256 currentIndex = 0;\n\n        for (uint256 i = 0; i < totalItemCount; i++) {\n            if (idToOfferItem[i + 1].offerer == offerer) {\n                itemCount += 1;\n            }\n        }\n\n        OfferItem[] memory OfferItems = new OfferItem[](itemCount);\n        for (uint256 i = 0; i < totalItemCount; i++) {\n            if (idToOfferItem[i + 1].offerer == offerer) {\n                uint256 currentId = idToOfferItem[i + 1].itemId;\n                OfferItem storage currentItem = idToOfferItem[currentId];\n                OfferItems[currentIndex] = currentItem;\n                currentIndex += 1;\n            }\n        }\n        return OfferItems;\n    }\n\n    function getByItemId(uint256 id) public view returns (OfferItem memory){\n        require(id <= _itemIds.current(), \"id doesn't exist\");\n        return idToOfferItem[id];\n    }\n\n    function getByNftContractTokenIdAddress(address nftContract, uint256 tokenId, address walletAddress) public view returns (OfferItem memory){\n        string memory contractToken = string(abi.encodePacked(nftContract, tokenId, walletAddress));\n        uint256 id = contractTokenAddressToId[contractToken];\n        require(id <= _itemIds.current(), \"id doesn't exist\");\n        return idToOfferItem[id];\n    }\n\n    fallback() payable external {}\n\n    receive() external payable {}\n\n    function setSalesFeeBasisPoints(uint256 fee) external {\n        require(msg.sender == owner, \"Only owner can set listingPrice\");\n        require(fee <= 1000, \"Sales Fee cant be higher than 10%\");\n        salesFeeBasisPoints = fee;\n    }\n}",
  "sourcePath": "/Users/maurin.lenglart/IdeaProjects/thetaboard/smart_contracts/contracts/ThetaboardOffer.sol",
  "compiler": {
    "name": "solc",
    "version": "0.8.0+commit.c7dfd78e.Emscripten.clang"
  },
  "schemaVersion": "3.4.7",
  "updatedAt": "2022-04-22T20:57:27.390Z",
  "networkType": "ethereum",
  "devdoc": {
    "kind": "dev",
    "methods": {},
    "version": 1
  },
  "userdoc": {
    "kind": "user",
    "methods": {},
    "version": 1
  }
}