{
  "contractName": "ThetaboardAuctionSellNft",
  "abi": [
    {
      "anonymous": false,
      "inputs": [
        {
          "indexed": true,
          "internalType": "address",
          "name": "previousOwner",
          "type": "address"
        },
        {
          "indexed": true,
          "internalType": "address",
          "name": "newOwner",
          "type": "address"
        }
      ],
      "name": "OwnershipTransferred",
      "type": "event"
    },
    {
      "inputs": [],
      "name": "owner",
      "outputs": [
        {
          "internalType": "address",
          "name": "",
          "type": "address"
        }
      ],
      "stateMutability": "view",
      "type": "function"
    },
    {
      "inputs": [],
      "name": "renounceOwnership",
      "outputs": [],
      "stateMutability": "nonpayable",
      "type": "function"
    },
    {
      "inputs": [
        {
          "internalType": "address",
          "name": "newOwner",
          "type": "address"
        }
      ],
      "name": "transferOwnership",
      "outputs": [],
      "stateMutability": "nonpayable",
      "type": "function"
    },
    {
      "inputs": [
        {
          "internalType": "address",
          "name": "_nftAddress",
          "type": "address"
        },
        {
          "internalType": "uint256",
          "name": "_minBid",
          "type": "uint256"
        },
        {
          "internalType": "uint256",
          "name": "_maxDate",
          "type": "uint256"
        },
        {
          "internalType": "uint256",
          "name": "_maxMint",
          "type": "uint256"
        },
        {
          "internalType": "address",
          "name": "_artistWallet",
          "type": "address"
        },
        {
          "internalType": "uint8",
          "name": "_artistSplit",
          "type": "uint8"
        }
      ],
      "name": "newAuction",
      "outputs": [],
      "stateMutability": "nonpayable",
      "type": "function"
    },
    {
      "inputs": [
        {
          "internalType": "address",
          "name": "_nftAddress",
          "type": "address"
        }
      ],
      "name": "placeBid",
      "outputs": [],
      "stateMutability": "payable",
      "type": "function"
    },
    {
      "inputs": [
        {
          "internalType": "address",
          "name": "_nftAddress",
          "type": "address"
        },
        {
          "internalType": "uint256[]",
          "name": "orderToMint",
          "type": "uint256[]"
        }
      ],
      "name": "concludeBid",
      "outputs": [],
      "stateMutability": "nonpayable",
      "type": "function"
    },
    {
      "inputs": [
        {
          "internalType": "address",
          "name": "_nftAddress",
          "type": "address"
        },
        {
          "internalType": "uint256",
          "name": "_minBid",
          "type": "uint256"
        }
      ],
      "name": "setPrice",
      "outputs": [],
      "stateMutability": "nonpayable",
      "type": "function"
    },
    {
      "inputs": [
        {
          "internalType": "address",
          "name": "_nftAddress",
          "type": "address"
        },
        {
          "internalType": "uint256",
          "name": "_maxDate",
          "type": "uint256"
        }
      ],
      "name": "setMaxDate",
      "outputs": [],
      "stateMutability": "nonpayable",
      "type": "function"
    },
    {
      "inputs": [
        {
          "internalType": "address",
          "name": "_nftAddress",
          "type": "address"
        }
      ],
      "name": "getNftAuction",
      "outputs": [
        {
          "components": [
            {
              "internalType": "uint256",
              "name": "maxDate",
              "type": "uint256"
            },
            {
              "internalType": "uint256",
              "name": "maxMint",
              "type": "uint256"
            },
            {
              "internalType": "uint256",
              "name": "countBidMade",
              "type": "uint256"
            },
            {
              "internalType": "uint256",
              "name": "minBid",
              "type": "uint256"
            },
            {
              "internalType": "address",
              "name": "artistWallet",
              "type": "address"
            },
            {
              "internalType": "uint8",
              "name": "artistSplit",
              "type": "uint8"
            },
            {
              "internalType": "address[]",
              "name": "bidders",
              "type": "address[]"
            },
            {
              "internalType": "uint256[]",
              "name": "bidsValue",
              "type": "uint256[]"
            }
          ],
          "internalType": "struct ThetaboardAuctionSellNft.nftAuction",
          "name": "",
          "type": "tuple"
        }
      ],
      "stateMutability": "view",
      "type": "function"
    }
  ],
  "bytecode": "0x60806040523480156200001157600080fd5b5062000032620000266200003860201b60201c565b6200004060201b60201c565b62000104565b600033905090565b60008060009054906101000a900473ffffffffffffffffffffffffffffffffffffffff169050816000806101000a81548173ffffffffffffffffffffffffffffffffffffffff021916908373ffffffffffffffffffffffffffffffffffffffff1602179055508173ffffffffffffffffffffffffffffffffffffffff168173ffffffffffffffffffffffffffffffffffffffff167f8be0079c531659141344cd1fd0a4f28419497f9722a3daafe3b4186f6b6457e060405160405180910390a35050565b6129f680620001146000396000f3fe6080604052600436106100855760003560e01c80638da5cb5b116100595780638da5cb5b1461011c578063d516e81914610147578063e494015714610184578063f2fde38b146101a0578063fe7c4f3e146101c957610085565b8062e4768b1461008a5780630cb7562e146100b35780634951b7bd146100dc578063715018a614610105575b600080fd5b34801561009657600080fd5b506100b160048036038101906100ac9190611fc8565b6101f2565b005b3480156100bf57600080fd5b506100da60048036038101906100d59190611f74565b6103d4565b005b3480156100e857600080fd5b5061010360048036038101906100fe9190611fc8565b610930565b005b34801561011157600080fd5b5061011a610aca565b005b34801561012857600080fd5b50610131610b52565b60405161013e919061252a565b60405180910390f35b34801561015357600080fd5b5061016e60048036038101906101699190611f4b565b610b7b565b60405161017b9190612645565b60405180910390f35b61019e60048036038101906101999190611f4b565b610d56565b005b3480156101ac57600080fd5b506101c760048036038101906101c29190611f4b565b6117f0565b005b3480156101d557600080fd5b506101f060048036038101906101eb9190612004565b6118e8565b005b6101fa611c58565b73ffffffffffffffffffffffffffffffffffffffff16610218610b52565b73ffffffffffffffffffffffffffffffffffffffff161461026e576040517f08c379a0000000000000000000000000000000000000000000000000000000008152600401610265906125e5565b60405180910390fd5b6000600160008473ffffffffffffffffffffffffffffffffffffffff1673ffffffffffffffffffffffffffffffffffffffff1681526020019081526020016000206003015414156102f4576040517f08c379a00000000000000000000000000000000000000000000000000000000081526004016102eb90612605565b60405180910390fd5b6000811161030157600080fd5b6000600160008473ffffffffffffffffffffffffffffffffffffffff1673ffffffffffffffffffffffffffffffffffffffff1681526020019081526020016000206005018054905014610389576040517f08c379a000000000000000000000000000000000000000000000000000000000815260040161038090612585565b60405180910390fd5b80600160008473ffffffffffffffffffffffffffffffffffffffff1673ffffffffffffffffffffffffffffffffffffffff168152602001908152602001600020600301819055505050565b6103dc611c58565b73ffffffffffffffffffffffffffffffffffffffff166103fa610b52565b73ffffffffffffffffffffffffffffffffffffffff1614610450576040517f08c379a0000000000000000000000000000000000000000000000000000000008152600401610447906125e5565b60405180910390fd5b6000600160008473ffffffffffffffffffffffffffffffffffffffff1673ffffffffffffffffffffffffffffffffffffffff1681526020019081526020016000206003015414156104d6576040517f08c379a00000000000000000000000000000000000000000000000000000000081526004016104cd90612605565b60405180910390fd5b8051600160008473ffffffffffffffffffffffffffffffffffffffff1673ffffffffffffffffffffffffffffffffffffffff168152602001908152602001600020600501805490501461052857600080fd5b6000805b600160008573ffffffffffffffffffffffffffffffffffffffff1673ffffffffffffffffffffffffffffffffffffffff168152602001908152602001600020600501805490508110156107b3576000600160008673ffffffffffffffffffffffffffffffffffffffff1673ffffffffffffffffffffffffffffffffffffffff1681526020019081526020016000206005018483815181106105f6577f4e487b7100000000000000000000000000000000000000000000000000000000600052603260045260246000fd5b602002602001015181548110610635577f4e487b7100000000000000000000000000000000000000000000000000000000600052603260045260246000fd5b9060005260206000200160009054906101000a900473ffffffffffffffffffffffffffffffffffffffff1690508473ffffffffffffffffffffffffffffffffffffffff16636a627842826040518263ffffffff1660e01b815260040161069b919061252a565b600060405180830381600087803b1580156106b557600080fd5b505af11580156106c9573d6000803e3d6000fd5b50505050600160008673ffffffffffffffffffffffffffffffffffffffff1673ffffffffffffffffffffffffffffffffffffffff168152602001908152602001600020600601848381518110610748577f4e487b7100000000000000000000000000000000000000000000000000000000600052603260045260246000fd5b602002602001015181548110610787577f4e487b7100000000000000000000000000000000000000000000000000000000600052603260045260246000fd5b90600052602060002001548361079d9190612747565b92505080806107ab906128a5565b91505061052c565b506000600160008573ffffffffffffffffffffffffffffffffffffffff1673ffffffffffffffffffffffffffffffffffffffff16815260200190815260200160002060040160149054906101000a900460ff1660ff16606483610816919061279d565b61082091906127ce565b9050600081836108309190612828565b9050600160008673ffffffffffffffffffffffffffffffffffffffff1673ffffffffffffffffffffffffffffffffffffffff16815260200190815260200160002060040160009054906101000a900473ffffffffffffffffffffffffffffffffffffffff1673ffffffffffffffffffffffffffffffffffffffff166108fc839081150290604051600060405180830381858888f193505050501580156108da573d6000803e3d6000fd5b506108e3610b52565b73ffffffffffffffffffffffffffffffffffffffff166108fc829081150290604051600060405180830381858888f19350505050158015610928573d6000803e3d6000fd5b505050505050565b610938611c58565b73ffffffffffffffffffffffffffffffffffffffff16610956610b52565b73ffffffffffffffffffffffffffffffffffffffff16146109ac576040517f08c379a00000000000000000000000000000000000000000000000000000000081526004016109a3906125e5565b60405180910390fd5b6000600160008473ffffffffffffffffffffffffffffffffffffffff1673ffffffffffffffffffffffffffffffffffffffff168152602001908152602001600020600301541415610a32576040517f08c379a0000000000000000000000000000000000000000000000000000000008152600401610a2990612605565b60405180910390fd5b6000811480610a4057504281115b610a7f576040517f08c379a0000000000000000000000000000000000000000000000000000000008152600401610a76906125a5565b60405180910390fd5b80600160008473ffffffffffffffffffffffffffffffffffffffff1673ffffffffffffffffffffffffffffffffffffffff168152602001908152602001600020600001819055505050565b610ad2611c58565b73ffffffffffffffffffffffffffffffffffffffff16610af0610b52565b73ffffffffffffffffffffffffffffffffffffffff1614610b46576040517f08c379a0000000000000000000000000000000000000000000000000000000008152600401610b3d906125e5565b60405180910390fd5b610b506000611c60565b565b60008060009054906101000a900473ffffffffffffffffffffffffffffffffffffffff16905090565b610b83611d24565b600160008373ffffffffffffffffffffffffffffffffffffffff1673ffffffffffffffffffffffffffffffffffffffff16815260200190815260200160002060405180610100016040529081600082015481526020016001820154815260200160028201548152602001600382015481526020016004820160009054906101000a900473ffffffffffffffffffffffffffffffffffffffff1673ffffffffffffffffffffffffffffffffffffffff1673ffffffffffffffffffffffffffffffffffffffff1681526020016004820160149054906101000a900460ff1660ff1660ff16815260200160058201805480602002602001604051908101604052809291908181526020018280548015610cee57602002820191906000526020600020905b8160009054906101000a900473ffffffffffffffffffffffffffffffffffffffff1673ffffffffffffffffffffffffffffffffffffffff1681526020019060010190808311610ca4575b5050505050815260200160068201805480602002602001604051908101604052809291908181526020018280548015610d4657602002820191906000526020600020905b815481526020019060010190808311610d32575b5050505050815250509050919050565b600073ffffffffffffffffffffffffffffffffffffffff168173ffffffffffffffffffffffffffffffffffffffff1614158015610dbf57503073ffffffffffffffffffffffffffffffffffffffff168173ffffffffffffffffffffffffffffffffffffffff1614155b610dc857600080fd5b6000600160008373ffffffffffffffffffffffffffffffffffffffff1673ffffffffffffffffffffffffffffffffffffffff168152602001908152602001600020600301541415610e4e576040517f08c379a0000000000000000000000000000000000000000000000000000000008152600401610e4590612605565b60405180910390fd5b600160008273ffffffffffffffffffffffffffffffffffffffff1673ffffffffffffffffffffffffffffffffffffffff168152602001908152602001600020600301543411610ed2576040517f08c379a0000000000000000000000000000000000000000000000000000000008152600401610ec990612565565b60405180910390fd5b60003490506000339050600160008473ffffffffffffffffffffffffffffffffffffffff1673ffffffffffffffffffffffffffffffffffffffff16815260200190815260200160002060010154600160008573ffffffffffffffffffffffffffffffffffffffff1673ffffffffffffffffffffffffffffffffffffffff1681526020019081526020016000206005018054905010156112c157600160008473ffffffffffffffffffffffffffffffffffffffff1673ffffffffffffffffffffffffffffffffffffffff168152602001908152602001600020600501819080600181540180825580915050600190039060005260206000200160009091909190916101000a81548173ffffffffffffffffffffffffffffffffffffffff021916908373ffffffffffffffffffffffffffffffffffffffff160217905550600160008473ffffffffffffffffffffffffffffffffffffffff1673ffffffffffffffffffffffffffffffffffffffff168152602001908152602001600020600601829080600181540180825580915050600190039060005260206000200160009091909190915055600160008473ffffffffffffffffffffffffffffffffffffffff1673ffffffffffffffffffffffffffffffffffffffff16815260200190815260200160002060010154600160008573ffffffffffffffffffffffffffffffffffffffff1673ffffffffffffffffffffffffffffffffffffffff1681526020019081526020016000206005018054905014156112bc5760007fffffffffffffffffffffffffffffffffffffffffffffffffffffffffffffffff905060005b600160008673ffffffffffffffffffffffffffffffffffffffff1673ffffffffffffffffffffffffffffffffffffffff16815260200190815260200160002060060180549050811015611272576000600160008773ffffffffffffffffffffffffffffffffffffffff1673ffffffffffffffffffffffffffffffffffffffff16815260200190815260200160002060060182815481106111f7577f4e487b7100000000000000000000000000000000000000000000000000000000600052603260045260246000fd5b90600052602060002001549050600160008773ffffffffffffffffffffffffffffffffffffffff1673ffffffffffffffffffffffffffffffffffffffff16815260200190815260200160002060030154811415801561125557508281105b1561125e578092505b50808061126a906128a5565b91505061112e565b5080600160008673ffffffffffffffffffffffffffffffffffffffff1673ffffffffffffffffffffffffffffffffffffffff16815260200190815260200160002060030181905550505b611792565b60007fffffffffffffffffffffffffffffffffffffffffffffffffffffffffffffffff9050600080600090505b600160008773ffffffffffffffffffffffffffffffffffffffff1673ffffffffffffffffffffffffffffffffffffffff16815260200190815260200160002060060180549050811015611480576000600160008873ffffffffffffffffffffffffffffffffffffffff1673ffffffffffffffffffffffffffffffffffffffff16815260200190815260200160002060060182815481106113b7577f4e487b7100000000000000000000000000000000000000000000000000000000600052603260045260246000fd5b90600052602060002001549050600160008873ffffffffffffffffffffffffffffffffffffffff1673ffffffffffffffffffffffffffffffffffffffff16815260200190815260200160002060030154811415611412578192505b600160008873ffffffffffffffffffffffffffffffffffffffff1673ffffffffffffffffffffffffffffffffffffffff16815260200190815260200160002060030154811415801561146357508381105b1561146c578093505b508080611478906128a5565b9150506112ee565b508184101561148d578391505b81600160008773ffffffffffffffffffffffffffffffffffffffff1673ffffffffffffffffffffffffffffffffffffffff16815260200190815260200160002060030181905550600160008673ffffffffffffffffffffffffffffffffffffffff1673ffffffffffffffffffffffffffffffffffffffff168152602001908152602001600020600501818154811061154e577f4e487b7100000000000000000000000000000000000000000000000000000000600052603260045260246000fd5b9060005260206000200160009054906101000a900473ffffffffffffffffffffffffffffffffffffffff1673ffffffffffffffffffffffffffffffffffffffff166108fc600160008873ffffffffffffffffffffffffffffffffffffffff1673ffffffffffffffffffffffffffffffffffffffff168152602001908152602001600020600601838154811061160c577f4e487b7100000000000000000000000000000000000000000000000000000000600052603260045260246000fd5b90600052602060002001549081150290604051600060405180830381858888f19350505050158015611642573d6000803e3d6000fd5b5082600160008773ffffffffffffffffffffffffffffffffffffffff1673ffffffffffffffffffffffffffffffffffffffff16815260200190815260200160002060050182815481106116be577f4e487b7100000000000000000000000000000000000000000000000000000000600052603260045260246000fd5b9060005260206000200160006101000a81548173ffffffffffffffffffffffffffffffffffffffff021916908373ffffffffffffffffffffffffffffffffffffffff16021790555083600160008773ffffffffffffffffffffffffffffffffffffffff1673ffffffffffffffffffffffffffffffffffffffff1681526020019081526020016000206006018281548110611781577f4e487b7100000000000000000000000000000000000000000000000000000000600052603260045260246000fd5b906000526020600020018190555050505b60018060008573ffffffffffffffffffffffffffffffffffffffff1673ffffffffffffffffffffffffffffffffffffffff16815260200190815260200160002060020160008282546117e49190612747565b92505081905550505050565b6117f8611c58565b73ffffffffffffffffffffffffffffffffffffffff16611816610b52565b73ffffffffffffffffffffffffffffffffffffffff161461186c576040517f08c379a0000000000000000000000000000000000000000000000000000000008152600401611863906125e5565b60405180910390fd5b600073ffffffffffffffffffffffffffffffffffffffff168173ffffffffffffffffffffffffffffffffffffffff1614156118dc576040517f08c379a00000000000000000000000000000000000000000000000000000000081526004016118d390612545565b60405180910390fd5b6118e581611c60565b50565b6118f0611c58565b73ffffffffffffffffffffffffffffffffffffffff1661190e610b52565b73ffffffffffffffffffffffffffffffffffffffff1614611964576040517f08c379a000000000000000000000000000000000000000000000000000000000815260040161195b906125e5565b60405180910390fd5b600073ffffffffffffffffffffffffffffffffffffffff168673ffffffffffffffffffffffffffffffffffffffff16141580156119cd57503073ffffffffffffffffffffffffffffffffffffffff168673ffffffffffffffffffffffffffffffffffffffff1614155b6119d657600080fd5b6000600160008873ffffffffffffffffffffffffffffffffffffffff1673ffffffffffffffffffffffffffffffffffffffff1681526020019081526020016000206003015414611a5b576040517f08c379a0000000000000000000000000000000000000000000000000000000008152600401611a5290612625565b60405180910390fd5b60008511611a9e576040517f08c379a0000000000000000000000000000000000000000000000000000000008152600401611a95906125c5565b60405180910390fd5b6000841480611aac57504284115b611aeb576040517f08c379a0000000000000000000000000000000000000000000000000000000008152600401611ae2906125a5565b60405180910390fd5b606080604051806101000160405280878152602001868152602001600081526020018881526020018573ffffffffffffffffffffffffffffffffffffffff1681526020018460ff16815260200183815260200182815250600160008a73ffffffffffffffffffffffffffffffffffffffff1673ffffffffffffffffffffffffffffffffffffffff1681526020019081526020016000206000820151816000015560208201518160010155604082015181600201556060820151816003015560808201518160040160006101000a81548173ffffffffffffffffffffffffffffffffffffffff021916908373ffffffffffffffffffffffffffffffffffffffff16021790555060a08201518160040160146101000a81548160ff021916908360ff16021790555060c0820151816005019080519060200190611c2d929190611d82565b5060e0820151816006019080519060200190611c4a929190611e0c565b509050505050505050505050565b600033905090565b60008060009054906101000a900473ffffffffffffffffffffffffffffffffffffffff169050816000806101000a81548173ffffffffffffffffffffffffffffffffffffffff021916908373ffffffffffffffffffffffffffffffffffffffff1602179055508173ffffffffffffffffffffffffffffffffffffffff168173ffffffffffffffffffffffffffffffffffffffff167f8be0079c531659141344cd1fd0a4f28419497f9722a3daafe3b4186f6b6457e060405160405180910390a35050565b60405180610100016040528060008152602001600081526020016000815260200160008152602001600073ffffffffffffffffffffffffffffffffffffffff168152602001600060ff16815260200160608152602001606081525090565b828054828255906000526020600020908101928215611dfb579160200282015b82811115611dfa5782518260006101000a81548173ffffffffffffffffffffffffffffffffffffffff021916908373ffffffffffffffffffffffffffffffffffffffff16021790555091602001919060010190611da2565b5b509050611e089190611e59565b5090565b828054828255906000526020600020908101928215611e48579160200282015b82811115611e47578251825591602001919060010190611e2c565b5b509050611e559190611e59565b5090565b5b80821115611e72576000816000905550600101611e5a565b5090565b6000611e89611e8484612698565b612667565b90508083825260208201905082856020860282011115611ea857600080fd5b60005b85811015611ed85781611ebe8882611f21565b845260208401935060208301925050600181019050611eab565b5050509392505050565b600081359050611ef18161297b565b92915050565b600082601f830112611f0857600080fd5b8135611f18848260208601611e76565b91505092915050565b600081359050611f3081612992565b92915050565b600081359050611f45816129a9565b92915050565b600060208284031215611f5d57600080fd5b6000611f6b84828501611ee2565b91505092915050565b60008060408385031215611f8757600080fd5b6000611f9585828601611ee2565b925050602083013567ffffffffffffffff811115611fb257600080fd5b611fbe85828601611ef7565b9150509250929050565b60008060408385031215611fdb57600080fd5b6000611fe985828601611ee2565b9250506020611ffa85828601611f21565b9150509250929050565b60008060008060008060c0878903121561201d57600080fd5b600061202b89828a01611ee2565b965050602061203c89828a01611f21565b955050604061204d89828a01611f21565b945050606061205e89828a01611f21565b935050608061206f89828a01611ee2565b92505060a061208089828a01611f36565b9150509295509295509295565b600061209983836120bd565b60208301905092915050565b60006120b1838361250c565b60208301905092915050565b6120c68161285c565b82525050565b6120d58161285c565b82525050565b60006120e6826126e4565b6120f08185612714565b93506120fb836126c4565b8060005b8381101561212c578151612113888261208d565b975061211e836126fa565b9250506001810190506120ff565b5085935050505092915050565b6000612144826126ef565b61214e8185612725565b9350612159836126d4565b8060005b8381101561218a57815161217188826120a5565b975061217c83612707565b92505060018101905061215d565b5085935050505092915050565b60006121a4602683612736565b91507f4f776e61626c653a206e6577206f776e657220697320746865207a65726f206160008301527f64647265737300000000000000000000000000000000000000000000000000006020830152604082019050919050565b600061220a602083612736565b91507f4269642053686f756c6420626520686967686572207468616e206d696e4269646000830152602082019050919050565b600061224a602b83612736565b91507f43616e2774206368616e6765207072696365206166746572206669727374206260008301527f696420776173206d6164650000000000000000000000000000000000000000006020830152604082019050919050565b60006122b0602e83612736565b91507f69662064617465206973207061737365642c206974206d75737420686967686560008301527f72207468616e2063757272656e740000000000000000000000000000000000006020830152604082019050919050565b6000612316601383612736565b91507f41207072696365206973207265717569726564000000000000000000000000006000830152602082019050919050565b6000612356602083612736565b91507f4f776e61626c653a2063616c6c6572206973206e6f7420746865206f776e65726000830152602082019050919050565b6000612396602583612736565b91507f4120636f6e74726163742073686f756c642065786973747320666f722074686960008301527f73206e66740000000000000000000000000000000000000000000000000000006020830152604082019050919050565b60006123fc602483612736565b91507f636f6e747261637420616c72656164792065786973747320666f72207468697360008301527f206e6674000000000000000000000000000000000000000000000000000000006020830152604082019050919050565b60006101008301600083015161246e600086018261250c565b506020830151612481602086018261250c565b506040830151612494604086018261250c565b5060608301516124a7606086018261250c565b5060808301516124ba60808601826120bd565b5060a08301516124cd60a086018261251b565b5060c083015184820360c08601526124e582826120db565b91505060e083015184820360e08601526124ff8282612139565b9150508091505092915050565b6125158161288e565b82525050565b61252481612898565b82525050565b600060208201905061253f60008301846120cc565b92915050565b6000602082019050818103600083015261255e81612197565b9050919050565b6000602082019050818103600083015261257e816121fd565b9050919050565b6000602082019050818103600083015261259e8161223d565b9050919050565b600060208201905081810360008301526125be816122a3565b9050919050565b600060208201905081810360008301526125de81612309565b9050919050565b600060208201905081810360008301526125fe81612349565b9050919050565b6000602082019050818103600083015261261e81612389565b9050919050565b6000602082019050818103600083015261263e816123ef565b9050919050565b6000602082019050818103600083015261265f8184612455565b905092915050565b6000604051905081810181811067ffffffffffffffff8211171561268e5761268d61294c565b5b8060405250919050565b600067ffffffffffffffff8211156126b3576126b261294c565b5b602082029050602081019050919050565b6000819050602082019050919050565b6000819050602082019050919050565b600081519050919050565b600081519050919050565b6000602082019050919050565b6000602082019050919050565b600082825260208201905092915050565b600082825260208201905092915050565b600082825260208201905092915050565b60006127528261288e565b915061275d8361288e565b9250827fffffffffffffffffffffffffffffffffffffffffffffffffffffffffffffffff03821115612792576127916128ee565b5b828201905092915050565b60006127a88261288e565b91506127b38361288e565b9250826127c3576127c261291d565b5b828204905092915050565b60006127d98261288e565b91506127e48361288e565b9250817fffffffffffffffffffffffffffffffffffffffffffffffffffffffffffffffff048311821515161561281d5761281c6128ee565b5b828202905092915050565b60006128338261288e565b915061283e8361288e565b925082821015612851576128506128ee565b5b828203905092915050565b60006128678261286e565b9050919050565b600073ffffffffffffffffffffffffffffffffffffffff82169050919050565b6000819050919050565b600060ff82169050919050565b60006128b08261288e565b91507fffffffffffffffffffffffffffffffffffffffffffffffffffffffffffffffff8214156128e3576128e26128ee565b5b600182019050919050565b7f4e487b7100000000000000000000000000000000000000000000000000000000600052601160045260246000fd5b7f4e487b7100000000000000000000000000000000000000000000000000000000600052601260045260246000fd5b7f4e487b7100000000000000000000000000000000000000000000000000000000600052604160045260246000fd5b6129848161285c565b811461298f57600080fd5b50565b61299b8161288e565b81146129a657600080fd5b50565b6129b281612898565b81146129bd57600080fd5b5056fea2646970667358221220ee5625c3f21bf6a284dcfcb2fd7b16e9add159492897e4d7e24148557806b6e164736f6c63430008000033",
  "immutableReferences": {},
  "source": "pragma solidity ^0.8.0;\n\nimport \"./ThetaboardNFT.sol\";\nimport \"@openzeppelin/contracts/access/Ownable.sol\";\n\n/**\n * @title nft_sell\n * Auction NFT for thetaboard.io\n */\ncontract ThetaboardAuctionSellNft is Ownable {\n\n    struct nftAuction {\n        uint256 maxDate;\n        uint256 maxMint;\n\n        uint256 countBidMade;\n        uint256 minBid;\n\n        address artistWallet;\n        uint8 artistSplit;\n\n        address[] bidders;\n        uint256[] bidsValue;\n    }\n\n    mapping(address => nftAuction) NFTsAuction;\n\n\n    // Following variables are used for sorting\n    struct bidStruct {\n        address bidder;\n        uint256 bidValue;\n    }\n\n    mapping(uint => uint) helper;\n\n\n    function newAuction(address _nftAddress, uint256 _minBid, uint256 _maxDate, uint256 _maxMint, address _artistWallet, uint8 _artistSplit) public onlyOwner {\n        require(_nftAddress != address(0) && _nftAddress != address(this));\n        require(NFTsAuction[_nftAddress].minBid == 0, \"contract already exists for this nft\");\n        require(_minBid > 0, \"A price is required\");\n        require(_maxDate == 0 || _maxDate > block.timestamp, \"if date is passed, it must higher than current\");\n\n        address[] memory bidders;\n        uint256[] memory bidsValue;\n\n        NFTsAuction[_nftAddress] = nftAuction({\n        maxDate : _maxDate,\n        maxMint : _maxMint,\n        countBidMade : 0,\n        minBid : _minBid,\n        artistWallet : _artistWallet,\n        artistSplit : _artistSplit,\n        bidders : bidders,\n        bidsValue : bidsValue\n        });\n    }\n\n    /**\n    * @dev Add a new pid for an NFT\n    * @dev Throws if contract does not exists or if the bid is not higher than minBid\n    */\n    function placeBid(address _nftAddress) public payable {\n        require(_nftAddress != address(0) && _nftAddress != address(this));\n        require(NFTsAuction[_nftAddress].minBid != 0, \"A contract should exists for this nft\");\n        require(msg.value > NFTsAuction[_nftAddress].minBid, \"Bid Should be higher than minBid\");\n        uint256 _bid = msg.value;\n        address _bidder = msg.sender;\n        if (NFTsAuction[_nftAddress].bidders.length < NFTsAuction[_nftAddress].maxMint) {\n            NFTsAuction[_nftAddress].bidders.push(_bidder);\n            NFTsAuction[_nftAddress].bidsValue.push(_bid);\n            if (NFTsAuction[_nftAddress].bidders.length == NFTsAuction[_nftAddress].maxMint) {\n                // get new min\n                uint256 newMin = type(uint256).max;\n\n                for (uint i = 0; i < NFTsAuction[_nftAddress].bidsValue.length; i++) {\n                    uint256 currentBid = NFTsAuction[_nftAddress].bidsValue[i];\n                    if (currentBid != NFTsAuction[_nftAddress].minBid && currentBid < newMin) {\n                        newMin = currentBid;\n                    }\n                }\n                NFTsAuction[_nftAddress].minBid = newMin;\n            }\n        } else {\n            // send back the money\n            // get new minBid, and index of current minBid\n            uint256 newMin = type(uint256).max;\n            uint256 currentLowestIdx;\n            for (uint i = 0; i < NFTsAuction[_nftAddress].bidsValue.length; i++) {\n                uint256 currentBid = NFTsAuction[_nftAddress].bidsValue[i];\n                if (currentBid == NFTsAuction[_nftAddress].minBid) {\n                    currentLowestIdx = i;\n                }\n\n                if (currentBid != NFTsAuction[_nftAddress].minBid && currentBid < newMin) {\n                    newMin = currentBid;\n                }\n            }\n            if (_bid < newMin) {\n                newMin = _bid;\n            }\n\n            NFTsAuction[_nftAddress].minBid = newMin;\n            // send money back to bidder that had previous min\n\n            payable(NFTsAuction[_nftAddress].bidders[currentLowestIdx]).transfer(NFTsAuction[_nftAddress].bidsValue[currentLowestIdx]);\n            // set new bid\n            NFTsAuction[_nftAddress].bidders[currentLowestIdx] = _bidder;\n            NFTsAuction[_nftAddress].bidsValue[currentLowestIdx] = _bid;\n\n        }\n        NFTsAuction[_nftAddress].countBidMade += 1;\n    }\n\n    function concludeBid(address _nftAddress, uint[] memory orderToMint) public onlyOwner {\n        require(NFTsAuction[_nftAddress].minBid != 0, \"A contract should exists for this nft\");\n        //Order to mint is passe by the client and is reponsable of the order to which the NFT are minted.require\n        // it should ensure that the higest bidder get NFT edition \"1\", second highest get \"2\", ...\n        require(NFTsAuction[_nftAddress].bidders.length == orderToMint.length);\n\n        uint256 totalBid = 0;\n\n        for (uint i = 0; i < NFTsAuction[_nftAddress].bidders.length; i++) {\n            address bidder = NFTsAuction[_nftAddress].bidders[orderToMint[i]];\n            ThetaboardNFT(_nftAddress).mint(bidder);\n            totalBid += NFTsAuction[_nftAddress].bidsValue[orderToMint[i]];\n        }\n\n        uint artistValue = totalBid / 100 * NFTsAuction[_nftAddress].artistSplit;\n        uint ownerValue = totalBid - artistValue;\n\n        payable(NFTsAuction[_nftAddress].artistWallet).transfer(artistValue);\n        payable(owner()).transfer(ownerValue);\n    }\n\n\n    /**\n    * @dev Updates minBid for _nftAddress\n    * @dev Throws if _minBid is zero\n    */\n    function setPrice(address _nftAddress, uint256 _minBid) public onlyOwner {\n        require(NFTsAuction[_nftAddress].minBid != 0, \"A contract should exists for this nft\");\n        require(_minBid > 0);\n        require(NFTsAuction[_nftAddress].bidders.length == 0, \"Can't change price after first bid was made\");\n        NFTsAuction[_nftAddress].minBid = _minBid;\n    }\n\n    /**\n    * @dev Updates maxDate for _nftAddress\n    * @dev Throws if date is in the past\n    */\n    function setMaxDate(address _nftAddress, uint256 _maxDate) public onlyOwner {\n        require(NFTsAuction[_nftAddress].minBid != 0, \"A contract should exists for this nft\");\n        require(_maxDate == 0 || _maxDate > block.timestamp, \"if date is passed, it must higher than current\");\n        NFTsAuction[_nftAddress].maxDate = _maxDate;\n    }\n\n    /**\n    * Get info about currently auction\n    */\n    function getNftAuction(address _nftAddress) public view returns (nftAuction memory) {\n        return NFTsAuction[_nftAddress];\n    }\n\n}",
  "sourcePath": "/Users/maurin.lenglart/IdeaProjects/thetaboard/smart_contracts/contracts/ThetaboardAuctionSellNft.sol",
  "compiler": {
    "name": "solc",
    "version": "0.8.0+commit.c7dfd78e.Emscripten.clang"
  },
  "schemaVersion": "3.4.3",
  "updatedAt": "2021-11-15T01:56:32.171Z",
  "networkType": "ethereum",
  "devdoc": {
    "kind": "dev",
    "methods": {
      "owner()": {
        "details": "Returns the address of the current owner."
      },
      "placeBid(address)": {
        "details": "Add a new pid for an NFTThrows if contract does not exists or if the bid is not higher than minBid"
      },
      "renounceOwnership()": {
        "details": "Leaves the contract without owner. It will not be possible to call `onlyOwner` functions anymore. Can only be called by the current owner. NOTE: Renouncing ownership will leave the contract without an owner, thereby removing any functionality that is only available to the owner."
      },
      "setMaxDate(address,uint256)": {
        "details": "Updates maxDate for _nftAddressThrows if date is in the past"
      },
      "setPrice(address,uint256)": {
        "details": "Updates minBid for _nftAddressThrows if _minBid is zero"
      },
      "transferOwnership(address)": {
        "details": "Transfers ownership of the contract to a new account (`newOwner`). Can only be called by the current owner."
      }
    },
    "title": "nft_sell Auction NFT for thetaboard.io",
    "version": 1
  },
  "userdoc": {
    "kind": "user",
    "methods": {
      "getNftAuction(address)": {
        "notice": "Get info about currently auction"
      }
    },
    "version": 1
  }
}