{
  "contractName": "ThetaboardCreatorManager",
  "abi": [
    {
      "anonymous": false,
      "inputs": [
        {
          "indexed": false,
          "internalType": "address",
          "name": "nftContract",
          "type": "address"
        },
        {
          "indexed": false,
          "internalType": "string",
          "name": "name",
          "type": "string"
        },
        {
          "indexed": false,
          "internalType": "string",
          "name": "url",
          "type": "string"
        }
      ],
      "name": "NFTDeployed",
      "type": "event"
    },
    {
      "anonymous": false,
      "inputs": [
        {
          "indexed": true,
          "internalType": "address",
          "name": "previousOwner",
          "type": "address"
        },
        {
          "indexed": true,
          "internalType": "address",
          "name": "newOwner",
          "type": "address"
        }
      ],
      "name": "OwnershipTransferred",
      "type": "event"
    },
    {
      "anonymous": false,
      "inputs": [
        {
          "indexed": false,
          "internalType": "string",
          "name": "sellType",
          "type": "string"
        },
        {
          "indexed": false,
          "internalType": "address",
          "name": "nftContract",
          "type": "address"
        },
        {
          "indexed": false,
          "internalType": "uint256",
          "name": "price",
          "type": "uint256"
        },
        {
          "indexed": false,
          "internalType": "uint256",
          "name": "endDate",
          "type": "uint256"
        },
        {
          "indexed": false,
          "internalType": "uint256",
          "name": "editionNumber",
          "type": "uint256"
        },
        {
          "indexed": false,
          "internalType": "address",
          "name": "artistWallet",
          "type": "address"
        },
        {
          "indexed": false,
          "internalType": "uint8",
          "name": "split",
          "type": "uint8"
        }
      ],
      "name": "SellCreated",
      "type": "event"
    },
    {
      "inputs": [],
      "name": "owner",
      "outputs": [
        {
          "internalType": "address",
          "name": "",
          "type": "address"
        }
      ],
      "stateMutability": "view",
      "type": "function",
      "constant": true
    },
    {
      "inputs": [],
      "name": "renounceOwnership",
      "outputs": [],
      "stateMutability": "nonpayable",
      "type": "function"
    },
    {
      "inputs": [
        {
          "internalType": "address",
          "name": "newOwner",
          "type": "address"
        }
      ],
      "name": "transferOwnership",
      "outputs": [],
      "stateMutability": "nonpayable",
      "type": "function"
    },
    {
      "inputs": [
        {
          "internalType": "string",
          "name": "name",
          "type": "string"
        },
        {
          "internalType": "string",
          "name": "url",
          "type": "string"
        },
        {
          "internalType": "address[]",
          "name": "toBeMinters",
          "type": "address[]"
        },
        {
          "internalType": "address",
          "name": "directSellContract",
          "type": "address"
        },
        {
          "internalType": "uint256",
          "name": "price",
          "type": "uint256"
        },
        {
          "internalType": "uint256",
          "name": "endDate",
          "type": "uint256"
        },
        {
          "internalType": "uint256",
          "name": "editionNumber",
          "type": "uint256"
        },
        {
          "internalType": "address",
          "name": "artistWallet",
          "type": "address"
        },
        {
          "internalType": "uint8",
          "name": "split",
          "type": "uint8"
        }
      ],
      "name": "deployNFTandSell",
      "outputs": [],
      "stateMutability": "nonpayable",
      "type": "function"
    },
    {
      "inputs": [
        {
          "internalType": "string",
          "name": "name",
          "type": "string"
        },
        {
          "internalType": "string",
          "name": "url",
          "type": "string"
        },
        {
          "internalType": "address[]",
          "name": "toBeMinters",
          "type": "address[]"
        },
        {
          "internalType": "address",
          "name": "auctionSellContract",
          "type": "address"
        },
        {
          "internalType": "uint256",
          "name": "minBid",
          "type": "uint256"
        },
        {
          "internalType": "uint256",
          "name": "endDate",
          "type": "uint256"
        },
        {
          "internalType": "uint256",
          "name": "editionNumber",
          "type": "uint256"
        },
        {
          "internalType": "address",
          "name": "artistWallet",
          "type": "address"
        },
        {
          "internalType": "uint8",
          "name": "split",
          "type": "uint8"
        }
      ],
      "name": "deployNFTandAuction",
      "outputs": [],
      "stateMutability": "nonpayable",
      "type": "function"
    }
  ],
  "bytecode": "0x608060405234801561001057600080fd5b5061002161001c610026565b61002a565b61007a565b3390565b600080546001600160a01b038381166001600160a01b0319831681178455604051919092169283917f8be0079c531659141344cd1fd0a4f28419497f9722a3daafe3b4186f6b6457e09190a35050565b61381b806100896000396000f3fe60806040523480156200001157600080fd5b50600436106200005e5760003560e01c8063563197cc1462000063578063715018a6146200007c5780638da5cb5b1462000086578063f2fde38b14620000a8578063f70fc5d114620000bf575b600080fd5b6200007a6200007436600462000732565b620000d6565b005b6200007a620001a6565b6200009062000203565b6040516200009f919062000864565b60405180910390f35b6200007a620000b9366004620006f5565b62000212565b6200007a620000d036600462000732565b6200028f565b6000620000e58a8a8a6200034a565b6040516373a4816760e01b815290915087906001600160a01b038216906373a4816790620001229085908b908b908b908b908b90600401620008bc565b600060405180830381600087803b1580156200013d57600080fd5b505af115801562000152573d6000803e3d6000fd5b505050507fe6d5c0c9540742374392bf287a035433a19a59249c7003c1102634ee86f2990d8288888888886040516200019196959493929190620009a5565b60405180910390a15050505050505050505050565b620001b06200055e565b6001600160a01b0316620001c362000203565b6001600160a01b031614620001f55760405162461bcd60e51b8152600401620001ec9062000a01565b60405180910390fd5b62000201600062000562565b565b6000546001600160a01b031690565b6200021c6200055e565b6001600160a01b03166200022f62000203565b6001600160a01b031614620002585760405162461bcd60e51b8152600401620001ec9062000a01565b6001600160a01b038116620002815760405162461bcd60e51b8152600401620001ec906200095f565b6200028c8162000562565b50565b60006200029e8a8a8a6200034a565b604051637f3e279f60e11b815290915087906001600160a01b0382169063fe7c4f3e90620002db9085908b908b908b908b908b90600401620008bc565b600060405180830381600087803b158015620002f657600080fd5b505af11580156200030b573d6000803e3d6000fd5b505050507fe6d5c0c9540742374392bf287a035433a19a59249c7003c1102634ee86f2990d828888888888604051620001919695949392919062000a36565b60008084846040516200035d90620005b2565b6200036a92919062000910565b604051809103906000f08015801562000387573d6000803e3d6000fd5b5090506000816001600160a01b031663d53913936040518163ffffffff1660e01b815260040160206040518083038186803b158015620003c657600080fd5b505afa158015620003db573d6000803e3d6000fd5b505050506040513d601f19601f8201168201806040525081019062000401919062000719565b604051632f2ff15d60e01b81529091506001600160a01b03831690632f2ff15d90620004349084903390600401620008f9565b600060405180830381600087803b1580156200044f57600080fd5b505af115801562000464573d6000803e3d6000fd5b5050505060005b84518110156200051757826001600160a01b0316632f2ff15d83878481518110620004a657634e487b7160e01b600052603260045260246000fd5b60200260200101516040518363ffffffff1660e01b8152600401620004cd929190620008f9565b600060405180830381600087803b158015620004e857600080fd5b505af1158015620004fd573d6000803e3d6000fd5b5050505080806200050e9062000ac0565b9150506200046b565b507fd032ff6c6382452131fc300cbdbc3ac57605de779ebae4d6e422cabb3b611a728287876040516200054d9392919062000878565b60405180910390a150949350505050565b3390565b600080546001600160a01b038381166001600160a01b0319831681178455604051919092169283917f8be0079c531659141344cd1fd0a4f28419497f9722a3daafe3b4186f6b6457e09190a35050565b612ce78062000aff83390190565b80356001600160a01b0381168114620005d857600080fd5b919050565b600082601f830112620005ee578081fd5b8135602067ffffffffffffffff8211156200060d576200060d62000ae8565b8082026200061d82820162000a93565b83815282810190868401838801850189101562000638578687fd5b8693505b8584101562000665576200065081620005c0565b8352600193909301929184019184016200063c565b50979650505050505050565b600082601f83011262000682578081fd5b813567ffffffffffffffff8111156200069f576200069f62000ae8565b620006b4601f8201601f191660200162000a93565b818152846020838601011115620006c9578283fd5b816020850160208301379081016020019190915292915050565b803560ff81168114620005d857600080fd5b60006020828403121562000707578081fd5b6200071282620005c0565b9392505050565b6000602082840312156200072b578081fd5b5051919050565b60008060008060008060008060006101208a8c03121562000751578485fd5b893567ffffffffffffffff8082111562000769578687fd5b620007778d838e0162000671565b9a5060208c01359150808211156200078d578687fd5b6200079b8d838e0162000671565b995060408c0135915080821115620007b1578687fd5b50620007c08c828d01620005dd565b975050620007d160608b01620005c0565b955060808a0135945060a08a0135935060c08a01359250620007f660e08b01620005c0565b9150620008076101008b01620006e3565b90509295985092959850929598565b60008151808452815b818110156200083d576020818501810151868301820152016200081f565b818111156200084f5782602083870101525b50601f01601f19169290920160200192915050565b6001600160a01b0391909116815260200190565b6001600160a01b03841681526060602082018190526000906200089e9083018562000816565b8281036040840152620008b2818562000816565b9695505050505050565b6001600160a01b039687168152602081019590955260408501939093526060840191909152909216608082015260ff90911660a082015260c00190565b9182526001600160a01b0316602082015260400190565b60006060825262000925606083018562000816565b82810380602085015260028252612a2160f11b60208301526040810160408501525062000956604082018562000816565b95945050505050565b60208082526026908201527f4f776e61626c653a206e6577206f776e657220697320746865207a65726f206160408201526564647265737360d01b606082015260800190565b60e080825260069082015265191a5c9958dd60d21b6101008201526001600160a01b03968716602082015260408101959095526060850193909352608084019190915290921660a082015260ff90911660c08201526101200190565b6020808252818101527f4f776e61626c653a2063616c6c6572206973206e6f7420746865206f776e6572604082015260600190565b60e08082526007908201526630bab1ba34b7b760c91b6101008201526001600160a01b03968716602082015260408101959095526060850193909352608084019190915290921660a082015260ff90911660c08201526101200190565b60405181810167ffffffffffffffff8111828210171562000ab85762000ab862000ae8565b604052919050565b600060001982141562000ae157634e487b7160e01b81526011600452602481fd5b5060010190565b634e487b7160e01b600052604160045260246000fdfe60806040523480156200001157600080fd5b5060405162002ce738038062002ce78339810160408190526200003491620003e5565b8251839083906200004d90600290602085019062000294565b5080516200006390600390602084019062000294565b5050600c805460ff191690555080516200008590600e90602084019062000294565b506200009c60006200009662000103565b62000107565b620000cb7f9f2df0fed2c77648de5860a4cc508cd0818c85b8b8a1ab4ceeef8d981c8956a66200009662000103565b620000fa7f65d7a28e3265b37a6474929f336521b332c1681b933f6cb9f3376673440d862a6200009662000103565b505050620004f7565b3390565b6200011e82826200014a60201b62000b3c1760201c565b60008281526001602090815260409091206200014591839062000b4a6200015a821b17901c565b505050565b6200015682826200017a565b5050565b600062000171836001600160a01b03841662000204565b90505b92915050565b62000186828262000253565b62000156576000828152602081815260408083206001600160a01b03851684529091529020805460ff19166001179055620001c062000103565b6001600160a01b0316816001600160a01b0316837f2f8788117e7eff1d82e926ec794901d17c78024a50270940304540a733656f0d60405160405180910390a45050565b60006200021283836200027c565b6200024a5750815460018181018455600084815260208082209093018490558454848252828601909352604090209190915562000174565b50600062000174565b6000918252602082815260408084206001600160a01b0393909316845291905290205460ff1690565b60009081526001919091016020526040902054151590565b828054620002a29062000472565b90600052602060002090601f016020900481019282620002c6576000855562000311565b82601f10620002e157805160ff191683800117855562000311565b8280016001018555821562000311579182015b8281111562000311578251825591602001919060010190620002f4565b506200031f92915062000323565b5090565b5b808211156200031f576000815560010162000324565b600082601f8301126200034b578081fd5b81516001600160401b0380821115620003685762000368620004c8565b6040516020601f8401601f1916820181018381118382101715620003905762000390620004c8565b6040528382528584018101871015620003a7578485fd5b8492505b83831015620003ca5785830181015182840182015291820191620003ab565b83831115620003db57848185840101525b5095945050505050565b600080600060608486031215620003fa578283fd5b83516001600160401b038082111562000411578485fd5b6200041f878388016200033a565b9450602086015191508082111562000435578384fd5b62000443878388016200033a565b9350604086015191508082111562000459578283fd5b5062000468868287016200033a565b9150509250925092565b6002810460018216806200048757607f821691505b60208210811415620004c2577f4e487b7100000000000000000000000000000000000000000000000000000000600052602260045260246000fd5b50919050565b7f4e487b7100000000000000000000000000000000000000000000000000000000600052604160045260246000fd5b6127e080620005076000396000f3fe608060405234801561001057600080fd5b50600436106101e55760003560e01c80636352211e1161010f578063a22cb465116100a2578063d539139311610071578063d5391393146103dd578063d547741f146103e5578063e63ab1e9146103f8578063e985e9c514610400576101e5565b8063a22cb46514610391578063b88d4fde146103a4578063c87b56dd146103b7578063ca15c873146103ca576101e5565b80639010d07c116100de5780639010d07c1461035b57806391d148541461036e57806395d89b4114610381578063a217fddf14610389576101e5565b80636352211e1461031a5780636a6278421461032d57806370a08231146103405780638456cb5914610353576101e5565b80632f2ff15d1161018757806342842e0e1161015657806342842e0e146102d957806342966c68146102ec5780634f6ccce7146102ff5780635c975abb14610312576101e5565b80632f2ff15d146102985780632f745c59146102ab57806336568abe146102be5780633f4ba83a146102d1576101e5565b8063095ea7b3116101c3578063095ea7b31461024857806318160ddd1461025d57806323b872dd14610272578063248a9ca314610285576101e5565b806301ffc9a7146101ea57806306fdde0314610213578063081812fc14610228575b600080fd5b6101fd6101f8366004611db2565b610413565b60405161020a9190611f0b565b60405180910390f35b61021b610426565b60405161020a9190611f1f565b61023b610236366004611d57565b6104b8565b60405161020a9190611eba565b61025b610256366004611d2e565b610504565b005b61026561059c565b60405161020a9190611f16565b61025b610280366004611bed565b6105a2565b610265610293366004611d57565b6105da565b61025b6102a6366004611d6f565b6105ef565b6102656102b9366004611d2e565b610611565b61025b6102cc366004611d6f565b610666565b61025b610688565b61025b6102e7366004611bed565b6106da565b61025b6102fa366004611d57565b6106f5565b61026561030d366004611d57565b610728565b6101fd610783565b61023b610328366004611d57565b61078c565b61025b61033b366004611ba1565b6107c1565b61026561034e366004611ba1565b610826565b61025b61086a565b61023b610369366004611d91565b6108ba565b6101fd61037c366004611d6f565b6108d9565b61021b610902565b610265610911565b61025b61039f366004611cf4565b610916565b61025b6103b2366004611c28565b6109e4565b61021b6103c5366004611d57565b610a23565b6102656103d8366004611d57565b610aa5565b610265610abc565b61025b6103f3366004611d6f565b610ae0565b610265610aea565b6101fd61040e366004611bbb565b610b0e565b600061041e82610b5f565b90505b919050565b606060028054610435906126e8565b80601f0160208091040260200160405190810160405280929190818152602001828054610461906126e8565b80156104ae5780601f10610483576101008083540402835291602001916104ae565b820191906000526020600020905b81548152906001019060200180831161049157829003601f168201915b5050505050905090565b60006104c382610b84565b6104e85760405162461bcd60e51b81526004016104df90612327565b60405180910390fd5b506000908152600660205260409020546001600160a01b031690565b600061050f8261078c565b9050806001600160a01b0316836001600160a01b031614156105435760405162461bcd60e51b81526004016104df9061240b565b806001600160a01b0316610555610ba1565b6001600160a01b0316148061057157506105718161040e610ba1565b61058d5760405162461bcd60e51b81526004016104df90612202565b6105978383610ba5565b505050565b600a5490565b6105b36105ad610ba1565b82610c13565b6105cf5760405162461bcd60e51b81526004016104df9061244c565b610597838383610c98565b60009081526020819052604090206001015490565b6105f98282610dc5565b60008281526001602052604090206105979082610b4a565b600061061c83610826565b821061063a5760405162461bcd60e51b81526004016104df90611fe0565b506001600160a01b03821660009081526008602090815260408083208484529091529020545b92915050565b6106708282610de9565b60008281526001602052604090206105979082610e2b565b6106b47f65d7a28e3265b37a6474929f336521b332c1681b933f6cb9f3376673440d862a61037c610ba1565b6106d05760405162461bcd60e51b81526004016104df90612596565b6106d8610e40565b565b610597838383604051806020016040528060008152506109e4565b6107006105ad610ba1565b61071c5760405162461bcd60e51b81526004016104df90612546565b61072581610eae565b50565b600061073261059c565b82106107505760405162461bcd60e51b81526004016104df9061249d565b600a828154811061077157634e487b7160e01b600052603260045260246000fd5b90600052602060002001549050919050565b600c5460ff1690565b6000818152600460205260408120546001600160a01b03168061041e5760405162461bcd60e51b81526004016104df906122a9565b6107ed7f9f2df0fed2c77648de5860a4cc508cd0818c85b8b8a1ab4ceeef8d981c8956a661037c610ba1565b6108095760405162461bcd60e51b81526004016104df906124e9565b61081c81610817600d610f55565b610f59565b610725600d611038565b60006001600160a01b03821661084e5760405162461bcd60e51b81526004016104df9061225f565b506001600160a01b031660009081526005602052604090205490565b6108967f65d7a28e3265b37a6474929f336521b332c1681b933f6cb9f3376673440d862a61037c610ba1565b6108b25760405162461bcd60e51b81526004016104df906120b4565b6106d8611041565b60008281526001602052604081206108d2908361109c565b9392505050565b6000918252602082815260408084206001600160a01b0393909316845291905290205460ff1690565b606060038054610435906126e8565b600081565b61091e610ba1565b6001600160a01b0316826001600160a01b0316141561094f5760405162461bcd60e51b81526004016104df90612155565b806007600061095c610ba1565b6001600160a01b03908116825260208083019390935260409182016000908120918716808252919093529120805460ff1916921515929092179091556109a0610ba1565b6001600160a01b03167f17307eab39ab6107e8899845ad3d59bd9653f200f220920489ca2b5937696c31836040516109d89190611f0b565b60405180910390a35050565b6109f56109ef610ba1565b83610c13565b610a115760405162461bcd60e51b81526004016104df9061244c565b610a1d848484846110a8565b50505050565b6060610a2e82610b84565b610a4a5760405162461bcd60e51b81526004016104df906123bc565b6000610a546110db565b90506000815111610a7457604051806020016040528060008152506108d2565b80610a7e846110ea565b604051602001610a8f929190611e16565b6040516020818303038152906040529392505050565b600081815260016020526040812061041e90611205565b7f9f2df0fed2c77648de5860a4cc508cd0818c85b8b8a1ab4ceeef8d981c8956a681565b6106708282611210565b7f65d7a28e3265b37a6474929f336521b332c1681b933f6cb9f3376673440d862a81565b6001600160a01b03918216600090815260076020908152604080832093909416825291909152205460ff1690565b610b46828261122f565b5050565b60006108d2836001600160a01b0384166112b4565b60006001600160e01b0319821663780e9d6360e01b148061041e575061041e826112fe565b6000908152600460205260409020546001600160a01b0316151590565b3390565b600081815260066020526040902080546001600160a01b0319166001600160a01b0384169081179091558190610bda8261078c565b6001600160a01b03167f8c5be1e5ebec7d5bd14f71427d1e84f3dd0314c0f7b2291e5b200ac8c7c3b92560405160405180910390a45050565b6000610c1e82610b84565b610c3a5760405162461bcd60e51b81526004016104df9061218c565b6000610c458361078c565b9050806001600160a01b0316846001600160a01b03161480610c805750836001600160a01b0316610c75846104b8565b6001600160a01b0316145b80610c905750610c908185610b0e565b949350505050565b826001600160a01b0316610cab8261078c565b6001600160a01b031614610cd15760405162461bcd60e51b81526004016104df90612373565b6001600160a01b038216610cf75760405162461bcd60e51b81526004016104df90612111565b610d0283838361133e565b610d0d600082610ba5565b6001600160a01b0383166000908152600560205260408120805460019290610d3690849061268e565b90915550506001600160a01b0382166000908152600560205260408120805460019290610d64908490612643565b909155505060008181526004602052604080822080546001600160a01b0319166001600160a01b0386811691821790925591518493918716917fddf252ad1be2c89b69c2b068fc378daa952ba7f163c4a11628f55a4df523b3ef91a4505050565b610dce826105da565b610ddf81610dda610ba1565b611349565b610597838361122f565b610df1610ba1565b6001600160a01b0316816001600160a01b031614610e215760405162461bcd60e51b81526004016104df906125f4565b610b4682826113ad565b60006108d2836001600160a01b038416611430565b610e48610783565b610e645760405162461bcd60e51b81526004016104df90611fb2565b600c805460ff191690557f5db9ee0a495bf2e6ff9c91a7834c1ba4fdd244a5e8aa4e537bd38aeae4b073aa610e97610ba1565b604051610ea49190611eba565b60405180910390a1565b6000610eb98261078c565b9050610ec78160008461133e565b610ed2600083610ba5565b6001600160a01b0381166000908152600560205260408120805460019290610efb90849061268e565b909155505060008281526004602052604080822080546001600160a01b0319169055518391906001600160a01b038416907fddf252ad1be2c89b69c2b068fc378daa952ba7f163c4a11628f55a4df523b3ef908390a45050565b5490565b6001600160a01b038216610f7f5760405162461bcd60e51b81526004016104df906122f2565b610f8881610b84565b15610fa55760405162461bcd60e51b81526004016104df9061207d565b610fb16000838361133e565b6001600160a01b0382166000908152600560205260408120805460019290610fda908490612643565b909155505060008181526004602052604080822080546001600160a01b0319166001600160a01b03861690811790915590518392907fddf252ad1be2c89b69c2b068fc378daa952ba7f163c4a11628f55a4df523b3ef908290a45050565b80546001019055565b611049610783565b156110665760405162461bcd60e51b81526004016104df906121d8565b600c805460ff191660011790557f62e78cea01bee320cd4e420270b5ea74000d11b0c9f74754ebdbfc544b05a258610e97610ba1565b60006108d2838361154d565b6110b3848484610c98565b6110bf84848484611585565b610a1d5760405162461bcd60e51b81526004016104df9061202b565b6060600e8054610435906126e8565b60608161110f57506040805180820190915260018152600360fc1b6020820152610421565b8160005b8115611139578061112381612723565b91506111329050600a8361265b565b9150611113565b60008167ffffffffffffffff81111561116257634e487b7160e01b600052604160045260246000fd5b6040519080825280601f01601f19166020018201604052801561118c576020820181803683370190505b5090505b8415610c90576111a160018361268e565b91506111ae600a8661273e565b6111b9906030612643565b60f81b8183815181106111dc57634e487b7160e01b600052603260045260246000fd5b60200101906001600160f81b031916908160001a9053506111fe600a8661265b565b9450611190565b600061041e82610f55565b611219826105da565b61122581610dda610ba1565b61059783836113ad565b61123982826108d9565b610b46576000828152602081815260408083206001600160a01b03851684529091529020805460ff19166001179055611270610ba1565b6001600160a01b0316816001600160a01b0316837f2f8788117e7eff1d82e926ec794901d17c78024a50270940304540a733656f0d60405160405180910390a45050565b60006112c083836116a0565b6112f657508154600181810184556000848152602080822090930184905584548482528286019093526040902091909155610660565b506000610660565b60006001600160e01b031982166380ac58cd60e01b148061132f57506001600160e01b03198216635b5e139f60e01b145b8061041e575061041e826116b8565b6105978383836116dd565b61135382826108d9565b610b465761136b816001600160a01b0316601461170d565b61137683602061170d565b604051602001611387929190611e45565b60408051601f198184030181529082905262461bcd60e51b82526104df91600401611f1f565b6113b782826108d9565b15610b46576000828152602081815260408083206001600160a01b03851684529091529020805460ff191690556113ec610ba1565b6001600160a01b0316816001600160a01b0316837ff6391f5c32d9c69d2a47ea670b442974b53935d1edc7fd64eb21e047a839171b60405160405180910390a45050565b6000818152600183016020526040812054801561154357600061145460018361268e565b85549091506000906114689060019061268e565b90508181146114e957600086600001828154811061149657634e487b7160e01b600052603260045260246000fd5b90600052602060002001549050808760000184815481106114c757634e487b7160e01b600052603260045260246000fd5b6000918252602080832090910192909255918252600188019052604090208390555b855486908061150857634e487b7160e01b600052603160045260246000fd5b600190038181906000526020600020016000905590558560010160008681526020019081526020016000206000905560019350505050610660565b6000915050610660565b600082600001828154811061157257634e487b7160e01b600052603260045260246000fd5b9060005260206000200154905092915050565b6000611599846001600160a01b03166118bf565b1561169557836001600160a01b031663150b7a026115b5610ba1565b8786866040518563ffffffff1660e01b81526004016115d79493929190611ece565b602060405180830381600087803b1580156115f157600080fd5b505af1925050508015611621575060408051601f3d908101601f1916820190925261161e91810190611dce565b60015b61167b573d80801561164f576040519150601f19603f3d011682016040523d82523d6000602084013e611654565b606091505b5080516116735760405162461bcd60e51b81526004016104df9061202b565b805181602001fd5b6001600160e01b031916630a85bd0160e11b149050610c90565b506001949350505050565b60009081526001919091016020526040902054151590565b60006001600160e01b03198216635a05180f60e01b148061041e575061041e826118c5565b6116e88383836118ea565b6116f0610783565b156105975760405162461bcd60e51b81526004016104df90611f67565b6060600061171c83600261266f565b611727906002612643565b67ffffffffffffffff81111561174d57634e487b7160e01b600052604160045260246000fd5b6040519080825280601f01601f191660200182016040528015611777576020820181803683370190505b509050600360fc1b816000815181106117a057634e487b7160e01b600052603260045260246000fd5b60200101906001600160f81b031916908160001a905350600f60fb1b816001815181106117dd57634e487b7160e01b600052603260045260246000fd5b60200101906001600160f81b031916908160001a905350600061180184600261266f565b61180c906001612643565b90505b60018111156118a0576f181899199a1a9b1b9c1cb0b131b232b360811b85600f166010811061184e57634e487b7160e01b600052603260045260246000fd5b1a60f81b82828151811061187257634e487b7160e01b600052603260045260246000fd5b60200101906001600160f81b031916908160001a90535060049490941c93611899816126d1565b905061180f565b5083156108d25760405162461bcd60e51b81526004016104df90611f32565b3b151590565b60006001600160e01b03198216637965db0b60e01b148061041e575061041e82611973565b6118f5838383610597565b6001600160a01b0383166119115761190c8161198c565b611934565b816001600160a01b0316836001600160a01b0316146119345761193483826119d0565b6001600160a01b0382166119505761194b81611a6d565b610597565b826001600160a01b0316826001600160a01b031614610597576105978282611b46565b6001600160e01b031981166301ffc9a760e01b14919050565b600a80546000838152600b60205260408120829055600182018355919091527fc65a7bb8d6351c1cf70c95a316cc6a92839c986682d98bc35f958f4883f9d2a80155565b600060016119dd84610826565b6119e7919061268e565b600083815260096020526040902054909150808214611a3a576001600160a01b03841660009081526008602090815260408083208584528252808320548484528184208190558352600990915290208190555b5060009182526009602090815260408084208490556001600160a01b039094168352600881528383209183525290812055565b600a54600090611a7f9060019061268e565b6000838152600b6020526040812054600a8054939450909284908110611ab557634e487b7160e01b600052603260045260246000fd5b9060005260206000200154905080600a8381548110611ae457634e487b7160e01b600052603260045260246000fd5b6000918252602080832090910192909255828152600b9091526040808220849055858252812055600a805480611b2a57634e487b7160e01b600052603160045260246000fd5b6001900381819060005260206000200160009055905550505050565b6000611b5183610826565b6001600160a01b039093166000908152600860209081526040808320868452825280832085905593825260099052919091209190915550565b80356001600160a01b038116811461042157600080fd5b600060208284031215611bb2578081fd5b6108d282611b8a565b60008060408385031215611bcd578081fd5b611bd683611b8a565b9150611be460208401611b8a565b90509250929050565b600080600060608486031215611c01578081fd5b611c0a84611b8a565b9250611c1860208501611b8a565b9150604084013590509250925092565b60008060008060808587031215611c3d578081fd5b611c4685611b8a565b93506020611c55818701611b8a565b935060408601359250606086013567ffffffffffffffff80821115611c78578384fd5b818801915088601f830112611c8b578384fd5b813581811115611c9d57611c9d61277e565b604051601f8201601f1916810185018381118282101715611cc057611cc061277e565b60405281815283820185018b1015611cd6578586fd5b81858501868301379081019093019390935250939692955090935050565b60008060408385031215611d06578182fd5b611d0f83611b8a565b915060208301358015158114611d23578182fd5b809150509250929050565b60008060408385031215611d40578182fd5b611d4983611b8a565b946020939093013593505050565b600060208284031215611d68578081fd5b5035919050565b60008060408385031215611d81578182fd5b82359150611be460208401611b8a565b60008060408385031215611da3578182fd5b50508035926020909101359150565b600060208284031215611dc3578081fd5b81356108d281612794565b600060208284031215611ddf578081fd5b81516108d281612794565b60008151808452611e028160208601602086016126a5565b601f01601f19169290920160200192915050565b60008351611e288184602088016126a5565b835190830190611e3c8183602088016126a5565b01949350505050565b60007f416363657373436f6e74726f6c3a206163636f756e742000000000000000000082528351611e7d8160178501602088016126a5565b7001034b99036b4b9b9b4b733903937b6329607d1b6017918401918201528351611eae8160288401602088016126a5565b01602801949350505050565b6001600160a01b0391909116815260200190565b6001600160a01b0385811682528416602082015260408101839052608060608201819052600090611f0190830184611dea565b9695505050505050565b901515815260200190565b90815260200190565b6000602082526108d26020830184611dea565b6020808252818101527f537472696e67733a20686578206c656e67746820696e73756666696369656e74604082015260600190565b6020808252602b908201527f4552433732315061757361626c653a20746f6b656e207472616e73666572207760408201526a1a1a5b19481c185d5cd95960aa1b606082015260800190565b60208082526014908201527314185d5cd8589b194e881b9bdd081c185d5cd95960621b604082015260600190565b6020808252602b908201527f455243373231456e756d657261626c653a206f776e657220696e646578206f7560408201526a74206f6620626f756e647360a81b606082015260800190565b60208082526032908201527f4552433732313a207472616e7366657220746f206e6f6e20455243373231526560408201527131b2b4bb32b91034b6b83632b6b2b73a32b960711b606082015260800190565b6020808252601c908201527f4552433732313a20746f6b656e20616c7265616479206d696e74656400000000604082015260600190565b6020808252603e908201527f4552433732315072657365744d696e7465725061757365724175746f49643a2060408201527f6d75737420686176652070617573657220726f6c6520746f2070617573650000606082015260800190565b60208082526024908201527f4552433732313a207472616e7366657220746f20746865207a65726f206164646040820152637265737360e01b606082015260800190565b60208082526019908201527f4552433732313a20617070726f766520746f2063616c6c657200000000000000604082015260600190565b6020808252602c908201527f4552433732313a206f70657261746f7220717565727920666f72206e6f6e657860408201526b34b9ba32b73a103a37b5b2b760a11b606082015260800190565b60208082526010908201526f14185d5cd8589b194e881c185d5cd95960821b604082015260600190565b60208082526038908201527f4552433732313a20617070726f76652063616c6c6572206973206e6f74206f7760408201527f6e6572206e6f7220617070726f76656420666f7220616c6c0000000000000000606082015260800190565b6020808252602a908201527f4552433732313a2062616c616e636520717565727920666f7220746865207a65604082015269726f206164647265737360b01b606082015260800190565b60208082526029908201527f4552433732313a206f776e657220717565727920666f72206e6f6e657869737460408201526832b73a103a37b5b2b760b91b606082015260800190565b6020808252818101527f4552433732313a206d696e7420746f20746865207a65726f2061646472657373604082015260600190565b6020808252602c908201527f4552433732313a20617070726f76656420717565727920666f72206e6f6e657860408201526b34b9ba32b73a103a37b5b2b760a11b606082015260800190565b60208082526029908201527f4552433732313a207472616e73666572206f6620746f6b656e2074686174206960408201526839903737ba1037bbb760b91b606082015260800190565b6020808252602f908201527f4552433732314d657461646174613a2055524920717565727920666f72206e6f60408201526e3732bc34b9ba32b73a103a37b5b2b760891b606082015260800190565b60208082526021908201527f4552433732313a20617070726f76616c20746f2063757272656e74206f776e656040820152603960f91b606082015260800190565b60208082526031908201527f4552433732313a207472616e736665722063616c6c6572206973206e6f74206f6040820152701ddb995c881b9bdc88185c1c1c9bdd9959607a1b606082015260800190565b6020808252602c908201527f455243373231456e756d657261626c653a20676c6f62616c20696e646578206f60408201526b7574206f6620626f756e647360a01b606082015260800190565b6020808252603d908201527f4552433732315072657365744d696e7465725061757365724175746f49643a2060408201527f6d7573742068617665206d696e74657220726f6c6520746f206d696e74000000606082015260800190565b60208082526030908201527f4552433732314275726e61626c653a2063616c6c6572206973206e6f74206f7760408201526f1b995c881b9bdc88185c1c1c9bdd995960821b606082015260800190565b602080825260409082018190527f4552433732315072657365744d696e7465725061757365724175746f49643a20908201527f6d75737420686176652070617573657220726f6c6520746f20756e7061757365606082015260800190565b6020808252602f908201527f416363657373436f6e74726f6c3a2063616e206f6e6c792072656e6f756e636560408201526e103937b632b9903337b91039b2b63360891b606082015260800190565b6000821982111561265657612656612752565b500190565b60008261266a5761266a612768565b500490565b600081600019048311821515161561268957612689612752565b500290565b6000828210156126a0576126a0612752565b500390565b60005b838110156126c05781810151838201526020016126a8565b83811115610a1d5750506000910152565b6000816126e0576126e0612752565b506000190190565b6002810460018216806126fc57607f821691505b6020821081141561271d57634e487b7160e01b600052602260045260246000fd5b50919050565b600060001982141561273757612737612752565b5060010190565b60008261274d5761274d612768565b500690565b634e487b7160e01b600052601160045260246000fd5b634e487b7160e01b600052601260045260246000fd5b634e487b7160e01b600052604160045260246000fd5b6001600160e01b03198116811461072557600080fdfea2646970667358221220cdb4469d58b0caa45463ca3947e7c242d1f644978fc2c56453d8d841df7f04b664736f6c63430008000033a26469706673582212205a6c4c1c9d3c08f4752f438f54abd983099b8e7520da99ff452645417d8eeeb964736f6c63430008000033",
  "immutableReferences": {},
  "source": "pragma solidity ^0.8.0;\n\nimport \"./ThetaboardNFT.sol\";\nimport \"./ThetaboardDirectSellNft.sol\";\nimport \"./ThetaboardAuctionSellNft.sol\";\nimport \"@openzeppelin/contracts/access/Ownable.sol\";\nimport \"@openzeppelin/contracts/proxy/Clones.sol\";\n\n\n/**\n * @title nft_sell\n * Auction NFT for thetaboard.io\n */\ncontract ThetaboardCreatorManager is Ownable {\n\n    event NFTDeployed(\n        address nftContract,\n        string name,\n        string url\n    );\n    event SellCreated(\n        string sellType,\n        address nftContract,\n        uint price,\n        uint endDate,\n        uint editionNumber,\n        address artistWallet,\n        uint8 split\n    );\n\n    function createNFT(string memory name, string memory url, address[] memory toBeMinters) internal returns (address){\n        ThetaboardNFT newlyCreated = new ThetaboardNFT(name, \"TB\", url);\n        // setup roles\n        bytes32 minterRole = newlyCreated.MINTER_ROLE();\n        newlyCreated.grantRole(minterRole, msg.sender);\n        for (uint i = 0; i < toBeMinters.length; i++) {\n            newlyCreated.grantRole(minterRole, toBeMinters[i]);\n        }\n        // emit event\n        emit NFTDeployed(\n            address(newlyCreated),\n            name,\n            url\n        );\n        return address(newlyCreated);\n    }\n\n\n    function deployNFTandSell(string memory name, string memory url, address[] memory toBeMinters,\n        address directSellContract, uint price, uint endDate,\n        uint editionNumber, address artistWallet, uint8 split) external {\n\n        address nftAddress = createNFT(name, url, toBeMinters);\n        ThetaboardDirectSellNft DirectSell = ThetaboardDirectSellNft(directSellContract);\n        DirectSell.newSell(nftAddress, price, endDate, editionNumber, artistWallet, split);\n        emit SellCreated(\"direct\", nftAddress, price, endDate, editionNumber, artistWallet, split);\n    }\n\n    function deployNFTandAuction(string memory name, string memory url, address[] memory toBeMinters,\n        address auctionSellContract, uint minBid, uint endDate,\n        uint editionNumber, address artistWallet, uint8 split) external {\n\n        address nftAddress = createNFT(name, url, toBeMinters);\n        ThetaboardAuctionSellNft AuctionSell = ThetaboardAuctionSellNft(auctionSellContract);\n        AuctionSell.newAuction(nftAddress, minBid, endDate, editionNumber, artistWallet, split);\n        emit SellCreated(\"auction\", nftAddress, minBid, endDate, editionNumber, artistWallet, split);\n    }\n}",
  "sourcePath": "/Users/maurin.lenglart/IdeaProjects/thetaboard/smart_contracts/contracts/ThetaboardCreatorManager.sol",
  "compiler": {
    "name": "solc",
    "version": "0.8.0+commit.c7dfd78e.Emscripten.clang"
  },
  "schemaVersion": "3.4.7",
  "updatedAt": "2022-04-11T22:22:03.202Z",
  "networkType": "ethereum",
  "devdoc": {
    "kind": "dev",
    "methods": {
      "owner()": {
        "details": "Returns the address of the current owner."
      },
      "renounceOwnership()": {
        "details": "Leaves the contract without owner. It will not be possible to call `onlyOwner` functions anymore. Can only be called by the current owner. NOTE: Renouncing ownership will leave the contract without an owner, thereby removing any functionality that is only available to the owner."
      },
      "transferOwnership(address)": {
        "details": "Transfers ownership of the contract to a new account (`newOwner`). Can only be called by the current owner."
      }
    },
    "title": "nft_sell Auction NFT for thetaboard.io",
    "version": 1
  },
  "userdoc": {
    "kind": "user",
    "methods": {},
    "version": 1
  }
}