{
  "contractName": "ThetaboardOffer",
  "abi": [
    {
      "inputs": [],
      "stateMutability": "nonpayable",
      "type": "constructor"
    },
    {
      "anonymous": false,
      "inputs": [
        {
          "indexed": false,
          "internalType": "uint256",
          "name": "userPayout",
          "type": "uint256"
        },
        {
          "indexed": false,
          "internalType": "address",
          "name": "userAddress",
          "type": "address"
        },
        {
          "indexed": false,
          "internalType": "uint256",
          "name": "ownerPayout",
          "type": "uint256"
        },
        {
          "indexed": false,
          "internalType": "address",
          "name": "ownerAddress",
          "type": "address"
        },
        {
          "indexed": false,
          "internalType": "uint256",
          "name": "creatorPayout",
          "type": "uint256"
        },
        {
          "indexed": false,
          "internalType": "address",
          "name": "creatorAddress",
          "type": "address"
        }
      ],
      "name": "FeeSplit",
      "type": "event"
    },
    {
      "anonymous": false,
      "inputs": [
        {
          "indexed": false,
          "internalType": "uint256",
          "name": "itemId",
          "type": "uint256"
        },
        {
          "indexed": false,
          "internalType": "address",
          "name": "nftContract",
          "type": "address"
        },
        {
          "indexed": false,
          "internalType": "uint256",
          "name": "tokenId",
          "type": "uint256"
        },
        {
          "indexed": false,
          "internalType": "address payable",
          "name": "offerer",
          "type": "address"
        },
        {
          "indexed": false,
          "internalType": "address payable",
          "name": "offered",
          "type": "address"
        },
        {
          "indexed": false,
          "internalType": "uint256",
          "name": "price",
          "type": "uint256"
        }
      ],
      "name": "OfferAccepted",
      "type": "event"
    },
    {
      "anonymous": false,
      "inputs": [
        {
          "indexed": false,
          "internalType": "uint256",
          "name": "itemId",
          "type": "uint256"
        },
        {
          "indexed": false,
          "internalType": "address",
          "name": "nftContract",
          "type": "address"
        },
        {
          "indexed": false,
          "internalType": "uint256",
          "name": "tokenId",
          "type": "uint256"
        },
        {
          "indexed": false,
          "internalType": "address payable",
          "name": "offerer",
          "type": "address"
        },
        {
          "indexed": false,
          "internalType": "address payable",
          "name": "offered",
          "type": "address"
        },
        {
          "indexed": false,
          "internalType": "uint256",
          "name": "price",
          "type": "uint256"
        }
      ],
      "name": "OfferCanceled",
      "type": "event"
    },
    {
      "anonymous": false,
      "inputs": [
        {
          "indexed": false,
          "internalType": "uint256",
          "name": "itemId",
          "type": "uint256"
        },
        {
          "indexed": false,
          "internalType": "address",
          "name": "nftContract",
          "type": "address"
        },
        {
          "indexed": false,
          "internalType": "uint256",
          "name": "tokenId",
          "type": "uint256"
        },
        {
          "indexed": false,
          "internalType": "address payable",
          "name": "offerer",
          "type": "address"
        },
        {
          "indexed": false,
          "internalType": "address payable",
          "name": "offered",
          "type": "address"
        },
        {
          "indexed": false,
          "internalType": "uint256",
          "name": "price",
          "type": "uint256"
        }
      ],
      "name": "OfferCreated",
      "type": "event"
    },
    {
      "anonymous": false,
      "inputs": [
        {
          "indexed": false,
          "internalType": "uint256",
          "name": "itemId",
          "type": "uint256"
        },
        {
          "indexed": false,
          "internalType": "address",
          "name": "nftContract",
          "type": "address"
        },
        {
          "indexed": false,
          "internalType": "uint256",
          "name": "tokenId",
          "type": "uint256"
        },
        {
          "indexed": false,
          "internalType": "address payable",
          "name": "offerer",
          "type": "address"
        },
        {
          "indexed": false,
          "internalType": "address payable",
          "name": "offered",
          "type": "address"
        },
        {
          "indexed": false,
          "internalType": "uint256",
          "name": "price",
          "type": "uint256"
        }
      ],
      "name": "OfferDenied",
      "type": "event"
    },
    {
      "stateMutability": "payable",
      "type": "fallback"
    },
    {
      "inputs": [],
      "name": "listingIsActive",
      "outputs": [
        {
          "internalType": "bool",
          "name": "",
          "type": "bool"
        }
      ],
      "stateMutability": "view",
      "type": "function"
    },
    {
      "stateMutability": "payable",
      "type": "receive"
    },
    {
      "inputs": [],
      "name": "getSalesFee",
      "outputs": [
        {
          "internalType": "uint256",
          "name": "",
          "type": "uint256"
        }
      ],
      "stateMutability": "view",
      "type": "function"
    },
    {
      "inputs": [
        {
          "internalType": "address",
          "name": "nftContract",
          "type": "address"
        },
        {
          "internalType": "uint256",
          "name": "tokenId",
          "type": "uint256"
        }
      ],
      "name": "createNewOffer",
      "outputs": [],
      "stateMutability": "payable",
      "type": "function"
    },
    {
      "inputs": [
        {
          "internalType": "uint256",
          "name": "itemId",
          "type": "uint256"
        }
      ],
      "name": "changeOffer",
      "outputs": [],
      "stateMutability": "payable",
      "type": "function"
    },
    {
      "inputs": [
        {
          "internalType": "uint256",
          "name": "itemId",
          "type": "uint256"
        },
        {
          "internalType": "address",
          "name": "creator",
          "type": "address"
        },
        {
          "internalType": "uint256",
          "name": "creatorSplit",
          "type": "uint256"
        }
      ],
      "name": "acceptOffer",
      "outputs": [],
      "stateMutability": "nonpayable",
      "type": "function"
    },
    {
      "inputs": [
        {
          "internalType": "uint256",
          "name": "itemId",
          "type": "uint256"
        }
      ],
      "name": "denyOffer",
      "outputs": [],
      "stateMutability": "nonpayable",
      "type": "function"
    },
    {
      "inputs": [
        {
          "internalType": "uint256",
          "name": "itemId",
          "type": "uint256"
        }
      ],
      "name": "cancelOffer",
      "outputs": [],
      "stateMutability": "nonpayable",
      "type": "function"
    },
    {
      "inputs": [],
      "name": "fetchOffers",
      "outputs": [
        {
          "components": [
            {
              "internalType": "uint256",
              "name": "itemId",
              "type": "uint256"
            },
            {
              "internalType": "address",
              "name": "nftContract",
              "type": "address"
            },
            {
              "internalType": "uint256",
              "name": "tokenId",
              "type": "uint256"
            },
            {
              "internalType": "address payable",
              "name": "offerer",
              "type": "address"
            },
            {
              "internalType": "address payable",
              "name": "offered",
              "type": "address"
            },
            {
              "internalType": "uint256",
              "name": "price",
              "type": "uint256"
            },
            {
              "internalType": "bool",
              "name": "isSold",
              "type": "bool"
            }
          ],
          "internalType": "struct ThetaboardOffer.OfferItem[]",
          "name": "",
          "type": "tuple[]"
        }
      ],
      "stateMutability": "view",
      "type": "function"
    },
    {
      "inputs": [
        {
          "internalType": "uint256",
          "name": "start",
          "type": "uint256"
        },
        {
          "internalType": "uint256",
          "name": "end",
          "type": "uint256"
        }
      ],
      "name": "fetchOffersByRange",
      "outputs": [
        {
          "components": [
            {
              "internalType": "uint256",
              "name": "itemId",
              "type": "uint256"
            },
            {
              "internalType": "address",
              "name": "nftContract",
              "type": "address"
            },
            {
              "internalType": "uint256",
              "name": "tokenId",
              "type": "uint256"
            },
            {
              "internalType": "address payable",
              "name": "offerer",
              "type": "address"
            },
            {
              "internalType": "address payable",
              "name": "offered",
              "type": "address"
            },
            {
              "internalType": "uint256",
              "name": "price",
              "type": "uint256"
            },
            {
              "internalType": "bool",
              "name": "isSold",
              "type": "bool"
            }
          ],
          "internalType": "struct ThetaboardOffer.OfferItem[]",
          "name": "",
          "type": "tuple[]"
        }
      ],
      "stateMutability": "view",
      "type": "function"
    },
    {
      "inputs": [
        {
          "internalType": "address",
          "name": "offerer",
          "type": "address"
        }
      ],
      "name": "fetchOffersForAddress",
      "outputs": [
        {
          "components": [
            {
              "internalType": "uint256",
              "name": "itemId",
              "type": "uint256"
            },
            {
              "internalType": "address",
              "name": "nftContract",
              "type": "address"
            },
            {
              "internalType": "uint256",
              "name": "tokenId",
              "type": "uint256"
            },
            {
              "internalType": "address payable",
              "name": "offerer",
              "type": "address"
            },
            {
              "internalType": "address payable",
              "name": "offered",
              "type": "address"
            },
            {
              "internalType": "uint256",
              "name": "price",
              "type": "uint256"
            },
            {
              "internalType": "bool",
              "name": "isSold",
              "type": "bool"
            }
          ],
          "internalType": "struct ThetaboardOffer.OfferItem[]",
          "name": "",
          "type": "tuple[]"
        }
      ],
      "stateMutability": "view",
      "type": "function"
    },
    {
      "inputs": [
        {
          "internalType": "uint256",
          "name": "id",
          "type": "uint256"
        }
      ],
      "name": "getByItemId",
      "outputs": [
        {
          "components": [
            {
              "internalType": "uint256",
              "name": "itemId",
              "type": "uint256"
            },
            {
              "internalType": "address",
              "name": "nftContract",
              "type": "address"
            },
            {
              "internalType": "uint256",
              "name": "tokenId",
              "type": "uint256"
            },
            {
              "internalType": "address payable",
              "name": "offerer",
              "type": "address"
            },
            {
              "internalType": "address payable",
              "name": "offered",
              "type": "address"
            },
            {
              "internalType": "uint256",
              "name": "price",
              "type": "uint256"
            },
            {
              "internalType": "bool",
              "name": "isSold",
              "type": "bool"
            }
          ],
          "internalType": "struct ThetaboardOffer.OfferItem",
          "name": "",
          "type": "tuple"
        }
      ],
      "stateMutability": "view",
      "type": "function"
    },
    {
      "inputs": [
        {
          "internalType": "address",
          "name": "nftContract",
          "type": "address"
        },
        {
          "internalType": "uint256",
          "name": "tokenId",
          "type": "uint256"
        },
        {
          "internalType": "address",
          "name": "walletAddress",
          "type": "address"
        }
      ],
      "name": "getByNftContractTokenIdAddress",
      "outputs": [
        {
          "components": [
            {
              "internalType": "uint256",
              "name": "itemId",
              "type": "uint256"
            },
            {
              "internalType": "address",
              "name": "nftContract",
              "type": "address"
            },
            {
              "internalType": "uint256",
              "name": "tokenId",
              "type": "uint256"
            },
            {
              "internalType": "address payable",
              "name": "offerer",
              "type": "address"
            },
            {
              "internalType": "address payable",
              "name": "offered",
              "type": "address"
            },
            {
              "internalType": "uint256",
              "name": "price",
              "type": "uint256"
            },
            {
              "internalType": "bool",
              "name": "isSold",
              "type": "bool"
            }
          ],
          "internalType": "struct ThetaboardOffer.OfferItem",
          "name": "",
          "type": "tuple"
        }
      ],
      "stateMutability": "view",
      "type": "function"
    },
    {
      "inputs": [
        {
          "internalType": "address",
          "name": "nftContract",
          "type": "address"
        },
        {
          "internalType": "uint256",
          "name": "tokenId",
          "type": "uint256"
        }
      ],
      "name": "getByNftContractsTokenId",
      "outputs": [
        {
          "components": [
            {
              "internalType": "uint256",
              "name": "itemId",
              "type": "uint256"
            },
            {
              "internalType": "address",
              "name": "nftContract",
              "type": "address"
            },
            {
              "internalType": "uint256",
              "name": "tokenId",
              "type": "uint256"
            },
            {
              "internalType": "address payable",
              "name": "offerer",
              "type": "address"
            },
            {
              "internalType": "address payable",
              "name": "offered",
              "type": "address"
            },
            {
              "internalType": "uint256",
              "name": "price",
              "type": "uint256"
            },
            {
              "internalType": "bool",
              "name": "isSold",
              "type": "bool"
            }
          ],
          "internalType": "struct ThetaboardOffer.OfferItem[]",
          "name": "",
          "type": "tuple[]"
        }
      ],
      "stateMutability": "view",
      "type": "function"
    },
    {
      "inputs": [
        {
          "internalType": "uint256",
          "name": "fee",
          "type": "uint256"
        }
      ],
      "name": "setSalesFeeBasisPoints",
      "outputs": [],
      "stateMutability": "nonpayable",
      "type": "function"
    }
  ],
  "bytecode": "0x608060405260196004556005805460ff1916600117905534801561002257600080fd5b506001600055600380546001600160a01b0319163317905561200b806100496000396000f3fe6080604052600436106100e15760003560e01c8063838e1a931161007f578063af07acce11610059578063af07acce1461022a578063b3451eac1461024a578063c522c13d1461026c578063ef706adf1461028c576100e8565b8063838e1a93146101e25780639589d7b9146101f557806399da238114610215576100e8565b80632f5ab972116100bb5780632f5ab972146101605780635825ba1f1461018257806368f97f7b146101af5780637746dfa9146101c2576100e8565b80630f173918146100ea57806314346b8f1461012057806329ba6d5914610140576100e8565b366100e857005b005b3480156100f657600080fd5b5061010a610105366004611996565b6102ac565b6040516101179190611b60565b60405180910390f35b34801561012c57600080fd5b5061010a61013b366004611a51565b610548565b34801561014c57600080fd5b5061010a61015b366004611957565b61072c565b34801561016c57600080fd5b50610175610941565b6040516101179190611b33565b34801561018e57600080fd5b506101a261019d3660046119c1565b610947565b6040516101179190611e76565b6100e86101bd366004611a02565b610a45565b3480156101ce57600080fd5b506100e86101dd366004611a02565b610ba9565b6100e86101f0366004611996565b610df4565b34801561020157600080fd5b506100e8610210366004611a1a565b6110a5565b34801561022157600080fd5b5061010a61148b565b34801561023657600080fd5b506101a2610245366004611a02565b611645565b34801561025657600080fd5b5061025f6116ea565b6040516101179190611bae565b34801561027857600080fd5b506100e8610287366004611a02565b6116f3565b34801561029857600080fd5b506100e86102a7366004611a02565b611743565b6060600083836040516020016102c3929190611ac8565b604051602081830303815290604052905060006008826040516102e69190611b17565b908152604080519182900360209081018320805480830285018301909352828452919083018282801561033857602002820191906000526020600020905b815481526020019060010190808311610324575b505050505090506000805b82518110156103b857600083828151811061036e57634e487b7160e01b600052603260045260246000fd5b6020908102919091018101516000818152600692839052604090209091015490915060ff166103a5576103a2600184611eee565b92505b50806103b081611f8c565b915050610343565b506000808267ffffffffffffffff8111156103e357634e487b7160e01b600052604160045260246000fd5b60405190808252806020026020018201604052801561041c57816020015b61040961191b565b8152602001906001900390816104015790505b50905060005b845181101561053a57600085828151811061044d57634e487b7160e01b600052603260045260246000fd5b6020908102919091018101516000818152600692839052604090209091015490915060ff1661052757600081815260066020818152604092839020835160e0810185528154815260018201546001600160a01b039081169382019390935260028201549481019490945260038101548216606085015260048101549091166080840152600581015460a08401529081015460ff16151560c0830152845190919085908790811061050d57634e487b7160e01b600052603260045260246000fd5b6020908102919091010152610523600186611eee565b9450505b508061053281611f8c565b915050610422565b509450505050505b92915050565b60606000806000805b818110156105a35760066000610568836001611eee565b815260208101919091526040016000206006015460ff166105915761058e600185611eee565b93505b8061059b81611f8c565b915050610551565b5060008367ffffffffffffffff8111156105cd57634e487b7160e01b600052604160045260246000fd5b60405190808252806020026020018201604052801561060657816020015b6105f361191b565b8152602001906001900390816105eb5790505b509050865b868110156107215760066000610622836001611eee565b815260208101919091526040016000206006015460ff1661070f57600060068161064d846001611eee565b81526020808201929092526040908101600090812054808252600680855291839020835160e0810185528154815260018201546001600160a01b039081169682019690965260028201549481019490945260038101548516606085015260048101549094166080840152600584015460a08401529083015460ff16151560c083015285519093508590889081106106f457634e487b7160e01b600052603260045260246000fd5b602090810291909101015261070a600187611eee565b955050505b8061071981611f8c565b91505061060b565b509695505050505050565b6060600061073a600161190e565b905060008060005b838110156107a6576001600160a01b03861660066000610763846001611eee565b81526020810191909152604001600020600301546001600160a01b0316141561079457610791600184611eee565b92505b8061079e81611f8c565b915050610742565b5060008267ffffffffffffffff8111156107d057634e487b7160e01b600052604160045260246000fd5b60405190808252806020026020018201604052801561080957816020015b6107f661191b565b8152602001906001900390816107ee5790505b50905060005b84811015610937576001600160a01b03871660066000610830846001611eee565b81526020810191909152604001600020600301546001600160a01b03161415610925576000600681610863846001611eee565b81526020808201929092526040908101600090812054808252600680855291839020835160e0810185528154815260018201546001600160a01b039081169682019690965260028201549481019490945260038101548516606085015260048101549094166080840152600584015460a08401529083015460ff16151560c0830152855190935085908790811061090a57634e487b7160e01b600052603260045260246000fd5b6020908102919091010152610920600186611eee565b945050505b8061092f81611f8c565b91505061080f565b5095945050505050565b60045490565b61094f61191b565b600084848460405160200161096693929190611aea565b604051602081830303815290604052905060006007826040516109899190611b17565b90815260200160405180910390205490506109a4600161190e565b8111156109cc5760405162461bcd60e51b81526004016109c390611e15565b60405180910390fd5b600090815260066020818152604092839020835160e0810185528154815260018201546001600160a01b039081169382019390935260028201549481019490945260038101548216606085015260048101549091166080840152600581015460a0840152015460ff16151560c082015295945050505050565b60026000541415610a685760405162461bcd60e51b81526004016109c390611e3f565b600260005560055460ff161515600114610a945760405162461bcd60e51b81526004016109c390611d18565b60003411610ab45760405162461bcd60e51b81526004016109c390611bec565b600081815260066020526040902060058101546003909101546001600160a01b0316338114610af55760405162461bcd60e51b81526004016109c390611c6c565b60008381526006602052604080822034600590910155516001600160a01b0383169184156108fc02918591818181858888f19350505050158015610b3d573d6000803e3d6000fd5b50600083815260066020526040808220600181015460029091015491517f0abc6d84cf3182a3b56f555a96f6d54108f5c011c0a02d5c96195a0c0aaf398493610b979388936001600160a01b031692909187913490611e84565b60405180910390a15050600160005550565b60026000541415610bcc5760405162461bcd60e51b81526004016109c390611e3f565b60026000908155818152600660208190526040909120015460ff1615610c045760405162461bcd60e51b81526004016109c390611cea565b6000818152600660205260409081902060058101546002820154600183015460039093015493516331a9108f60e11b8152919390926001600160a01b039081169291169033908390636352211e90610c60908790600401611b33565b60206040518083038186803b158015610c7857600080fd5b505afa158015610c8c573d6000803e3d6000fd5b505050506040513d601f19601f82011682018060405250810190610cb0919061197a565b6001600160a01b031614610cd65760405162461bcd60e51b81526004016109c390611c23565b6000858152600660208190526040808320909101805460ff19166001179055516001600160a01b0383169186156108fc02918791818181858888f19350505050158015610d27573d6000803e3d6000fd5b506000828483604051602001610d3f93929190611aea565b6040516020818303038152906040529050600781604051610d609190611b17565b908152602001604051809103902060009055610d7c6002611912565b600086815260066020526040908190206001810154600282015460039092015492517f51ce4b3727b178f8acf5ef860ff1f24269fe00a28ae5b1c868d2d672f032772a93610ddf938b936001600160a01b03908116939192169033908c90611e84565b60405180910390a15050600160005550505050565b60026000541415610e175760405162461bcd60e51b81526004016109c390611e3f565b600260005560055460ff161515600114610e435760405162461bcd60e51b81526004016109c390611d18565b60003411610e635760405162461bcd60e51b81526004016109c390611bec565b6000828233604051602001610e7a93929190611aea565b60405160208183030381529060405290506001600782604051610e9d9190611b17565b90815260200160405180910390205410600782604051610ebd9190611b17565b908152602001604051809103902054604051602001610edc9190611b33565b60405160208183030381529060405290610f095760405162461bcd60e51b81526004016109c39190611bb9565b50610f146001611912565b6000610f20600161190e565b6040805160e0810182528281526001600160a01b03808816602080840191825283850189815233606086019081526000608087018181523460a0890190815260c089018381528b845260068088528b85209a518b55975160018b018054918b166001600160a01b0319928316179055955160028b0155935160038a018054918a16918716919091179055905160048901805491909816941693909317909555905160058601555193909101805493151560ff199094169390931790925591519293509091610ff2918791879101611ac8565b6040516020818303038152906040529050816007846040516110149190611b17565b9081526020016040518091039020819055506008816040516110369190611b17565b90815260405160209181900382018120805460018101825560009182529281209092018490557f0abc6d84cf3182a3b56f555a96f6d54108f5c011c0a02d5c96195a0c0aaf3984916110919185918991899133913490611e84565b60405180910390a150506001600055505050565b600260005414156110c85760405162461bcd60e51b81526004016109c390611e3f565b60026000908155838152600660208190526040909120015460ff16156111005760405162461bcd60e51b81526004016109c390611cea565b6000838152600660205260409081902060058101546002820154600183015460039093015493516331a9108f60e11b8152919390926001600160a01b039081169291169033908390636352211e9061115c908790600401611b33565b60206040518083038186803b15801561117457600080fd5b505afa158015611188573d6000803e3d6000fd5b505050506040513d601f19601f820116820180604052508101906111ac919061197a565b6001600160a01b0316146111d25760405162461bcd60e51b81526004016109c390611dca565b6040516323b872dd60e01b81526001600160a01b038316906323b872dd9061120290339085908890600401611b3c565b600060405180830381600087803b15801561121c57600080fd5b505af1158015611230573d6000803e3d6000fd5b505050600088815260066020818152604092839020918201805460ff19166001179055600490910180546001600160a01b0319163317905590516007925061127e9185918791869101611aea565b60408051601f198184030181529082905261129891611b17565b9081526020016040518091039020600090556112b46002611912565b6000806004546103e8876112c89190611f06565b6112d29190611f26565b905060006001600160a01b038916158015906112ee5750600088115b80156112fb57506103cf88105b1561136d578761130d6103e889611f06565b6113179190611f26565b6040519093506001600160a01b038a169084156108fc029085906000818181858888f19350505050158015611350573d6000803e3d6000fd5b508161135c8489611f45565b6113669190611f45565b905061137a565b6113778288611f45565b90505b604051339082156108fc029083906000818181858888f193505050501580156113a7573d6000803e3d6000fd5b506003546040516001600160a01b039091169083156108fc029084906000818181858888f193505050501580156113e2573d6000803e3d6000fd5b507f0558bd86271bcc52fd8309a5f872832242ded0003777714c76da6ecfc871a3798a868887338c60405161141c96959493929190611e84565b60405180910390a17f7e06111c2f996dd70140b09a1b769e48e2e8fffbd0179a6e24552f65d25b8b16813384600360009054906101000a90046001600160a01b0316878e60405161147296959493929190611eba565b60405180910390a1505060016000555050505050505050565b60606000611499600161190e565b905060006114a7600261190e565b6114b1600161190e565b6114bb9190611f45565b90506000808267ffffffffffffffff8111156114e757634e487b7160e01b600052604160045260246000fd5b60405190808252806020026020018201604052801561152057816020015b61150d61191b565b8152602001906001900390816115055790505b50905060005b8481101561163c576006600061153d836001611eee565b815260208101919091526040016000206006015460ff1661162a576000600681611568846001611eee565b81526020808201929092526040908101600090812054808252600680855291839020835160e0810185528154815260018201546001600160a01b039081169682019690965260028201549481019490945260038101548516606085015260048101549094166080840152600584015460a08401529083015460ff16151560c0830152855190935085908790811061160f57634e487b7160e01b600052603260045260246000fd5b6020908102919091010152611625600186611eee565b945050505b8061163481611f8c565b915050611526565b50935050505090565b61164d61191b565b611657600161190e565b8211156116765760405162461bcd60e51b81526004016109c390611e15565b50600090815260066020818152604092839020835160e0810185528154815260018201546001600160a01b039081169382019390935260028201549481019490945260038101548216606085015260048101549091166080840152600581015460a0840152015460ff16151560c082015290565b60055460ff1681565b6003546001600160a01b0316331461171d5760405162461bcd60e51b81526004016109c390611cb3565b606481111561173e5760405162461bcd60e51b81526004016109c390611d42565b600455565b600260005414156117665760405162461bcd60e51b81526004016109c390611e3f565b60026000908155818152600660208190526040909120015460ff161561179e5760405162461bcd60e51b81526004016109c390611cea565b6000818152600660205260409020600581015460028201546001830154600390930154919290916001600160a01b039182169116338114806117ea57506003546001600160a01b031633145b6118065760405162461bcd60e51b81526004016109c390611d83565b6000858152600660208190526040808320909101805460ff19166001179055516001600160a01b0383169186156108fc02918791818181858888f19350505050158015611857573d6000803e3d6000fd5b50600082848360405160200161186f93929190611aea565b60405160208183030381529060405290506007816040516118909190611b17565b9081526020016040518091039020600090556118ac6002611912565b6000868152600660205260408082206001810154600282015460039092015492517f52ad52b35de7b3d202be1ec25c84c971aaa042ff7e3628b06956cc5c2ed6da2b94610ddf948c946001600160a01b03948516949093911691908c90611e84565b5490565b80546001019055565b6040805160e081018252600080825260208201819052918101829052606081018290526080810182905260a0810182905260c081019190915290565b600060208284031215611968578081fd5b813561197381611fbd565b9392505050565b60006020828403121561198b578081fd5b815161197381611fbd565b600080604083850312156119a8578081fd5b82356119b381611fbd565b946020939093013593505050565b6000806000606084860312156119d5578081fd5b83356119e081611fbd565b92506020840135915060408401356119f781611fbd565b809150509250925092565b600060208284031215611a13578081fd5b5035919050565b600080600060608486031215611a2e578283fd5b833592506020840135611a4081611fbd565b929592945050506040919091013590565b60008060408385031215611a63578182fd5b50508035926020909101359150565b80518252602081015160018060a01b03808216602085015260408301516040850152806060840151166060850152806080840151166080850152505060a081015160a083015260c0810151151560c08301525050565b60609290921b6bffffffffffffffffffffffff19168252601482015260340190565b6bffffffffffffffffffffffff19606094851b811682526014820193909352921b16603482015260480190565b60008251611b29818460208701611f5c565b9190910192915050565b90815260200190565b6001600160a01b039384168152919092166020820152604081019190915260600190565b6020808252825182820181905260009190848201906040850190845b81811015611ba257611b8f838551611a72565b9284019260e09290920191600101611b7c565b50909695505050505050565b901515815260200190565b6000602082528251806020840152611bd8816040850160208701611f5c565b601f01601f19169190910160400192915050565b6020808252601b908201527f4f66666572206d75737420626520686967686572207468616e20300000000000604082015260600190565b60208082526029908201527f596f75206d75737420626520746f6b656e206f776e657220746f2064656e79206040820152683a34329037b33332b960b91b606082015260800190565b60208082526027908201527f596f75206d757374206265206f66666572657220746f206368616e6765207468604082015266329037b33332b960c91b606082015260800190565b6020808252601f908201527f4f6e6c79206f776e65722063616e20736574206c697374696e67507269636500604082015260600190565b602080825260149082015273125d195b481a5cc8185b1c9958591e481cdbdb1960621b604082015260600190565b60208082526010908201526f131a5cdd1a5b99c8191a5cd8589b195960821b604082015260600190565b60208082526021908201527f53616c6573204665652063616e7420626520686967686572207468616e2031306040820152602560f81b606082015260800190565b60208082526027908201527f596f75206d757374206265206f66666572657220746f2063616e63656c207468604082015266329037b33332b960c91b606082015260800190565b6020808252602b908201527f596f75206d75737420626520746f6b656e206f776e657220746f20616363657060408201526a3a103a34329037b33332b960a91b606082015260800190565b60208082526010908201526f1a5908191bd95cdb89dd08195e1a5cdd60821b604082015260600190565b6020808252601f908201527f5265656e7472616e637947756172643a207265656e7472616e742063616c6c00604082015260600190565b60e081016105428284611a72565b9586526001600160a01b03948516602087015260408601939093529083166060850152909116608083015260a082015260c00190565b9586526001600160a01b0394851660208701526040860193909352908316606085015260808401521660a082015260c00190565b60008219821115611f0157611f01611fa7565b500190565b600082611f2157634e487b7160e01b81526012600452602481fd5b500490565b6000816000190483118215151615611f4057611f40611fa7565b500290565b600082821015611f5757611f57611fa7565b500390565b60005b83811015611f77578181015183820152602001611f5f565b83811115611f86576000848401525b50505050565b6000600019821415611fa057611fa0611fa7565b5060010190565b634e487b7160e01b600052601160045260246000fd5b6001600160a01b0381168114611fd257600080fd5b5056fea26469706673582212203bfa33f2e045efaa9f54725fe95428e1ac89700a2d63d886badb46b3fd7ffffb64736f6c63430008000033",
  "immutableReferences": {},
  "source": "pragma solidity ^0.8.0;\n\nimport \"@openzeppelin/contracts/utils/Counters.sol\";\nimport \"@openzeppelin/contracts/security/ReentrancyGuard.sol\";\nimport \"@openzeppelin/contracts/token/ERC721/ERC721.sol\";\n\n\ncontract ThetaboardOffer is ReentrancyGuard {\n    using Counters for Counters.Counter;\n    Counters.Counter private _itemIds; // Id for each individual item\n    Counters.Counter private _itemsSold; // Number of items sold\n\n    address payable owner; // The owner of the NFTMarket contract\n    uint256 salesFeeBasisPoints = 25; // % of split for thetaboard\n    bool public listingIsActive = true;\n\n    constructor() {\n        owner = payable(msg.sender);\n    }\n\n    struct OfferItem {\n        uint256 itemId;\n        address nftContract;\n        uint256 tokenId;\n        address payable offerer;\n        address payable offered;\n        uint256 price;\n        bool isSold;\n    }\n\n    struct Creator {\n        address creator;\n        uint256 feeBasisPoints;\n    }\n\n    //    mapping that keeps all items ever placed on the marketplace\n    mapping(uint256 => OfferItem) private idToOfferItem;\n    // mapping to get an item id from \"nftcontract:tokenId:address\"\n    mapping(string => uint256) private contractTokenAddressToId;\n    // mapping to get all item ids from \"nftcontract:tokenId\"\n    mapping(string => uint256[]) private contractTokenToIds;\n\n    // Event called when a new Item is created\n    event OfferCreated(\n        uint256 itemId,\n        address nftContract,\n        uint256 tokenId,\n        address payable offerer,\n        address payable offered,\n        uint256 price\n    );\n\n    // Event called when an Item is sold\n    event OfferAccepted(\n        uint256 itemId,\n        address nftContract,\n        uint256 tokenId,\n        address payable offerer,\n        address payable offered,\n        uint256 price\n    );\n\n    event OfferDenied(\n        uint256 itemId,\n        address nftContract,\n        uint256 tokenId,\n        address payable offerer,\n        address payable offered,\n        uint256 price\n    );\n\n    event OfferCanceled(\n        uint256 itemId,\n        address nftContract,\n        uint256 tokenId,\n        address payable offerer,\n        address payable offered,\n        uint256 price\n    );\n\n    //  Event called TFuel is spit into creator fee, thetaboard fee and payment to seller\n    event FeeSplit(\n        uint256 userPayout,\n        address userAddress,\n        uint256 ownerPayout,\n        address ownerAddress,\n        uint256 creatorPayout,\n        address creatorAddress\n    );\n\n    function getSalesFee() public view returns (uint256) {\n        return salesFeeBasisPoints;\n    }\n\n    function createNewOffer(\n        address nftContract,\n        uint256 tokenId\n    ) public nonReentrant payable {\n        require(listingIsActive == true, \"Listing disabled\");\n        require(msg.value > 0, \"Offer must be higher than 0\");\n        string memory contractToken = string(abi.encodePacked(nftContract, tokenId, msg.sender));\n        require(contractTokenAddressToId[contractToken] < 1, string(abi.encodePacked(contractTokenAddressToId[contractToken])));\n\n\n        _itemIds.increment();\n        uint256 itemId = _itemIds.current();\n\n        idToOfferItem[itemId] = OfferItem(\n            itemId,\n            nftContract,\n            tokenId,\n            payable(msg.sender),\n            payable(address(0)),\n            msg.value,\n            false\n        );\n        string memory contractTokenArr = string(abi.encodePacked(nftContract, tokenId));\n\n        contractTokenAddressToId[contractToken] = itemId;\n        contractTokenToIds[contractTokenArr].push(itemId);\n\n        emit OfferCreated(\n            itemId,\n            nftContract,\n            tokenId,\n            payable(msg.sender),\n            payable(address(0)),\n            msg.value\n        );\n    }\n\n    function changeOffer(uint256 itemId) public nonReentrant payable {\n        require(listingIsActive == true, \"Listing disabled\");\n        require(msg.value > 0, \"Offer must be higher than 0\");\n        // get sell info\n        uint256 price = idToOfferItem[itemId].price;\n        address payable offerer = idToOfferItem[itemId].offerer;\n\n        require(offerer == msg.sender, \"You must be offerer to change the offer\");\n\n\n        idToOfferItem[itemId].price = msg.value;\n        offerer.transfer(price);\n\n        emit OfferCreated(\n            itemId,\n            idToOfferItem[itemId].nftContract,\n            idToOfferItem[itemId].tokenId,\n            offerer,\n            payable(address(0)),\n            msg.value\n        );\n    }\n\n    function acceptOffer(uint256 itemId, address creator, uint256 creatorSplit) public nonReentrant\n    {\n        require(idToOfferItem[itemId].isSold == false, \"Item is already sold\");\n\n        // get sell info\n        uint256 price = idToOfferItem[itemId].price;\n        uint256 tokenId = idToOfferItem[itemId].tokenId;\n        address nftContract = idToOfferItem[itemId].nftContract;\n        address payable offerer = idToOfferItem[itemId].offerer;\n        require(IERC721(nftContract).ownerOf(tokenId) == msg.sender, \"You must be token owner to accept the offer\");\n\n        // transfer token\n        IERC721(nftContract).transferFrom(address(msg.sender), offerer, tokenId);\n\n        // set in OfferItem\n        idToOfferItem[itemId].isSold = true;\n        idToOfferItem[itemId].offered = payable(msg.sender);\n        delete contractTokenAddressToId[string(abi.encodePacked(nftContract, tokenId, offerer))];\n\n        _itemsSold.increment();\n\n        // Calculate Payouts\n        uint256 creatorPayout = 0;\n        uint256 ownerPayout = price / 1000 * salesFeeBasisPoints;\n        uint256 userPayout = 0;\n        if (creator != address(0x0) && creatorSplit > 0 && creatorSplit < 975) {\n            creatorPayout = price / 1000 * creatorSplit;\n            payable(creator).transfer(creatorPayout);\n            userPayout = price - creatorPayout - ownerPayout;\n        } else {\n            userPayout = price - ownerPayout;\n        }\n\n        // Payout to user and thetaboard\n        payable(msg.sender).transfer(userPayout);\n        owner.transfer(ownerPayout);\n\n        emit OfferAccepted(\n            itemId,\n            nftContract,\n            tokenId,\n            offerer,\n            payable(msg.sender),\n            price\n        );\n\n        emit FeeSplit(\n            userPayout,\n            msg.sender,\n            ownerPayout,\n            owner,\n            creatorPayout,\n            creator\n        );\n    }\n\n    function denyOffer(uint256 itemId) public nonReentrant {\n        require(idToOfferItem[itemId].isSold == false, \"Item is already sold\");\n\n        // get sell info\n        uint256 price = idToOfferItem[itemId].price;\n        uint256 tokenId = idToOfferItem[itemId].tokenId;\n        address nftContract = idToOfferItem[itemId].nftContract;\n        address payable offerer = idToOfferItem[itemId].offerer;\n\n        require(IERC721(nftContract).ownerOf(tokenId) == msg.sender, \"You must be token owner to deny the offer\");\n\n        // set in OfferItem\n        idToOfferItem[itemId].isSold = true;\n        offerer.transfer(price);\n        string memory contractToken = string(abi.encodePacked(nftContract, tokenId, offerer));\n        delete contractTokenAddressToId[contractToken];\n        _itemsSold.increment();\n\n        // event\n        emit OfferDenied(\n            itemId,\n            idToOfferItem[itemId].nftContract,\n            idToOfferItem[itemId].tokenId,\n            idToOfferItem[itemId].offerer,\n            payable(msg.sender),\n            price\n        );\n    }\n\n    function cancelOffer(uint256 itemId) public nonReentrant {\n        require(idToOfferItem[itemId].isSold == false, \"Item is already sold\");\n\n        // get sell info\n        uint256 price = idToOfferItem[itemId].price;\n        uint256 tokenId = idToOfferItem[itemId].tokenId;\n        address nftContract = idToOfferItem[itemId].nftContract;\n        address payable offerer = idToOfferItem[itemId].offerer;\n\n        require(offerer == msg.sender || msg.sender == owner, \"You must be offerer to cancel the offer\");\n\n        // set in OfferItem\n        idToOfferItem[itemId].isSold = true;\n        offerer.transfer(price);\n        string memory contractToken = string(abi.encodePacked(nftContract, tokenId, offerer));\n        delete contractTokenAddressToId[contractToken];\n        _itemsSold.increment();\n\n        // event\n        emit OfferCanceled(\n            itemId,\n            idToOfferItem[itemId].nftContract,\n            idToOfferItem[itemId].tokenId,\n            idToOfferItem[itemId].offerer,\n            payable(address(0)),\n            price\n        );\n    }\n\n    function fetchOffers() public view returns (OfferItem[] memory) {\n        uint256 itemCount = _itemIds.current();\n        uint256 unsoldItemCount = _itemIds.current() - _itemsSold.current();\n        uint256 currentIndex = 0;\n\n        OfferItem[] memory OfferItems = new OfferItem[](unsoldItemCount);\n        for (uint256 i = 0; i < itemCount; i++) {\n            if (idToOfferItem[i + 1].isSold == false) {\n                uint256 currentId = idToOfferItem[i + 1].itemId;\n                OfferItem storage currentItem = idToOfferItem[currentId];\n                OfferItems[currentIndex] = currentItem;\n                currentIndex += 1;\n            }\n        }\n        return OfferItems;\n    }\n\n    function fetchOffersByRange(uint start, uint end) public view returns (OfferItem[] memory) {\n        uint256 itemCount = 0;\n        uint256 currentIndex = 0;\n        uint256 totalItemCount = 0;\n\n        for (uint256 i = 0; i < totalItemCount; i++) {\n            if (idToOfferItem[i + 1].isSold == false) {\n                itemCount += 1;\n            }\n        }\n\n        OfferItem[] memory OfferItems = new OfferItem[](itemCount);\n        for (uint256 i = start; i < end; i++) {\n            if (idToOfferItem[i + 1].isSold == false) {\n                uint256 currentId = idToOfferItem[i + 1].itemId;\n                OfferItem storage currentItem = idToOfferItem[currentId];\n                OfferItems[currentIndex] = currentItem;\n                currentIndex += 1;\n            }\n        }\n        return OfferItems;\n    }\n\n    function fetchOffersForAddress(address offerer) public view returns (OfferItem[] memory) {\n        uint256 totalItemCount = _itemIds.current();\n        uint256 itemCount = 0;\n        uint256 currentIndex = 0;\n\n        for (uint256 i = 0; i < totalItemCount; i++) {\n            if (idToOfferItem[i + 1].offerer == offerer) {\n                itemCount += 1;\n            }\n        }\n\n        OfferItem[] memory OfferItems = new OfferItem[](itemCount);\n        for (uint256 i = 0; i < totalItemCount; i++) {\n            if (idToOfferItem[i + 1].offerer == offerer) {\n                uint256 currentId = idToOfferItem[i + 1].itemId;\n                OfferItem storage currentItem = idToOfferItem[currentId];\n                OfferItems[currentIndex] = currentItem;\n                currentIndex += 1;\n            }\n        }\n        return OfferItems;\n    }\n\n    function getByItemId(uint256 id) public view returns (OfferItem memory){\n        require(id <= _itemIds.current(), \"id doesn't exist\");\n        return idToOfferItem[id];\n    }\n\n    function getByNftContractTokenIdAddress(address nftContract, uint256 tokenId, address walletAddress) public view returns (OfferItem memory){\n        string memory contractToken = string(abi.encodePacked(nftContract, tokenId, walletAddress));\n        uint256 id = contractTokenAddressToId[contractToken];\n        require(id <= _itemIds.current(), \"id doesn't exist\");\n        return idToOfferItem[id];\n    }\n\n    function getByNftContractsTokenId(address nftContract, uint256 tokenId) public view returns (OfferItem[] memory){\n        string memory contractToken = string(abi.encodePacked(nftContract, tokenId));\n        uint256[] memory ids = contractTokenToIds[contractToken];\n        uint256 itemCount = 0;\n\n        for (uint256 i = 0; i < ids.length; i++) {\n            uint256 id = ids[i];\n            if (idToOfferItem[id].isSold == false) {\n                itemCount += 1;\n            }\n        }\n        uint256 currentIndex = 0;\n        OfferItem[] memory OfferItems = new OfferItem[](itemCount);\n        for (uint256 i = 0; i < ids.length; i++) {\n            uint256 id = ids[i];\n            if (idToOfferItem[id].isSold == false) {\n                OfferItem storage currentItem = idToOfferItem[id];\n                OfferItems[currentIndex] = currentItem;\n                currentIndex += 1;\n            }\n        }\n        return OfferItems;\n    }\n\n    fallback() payable external {}\n\n    receive() external payable {}\n\n    function setSalesFeeBasisPoints(uint256 fee) external {\n        require(msg.sender == owner, \"Only owner can set listingPrice\");\n        require(fee <= 100, \"Sales Fee cant be higher than 10%\");\n        salesFeeBasisPoints = fee;\n    }\n}",
  "sourcePath": "/Users/maurin.lenglart/IdeaProjects/thetaboard/smart_contracts/contracts/ThetaboardOffer.sol",
  "compiler": {
    "name": "solc",
    "version": "0.8.0+commit.c7dfd78e.Emscripten.clang"
  },
  "schemaVersion": "3.4.7",
  "updatedAt": "2022-08-04T22:03:41.489Z",
  "devdoc": {
    "kind": "dev",
    "methods": {},
    "version": 1
  },
  "userdoc": {
    "kind": "user",
    "methods": {},
    "version": 1
  }
}