{
  "contractName": "ThetaboardDirectSellNft",
  "abi": [
    {
      "anonymous": false,
      "inputs": [
        {
          "indexed": true,
          "internalType": "address",
          "name": "previousOwner",
          "type": "address"
        },
        {
          "indexed": true,
          "internalType": "address",
          "name": "newOwner",
          "type": "address"
        }
      ],
      "name": "OwnershipTransferred",
      "type": "event"
    },
    {
      "inputs": [],
      "name": "owner",
      "outputs": [
        {
          "internalType": "address",
          "name": "",
          "type": "address"
        }
      ],
      "stateMutability": "view",
      "type": "function"
    },
    {
      "inputs": [],
      "name": "renounceOwnership",
      "outputs": [],
      "stateMutability": "nonpayable",
      "type": "function"
    },
    {
      "inputs": [
        {
          "internalType": "address",
          "name": "newOwner",
          "type": "address"
        }
      ],
      "name": "transferOwnership",
      "outputs": [],
      "stateMutability": "nonpayable",
      "type": "function"
    },
    {
      "inputs": [
        {
          "internalType": "address",
          "name": "_nftAddress",
          "type": "address"
        },
        {
          "internalType": "uint256",
          "name": "_nftPrice",
          "type": "uint256"
        },
        {
          "internalType": "uint256",
          "name": "_maxDate",
          "type": "uint256"
        },
        {
          "internalType": "uint256",
          "name": "_maxMint",
          "type": "uint256"
        },
        {
          "internalType": "address",
          "name": "_artistWallet",
          "type": "address"
        },
        {
          "internalType": "uint8",
          "name": "_artistSplit",
          "type": "uint8"
        }
      ],
      "name": "newSell",
      "outputs": [],
      "stateMutability": "nonpayable",
      "type": "function"
    },
    {
      "inputs": [
        {
          "internalType": "address",
          "name": "_nftAddress",
          "type": "address"
        }
      ],
      "name": "purchaseToken",
      "outputs": [],
      "stateMutability": "payable",
      "type": "function"
    },
    {
      "inputs": [
        {
          "internalType": "address",
          "name": "_nftAddress",
          "type": "address"
        },
        {
          "internalType": "uint256",
          "name": "_price",
          "type": "uint256"
        }
      ],
      "name": "setPrice",
      "outputs": [],
      "stateMutability": "nonpayable",
      "type": "function"
    },
    {
      "inputs": [
        {
          "internalType": "address",
          "name": "_nftAddress",
          "type": "address"
        },
        {
          "internalType": "uint256",
          "name": "_maxDate",
          "type": "uint256"
        }
      ],
      "name": "setMaxDate",
      "outputs": [],
      "stateMutability": "nonpayable",
      "type": "function"
    },
    {
      "inputs": [
        {
          "internalType": "address",
          "name": "_nftAddress",
          "type": "address"
        },
        {
          "internalType": "uint256",
          "name": "_maxMint",
          "type": "uint256"
        }
      ],
      "name": "setMaxMint",
      "outputs": [],
      "stateMutability": "nonpayable",
      "type": "function"
    },
    {
      "inputs": [
        {
          "internalType": "address",
          "name": "_nftAddress",
          "type": "address"
        }
      ],
      "name": "getNftSell",
      "outputs": [
        {
          "components": [
            {
              "internalType": "uint256",
              "name": "price",
              "type": "uint256"
            },
            {
              "internalType": "uint256",
              "name": "maxDate",
              "type": "uint256"
            },
            {
              "internalType": "uint256",
              "name": "maxMint",
              "type": "uint256"
            },
            {
              "internalType": "address",
              "name": "artistWallet",
              "type": "address"
            },
            {
              "internalType": "uint8",
              "name": "artistSplit",
              "type": "uint8"
            }
          ],
          "internalType": "struct ThetaboardDirectSellNft.nftSell",
          "name": "",
          "type": "tuple"
        }
      ],
      "stateMutability": "view",
      "type": "function"
    }
  ],
  "bytecode": "0x608060405234801561001057600080fd5b5061002d61002261003260201b60201c565b61003a60201b60201c565b6100fe565b600033905090565b60008060009054906101000a900473ffffffffffffffffffffffffffffffffffffffff169050816000806101000a81548173ffffffffffffffffffffffffffffffffffffffff021916908373ffffffffffffffffffffffffffffffffffffffff1602179055508173ffffffffffffffffffffffffffffffffffffffff168173ffffffffffffffffffffffffffffffffffffffff167f8be0079c531659141344cd1fd0a4f28419497f9722a3daafe3b4186f6b6457e060405160405180910390a35050565b611a738061010d6000396000f3fe6080604052600436106100855760003560e01c8063715018a611610059578063715018a61461014257806373a48167146101595780638da5cb5b14610182578063cd77a0c8146101ad578063f2fde38b146101c957610085565b8062e4768b1461008a5780632168f475146100b35780634951b7bd146100dc5780634b7bf6c314610105575b600080fd5b34801561009657600080fd5b506100b160048036038101906100ac9190611275565b6101f2565b005b3480156100bf57600080fd5b506100da60048036038101906100d59190611275565b61034c565b005b3480156100e857600080fd5b5061010360048036038101906100fe9190611275565b610499565b005b34801561011157600080fd5b5061012c6004803603810190610127919061124c565b610633565b6040516101399190611866565b60405180910390f35b34801561014e57600080fd5b5061015761071d565b005b34801561016557600080fd5b50610180600480360381019061017b91906112b1565b6107a5565b005b34801561018e57600080fd5b50610197610a3c565b6040516101a4919061172b565b60405180910390f35b6101c760048036038101906101c2919061124c565b610a65565b005b3480156101d557600080fd5b506101f060048036038101906101eb919061124c565b610fec565b005b6101fa6110e4565b73ffffffffffffffffffffffffffffffffffffffff16610218610a3c565b73ffffffffffffffffffffffffffffffffffffffff161461026e576040517f08c379a000000000000000000000000000000000000000000000000000000000815260040161026590611806565b60405180910390fd5b6000600160008473ffffffffffffffffffffffffffffffffffffffff1673ffffffffffffffffffffffffffffffffffffffff1681526020019081526020016000206000015414156102f4576040517f08c379a00000000000000000000000000000000000000000000000000000000081526004016102eb90611826565b60405180910390fd5b6000811161030157600080fd5b80600160008473ffffffffffffffffffffffffffffffffffffffff1673ffffffffffffffffffffffffffffffffffffffff168152602001908152602001600020600001819055505050565b6103546110e4565b73ffffffffffffffffffffffffffffffffffffffff16610372610a3c565b73ffffffffffffffffffffffffffffffffffffffff16146103c8576040517f08c379a00000000000000000000000000000000000000000000000000000000081526004016103bf90611806565b60405180910390fd5b6000600160008473ffffffffffffffffffffffffffffffffffffffff1673ffffffffffffffffffffffffffffffffffffffff16815260200190815260200160002060000154141561044e576040517f08c379a000000000000000000000000000000000000000000000000000000000815260040161044590611826565b60405180910390fd5b80600160008473ffffffffffffffffffffffffffffffffffffffff1673ffffffffffffffffffffffffffffffffffffffff168152602001908152602001600020600201819055505050565b6104a16110e4565b73ffffffffffffffffffffffffffffffffffffffff166104bf610a3c565b73ffffffffffffffffffffffffffffffffffffffff1614610515576040517f08c379a000000000000000000000000000000000000000000000000000000000815260040161050c90611806565b60405180910390fd5b6000600160008473ffffffffffffffffffffffffffffffffffffffff1673ffffffffffffffffffffffffffffffffffffffff16815260200190815260200160002060000154141561059b576040517f08c379a000000000000000000000000000000000000000000000000000000000815260040161059290611826565b60405180910390fd5b60008114806105a957504281115b6105e8576040517f08c379a00000000000000000000000000000000000000000000000000000000081526004016105df906117a6565b60405180910390fd5b80600160008473ffffffffffffffffffffffffffffffffffffffff1673ffffffffffffffffffffffffffffffffffffffff168152602001908152602001600020600101819055505050565b61063b6111b0565b600160008373ffffffffffffffffffffffffffffffffffffffff1673ffffffffffffffffffffffffffffffffffffffff1681526020019081526020016000206040518060a00160405290816000820154815260200160018201548152602001600282015481526020016003820160009054906101000a900473ffffffffffffffffffffffffffffffffffffffff1673ffffffffffffffffffffffffffffffffffffffff1673ffffffffffffffffffffffffffffffffffffffff1681526020016003820160149054906101000a900460ff1660ff1660ff16815250509050919050565b6107256110e4565b73ffffffffffffffffffffffffffffffffffffffff16610743610a3c565b73ffffffffffffffffffffffffffffffffffffffff1614610799576040517f08c379a000000000000000000000000000000000000000000000000000000000815260040161079090611806565b60405180910390fd5b6107a360006110ec565b565b600073ffffffffffffffffffffffffffffffffffffffff168673ffffffffffffffffffffffffffffffffffffffff161415801561080e57503073ffffffffffffffffffffffffffffffffffffffff168673ffffffffffffffffffffffffffffffffffffffff1614155b61081757600080fd5b6000600160008873ffffffffffffffffffffffffffffffffffffffff1673ffffffffffffffffffffffffffffffffffffffff168152602001908152602001600020600001541461089c576040517f08c379a000000000000000000000000000000000000000000000000000000000815260040161089390611846565b60405180910390fd5b600085116108df576040517f08c379a00000000000000000000000000000000000000000000000000000000081526004016108d6906117e6565b60405180910390fd5b60008414806108ed57504284115b61092c576040517f08c379a0000000000000000000000000000000000000000000000000000000008152600401610923906117a6565b60405180910390fd5b6040518060a001604052808681526020018581526020018481526020018373ffffffffffffffffffffffffffffffffffffffff1681526020018260ff16815250600160008873ffffffffffffffffffffffffffffffffffffffff1673ffffffffffffffffffffffffffffffffffffffff16815260200190815260200160002060008201518160000155602082015181600101556040820151816002015560608201518160030160006101000a81548173ffffffffffffffffffffffffffffffffffffffff021916908373ffffffffffffffffffffffffffffffffffffffff16021790555060808201518160030160146101000a81548160ff021916908360ff160217905550905050505050505050565b60008060009054906101000a900473ffffffffffffffffffffffffffffffffffffffff16905090565b600073ffffffffffffffffffffffffffffffffffffffff163373ffffffffffffffffffffffffffffffffffffffff1614158015610ace57503073ffffffffffffffffffffffffffffffffffffffff163373ffffffffffffffffffffffffffffffffffffffff1614155b610ad757600080fd5b6000600160008373ffffffffffffffffffffffffffffffffffffffff1673ffffffffffffffffffffffffffffffffffffffff168152602001908152602001600020600001541415610b5d576040517f08c379a0000000000000000000000000000000000000000000000000000000008152600401610b5490611826565b60405180910390fd5b6000600160008373ffffffffffffffffffffffffffffffffffffffff1673ffffffffffffffffffffffffffffffffffffffff168152602001908152602001600020600101541480610bef575042600160008373ffffffffffffffffffffffffffffffffffffffff1673ffffffffffffffffffffffffffffffffffffffff16815260200190815260200160002060010154115b610c2e576040517f08c379a0000000000000000000000000000000000000000000000000000000008152600401610c2590611766565b60405180910390fd5b34600160008373ffffffffffffffffffffffffffffffffffffffff1673ffffffffffffffffffffffffffffffffffffffff168152602001908152602001600020600001541115610cb3576040517f08c379a0000000000000000000000000000000000000000000000000000000008152600401610caa90611786565b60405180910390fd5b60008173ffffffffffffffffffffffffffffffffffffffff166318160ddd6040518163ffffffff1660e01b815260040160206040518083038186803b158015610cfb57600080fd5b505afa158015610d0f573d6000803e3d6000fd5b505050506040513d601f19601f82011682018060405250810190610d33919061133a565b90506000600160008473ffffffffffffffffffffffffffffffffffffffff1673ffffffffffffffffffffffffffffffffffffffff168152602001908152602001600020600201541480610dc75750600160008373ffffffffffffffffffffffffffffffffffffffff1673ffffffffffffffffffffffffffffffffffffffff1681526020019081526020016000206002015481105b610e06576040517f08c379a0000000000000000000000000000000000000000000000000000000008152600401610dfd906117c6565b60405180910390fd5b8173ffffffffffffffffffffffffffffffffffffffff16636a627842336040518263ffffffff1660e01b8152600401610e3f919061172b565b600060405180830381600087803b158015610e5957600080fd5b505af1158015610e6d573d6000803e3d6000fd5b505050506000600160008473ffffffffffffffffffffffffffffffffffffffff1673ffffffffffffffffffffffffffffffffffffffff16815260200190815260200160002060030160149054906101000a900460ff1660ff16606434610ed39190611892565b610edd91906118c3565b905060008134610eed919061191d565b9050600160008573ffffffffffffffffffffffffffffffffffffffff1673ffffffffffffffffffffffffffffffffffffffff16815260200190815260200160002060030160009054906101000a900473ffffffffffffffffffffffffffffffffffffffff1673ffffffffffffffffffffffffffffffffffffffff166108fc839081150290604051600060405180830381858888f19350505050158015610f97573d6000803e3d6000fd5b50610fa0610a3c565b73ffffffffffffffffffffffffffffffffffffffff166108fc829081150290604051600060405180830381858888f19350505050158015610fe5573d6000803e3d6000fd5b5050505050565b610ff46110e4565b73ffffffffffffffffffffffffffffffffffffffff16611012610a3c565b73ffffffffffffffffffffffffffffffffffffffff1614611068576040517f08c379a000000000000000000000000000000000000000000000000000000000815260040161105f90611806565b60405180910390fd5b600073ffffffffffffffffffffffffffffffffffffffff168173ffffffffffffffffffffffffffffffffffffffff1614156110d8576040517f08c379a00000000000000000000000000000000000000000000000000000000081526004016110cf90611746565b60405180910390fd5b6110e1816110ec565b50565b600033905090565b60008060009054906101000a900473ffffffffffffffffffffffffffffffffffffffff169050816000806101000a81548173ffffffffffffffffffffffffffffffffffffffff021916908373ffffffffffffffffffffffffffffffffffffffff1602179055508173ffffffffffffffffffffffffffffffffffffffff168173ffffffffffffffffffffffffffffffffffffffff167f8be0079c531659141344cd1fd0a4f28419497f9722a3daafe3b4186f6b6457e060405160405180910390a35050565b6040518060a00160405280600081526020016000815260200160008152602001600073ffffffffffffffffffffffffffffffffffffffff168152602001600060ff1681525090565b600081359050611207816119f8565b92915050565b60008135905061121c81611a0f565b92915050565b60008151905061123181611a0f565b92915050565b60008135905061124681611a26565b92915050565b60006020828403121561125e57600080fd5b600061126c848285016111f8565b91505092915050565b6000806040838503121561128857600080fd5b6000611296858286016111f8565b92505060206112a78582860161120d565b9150509250929050565b60008060008060008060c087890312156112ca57600080fd5b60006112d889828a016111f8565b96505060206112e989828a0161120d565b95505060406112fa89828a0161120d565b945050606061130b89828a0161120d565b935050608061131c89828a016111f8565b92505060a061132d89828a01611237565b9150509295509295509295565b60006020828403121561134c57600080fd5b600061135a84828501611222565b91505092915050565b61136c81611951565b82525050565b61137b81611951565b82525050565b600061138e602683611881565b91507f4f776e61626c653a206e6577206f776e657220697320746865207a65726f206160008301527f64647265737300000000000000000000000000000000000000000000000000006020830152604082019050919050565b60006113f4602283611881565b91507f43616e277420627579206166746572206d61782064617465206973207061737360008301527f65640000000000000000000000000000000000000000000000000000000000006020830152604082019050919050565b600061145a602683611881565b91507f4e65656420746f2073656e64206174206c65617374207468652070726963652060008301527f6f66204e465400000000000000000000000000000000000000000000000000006020830152604082019050919050565b60006114c0602e83611881565b91507f69662064617465206973207061737365642c206974206d75737420686967686560008301527f72207468616e2063757272656e740000000000000000000000000000000000006020830152604082019050919050565b6000611526601583611881565b91507f4e6f206d6f7265204e465420617661696c61626c6500000000000000000000006000830152602082019050919050565b6000611566601383611881565b91507f41207072696365206973207265717569726564000000000000000000000000006000830152602082019050919050565b60006115a6602083611881565b91507f4f776e61626c653a2063616c6c6572206973206e6f7420746865206f776e65726000830152602082019050919050565b60006115e6602583611881565b91507f4120636f6e74726163742073686f756c642065786973747320666f722074686960008301527f73206e66740000000000000000000000000000000000000000000000000000006020830152604082019050919050565b600061164c602483611881565b91507f636f6e747261637420616c72656164792065786973747320666f72207468697360008301527f206e6674000000000000000000000000000000000000000000000000000000006020830152604082019050919050565b60a0820160008201516116bb600085018261170d565b5060208201516116ce602085018261170d565b5060408201516116e1604085018261170d565b5060608201516116f46060850182611363565b506080820151611707608085018261171c565b50505050565b61171681611983565b82525050565b6117258161198d565b82525050565b60006020820190506117406000830184611372565b92915050565b6000602082019050818103600083015261175f81611381565b9050919050565b6000602082019050818103600083015261177f816113e7565b9050919050565b6000602082019050818103600083015261179f8161144d565b9050919050565b600060208201905081810360008301526117bf816114b3565b9050919050565b600060208201905081810360008301526117df81611519565b9050919050565b600060208201905081810360008301526117ff81611559565b9050919050565b6000602082019050818103600083015261181f81611599565b9050919050565b6000602082019050818103600083015261183f816115d9565b9050919050565b6000602082019050818103600083015261185f8161163f565b9050919050565b600060a08201905061187b60008301846116a5565b92915050565b600082825260208201905092915050565b600061189d82611983565b91506118a883611983565b9250826118b8576118b76119c9565b5b828204905092915050565b60006118ce82611983565b91506118d983611983565b9250817fffffffffffffffffffffffffffffffffffffffffffffffffffffffffffffffff04831182151516156119125761191161199a565b5b828202905092915050565b600061192882611983565b915061193383611983565b9250828210156119465761194561199a565b5b828203905092915050565b600061195c82611963565b9050919050565b600073ffffffffffffffffffffffffffffffffffffffff82169050919050565b6000819050919050565b600060ff82169050919050565b7f4e487b7100000000000000000000000000000000000000000000000000000000600052601160045260246000fd5b7f4e487b7100000000000000000000000000000000000000000000000000000000600052601260045260246000fd5b611a0181611951565b8114611a0c57600080fd5b50565b611a1881611983565b8114611a2357600080fd5b50565b611a2f8161198d565b8114611a3a57600080fd5b5056fea26469706673582212207e5b30d2ecee9fe31ecd75c6ba513519eacb881e419fc3539e6854a3d598b13a64736f6c63430008000033",
  "immutableReferences": {},
  "source": "pragma solidity ^0.8.0;\n\nimport \"./ThetaboardNFT.sol\";\nimport \"@openzeppelin/contracts/access/Ownable.sol\";\n\n/**\n * @title nft_sell\n * sell NFT for thetaboard.io\n */\ncontract ThetaboardDirectSellNft is Ownable {\n\n    struct nftSell {\n        uint256 price;\n        uint256 maxDate;\n        uint256 maxMint;\n        address artistWallet;\n        uint8 artistSplit;\n    }\n\n    mapping(address => nftSell) NFTsSell;\n\n    /**\n    * @dev enable a new NFT to be minted from this contract\n    * @dev _nftAddress and _nftPrice are required\n    * _maxDate and _maxMint are optionals ( can be passed ar 0 to be ignored)\n    * _artistSplit percentage of the sells will be send to _artistWallet\n    */\n    function newSell(address _nftAddress, uint256 _nftPrice, uint256 _maxDate, uint256 _maxMint, address _artistWallet, uint8 _artistSplit) public {\n        require(_nftAddress != address(0) && _nftAddress != address(this));\n        require(NFTsSell[_nftAddress].price == 0, \"contract already exists for this nft\");\n        require(_nftPrice > 0, \"A price is required\");\n        require(_maxDate == 0 || _maxDate > block.timestamp, \"if date is passed, it must higher than current\");\n        NFTsSell[_nftAddress] = nftSell({\n        price : _nftPrice,\n        maxDate : _maxDate,\n        maxMint : _maxMint,\n        artistWallet : _artistWallet,\n        artistSplit : _artistSplit\n        });\n    }\n\n    /**\n    * @dev purchase a newly minted token from _nftAddress\n    * Purchase a token\n    */\n    function purchaseToken(address _nftAddress) public payable {\n        require(msg.sender != address(0) && msg.sender != address(this));\n        require(NFTsSell[_nftAddress].price != 0, \"A contract should exists for this nft\");\n        require(NFTsSell[_nftAddress].maxDate == 0 || NFTsSell[_nftAddress].maxDate > block.timestamp, \"Can't buy after max date is passed\");\n        require(NFTsSell[_nftAddress].price <= msg.value, \"Need to send at least the price of NFT\");\n        uint currentSupply = ThetaboardNFT(_nftAddress).totalSupply();\n        require(NFTsSell[_nftAddress].maxMint == 0 || currentSupply < NFTsSell[_nftAddress].maxMint, \"No more NFT available\");\n        ThetaboardNFT(_nftAddress).mint(msg.sender);\n\n        uint artistValue = msg.value / 100 * NFTsSell[_nftAddress].artistSplit;\n        uint ownerValue = msg.value - artistValue;\n\n        payable(NFTsSell[_nftAddress].artistWallet).transfer(artistValue);\n        payable(owner()).transfer(ownerValue);\n    }\n\n    /**\n    * @dev Updates _price for _nftAddress\n    * @dev Throws if _price is zero\n    */\n    function setPrice(address _nftAddress, uint256 _price) public onlyOwner {\n        require(NFTsSell[_nftAddress].price != 0, \"A contract should exists for this nft\");\n        require(_price > 0);\n        NFTsSell[_nftAddress].price = _price;\n    }\n\n    /**\n    * @dev Updates maxDate for _nftAddress\n    * @dev Throws if date is in the past\n    */\n    function setMaxDate(address _nftAddress, uint256 _maxDate) public onlyOwner {\n        require(NFTsSell[_nftAddress].price != 0, \"A contract should exists for this nft\");\n        require(_maxDate == 0 || _maxDate > block.timestamp, \"if date is passed, it must higher than current\");\n        NFTsSell[_nftAddress].maxDate = _maxDate;\n    }\n\n    /**\n    * @dev Updates maxMint for _nftAddress\n    */\n    function setMaxMint(address _nftAddress, uint256 _maxMint) public onlyOwner {\n        require(NFTsSell[_nftAddress].price != 0, \"A contract should exists for this nft\");\n        NFTsSell[_nftAddress].maxMint = _maxMint;\n    }\n\n    /**\n    * Get info about currently sold contract\n    */\n    function getNftSell(address _nftAddress) public view returns (nftSell memory) {\n        return NFTsSell[_nftAddress];\n    }\n\n}",
  "sourcePath": "/Users/maurin.lenglart/IdeaProjects/thetaboard/smart_contracts/contracts/ThetaboardDirectSellNft.sol",
  "compiler": {
    "name": "solc",
    "version": "0.8.0+commit.c7dfd78e.Emscripten.clang"
  },
  "schemaVersion": "3.4.3",
  "updatedAt": "2022-01-14T00:37:13.490Z",
  "devdoc": {
    "kind": "dev",
    "methods": {
      "newSell(address,uint256,uint256,uint256,address,uint8)": {
        "details": "enable a new NFT to be minted from this contract_nftAddress and _nftPrice are required _maxDate and _maxMint are optionals ( can be passed ar 0 to be ignored) _artistSplit percentage of the sells will be send to _artistWallet"
      },
      "owner()": {
        "details": "Returns the address of the current owner."
      },
      "purchaseToken(address)": {
        "details": "purchase a newly minted token from _nftAddress Purchase a token"
      },
      "renounceOwnership()": {
        "details": "Leaves the contract without owner. It will not be possible to call `onlyOwner` functions anymore. Can only be called by the current owner. NOTE: Renouncing ownership will leave the contract without an owner, thereby removing any functionality that is only available to the owner."
      },
      "setMaxDate(address,uint256)": {
        "details": "Updates maxDate for _nftAddressThrows if date is in the past"
      },
      "setMaxMint(address,uint256)": {
        "details": "Updates maxMint for _nftAddress"
      },
      "setPrice(address,uint256)": {
        "details": "Updates _price for _nftAddressThrows if _price is zero"
      },
      "transferOwnership(address)": {
        "details": "Transfers ownership of the contract to a new account (`newOwner`). Can only be called by the current owner."
      }
    },
    "title": "nft_sell sell NFT for thetaboard.io",
    "version": 1
  },
  "userdoc": {
    "kind": "user",
    "methods": {
      "getNftSell(address)": {
        "notice": "Get info about currently sold contract"
      }
    },
    "version": 1
  }
}