{
  "contractName": "ThetaboardAuctionSellNft",
  "abi": [
    {
      "anonymous": false,
      "inputs": [
        {
          "indexed": true,
          "internalType": "address",
          "name": "previousOwner",
          "type": "address"
        },
        {
          "indexed": true,
          "internalType": "address",
          "name": "newOwner",
          "type": "address"
        }
      ],
      "name": "OwnershipTransferred",
      "type": "event"
    },
    {
      "inputs": [],
      "name": "owner",
      "outputs": [
        {
          "internalType": "address",
          "name": "",
          "type": "address"
        }
      ],
      "stateMutability": "view",
      "type": "function",
      "constant": true
    },
    {
      "inputs": [],
      "name": "renounceOwnership",
      "outputs": [],
      "stateMutability": "nonpayable",
      "type": "function"
    },
    {
      "inputs": [
        {
          "internalType": "address",
          "name": "newOwner",
          "type": "address"
        }
      ],
      "name": "transferOwnership",
      "outputs": [],
      "stateMutability": "nonpayable",
      "type": "function"
    },
    {
      "inputs": [
        {
          "internalType": "address",
          "name": "_nftAddress",
          "type": "address"
        },
        {
          "internalType": "uint256",
          "name": "_minBid",
          "type": "uint256"
        },
        {
          "internalType": "uint256",
          "name": "_maxDate",
          "type": "uint256"
        },
        {
          "internalType": "uint256",
          "name": "_maxMint",
          "type": "uint256"
        },
        {
          "internalType": "address",
          "name": "_artistWallet",
          "type": "address"
        },
        {
          "internalType": "uint8",
          "name": "_artistSplit",
          "type": "uint8"
        }
      ],
      "name": "newAuction",
      "outputs": [],
      "stateMutability": "nonpayable",
      "type": "function"
    },
    {
      "inputs": [
        {
          "internalType": "address",
          "name": "_nftAddress",
          "type": "address"
        }
      ],
      "name": "placeBid",
      "outputs": [],
      "stateMutability": "payable",
      "type": "function",
      "payable": true
    },
    {
      "inputs": [
        {
          "internalType": "address",
          "name": "_nftAddress",
          "type": "address"
        },
        {
          "internalType": "uint256[]",
          "name": "orderToMint",
          "type": "uint256[]"
        }
      ],
      "name": "concludeAuction",
      "outputs": [],
      "stateMutability": "nonpayable",
      "type": "function"
    },
    {
      "inputs": [
        {
          "internalType": "address",
          "name": "_nftAddress",
          "type": "address"
        },
        {
          "internalType": "uint256",
          "name": "_minBid",
          "type": "uint256"
        }
      ],
      "name": "setPrice",
      "outputs": [],
      "stateMutability": "nonpayable",
      "type": "function"
    },
    {
      "inputs": [
        {
          "internalType": "address",
          "name": "_nftAddress",
          "type": "address"
        },
        {
          "internalType": "uint256",
          "name": "_maxDate",
          "type": "uint256"
        }
      ],
      "name": "setMaxDate",
      "outputs": [],
      "stateMutability": "nonpayable",
      "type": "function"
    },
    {
      "inputs": [
        {
          "internalType": "address",
          "name": "_nftAddress",
          "type": "address"
        }
      ],
      "name": "getNftAuction",
      "outputs": [
        {
          "components": [
            {
              "internalType": "uint256",
              "name": "maxDate",
              "type": "uint256"
            },
            {
              "internalType": "uint256",
              "name": "maxMint",
              "type": "uint256"
            },
            {
              "internalType": "uint256",
              "name": "countBidMade",
              "type": "uint256"
            },
            {
              "internalType": "uint256",
              "name": "minBid",
              "type": "uint256"
            },
            {
              "internalType": "address",
              "name": "artistWallet",
              "type": "address"
            },
            {
              "internalType": "uint8",
              "name": "artistSplit",
              "type": "uint8"
            },
            {
              "internalType": "address[]",
              "name": "bidders",
              "type": "address[]"
            },
            {
              "internalType": "uint256[]",
              "name": "bidsValue",
              "type": "uint256[]"
            },
            {
              "internalType": "bool",
              "name": "concluded",
              "type": "bool"
            },
            {
              "internalType": "address",
              "name": "auctionOwner",
              "type": "address"
            }
          ],
          "internalType": "struct ThetaboardAuctionSellNft.nftAuction",
          "name": "",
          "type": "tuple"
        }
      ],
      "stateMutability": "view",
      "type": "function",
      "constant": true
    }
  ],
  "bytecode": "0x608060405234801561001057600080fd5b5061002161001c610026565b61002a565b61007a565b3390565b600080546001600160a01b038381166001600160a01b0319831681178455604051919092169283917f8be0079c531659141344cd1fd0a4f28419497f9722a3daafe3b4186f6b6457e09190a35050565b611b3d806100896000396000f3fe6080604052600436106100855760003560e01c8063a1c552bc11610059578063a1c552bc1461010c578063d516e8191461012c578063e494015714610159578063f2fde38b1461016c578063fe7c4f3e1461018c57610085565b8062e4768b1461008a5780634951b7bd146100ac578063715018a6146100cc5780638da5cb5b146100e1575b600080fd5b34801561009657600080fd5b506100aa6100a53660046113e6565b6101ac565b005b3480156100b857600080fd5b506100aa6100c73660046113e6565b610291565b3480156100d857600080fd5b506100aa61034c565b3480156100ed57600080fd5b506100f6610397565b6040516101039190611502565b60405180910390f35b34801561011857600080fd5b506100aa610127366004611319565b6103a6565b34801561013857600080fd5b5061014c6101473660046112f8565b610830565b604051610103919061187f565b6100aa6101673660046112f8565b610980565b34801561017857600080fd5b506100aa6101873660046112f8565b610ed2565b34801561019857600080fd5b506100aa6101a736600461140f565b610f43565b6101b461116e565b6001600160a01b03166101c5610397565b6001600160a01b0316146101f45760405162461bcd60e51b81526004016101eb90611764565b60405180910390fd5b6001600160a01b03821660009081526001602052604090206003015461022c5760405162461bcd60e51b81526004016101eb90611799565b6000811161023957600080fd5b6001600160a01b038216600090815260016020526040902060050154156102725760405162461bcd60e51b81526004016101eb9061155c565b6001600160a01b03909116600090815260016020526040902060030155565b61029961116e565b6001600160a01b03166102aa610397565b6001600160a01b0316146102d05760405162461bcd60e51b81526004016101eb90611764565b6001600160a01b0382166000908152600160205260409020600301546103085760405162461bcd60e51b81526004016101eb90611799565b80158061031457504281115b6103305760405162461bcd60e51b81526004016101eb90611613565b6001600160a01b03909116600090815260016020526040902055565b61035461116e565b6001600160a01b0316610365610397565b6001600160a01b03161461038b5760405162461bcd60e51b81526004016101eb90611764565b6103956000611172565b565b6000546001600160a01b031690565b6001600160a01b0382166000908152600160205260409020600301546103de5760405162461bcd60e51b81526004016101eb90611799565b6001600160a01b03821660009081526001602052604090206007015460ff161561041a5760405162461bcd60e51b81526004016101eb906115a7565b6001600160a01b038216600090815260016020526040902054158061045757506001600160a01b0382166000908152600160205260409020544210155b6104735760405162461bcd60e51b81526004016101eb906116d0565b3361047c610397565b6001600160a01b031614806104b257506001600160a01b0382811660009081526001602052604090206007015461010090041633145b6104ce5760405162461bcd60e51b81526004016101eb90611822565b80516001600160a01b038316600090815260016020526040902060050154146104f657600080fd5b6000805b82518110156105555782818151811061052357634e487b7160e01b600052603260045260246000fd5b6020026020010151600261053791906119bc565b610541908361193e565b91508061054d81611ac0565b9150506104fa565b5060018251600261056691906119bc565b6105709190611aa9565b811461058e5760405162461bcd60e51b81526004016101eb90611707565b6000805b6001600160a01b038516600090815260016020526040902060050154811015610725576001600160a01b038516600090815260016020526040812085516005909101908690849081106105f557634e487b7160e01b600052603260045260246000fd5b60200260200101518154811061061b57634e487b7160e01b600052603260045260246000fd5b6000918252602090912001546040516335313c2160e11b81526001600160a01b03918216925090871690636a62784290610659908490600401611502565b600060405180830381600087803b15801561067357600080fd5b505af1158015610687573d6000803e3d6000fd5b5050505060016000876001600160a01b03166001600160a01b031681526020019081526020016000206006018583815181106106d357634e487b7160e01b600052603260045260246000fd5b6020026020010151815481106106f957634e487b7160e01b600052603260045260246000fd5b90600052602060002001548361070f919061193e565b925050808061071d90611ac0565b915050610592565b506001600160a01b038416600090815260016020526040812060040154600160a01b900460ff16610757606484611956565b6107619190611a8a565b9050600061076f8284611aa9565b6001600160a01b038088166000908152600160205260408082206004015490519394509091169184156108fc0291859190818181858888f193505050501580156107bd573d6000803e3d6000fd5b506107c6610397565b6001600160a01b03166108fc829081150290604051600060405180830381858888f193505050501580156107fe573d6000803e3d6000fd5b5050506001600160a01b039093166000908152600160208190526040909120600701805460ff19169091179055505050565b6108386111c2565b6001600160a01b038281166000908152600160208181526040928390208351610140810185528154815292810154838301526002810154838501526003810154606084015260048101549485166080840152600160a01b90940460ff1660a083015260058401805484518184028101840190955280855292949360c086019390928301828280156108f257602002820191906000526020600020905b81546001600160a01b031681526001909101906020018083116108d4575b505050505081526020016006820180548060200260200160405190810160405280929190818152602001828054801561094a57602002820191906000526020600020905b815481526020019060010190808311610936575b50505091835250506007919091015460ff81161515602083015261010090046001600160a01b031660409091015290505b919050565b6001600160a01b038116158015906109a157506001600160a01b0381163014155b6109aa57600080fd5b6001600160a01b0381166000908152600160205260409020600301546109e25760405162461bcd60e51b81526004016101eb90611799565b6001600160a01b0381166000908152600160205260409020600301543411610a1c5760405162461bcd60e51b81526004016101eb906115de565b6001600160a01b03811660009081526001602052604090206007015460ff1615610a585760405162461bcd60e51b81526004016101eb906115a7565b6001600160a01b0381166000908152600160205260409020541580610a9457506001600160a01b03811660009081526001602052604090205442105b610ab05760405162461bcd60e51b81526004016101eb90611661565b6001600160a01b038116600090815260016020819052604090912090810154600590910154349133911015610c2e576001600160a01b038381166000818152600160208181526040832060058101805480850182558186528386200180546001600160a01b03191697891697909717909655600681018054808501825590855291842090910187905592909152015490541415610c295760001960005b6001600160a01b038516600090815260016020526040902060060154811015610c0b576001600160a01b0385166000908152600160205260408120600601805483908110610bab57634e487b7160e01b600052603260045260246000fd5b9060005260206000200154905060016000876001600160a01b03166001600160a01b03168152602001908152602001600020600301548114158015610bef57508281105b15610bf8578092505b5080610c0381611ac0565b915050610b4d565b506001600160a01b0384166000908152600160205260409020600301555b610e9a565b6000196000805b6001600160a01b038616600090815260016020526040902060060154811015610d1a576001600160a01b0386166000908152600160205260408120600601805483908110610c9357634e487b7160e01b600052603260045260246000fd5b9060005260206000200154905060016000886001600160a01b03166001600160a01b0316815260200190815260200160002060030154811415610cd4578192505b6001600160a01b0387166000908152600160205260409020600301548114801590610cfe57508381105b15610d07578093505b5080610d1281611ac0565b915050610c35565b5081841015610d27578391505b6001600160a01b038516600090815260016020526040902060038101839055600501805482908110610d6957634e487b7160e01b600052603260045260246000fd5b60009182526020808320909101546001600160a01b03888116845260019092526040909220600601805491909216916108fc9184908110610dba57634e487b7160e01b600052603260045260246000fd5b90600052602060002001549081150290604051600060405180830381858888f19350505050158015610df0573d6000803e3d6000fd5b506001600160a01b0385166000908152600160205260409020600501805484919083908110610e2f57634e487b7160e01b600052603260045260246000fd5b600091825260208083209190910180546001600160a01b0319166001600160a01b039485161790559187168152600190915260409020600601805485919083908110610e8b57634e487b7160e01b600052603260045260246000fd5b60009182526020909120015550505b6001600160a01b03831660009081526001602081905260408220600201805491929091610ec890849061193e565b9091555050505050565b610eda61116e565b6001600160a01b0316610eeb610397565b6001600160a01b031614610f115760405162461bcd60e51b81526004016101eb90611764565b6001600160a01b038116610f375760405162461bcd60e51b81526004016101eb90611516565b610f4081611172565b50565b6001600160a01b03861615801590610f6457506001600160a01b0386163014155b610f6d57600080fd5b6001600160a01b03861660009081526001602052604090206003015415610fa65760405162461bcd60e51b81526004016101eb906117de565b60008511610fc65760405162461bcd60e51b81526004016101eb906116a3565b831580610fd257504284115b610fee5760405162461bcd60e51b81526004016101eb90611613565b60608060405180610140016040528087815260200186815260200160008152602001888152602001856001600160a01b031681526020018460ff168152602001838152602001828152602001600015158152602001336001600160a01b0316815250600160008a6001600160a01b03166001600160a01b031681526020019081526020016000206000820151816000015560208201518160010155604082015181600201556060820151816003015560808201518160040160006101000a8154816001600160a01b0302191690836001600160a01b0316021790555060a08201518160040160146101000a81548160ff021916908360ff16021790555060c082015181600501908051906020019061110792919061122c565b5060e08201518051611123916006840191602090910190611291565b506101008281015160079290920180546101209094015160ff1990941692151592909217610100600160a81b0319166001600160a01b03909316029190911790555050505050505050565b3390565b600080546001600160a01b038381166001600160a01b0319831681178455604051919092169283917f8be0079c531659141344cd1fd0a4f28419497f9722a3daafe3b4186f6b6457e09190a35050565b6040518061014001604052806000815260200160008152602001600081526020016000815260200160006001600160a01b03168152602001600060ff168152602001606081526020016060815260200160001515815260200160006001600160a01b031681525090565b828054828255906000526020600020908101928215611281579160200282015b8281111561128157825182546001600160a01b0319166001600160a01b0390911617825560209092019160019091019061124c565b5061128d9291506112cc565b5090565b828054828255906000526020600020908101928215611281579160200282015b828111156112815782518255916020019190600101906112b1565b5b8082111561128d57600081556001016112cd565b80356001600160a01b038116811461097b57600080fd5b600060208284031215611309578081fd5b611312826112e1565b9392505050565b6000806040838503121561132b578081fd5b611334836112e1565b915060208084013567ffffffffffffffff80821115611351578384fd5b818601915086601f830112611364578384fd5b81358181111561137657611376611af1565b8381026040518582820101818110858211171561139557611395611af1565b604052828152858101935084860182860187018b10156113b3578788fd5b8795505b838610156113d55780358552600195909501949386019386016113b7565b508096505050505050509250929050565b600080604083850312156113f8578182fd5b611401836112e1565b946020939093013593505050565b60008060008060008060c08789031215611427578182fd5b611430876112e1565b9550602087013594506040870135935060608701359250611453608088016112e1565b915060a087013560ff81168114611468578182fd5b809150509295509295509295565b6001600160a01b03169052565b6000815180845260208085019450808401835b838110156114bb5781516001600160a01b031687529582019590820190600101611496565b509495945050505050565b6000815180845260208085019450808401835b838110156114bb578151875295820195908201906001016114d9565b15159052565b60ff169052565b6001600160a01b0391909116815260200190565b60208082526026908201527f4f776e61626c653a206e6577206f776e657220697320746865207a65726f206160408201526564647265737360d01b606082015260800190565b6020808252602b908201527f43616e2774206368616e6765207072696365206166746572206669727374206260408201526a696420776173206d61646560a81b606082015260800190565b6020808252601e908201527f41756374696f6e2073686f756c646e277420626520636f6e636c756465640000604082015260600190565b6020808252818101527f4269642073686f756c6420626520686967686572207468616e206d696e426964604082015260600190565b6020808252602e908201527f69662064617465206973207061737365642c206974206d75737420686967686560408201526d1c881d1a185b8818dd5c9c995b9d60921b606082015260800190565b60208082526022908201527f43616e277420626964206166746572206d617820646174652069732070617373604082015261195960f21b606082015260800190565b60208082526013908201527210481c1c9a58d9481a5cc81c995c5d5a5c9959606a1b604082015260600190565b6020808252601d908201527f43616e277420636f6e636c756465206265666f7265206d617844617465000000604082015260600190565b60208082526038908201527f6f72646572546f4d696e742073686f756c64206861766520616c6c206e756d6260408201527f6572206f6e63652066726f6d203020746f206c656e6774680000000000000000606082015260800190565b6020808252818101527f4f776e61626c653a2063616c6c6572206973206e6f7420746865206f776e6572604082015260600190565b60208082526025908201527f4120636f6e74726163742073686f756c642065786973747320666f72207468696040820152641cc81b999d60da1b606082015260800190565b60208082526024908201527f636f6e747261637420616c72656164792065786973747320666f722074686973604082015263081b999d60e21b606082015260800190565b60208082526039908201527f4f6e6c7920636f6e7472616374206f776e6572206f722061756374696f6e206f60408201527f776e65722063616e20636f6e636c7564652061756374696f6e00000000000000606082015260800190565b6000602082528251602083015260208301516040830152604083015160608301526060830151608083015260808301516118bc60a0840182611476565b5060a08301516118cf60c08401826114fb565b5060c08301516101408060e08501526118ec610160850183611483565b915060e0850151610100601f19868503018187015261190b84836114c6565b935080870151915050610120611923818701836114f5565b860151905061193485830182611476565b5090949350505050565b6000821982111561195157611951611adb565b500190565b60008261197157634e487b7160e01b81526012600452602481fd5b500490565b80825b600180861161198857506119b3565b81870482111561199a5761199a611adb565b808616156119a757918102915b9490941c938002611979565b94509492505050565b600061131260001984846000826119d557506001611312565b816119e257506000611312565b81600181146119f85760028114611a0257611a2f565b6001915050611312565b60ff841115611a1357611a13611adb565b6001841b915084821115611a2957611a29611adb565b50611312565b5060208310610133831016604e8410600b8410161715611a62575081810a83811115611a5d57611a5d611adb565b611312565b611a6f8484846001611976565b808604821115611a8157611a81611adb565b02949350505050565b6000816000190483118215151615611aa457611aa4611adb565b500290565b600082821015611abb57611abb611adb565b500390565b6000600019821415611ad457611ad4611adb565b5060010190565b634e487b7160e01b600052601160045260246000fd5b634e487b7160e01b600052604160045260246000fdfea2646970667358221220a44fcfc92ab8489d9bcb2897f7433ea0d4eb5a8f09ef0bed3829bb3c8c21dac064736f6c63430008000033",
  "immutableReferences": {},
  "source": "pragma solidity ^0.8.0;\n\nimport \"./ThetaboardNFT.sol\";\nimport \"@openzeppelin/contracts/access/Ownable.sol\";\n\n/**\n * @title nft_sell\n * Auction NFT for thetaboard.io\n */\ncontract ThetaboardAuctionSellNft is Ownable {\n\n    struct nftAuction {\n        uint256 maxDate;\n        uint256 maxMint;\n\n        uint256 countBidMade;\n        uint256 minBid;\n\n        address artistWallet;\n        uint8 artistSplit;\n\n        address[] bidders;\n        uint256[] bidsValue;\n\n        bool concluded;\n        address auctionOwner;\n    }\n\n    mapping(address => nftAuction) NFTsAuction;\n\n\n    // Following variables are used for sorting\n    struct bidStruct {\n        address bidder;\n        uint256 bidValue;\n    }\n\n    mapping(uint => uint) helper;\n\n\n    function newAuction(address _nftAddress, uint256 _minBid, uint256 _maxDate, uint256 _maxMint, address _artistWallet, uint8 _artistSplit) public {\n        require(_nftAddress != address(0) && _nftAddress != address(this));\n        require(NFTsAuction[_nftAddress].minBid == 0, \"contract already exists for this nft\");\n        require(_minBid > 0, \"A price is required\");\n        require(_maxDate == 0 || _maxDate > block.timestamp, \"if date is passed, it must higher than current\");\n\n        address[] memory bidders;\n        uint256[] memory bidsValue;\n\n        NFTsAuction[_nftAddress] = nftAuction({\n        maxDate : _maxDate,\n        maxMint : _maxMint,\n        countBidMade : 0,\n        minBid : _minBid,\n        artistWallet : _artistWallet,\n        artistSplit : _artistSplit,\n        bidders : bidders,\n        bidsValue : bidsValue,\n        concluded : false,\n        auctionOwner : msg.sender\n        });\n    }\n\n    /**\n    * @dev Add a new pid for an NFT\n    * @dev Throws if contract does not exists or if the bid is not higher than minBid\n    */\n    function placeBid(address _nftAddress) public payable {\n        require(_nftAddress != address(0) && _nftAddress != address(this));\n        require(NFTsAuction[_nftAddress].minBid != 0, \"A contract should exists for this nft\");\n        require(msg.value > NFTsAuction[_nftAddress].minBid, \"Bid should be higher than minBid\");\n        require(!NFTsAuction[_nftAddress].concluded, \"Auction shouldn't be concluded\");\n        require(NFTsAuction[_nftAddress].maxDate == 0 || NFTsAuction[_nftAddress].maxDate > block.timestamp,\n            \"Can't bid after max date is passed\");\n        uint256 _bid = msg.value;\n        address _bidder = msg.sender;\n        if (NFTsAuction[_nftAddress].bidders.length < NFTsAuction[_nftAddress].maxMint) {\n            NFTsAuction[_nftAddress].bidders.push(_bidder);\n            NFTsAuction[_nftAddress].bidsValue.push(_bid);\n            if (NFTsAuction[_nftAddress].bidders.length == NFTsAuction[_nftAddress].maxMint) {\n                // get new min\n                uint256 newMin = type(uint256).max;\n\n                for (uint i = 0; i < NFTsAuction[_nftAddress].bidsValue.length; i++) {\n                    uint256 currentBid = NFTsAuction[_nftAddress].bidsValue[i];\n                    if (currentBid != NFTsAuction[_nftAddress].minBid && currentBid < newMin) {\n                        newMin = currentBid;\n                    }\n                }\n                NFTsAuction[_nftAddress].minBid = newMin;\n            }\n        } else {\n            // send back the money\n            // get new minBid, and index of current minBid\n            uint256 newMin = type(uint256).max;\n            uint256 currentLowestIdx;\n            for (uint i = 0; i < NFTsAuction[_nftAddress].bidsValue.length; i++) {\n                uint256 currentBid = NFTsAuction[_nftAddress].bidsValue[i];\n                if (currentBid == NFTsAuction[_nftAddress].minBid) {\n                    currentLowestIdx = i;\n                }\n\n                if (currentBid != NFTsAuction[_nftAddress].minBid && currentBid < newMin) {\n                    newMin = currentBid;\n                }\n            }\n            if (_bid < newMin) {\n                newMin = _bid;\n            }\n\n            NFTsAuction[_nftAddress].minBid = newMin;\n            // send money back to bidder that had previous min\n\n            payable(NFTsAuction[_nftAddress].bidders[currentLowestIdx]).transfer(NFTsAuction[_nftAddress].bidsValue[currentLowestIdx]);\n            // set new bid\n            NFTsAuction[_nftAddress].bidders[currentLowestIdx] = _bidder;\n            NFTsAuction[_nftAddress].bidsValue[currentLowestIdx] = _bid;\n\n        }\n        NFTsAuction[_nftAddress].countBidMade += 1;\n    }\n\n    function concludeAuction(address _nftAddress, uint[] memory orderToMint) public {\n        require(NFTsAuction[_nftAddress].minBid != 0, \"A contract should exists for this nft\");\n        require(!NFTsAuction[_nftAddress].concluded, \"Auction shouldn't be concluded\");\n        require(NFTsAuction[_nftAddress].maxDate == 0 || NFTsAuction[_nftAddress].maxDate <= block.timestamp,\n            \"Can't conclude before maxDate\");\n        require(owner() == msg.sender || NFTsAuction[_nftAddress].auctionOwner == msg.sender,\n            \"Only contract owner or auction owner can conclude auction\");\n\n        //Order to mint is passe by the client and is responsible of the order to which the NFT are minted.require\n        // it should ensure that the highest bidder get NFT edition \"1\", second highest get \"2\", ...\n        require(NFTsAuction[_nftAddress].bidders.length == orderToMint.length);\n        uint sum = 0;\n        for (uint i = 0; i < orderToMint.length; i++) {\n            sum += 2 ** orderToMint[i];\n        }\n        require(sum == 2 ** orderToMint.length - 1, \"orderToMint should have all number once from 0 to length\");\n\n        uint256 totalBid = 0;\n\n        for (uint i = 0; i < NFTsAuction[_nftAddress].bidders.length; i++) {\n            address bidder = NFTsAuction[_nftAddress].bidders[orderToMint[i]];\n            ThetaboardNFT(_nftAddress).mint(bidder);\n            totalBid += NFTsAuction[_nftAddress].bidsValue[orderToMint[i]];\n        }\n\n        uint artistValue = totalBid / 100 * NFTsAuction[_nftAddress].artistSplit;\n        uint ownerValue = totalBid - artistValue;\n\n        payable(NFTsAuction[_nftAddress].artistWallet).transfer(artistValue);\n        payable(owner()).transfer(ownerValue);\n\n        NFTsAuction[_nftAddress].concluded = true;\n    }\n\n\n    /**\n    * @dev Updates minBid for _nftAddress\n    * @dev Throws if _minBid is zero\n    */\n    function setPrice(address _nftAddress, uint256 _minBid) public onlyOwner {\n        require(NFTsAuction[_nftAddress].minBid != 0, \"A contract should exists for this nft\");\n        require(_minBid > 0);\n        require(NFTsAuction[_nftAddress].bidders.length == 0, \"Can't change price after first bid was made\");\n        NFTsAuction[_nftAddress].minBid = _minBid;\n    }\n\n    /**\n    * @dev Updates maxDate for _nftAddress\n    * @dev Throws if date is in the past\n    */\n    function setMaxDate(address _nftAddress, uint256 _maxDate) public onlyOwner {\n        require(NFTsAuction[_nftAddress].minBid != 0, \"A contract should exists for this nft\");\n        require(_maxDate == 0 || _maxDate > block.timestamp, \"if date is passed, it must higher than current\");\n        NFTsAuction[_nftAddress].maxDate = _maxDate;\n    }\n\n    /**\n    * Get info about currently auction\n    */\n    function getNftAuction(address _nftAddress) public view returns (nftAuction memory) {\n        return NFTsAuction[_nftAddress];\n    }\n\n}",
  "sourcePath": "/Users/maurin.lenglart/IdeaProjects/thetaboard/smart_contracts/contracts/ThetaboardAuctionSellNft.sol",
  "compiler": {
    "name": "solc",
    "version": "0.8.0+commit.c7dfd78e.Emscripten.clang"
  },
  "schemaVersion": "3.4.7",
  "updatedAt": "2022-04-11T22:21:58.624Z",
  "networkType": "ethereum",
  "devdoc": {
    "kind": "dev",
    "methods": {
      "owner()": {
        "details": "Returns the address of the current owner."
      },
      "placeBid(address)": {
        "details": "Add a new pid for an NFTThrows if contract does not exists or if the bid is not higher than minBid"
      },
      "renounceOwnership()": {
        "details": "Leaves the contract without owner. It will not be possible to call `onlyOwner` functions anymore. Can only be called by the current owner. NOTE: Renouncing ownership will leave the contract without an owner, thereby removing any functionality that is only available to the owner."
      },
      "setMaxDate(address,uint256)": {
        "details": "Updates maxDate for _nftAddressThrows if date is in the past"
      },
      "setPrice(address,uint256)": {
        "details": "Updates minBid for _nftAddressThrows if _minBid is zero"
      },
      "transferOwnership(address)": {
        "details": "Transfers ownership of the contract to a new account (`newOwner`). Can only be called by the current owner."
      }
    },
    "title": "nft_sell Auction NFT for thetaboard.io",
    "version": 1
  },
  "userdoc": {
    "kind": "user",
    "methods": {
      "getNftAuction(address)": {
        "notice": "Get info about currently auction"
      }
    },
    "version": 1
  }
}