{
  "contractName": "TNT721",
  "abi": [
    {
      "inputs": [
        {
          "internalType": "string",
          "name": "name",
          "type": "string"
        },
        {
          "internalType": "string",
          "name": "symbol",
          "type": "string"
        }
      ],
      "stateMutability": "nonpayable",
      "type": "constructor"
    },
    {
      "anonymous": false,
      "inputs": [
        {
          "indexed": true,
          "internalType": "address",
          "name": "owner",
          "type": "address"
        },
        {
          "indexed": true,
          "internalType": "address",
          "name": "approved",
          "type": "address"
        },
        {
          "indexed": true,
          "internalType": "uint256",
          "name": "tokenId",
          "type": "uint256"
        }
      ],
      "name": "Approval",
      "type": "event"
    },
    {
      "anonymous": false,
      "inputs": [
        {
          "indexed": true,
          "internalType": "address",
          "name": "owner",
          "type": "address"
        },
        {
          "indexed": true,
          "internalType": "address",
          "name": "operator",
          "type": "address"
        },
        {
          "indexed": false,
          "internalType": "bool",
          "name": "approved",
          "type": "bool"
        }
      ],
      "name": "ApprovalForAll",
      "type": "event"
    },
    {
      "anonymous": false,
      "inputs": [
        {
          "indexed": true,
          "internalType": "address",
          "name": "from",
          "type": "address"
        },
        {
          "indexed": true,
          "internalType": "address",
          "name": "to",
          "type": "address"
        },
        {
          "indexed": true,
          "internalType": "uint256",
          "name": "tokenId",
          "type": "uint256"
        }
      ],
      "name": "Transfer",
      "type": "event"
    },
    {
      "inputs": [
        {
          "internalType": "bytes4",
          "name": "interfaceId",
          "type": "bytes4"
        }
      ],
      "name": "supportsInterface",
      "outputs": [
        {
          "internalType": "bool",
          "name": "",
          "type": "bool"
        }
      ],
      "stateMutability": "view",
      "type": "function"
    },
    {
      "inputs": [
        {
          "internalType": "address",
          "name": "owner",
          "type": "address"
        }
      ],
      "name": "balanceOf",
      "outputs": [
        {
          "internalType": "uint256",
          "name": "",
          "type": "uint256"
        }
      ],
      "stateMutability": "view",
      "type": "function"
    },
    {
      "inputs": [
        {
          "internalType": "uint256",
          "name": "tokenId",
          "type": "uint256"
        }
      ],
      "name": "ownerOf",
      "outputs": [
        {
          "internalType": "address",
          "name": "",
          "type": "address"
        }
      ],
      "stateMutability": "view",
      "type": "function"
    },
    {
      "inputs": [],
      "name": "name",
      "outputs": [
        {
          "internalType": "string",
          "name": "",
          "type": "string"
        }
      ],
      "stateMutability": "view",
      "type": "function"
    },
    {
      "inputs": [],
      "name": "symbol",
      "outputs": [
        {
          "internalType": "string",
          "name": "",
          "type": "string"
        }
      ],
      "stateMutability": "view",
      "type": "function"
    },
    {
      "inputs": [
        {
          "internalType": "uint256",
          "name": "tokenId",
          "type": "uint256"
        }
      ],
      "name": "tokenURI",
      "outputs": [
        {
          "internalType": "string",
          "name": "",
          "type": "string"
        }
      ],
      "stateMutability": "view",
      "type": "function"
    },
    {
      "inputs": [],
      "name": "baseURI",
      "outputs": [
        {
          "internalType": "string",
          "name": "",
          "type": "string"
        }
      ],
      "stateMutability": "view",
      "type": "function"
    },
    {
      "inputs": [
        {
          "internalType": "address",
          "name": "owner",
          "type": "address"
        },
        {
          "internalType": "uint256",
          "name": "index",
          "type": "uint256"
        }
      ],
      "name": "tokenOfOwnerByIndex",
      "outputs": [
        {
          "internalType": "uint256",
          "name": "",
          "type": "uint256"
        }
      ],
      "stateMutability": "view",
      "type": "function"
    },
    {
      "inputs": [],
      "name": "totalSupply",
      "outputs": [
        {
          "internalType": "uint256",
          "name": "",
          "type": "uint256"
        }
      ],
      "stateMutability": "view",
      "type": "function"
    },
    {
      "inputs": [
        {
          "internalType": "uint256",
          "name": "index",
          "type": "uint256"
        }
      ],
      "name": "tokenByIndex",
      "outputs": [
        {
          "internalType": "uint256",
          "name": "",
          "type": "uint256"
        }
      ],
      "stateMutability": "view",
      "type": "function"
    },
    {
      "inputs": [
        {
          "internalType": "address",
          "name": "to",
          "type": "address"
        },
        {
          "internalType": "uint256",
          "name": "tokenId",
          "type": "uint256"
        }
      ],
      "name": "approve",
      "outputs": [],
      "stateMutability": "nonpayable",
      "type": "function"
    },
    {
      "inputs": [
        {
          "internalType": "uint256",
          "name": "tokenId",
          "type": "uint256"
        }
      ],
      "name": "getApproved",
      "outputs": [
        {
          "internalType": "address",
          "name": "",
          "type": "address"
        }
      ],
      "stateMutability": "view",
      "type": "function"
    },
    {
      "inputs": [
        {
          "internalType": "address",
          "name": "operator",
          "type": "address"
        },
        {
          "internalType": "bool",
          "name": "approved",
          "type": "bool"
        }
      ],
      "name": "setApprovalForAll",
      "outputs": [],
      "stateMutability": "nonpayable",
      "type": "function"
    },
    {
      "inputs": [
        {
          "internalType": "address",
          "name": "owner",
          "type": "address"
        },
        {
          "internalType": "address",
          "name": "operator",
          "type": "address"
        }
      ],
      "name": "isApprovedForAll",
      "outputs": [
        {
          "internalType": "bool",
          "name": "",
          "type": "bool"
        }
      ],
      "stateMutability": "view",
      "type": "function"
    },
    {
      "inputs": [
        {
          "internalType": "address",
          "name": "from",
          "type": "address"
        },
        {
          "internalType": "address",
          "name": "to",
          "type": "address"
        },
        {
          "internalType": "uint256",
          "name": "tokenId",
          "type": "uint256"
        }
      ],
      "name": "transferFrom",
      "outputs": [],
      "stateMutability": "nonpayable",
      "type": "function"
    },
    {
      "inputs": [
        {
          "internalType": "address",
          "name": "from",
          "type": "address"
        },
        {
          "internalType": "address",
          "name": "to",
          "type": "address"
        },
        {
          "internalType": "uint256",
          "name": "tokenId",
          "type": "uint256"
        }
      ],
      "name": "safeTransferFrom",
      "outputs": [],
      "stateMutability": "nonpayable",
      "type": "function"
    },
    {
      "inputs": [
        {
          "internalType": "address",
          "name": "from",
          "type": "address"
        },
        {
          "internalType": "address",
          "name": "to",
          "type": "address"
        },
        {
          "internalType": "uint256",
          "name": "tokenId",
          "type": "uint256"
        },
        {
          "internalType": "bytes",
          "name": "_data",
          "type": "bytes"
        }
      ],
      "name": "safeTransferFrom",
      "outputs": [],
      "stateMutability": "nonpayable",
      "type": "function"
    }
  ],
  "bytecode": "0x60806040523480156200001157600080fd5b5060405162002ab638038062002ab6833981810160405260408110156200003757600080fd5b81019080805160405193929190846401000000008211156200005857600080fd5b838201915060208201858111156200006f57600080fd5b82518660018202830111640100000000821117156200008d57600080fd5b8083526020830192505050908051906020019080838360005b83811015620000c3578082015181840152602081019050620000a6565b50505050905090810190601f168015620000f15780820380516001836020036101000a031916815260200191505b50604052602001805160405193929190846401000000008211156200011557600080fd5b838201915060208201858111156200012c57600080fd5b82518660018202830111640100000000821117156200014a57600080fd5b8083526020830192505050908051906020019080838360005b838110156200018057808201518184015260208101905062000163565b50505050905090810190601f168015620001ae5780820380516001836020036101000a031916815260200191505b50604052505050620001cd6301ffc9a760e01b6200024f60201b60201c565b8160069080519060200190620001e592919062000358565b508060079080519060200190620001fe92919062000358565b50620002176380ac58cd60e01b6200024f60201b60201c565b6200022f635b5e139f60e01b6200024f60201b60201c565b6200024763780e9d6360e01b6200024f60201b60201c565b5050620003fe565b63ffffffff60e01b817bffffffffffffffffffffffffffffffffffffffffffffffffffffffff19161415620002ec576040517f08c379a000000000000000000000000000000000000000000000000000000000815260040180806020018281038252601c8152602001807f544e543136353a20696e76616c696420696e746572666163652069640000000081525060200191505060405180910390fd5b6001600080837bffffffffffffffffffffffffffffffffffffffffffffffffffffffff19167bffffffffffffffffffffffffffffffffffffffffffffffffffffffff1916815260200190815260200160002060006101000a81548160ff02191690831515021790555050565b828054600181600116156101000203166002900490600052602060002090601f016020900481019282601f106200039b57805160ff1916838001178555620003cc565b82800160010185558215620003cc579182015b82811115620003cb578251825591602001919060010190620003ae565b5b509050620003db9190620003df565b5090565b5b80821115620003fa576000816000905550600101620003e0565b5090565b6126a8806200040e6000396000f3fe608060405234801561001057600080fd5b506004361061010b5760003560e01c80634f6ccce7116100a257806395d89b411161007157806395d89b411461056d578063a22cb465146105f0578063b88d4fde14610640578063c87b56dd14610745578063e985e9c5146107ec5761010b565b80634f6ccce7146103f85780636352211e1461043a5780636c0360eb1461049257806370a08231146105155761010b565b806318160ddd116100de57806318160ddd1461029c57806323b872dd146102ba5780632f745c591461032857806342842e0e1461038a5761010b565b806301ffc9a71461011057806306fdde0314610173578063081812fc146101f6578063095ea7b31461024e575b600080fd5b61015b6004803603602081101561012657600080fd5b8101908080357bffffffffffffffffffffffffffffffffffffffffffffffffffffffff19169060200190929190505050610866565b60405180821515815260200191505060405180910390f35b61017b6108cd565b6040518080602001828103825283818151815260200191508051906020019080838360005b838110156101bb5780820151818401526020810190506101a0565b50505050905090810190601f1680156101e85780820380516001836020036101000a031916815260200191505b509250505060405180910390f35b6102226004803603602081101561020c57600080fd5b810190808035906020019092919050505061096f565b604051808273ffffffffffffffffffffffffffffffffffffffff16815260200191505060405180910390f35b61029a6004803603604081101561026457600080fd5b81019080803573ffffffffffffffffffffffffffffffffffffffff16906020019092919080359060200190929190505050610a0a565b005b6102a4610b4e565b6040518082815260200191505060405180910390f35b610326600480360360608110156102d057600080fd5b81019080803573ffffffffffffffffffffffffffffffffffffffff169060200190929190803573ffffffffffffffffffffffffffffffffffffffff16906020019092919080359060200190929190505050610b5f565b005b6103746004803603604081101561033e57600080fd5b81019080803573ffffffffffffffffffffffffffffffffffffffff16906020019092919080359060200190929190505050610bd5565b6040518082815260200191505060405180910390f35b6103f6600480360360608110156103a057600080fd5b81019080803573ffffffffffffffffffffffffffffffffffffffff169060200190929190803573ffffffffffffffffffffffffffffffffffffffff16906020019092919080359060200190929190505050610c30565b005b6104246004803603602081101561040e57600080fd5b8101908080359060200190929190505050610c50565b6040518082815260200191505060405180910390f35b6104666004803603602081101561045057600080fd5b8101908080359060200190929190505050610c73565b604051808273ffffffffffffffffffffffffffffffffffffffff16815260200191505060405180910390f35b61049a610caa565b6040518080602001828103825283818151815260200191508051906020019080838360005b838110156104da5780820151818401526020810190506104bf565b50505050905090810190601f1680156105075780820380516001836020036101000a031916815260200191505b509250505060405180910390f35b6105576004803603602081101561052b57600080fd5b81019080803573ffffffffffffffffffffffffffffffffffffffff169060200190929190505050610d4c565b6040518082815260200191505060405180910390f35b610575610e21565b6040518080602001828103825283818151815260200191508051906020019080838360005b838110156105b557808201518184015260208101905061059a565b50505050905090810190601f1680156105e25780820380516001836020036101000a031916815260200191505b509250505060405180910390f35b61063e6004803603604081101561060657600080fd5b81019080803573ffffffffffffffffffffffffffffffffffffffff169060200190929190803515159060200190929190505050610ec3565b005b6107436004803603608081101561065657600080fd5b81019080803573ffffffffffffffffffffffffffffffffffffffff169060200190929190803573ffffffffffffffffffffffffffffffffffffffff16906020019092919080359060200190929190803590602001906401000000008111156106bd57600080fd5b8201836020820111156106cf57600080fd5b803590602001918460018302840111640100000000831117156106f157600080fd5b91908080601f016020809104026020016040519081016040528093929190818152602001838380828437600081840152601f19601f820116905080830192505050505050509192919290505050611079565b005b6107716004803603602081101561075b57600080fd5b81019080803590602001909291905050506110f1565b6040518080602001828103825283818151815260200191508051906020019080838360005b838110156107b1578082015181840152602081019050610796565b50505050905090810190601f1680156107de5780820380516001836020036101000a031916815260200191505b509250505060405180910390f35b61084e6004803603604081101561080257600080fd5b81019080803573ffffffffffffffffffffffffffffffffffffffff169060200190929190803573ffffffffffffffffffffffffffffffffffffffff1690602001909291905050506113da565b60405180821515815260200191505060405180910390f35b6000806000837bffffffffffffffffffffffffffffffffffffffffffffffffffffffff19167bffffffffffffffffffffffffffffffffffffffffffffffffffffffff1916815260200190815260200160002060009054906101000a900460ff169050919050565b606060068054600181600116156101000203166002900480601f0160208091040260200160405190810160405280929190818152602001828054600181600116156101000203166002900480156109655780601f1061093a57610100808354040283529160200191610965565b820191906000526020600020905b81548152906001019060200180831161094857829003601f168201915b5050505050905090565b600061097a8261146e565b6109cf576040517f08c379a000000000000000000000000000000000000000000000000000000000815260040180806020018281038252602c8152602001806125ec602c913960400191505060405180910390fd5b6004600083815260200190815260200160002060009054906101000a900473ffffffffffffffffffffffffffffffffffffffff169050919050565b6000610a1582610c73565b90508073ffffffffffffffffffffffffffffffffffffffff168373ffffffffffffffffffffffffffffffffffffffff161415610a9c576040517f08c379a00000000000000000000000000000000000000000000000000000000081526004018080602001828103825260218152602001806124ec6021913960400191505060405180910390fd5b8073ffffffffffffffffffffffffffffffffffffffff16610abb61148b565b73ffffffffffffffffffffffffffffffffffffffff161480610aea5750610ae981610ae461148b565b6113da565b5b610b3f576040517f08c379a000000000000000000000000000000000000000000000000000000000815260040180806020018281038252603881526020018061253f6038913960400191505060405180910390fd5b610b498383611493565b505050565b6000610b5a600261154c565b905090565b610b70610b6a61148b565b82611561565b610bc5576040517f08c379a00000000000000000000000000000000000000000000000000000000081526004018080602001828103825260318152602001806126426031913960400191505060405180910390fd5b610bd0838383611655565b505050565b6000610c2882600160008673ffffffffffffffffffffffffffffffffffffffff1673ffffffffffffffffffffffffffffffffffffffff16815260200190815260200160002061189890919063ffffffff16565b905092915050565b610c4b83838360405180602001604052806000815250611079565b505050565b600080610c678360026118b290919063ffffffff16565b50905080915050919050565b6000610ca3826040518060600160405280602981526020016124c36029913960026118de9092919063ffffffff16565b9050919050565b606060098054600181600116156101000203166002900480601f016020809104026020016040519081016040528092919081815260200182805460018160011615610100020316600290048015610d425780601f10610d1757610100808354040283529160200191610d42565b820191906000526020600020905b815481529060010190602001808311610d2557829003601f168201915b5050505050905090565b60008073ffffffffffffffffffffffffffffffffffffffff168273ffffffffffffffffffffffffffffffffffffffff161415610dd3576040517f08c379a000000000000000000000000000000000000000000000000000000000815260040180806020018281038252602a815260200180612618602a913960400191505060405180910390fd5b610e1a600160008473ffffffffffffffffffffffffffffffffffffffff1673ffffffffffffffffffffffffffffffffffffffff1681526020019081526020016000206118fd565b9050919050565b606060078054600181600116156101000203166002900480601f016020809104026020016040519081016040528092919081815260200182805460018160011615610100020316600290048015610eb95780601f10610e8e57610100808354040283529160200191610eb9565b820191906000526020600020905b815481529060010190602001808311610e9c57829003601f168201915b5050505050905090565b610ecb61148b565b73ffffffffffffffffffffffffffffffffffffffff168273ffffffffffffffffffffffffffffffffffffffff161415610f6c576040517f08c379a00000000000000000000000000000000000000000000000000000000081526004018080602001828103825260198152602001807f544e543732313a20617070726f766520746f2063616c6c65720000000000000081525060200191505060405180910390fd5b8060056000610f7961148b565b73ffffffffffffffffffffffffffffffffffffffff1673ffffffffffffffffffffffffffffffffffffffff16815260200190815260200160002060008473ffffffffffffffffffffffffffffffffffffffff1673ffffffffffffffffffffffffffffffffffffffff16815260200190815260200160002060006101000a81548160ff0219169083151502179055508173ffffffffffffffffffffffffffffffffffffffff1661102661148b565b73ffffffffffffffffffffffffffffffffffffffff167f17307eab39ab6107e8899845ad3d59bd9653f200f220920489ca2b5937696c318360405180821515815260200191505060405180910390a35050565b61108a61108461148b565b83611561565b6110df576040517f08c379a00000000000000000000000000000000000000000000000000000000081526004018080602001828103825260318152602001806126426031913960400191505060405180910390fd5b6110eb84848484611912565b50505050565b60606110fc8261146e565b611151576040517f08c379a000000000000000000000000000000000000000000000000000000000815260040180806020018281038252602f81526020018061259b602f913960400191505060405180910390fd5b6060600860008481526020019081526020016000208054600181600116156101000203166002900480601f0160208091040260200160405190810160405280929190818152602001828054600181600116156101000203166002900480156111fa5780601f106111cf576101008083540402835291602001916111fa565b820191906000526020600020905b8154815290600101906020018083116111dd57829003601f168201915b5050505050905060006009805460018160011615610100020316600290049050141561122957809150506113d5565b6000815111156113025760098160405160200180838054600181600116156101000203166002900480156112945780601f10611272576101008083540402835291820191611294565b820191906000526020600020905b815481529060010190602001808311611280575b505082805190602001908083835b602083106112c557805182526020820191506020810190506020830392506112a2565b6001836020036101000a038019825116818451168082178552505050505050905001925050506040516020818303038152906040529150506113d5565b600961130d84611984565b604051602001808380546001816001161561010002031660029004801561136b5780601f1061134957610100808354040283529182019161136b565b820191906000526020600020905b815481529060010190602001808311611357575b505082805190602001908083835b6020831061139c5780518252602082019150602081019050602083039250611379565b6001836020036101000a038019825116818451168082178552505050505050905001925050506040516020818303038152906040529150505b919050565b6000600560008473ffffffffffffffffffffffffffffffffffffffff1673ffffffffffffffffffffffffffffffffffffffff16815260200190815260200160002060008373ffffffffffffffffffffffffffffffffffffffff1673ffffffffffffffffffffffffffffffffffffffff16815260200190815260200160002060009054906101000a900460ff16905092915050565b6000611484826002611acb90919063ffffffff16565b9050919050565b600033905090565b816004600083815260200190815260200160002060006101000a81548173ffffffffffffffffffffffffffffffffffffffff021916908373ffffffffffffffffffffffffffffffffffffffff160217905550808273ffffffffffffffffffffffffffffffffffffffff1661150683610c73565b73ffffffffffffffffffffffffffffffffffffffff167f8c5be1e5ebec7d5bd14f71427d1e84f3dd0314c0f7b2291e5b200ac8c7c3b92560405160405180910390a45050565b600061155a82600001611ae5565b9050919050565b600061156c8261146e565b6115c1576040517f08c379a000000000000000000000000000000000000000000000000000000000815260040180806020018281038252602c81526020018061246e602c913960400191505060405180910390fd5b60006115cc83610c73565b90508073ffffffffffffffffffffffffffffffffffffffff168473ffffffffffffffffffffffffffffffffffffffff16148061163b57508373ffffffffffffffffffffffffffffffffffffffff166116238461096f565b73ffffffffffffffffffffffffffffffffffffffff16145b8061164c575061164b81856113da565b5b91505092915050565b8273ffffffffffffffffffffffffffffffffffffffff1661167582610c73565b73ffffffffffffffffffffffffffffffffffffffff16146116e1576040517f08c379a000000000000000000000000000000000000000000000000000000000815260040180806020018281038252602981526020018061249a6029913960400191505060405180910390fd5b600073ffffffffffffffffffffffffffffffffffffffff168273ffffffffffffffffffffffffffffffffffffffff161415611767576040517f08c379a00000000000000000000000000000000000000000000000000000000081526004018080602001828103825260248152602001806125776024913960400191505060405180910390fd5b611772838383611af6565b61177d600082611493565b6117ce81600160008673ffffffffffffffffffffffffffffffffffffffff1673ffffffffffffffffffffffffffffffffffffffff168152602001908152602001600020611afb90919063ffffffff16565b5061182081600160008573ffffffffffffffffffffffffffffffffffffffff1673ffffffffffffffffffffffffffffffffffffffff168152602001908152602001600020611b1590919063ffffffff16565b5061183781836002611b2f9092919063ffffffff16565b50808273ffffffffffffffffffffffffffffffffffffffff168473ffffffffffffffffffffffffffffffffffffffff167fddf252ad1be2c89b69c2b068fc378daa952ba7f163c4a11628f55a4df523b3ef60405160405180910390a4505050565b60006118a78360000183611b64565b60001c905092915050565b6000806000806118c58660000186611be7565b915091508160001c8160001c9350935050509250929050565b60006118f1846000018460001b84611c80565b60001c90509392505050565b600061190b82600001611d76565b9050919050565b61191d848484611655565b61192984848484611d87565b61197e576040517f08c379a000000000000000000000000000000000000000000000000000000000815260040180806020018281038252603281526020018061250d6032913960400191505060405180910390fd5b50505050565b606060008214156119cc576040518060400160405280600181526020017f30000000000000000000000000000000000000000000000000000000000000008152509050611ac6565b600082905060005b600082146119f6578080600101915050600a82816119ee57fe5b0491506119d4565b60608167ffffffffffffffff81118015611a0f57600080fd5b506040519080825280601f01601f191660200182016040528015611a425781602001600182028036833780820191505090505b50905060006001830390508593505b60008414611abe57600a8481611a6357fe5b0660300160f81b82828060019003935081518110611a7d57fe5b60200101907effffffffffffffffffffffffffffffffffffffffffffffffffffffffffffff1916908160001a905350600a8481611ab657fe5b049350611a51565b819450505050505b919050565b6000611add836000018360001b611fa0565b905092915050565b600081600001805490509050919050565b505050565b6000611b0d836000018360001b611fc3565b905092915050565b6000611b27836000018360001b6120ab565b905092915050565b6000611b5b846000018460001b8473ffffffffffffffffffffffffffffffffffffffff1660001b61211b565b90509392505050565b600081836000018054905011611bc5576040517f08c379a000000000000000000000000000000000000000000000000000000000815260040180806020018281038252602281526020018061244c6022913960400191505060405180910390fd5b826000018281548110611bd457fe5b9060005260206000200154905092915050565b60008082846000018054905011611c49576040517f08c379a00000000000000000000000000000000000000000000000000000000081526004018080602001828103825260228152602001806125ca6022913960400191505060405180910390fd5b6000846000018481548110611c5a57fe5b906000526020600020906002020190508060000154816001015492509250509250929050565b60008084600101600085815260200190815260200160002054905060008114158390611d47576040517f08c379a00000000000000000000000000000000000000000000000000000000081526004018080602001828103825283818151815260200191508051906020019080838360005b83811015611d0c578082015181840152602081019050611cf1565b50505050905090810190601f168015611d395780820380516001836020036101000a031916815260200191505b509250505060405180910390fd5b50846000016001820381548110611d5a57fe5b9060005260206000209060020201600101549150509392505050565b600081600001805490509050919050565b6000611da88473ffffffffffffffffffffffffffffffffffffffff166121f7565b611db55760019050611f98565b6060611f1f63df20cc6d60e01b611dca61148b565b888787604051602401808573ffffffffffffffffffffffffffffffffffffffff1681526020018473ffffffffffffffffffffffffffffffffffffffff16815260200183815260200180602001828103825283818151815260200191508051906020019080838360005b83811015611e4e578082015181840152602081019050611e33565b50505050905090810190601f168015611e7b5780820380516001836020036101000a031916815260200191505b5095505050505050604051602081830303815290604052907bffffffffffffffffffffffffffffffffffffffffffffffffffffffff19166020820180517bffffffffffffffffffffffffffffffffffffffffffffffffffffffff838183161783525050505060405180606001604052806032815260200161250d603291398773ffffffffffffffffffffffffffffffffffffffff1661220a9092919063ffffffff16565b90506000818060200190516020811015611f3857600080fd5b8101908080519060200190929190505050905063150b7a0260e01b7bffffffffffffffffffffffffffffffffffffffffffffffffffffffff1916817bffffffffffffffffffffffffffffffffffffffffffffffffffffffff191614925050505b949350505050565b600080836001016000848152602001908152602001600020541415905092915050565b6000808360010160008481526020019081526020016000205490506000811461209f576000600182039050600060018660000180549050039050600086600001828154811061200e57fe5b906000526020600020015490508087600001848154811061202b57fe5b906000526020600020018190555060018301876001016000838152602001908152602001600020819055508660000180548061206357fe5b600190038181906000526020600020016000905590558660010160008781526020019081526020016000206000905560019450505050506120a5565b60009150505b92915050565b60006120b78383612222565b612110578260000182908060018154018082558091505060019003906000526020600020016000909190919091505582600001805490508360010160008481526020019081526020016000208190555060019050612115565b600090505b92915050565b60008084600101600085815260200190815260200160002054905060008114156121c2578460000160405180604001604052808681526020018581525090806001815401808255809150506001900390600052602060002090600202016000909190919091506000820151816000015560208201518160010155505084600001805490508560010160008681526020019081526020016000208190555060019150506121f0565b828560000160018303815481106121d557fe5b90600052602060002090600202016001018190555060009150505b9392505050565b600080823b905060008111915050919050565b60606122198484600085612245565b90509392505050565b600080836001016000848152602001908152602001600020541415905092915050565b6060612250856121f7565b6122c2576040517f08c379a000000000000000000000000000000000000000000000000000000000815260040180806020018281038252601d8152602001807f416464726573733a2063616c6c20746f206e6f6e2d636f6e747261637400000081525060200191505060405180910390fd5b600060608673ffffffffffffffffffffffffffffffffffffffff1685876040518082805190602001908083835b6020831061231257805182526020820191506020810190506020830392506122ef565b6001836020036101000a03801982511681845116808217855250505050505090500191505060006040518083038185875af1925050503d8060008114612374576040519150601f19603f3d011682016040523d82523d6000602084013e612379565b606091505b5091509150811561238e578092505050612443565b6000815111156123a15780518082602001fd5b836040517f08c379a00000000000000000000000000000000000000000000000000000000081526004018080602001828103825283818151815260200191508051906020019080838360005b838110156124085780820151818401526020810190506123ed565b50505050905090810190601f1680156124355780820380516001836020036101000a031916815260200191505b509250505060405180910390fd5b94935050505056fe456e756d657261626c655365743a20696e646578206f7574206f6620626f756e6473544e543732313a206f70657261746f7220717565727920666f72206e6f6e6578697374656e7420746f6b656e544e543732313a207472616e73666572206f6620746f6b656e2074686174206973206e6f74206f776e544e543732313a206f776e657220717565727920666f72206e6f6e6578697374656e7420746f6b656e544e543732313a20617070726f76616c20746f2063757272656e74206f776e6572544e543732313a207472616e7366657220746f206e6f6e20544e54373231526563656976657220696d706c656d656e746572544e543732313a20617070726f76652063616c6c6572206973206e6f74206f776e6572206e6f7220617070726f76656420666f7220616c6c544e543732313a207472616e7366657220746f20746865207a65726f2061646472657373544e543732314d657461646174613a2055524920717565727920666f72206e6f6e6578697374656e7420746f6b656e456e756d657261626c654d61703a20696e646578206f7574206f6620626f756e6473544e543732313a20617070726f76656420717565727920666f72206e6f6e6578697374656e7420746f6b656e544e543732313a2062616c616e636520717565727920666f7220746865207a65726f2061646472657373544e543732313a207472616e736665722063616c6c6572206973206e6f74206f776e6572206e6f7220617070726f766564a26469706673582212200027bd84e13f1f555147db16c4a7099a7b4c275afd3382aefb42085de6d8f7e264736f6c634300060c0033",
  "immutableReferences": {},
  "source": "// SPDX-License-Identifier: MIT\n//\n// TNT-721 Non-Fungible Token implementation based on the OpenZeppelin Lib\n//\n\npragma solidity ^0.6.2;\n\nabstract contract Context {\n  function _msgSender() internal view virtual returns (address payable) {\n    return msg.sender;\n  }\n\n  function _msgData() internal view virtual returns (bytes memory) {\n    this; // silence state mutability warning without generating bytecode - see https://github.com/ethereum/solidity/issues/2691\n    return msg.data;\n  }\n}\n\nlibrary SafeMath {\n  function add(uint256 a, uint256 b) internal pure returns (uint256) {\n    uint256 c = a + b;\n    require(c >= a, \"SafeMath: addition overflow\");\n\n    return c;\n  }\n\n  function sub(uint256 a, uint256 b) internal pure returns (uint256) {\n    return sub(a, b, \"SafeMath: subtraction overflow\");\n  }\n\n  function sub(uint256 a, uint256 b, string memory errorMessage) internal pure returns (uint256) {\n    require(b <= a, errorMessage);\n    uint256 c = a - b;\n\n    return c;\n  }\n\n  function mul(uint256 a, uint256 b) internal pure returns (uint256) {\n    // Gas optimization: this is cheaper than requiring 'a' not being zero, but the\n    // benefit is lost if 'b' is also tested.\n    // See: https://github.com/OpenZeppelin/openzeppelin-contracts/pull/522\n    if (a == 0) {\n      return 0;\n    }\n\n    uint256 c = a * b;\n    require(c / a == b, \"SafeMath: multiplication overflow\");\n\n    return c;\n  }\n\n  function div(uint256 a, uint256 b) internal pure returns (uint256) {\n    return div(a, b, \"SafeMath: division by zero\");\n  }\n\n  function div(uint256 a, uint256 b, string memory errorMessage) internal pure returns (uint256) {\n    require(b > 0, errorMessage);\n    uint256 c = a / b;\n    // assert(a == b * c + a % b); // There is no case in which this doesn't hold\n\n    return c;\n  }\n\n  function mod(uint256 a, uint256 b) internal pure returns (uint256) {\n    return mod(a, b, \"SafeMath: modulo by zero\");\n  }\n\n  function mod(uint256 a, uint256 b, string memory errorMessage) internal pure returns (uint256) {\n    require(b != 0, errorMessage);\n    return a % b;\n  }\n}\n\nlibrary Address {\n\n  function isContract(address account) internal view returns (bool) {\n    // This method relies on extcodesize, which returns 0 for contracts in\n    // construction, since the code is only stored at the end of the\n    // constructor execution.\n\n    uint256 size;\n    // solhint-disable-next-line no-inline-assembly\n    assembly { size := extcodesize(account) }\n    return size > 0;\n  }\n\n  function sendValue(address payable recipient, uint256 amount) internal {\n    require(address(this).balance >= amount, \"Address: insufficient balance\");\n\n    // solhint-disable-next-line avoid-low-level-calls, avoid-call-value\n    (bool success, ) = recipient.call{ value: amount }(\"\");\n    require(success, \"Address: unable to send value, recipient may have reverted\");\n  }\n\n  function functionCall(address target, bytes memory data) internal returns (bytes memory) {\n    return functionCall(target, data, \"Address: low-level call failed\");\n  }\n\n  function functionCall(address target, bytes memory data, string memory errorMessage) internal returns (bytes memory) {\n    return _functionCallWithValue(target, data, 0, errorMessage);\n  }\n\n  function functionCallWithValue(address target, bytes memory data, uint256 value) internal returns (bytes memory) {\n    return functionCallWithValue(target, data, value, \"Address: low-level call with value failed\");\n  }\n\n  function functionCallWithValue(address target, bytes memory data, uint256 value, string memory errorMessage) internal returns (bytes memory) {\n    require(address(this).balance >= value, \"Address: insufficient balance for call\");\n    return _functionCallWithValue(target, data, value, errorMessage);\n  }\n\n  function _functionCallWithValue(address target, bytes memory data, uint256 weiValue, string memory errorMessage) private returns (bytes memory) {\n    require(isContract(target), \"Address: call to non-contract\");\n\n    // solhint-disable-next-line avoid-low-level-calls\n    (bool success, bytes memory returndata) = target.call{ value: weiValue }(data);\n    if (success) {\n      return returndata;\n    } else {\n      // Look for revert reason and bubble it up if present\n      if (returndata.length > 0) {\n        // The easiest way to bubble the revert reason is using memory via assembly\n\n        // solhint-disable-next-line no-inline-assembly\n        assembly {\n          let returndata_size := mload(returndata)\n          revert(add(32, returndata), returndata_size)\n        }\n      } else {\n        revert(errorMessage);\n      }\n    }\n  }\n}\n\nlibrary EnumerableSet {\n\n  struct Set {\n    // Storage of set values\n    bytes32[] _values;\n\n    // Position of the value in the `values` array, plus 1 because index 0\n    // means a value is not in the set.\n    mapping (bytes32 => uint256) _indexes;\n  }\n\n  function _add(Set storage set, bytes32 value) private returns (bool) {\n    if (!_contains(set, value)) {\n      set._values.push(value);\n      // The value is stored at length-1, but we add 1 to all indexes\n      // and use 0 as a sentinel value\n      set._indexes[value] = set._values.length;\n      return true;\n    } else {\n      return false;\n    }\n  }\n\n  function _remove(Set storage set, bytes32 value) private returns (bool) {\n    // We read and store the value's index to prevent multiple reads from the same storage slot\n    uint256 valueIndex = set._indexes[value];\n\n    if (valueIndex != 0) { // Equivalent to contains(set, value)\n      // To delete an element from the _values array in O(1), we swap the element to delete with the last one in\n      // the array, and then remove the last element (sometimes called as 'swap and pop').\n      // This modifies the order of the array, as noted in {at}.\n\n      uint256 toDeleteIndex = valueIndex - 1;\n      uint256 lastIndex = set._values.length - 1;\n\n      // When the value to delete is the last one, the swap operation is unnecessary. However, since this occurs\n      // so rarely, we still do the swap anyway to avoid the gas cost of adding an 'if' statement.\n\n      bytes32 lastvalue = set._values[lastIndex];\n\n      // Move the last value to the index where the value to delete is\n      set._values[toDeleteIndex] = lastvalue;\n      // Update the index for the moved value\n      set._indexes[lastvalue] = toDeleteIndex + 1; // All indexes are 1-based\n\n      // Delete the slot where the moved value was stored\n      set._values.pop();\n\n      // Delete the index for the deleted slot\n      delete set._indexes[value];\n\n      return true;\n    } else {\n      return false;\n    }\n  }\n\n  function _contains(Set storage set, bytes32 value) private view returns (bool) {\n    return set._indexes[value] != 0;\n  }\n\n  function _length(Set storage set) private view returns (uint256) {\n    return set._values.length;\n  }\n\n  function _at(Set storage set, uint256 index) private view returns (bytes32) {\n    require(set._values.length > index, \"EnumerableSet: index out of bounds\");\n    return set._values[index];\n  }\n\n  struct AddressSet {\n    Set _inner;\n  }\n\n  function add(AddressSet storage set, address value) internal returns (bool) {\n    return _add(set._inner, bytes32(uint256(value)));\n  }\n\n  function remove(AddressSet storage set, address value) internal returns (bool) {\n    return _remove(set._inner, bytes32(uint256(value)));\n  }\n\n  function contains(AddressSet storage set, address value) internal view returns (bool) {\n    return _contains(set._inner, bytes32(uint256(value)));\n  }\n\n  function length(AddressSet storage set) internal view returns (uint256) {\n    return _length(set._inner);\n  }\n\n  function at(AddressSet storage set, uint256 index) internal view returns (address) {\n    return address(uint256(_at(set._inner, index)));\n  }\n\n  struct UintSet {\n    Set _inner;\n  }\n\n  function add(UintSet storage set, uint256 value) internal returns (bool) {\n    return _add(set._inner, bytes32(value));\n  }\n\n  function remove(UintSet storage set, uint256 value) internal returns (bool) {\n    return _remove(set._inner, bytes32(value));\n  }\n\n  function contains(UintSet storage set, uint256 value) internal view returns (bool) {\n    return _contains(set._inner, bytes32(value));\n  }\n\n  function length(UintSet storage set) internal view returns (uint256) {\n    return _length(set._inner);\n  }\n\n  function at(UintSet storage set, uint256 index) internal view returns (uint256) {\n    return uint256(_at(set._inner, index));\n  }\n}\n\nlibrary EnumerableMap {\n\n  struct MapEntry {\n    bytes32 _key;\n    bytes32 _value;\n  }\n\n  struct Map {\n    // Storage of map keys and values\n    MapEntry[] _entries;\n\n    // Position of the entry defined by a key in the `entries` array, plus 1\n    // because index 0 means a key is not in the map.\n    mapping (bytes32 => uint256) _indexes;\n  }\n\n  function _set(Map storage map, bytes32 key, bytes32 value) private returns (bool) {\n    // We read and store the key's index to prevent multiple reads from the same storage slot\n    uint256 keyIndex = map._indexes[key];\n\n    if (keyIndex == 0) { // Equivalent to !contains(map, key)\n      map._entries.push(MapEntry({ _key: key, _value: value }));\n      // The entry is stored at length-1, but we add 1 to all indexes\n      // and use 0 as a sentinel value\n      map._indexes[key] = map._entries.length;\n      return true;\n    } else {\n      map._entries[keyIndex - 1]._value = value;\n      return false;\n    }\n  }\n\n  function _remove(Map storage map, bytes32 key) private returns (bool) {\n    // We read and store the key's index to prevent multiple reads from the same storage slot\n    uint256 keyIndex = map._indexes[key];\n\n    if (keyIndex != 0) { // Equivalent to contains(map, key)\n      // To delete a key-value pair from the _entries array in O(1), we swap the entry to delete with the last one\n      // in the array, and then remove the last entry (sometimes called as 'swap and pop').\n      // This modifies the order of the array, as noted in {at}.\n\n      uint256 toDeleteIndex = keyIndex - 1;\n      uint256 lastIndex = map._entries.length - 1;\n\n      // When the entry to delete is the last one, the swap operation is unnecessary. However, since this occurs\n      // so rarely, we still do the swap anyway to avoid the gas cost of adding an 'if' statement.\n\n      MapEntry storage lastEntry = map._entries[lastIndex];\n\n      // Move the last entry to the index where the entry to delete is\n      map._entries[toDeleteIndex] = lastEntry;\n      // Update the index for the moved entry\n      map._indexes[lastEntry._key] = toDeleteIndex + 1; // All indexes are 1-based\n\n      // Delete the slot where the moved entry was stored\n      map._entries.pop();\n\n      // Delete the index for the deleted slot\n      delete map._indexes[key];\n\n      return true;\n    } else {\n      return false;\n    }\n  }\n\n  function _contains(Map storage map, bytes32 key) private view returns (bool) {\n    return map._indexes[key] != 0;\n  }\n\n  function _length(Map storage map) private view returns (uint256) {\n    return map._entries.length;\n  }\n\n  function _at(Map storage map, uint256 index) private view returns (bytes32, bytes32) {\n    require(map._entries.length > index, \"EnumerableMap: index out of bounds\");\n\n    MapEntry storage entry = map._entries[index];\n    return (entry._key, entry._value);\n  }\n\n  function _get(Map storage map, bytes32 key) private view returns (bytes32) {\n    return _get(map, key, \"EnumerableMap: nonexistent key\");\n  }\n\n  function _get(Map storage map, bytes32 key, string memory errorMessage) private view returns (bytes32) {\n    uint256 keyIndex = map._indexes[key];\n    require(keyIndex != 0, errorMessage); // Equivalent to contains(map, key)\n    return map._entries[keyIndex - 1]._value; // All indexes are 1-based\n  }\n\n  struct UintToAddressMap {\n    Map _inner;\n  }\n\n  function set(UintToAddressMap storage map, uint256 key, address value) internal returns (bool) {\n    return _set(map._inner, bytes32(key), bytes32(uint256(value)));\n  }\n\n  function remove(UintToAddressMap storage map, uint256 key) internal returns (bool) {\n    return _remove(map._inner, bytes32(key));\n  }\n\n  function contains(UintToAddressMap storage map, uint256 key) internal view returns (bool) {\n    return _contains(map._inner, bytes32(key));\n  }\n\n  function length(UintToAddressMap storage map) internal view returns (uint256) {\n    return _length(map._inner);\n  }\n\n  function at(UintToAddressMap storage map, uint256 index) internal view returns (uint256, address) {\n    (bytes32 key, bytes32 value) = _at(map._inner, index);\n    return (uint256(key), address(uint256(value)));\n  }\n\n  function get(UintToAddressMap storage map, uint256 key) internal view returns (address) {\n    return address(uint256(_get(map._inner, bytes32(key))));\n  }\n\n  function get(UintToAddressMap storage map, uint256 key, string memory errorMessage) internal view returns (address) {\n    return address(uint256(_get(map._inner, bytes32(key), errorMessage)));\n  }\n}\n\nlibrary Strings {\n\n  function toString(uint256 value) internal pure returns (string memory) {\n    // Inspired by OraclizeAPI's implementation - MIT licence\n    // https://github.com/oraclize/ethereum-api/blob/b42146b063c7d6ee1358846c198246239e9360e8/oraclizeAPI_0.4.25.sol\n\n    if (value == 0) {\n      return \"0\";\n    }\n    uint256 temp = value;\n    uint256 digits;\n    while (temp != 0) {\n      digits++;\n      temp /= 10;\n    }\n    bytes memory buffer = new bytes(digits);\n    uint256 index = digits - 1;\n    temp = value;\n    while (temp != 0) {\n      buffer[index--] = byte(uint8(48 + temp % 10));\n      temp /= 10;\n    }\n    return string(buffer);\n  }\n}\n\ninterface ITNT165 {\n  function supportsInterface(bytes4 interfaceId) external view returns (bool);\n}\n\ninterface ITNT721 is ITNT165 {\n  event Transfer(address indexed from, address indexed to, uint256 indexed tokenId);\n  event Approval(address indexed owner, address indexed approved, uint256 indexed tokenId);\n  event ApprovalForAll(address indexed owner, address indexed operator, bool approved);\n  function balanceOf(address owner) external view returns (uint256 balance);\n  function ownerOf(uint256 tokenId) external view returns (address owner);\n  function safeTransferFrom(address from, address to, uint256 tokenId) external;\n  function transferFrom(address from, address to, uint256 tokenId) external;\n  function approve(address to, uint256 tokenId) external;\n  function getApproved(uint256 tokenId) external view returns (address operator);\n  function setApprovalForAll(address operator, bool _approved) external;\n  function isApprovedForAll(address owner, address operator) external view returns (bool);\n  function safeTransferFrom(address from, address to, uint256 tokenId, bytes calldata data) external;\n}\n\ninterface ITNT721Metadata is ITNT721 {\n  function name() external view returns (string memory);\n  function symbol() external view returns (string memory);\n  function tokenURI(uint256 tokenId) external view returns (string memory);\n}\n\ninterface ITNT721Enumerable is ITNT721 {\n  function totalSupply() external view returns (uint256);\n  function tokenOfOwnerByIndex(address owner, uint256 index) external view returns (uint256 tokenId);\n  function tokenByIndex(uint256 index) external view returns (uint256);\n}\n\ninterface ITNT721Receiver {\n  function onTNT721Received(address operator, address from, uint256 tokenId, bytes calldata data)\n  external returns (bytes4);\n}\n\ncontract TNT165 is ITNT165 {\n\n  bytes4 private constant _INTERFACE_ID_TNT165 = 0x01ffc9a7;\n\n  mapping(bytes4 => bool) private _supportedInterfaces;\n\n  constructor () internal {\n    _registerInterface(_INTERFACE_ID_TNT165);\n  }\n\n  function supportsInterface(bytes4 interfaceId) public view override returns (bool) {\n    return _supportedInterfaces[interfaceId];\n  }\n\n  function _registerInterface(bytes4 interfaceId) internal virtual {\n    require(interfaceId != 0xffffffff, \"TNT165: invalid interface id\");\n    _supportedInterfaces[interfaceId] = true;\n  }\n}\n\n// TNT stands for \"Theta Network Token\", TNT-721 is the non-fungible token\n// standard on the Theta network, similar to the ERC-721 standard on Ethereum\ncontract TNT721 is Context, TNT165, ITNT721, ITNT721Metadata, ITNT721Enumerable {\n  using SafeMath for uint256;\n  using Address for address;\n  using EnumerableSet for EnumerableSet.UintSet;\n  using EnumerableMap for EnumerableMap.UintToAddressMap;\n  using Strings for uint256;\n  bytes4 private constant _TNT721_RECEIVED = 0x150b7a02;\n  mapping (address => EnumerableSet.UintSet) private _holderTokens;\n  EnumerableMap.UintToAddressMap private _tokenOwners;\n  mapping (uint256 => address) private _tokenApprovals;\n  mapping (address => mapping (address => bool)) private _operatorApprovals;\n  string private _name;\n  string private _symbol;\n  mapping (uint256 => string) private _tokenURIs;\n  string private _baseURI;\n  bytes4 private constant _INTERFACE_ID_TNT721 = 0x80ac58cd;\n  bytes4 private constant _INTERFACE_ID_TNT721_METADATA = 0x5b5e139f;\n  bytes4 private constant _INTERFACE_ID_TNT721_ENUMERABLE = 0x780e9d63;\n\n  constructor (string memory name, string memory symbol) public {\n    _name = name;\n    _symbol = symbol;\n    _registerInterface(_INTERFACE_ID_TNT721);\n    _registerInterface(_INTERFACE_ID_TNT721_METADATA);\n    _registerInterface(_INTERFACE_ID_TNT721_ENUMERABLE);\n  }\n\n  function balanceOf(address owner) public view override returns (uint256) {\n    require(owner != address(0), \"TNT721: balance query for the zero address\");\n\n    return _holderTokens[owner].length();\n  }\n\n  function ownerOf(uint256 tokenId) public view override returns (address) {\n    return _tokenOwners.get(tokenId, \"TNT721: owner query for nonexistent token\");\n  }\n\n  function name() public view override returns (string memory) {\n    return _name;\n  }\n\n  function symbol() public view override returns (string memory) {\n    return _symbol;\n  }\n\n  function tokenURI(uint256 tokenId) public view override returns (string memory) {\n    require(_exists(tokenId), \"TNT721Metadata: URI query for nonexistent token\");\n\n    string memory _tokenURI = _tokenURIs[tokenId];\n\n    // If there is no base URI, return the token URI.\n    if (bytes(_baseURI).length == 0) {\n      return _tokenURI;\n    }\n    // If both are set, concatenate the baseURI and tokenURI (via abi.encodePacked).\n    if (bytes(_tokenURI).length > 0) {\n      return string(abi.encodePacked(_baseURI, _tokenURI));\n    }\n    // If there is a baseURI but no tokenURI, concatenate the tokenID to the baseURI.\n    return string(abi.encodePacked(_baseURI, tokenId.toString()));\n  }\n\n  function baseURI() public view returns (string memory) {\n    return _baseURI;\n  }\n\n  function tokenOfOwnerByIndex(address owner, uint256 index) public view override returns (uint256) {\n    return _holderTokens[owner].at(index);\n  }\n\n  function totalSupply() public view override returns (uint256) {\n    // _tokenOwners are indexed by tokenIds, so .length() returns the number of tokenIds\n    return _tokenOwners.length();\n  }\n\n  function tokenByIndex(uint256 index) public view override returns (uint256) {\n    (uint256 tokenId, ) = _tokenOwners.at(index);\n    return tokenId;\n  }\n\n  function approve(address to, uint256 tokenId) public virtual override {\n    address owner = ownerOf(tokenId);\n    require(to != owner, \"TNT721: approval to current owner\");\n\n    require(_msgSender() == owner || isApprovedForAll(owner, _msgSender()),\n      \"TNT721: approve caller is not owner nor approved for all\"\n    );\n\n    _approve(to, tokenId);\n  }\n\n  function getApproved(uint256 tokenId) public view override returns (address) {\n    require(_exists(tokenId), \"TNT721: approved query for nonexistent token\");\n\n    return _tokenApprovals[tokenId];\n  }\n\n  function setApprovalForAll(address operator, bool approved) public virtual override {\n    require(operator != _msgSender(), \"TNT721: approve to caller\");\n\n    _operatorApprovals[_msgSender()][operator] = approved;\n    emit ApprovalForAll(_msgSender(), operator, approved);\n  }\n\n  function isApprovedForAll(address owner, address operator) public view override returns (bool) {\n    return _operatorApprovals[owner][operator];\n  }\n\n  function transferFrom(address from, address to, uint256 tokenId) public virtual override {\n    //solhint-disable-next-line max-line-length\n    require(_isApprovedOrOwner(_msgSender(), tokenId), \"TNT721: transfer caller is not owner nor approved\");\n\n    _transfer(from, to, tokenId);\n  }\n\n  function safeTransferFrom(address from, address to, uint256 tokenId) public virtual override {\n    safeTransferFrom(from, to, tokenId, \"\");\n  }\n\n  function safeTransferFrom(address from, address to, uint256 tokenId, bytes memory _data) public virtual override {\n    require(_isApprovedOrOwner(_msgSender(), tokenId), \"TNT721: transfer caller is not owner nor approved\");\n    _safeTransfer(from, to, tokenId, _data);\n  }\n\n  function _safeTransfer(address from, address to, uint256 tokenId, bytes memory _data) internal virtual {\n    _transfer(from, to, tokenId);\n    require(_checkOnTNT721Received(from, to, tokenId, _data), \"TNT721: transfer to non TNT721Receiver implementer\");\n  }\n\n  function _exists(uint256 tokenId) internal view returns (bool) {\n    return _tokenOwners.contains(tokenId);\n  }\n\n  function _isApprovedOrOwner(address spender, uint256 tokenId) internal view returns (bool) {\n    require(_exists(tokenId), \"TNT721: operator query for nonexistent token\");\n    address owner = ownerOf(tokenId);\n    return (spender == owner || getApproved(tokenId) == spender || isApprovedForAll(owner, spender));\n  }\n\n  function _safeMint(address to, uint256 tokenId) internal virtual {\n    _safeMint(to, tokenId, \"\");\n  }\n\n  function _safeMint(address to, uint256 tokenId, bytes memory _data) internal virtual {\n    _mint(to, tokenId);\n    require(_checkOnTNT721Received(address(0), to, tokenId, _data), \"TNT721: transfer to non TNT721Receiver implementer\");\n  }\n\n  function _mint(address to, uint256 tokenId) internal virtual {\n    require(to != address(0), \"TNT721: mint to the zero address\");\n    require(!_exists(tokenId), \"TNT721: token already minted\");\n\n    _beforeTokenTransfer(address(0), to, tokenId);\n\n    _holderTokens[to].add(tokenId);\n\n    _tokenOwners.set(tokenId, to);\n\n    emit Transfer(address(0), to, tokenId);\n  }\n\n  function _burn(uint256 tokenId) internal virtual {\n    address owner = ownerOf(tokenId);\n\n    _beforeTokenTransfer(owner, address(0), tokenId);\n\n    // Clear approvals\n    _approve(address(0), tokenId);\n\n    // Clear metadata (if any)\n    if (bytes(_tokenURIs[tokenId]).length != 0) {\n      delete _tokenURIs[tokenId];\n    }\n\n    _holderTokens[owner].remove(tokenId);\n\n    _tokenOwners.remove(tokenId);\n\n    emit Transfer(owner, address(0), tokenId);\n  }\n\n  function _transfer(address from, address to, uint256 tokenId) internal virtual {\n    require(ownerOf(tokenId) == from, \"TNT721: transfer of token that is not own\");\n    require(to != address(0), \"TNT721: transfer to the zero address\");\n\n    _beforeTokenTransfer(from, to, tokenId);\n\n    // Clear approvals from the previous owner\n    _approve(address(0), tokenId);\n\n    _holderTokens[from].remove(tokenId);\n    _holderTokens[to].add(tokenId);\n\n    _tokenOwners.set(tokenId, to);\n\n    emit Transfer(from, to, tokenId);\n  }\n\n  function _setTokenURI(uint256 tokenId, string memory _tokenURI) internal virtual {\n    require(_exists(tokenId), \"TNT721Metadata: URI set of nonexistent token\");\n    _tokenURIs[tokenId] = _tokenURI;\n  }\n\n  function _setBaseURI(string memory baseURI_) internal virtual {\n    _baseURI = baseURI_;\n  }\n\n  function _checkOnTNT721Received(address from, address to, uint256 tokenId, bytes memory _data)\n  private returns (bool)\n  {\n    if (!to.isContract()) {\n      return true;\n    }\n    bytes memory returndata = to.functionCall(abi.encodeWithSelector(\n        ITNT721Receiver(to).onTNT721Received.selector,\n        _msgSender(),\n        from,\n        tokenId,\n        _data\n      ), \"TNT721: transfer to non TNT721Receiver implementer\");\n    bytes4 retval = abi.decode(returndata, (bytes4));\n    return (retval == _TNT721_RECEIVED);\n  }\n\n  function _approve(address to, uint256 tokenId) private {\n    _tokenApprovals[tokenId] = to;\n    emit Approval(ownerOf(tokenId), to, tokenId);\n  }\n\n  function _beforeTokenTransfer(address from, address to, uint256 tokenId) internal virtual { }\n}\n\ncontract ThetaboardNFT is TNT721 {\n  constructor (string memory name, string memory symbol, string memory uri) public TNT721(name, symbol) {\n    uint mintIndex = totalSupply();\n    _safeMint(msg.sender, mintIndex);\n    _setTokenURI(mintIndex, uri);\n  }\n}",
  "sourcePath": "/Users/maurinlenglart/IdeaProjects/thetaboard-org/nifties/contracts/ThetaboardNFTContract.sol",
  "compiler": {
    "name": "solc",
    "version": "0.6.12+commit.27d51765.Emscripten.clang"
  },
  "schemaVersion": "3.3.4",
  "updatedAt": "2021-09-07T23:16:54.793Z",
  "devdoc": {
    "kind": "dev",
    "methods": {},
    "version": 1
  },
  "userdoc": {
    "kind": "user",
    "methods": {},
    "version": 1
  }
}